:020000040C00EE
:100000000088FE1F010200089902000899020008FA
:1000100099020008990200089902000800000000F7
:10002000000000000000000000000000990200082D
:1000300099020008000000009902000899020008D7
:100040009902000899020008990200089902000824
:100050009902000899020008990200089902000814
:1000600099020008000000000000000000000000ED
:100070009902000800000000990200089902000897
:1000800099020008990200089902000899020008E4
:1000900099020008990200089902000899020008D4
:1000A00099020008990200089902000899020008C4
:1000B00099020008990200089902000899020008B4
:1000C00099020008990200089902000899020008A4
:1000D0009902000899020008990200089902000894
:1000E0009902000899020008990200089902000884
:1000F0009902000899020008990200089902000874
:100100009902000899020008990200089902000863
:100110009902000899020008990200089902000853
:100120009902000899020008990200089902000843
:100130009902000899020008990200089902000833
:100140009902000899020008990200089902000823
:100150009902000899020008990200089902000813
:10016000000000000000000000000000000000008F
:1001700099020008990200089902000899020008F3
:1001800099020008990200089902000899020008E3
:1001900099020008990200089902000899020008D3
:1001A00099020008990200089902000899020008C3
:1001B00099020008990200089902000899020008B3
:1001C00099020008990200089902000899020008A3
:1001D0009902000899020008990200080000000036
:1001E0009902000899020008990200089902000883
:1001F0009902000899020008990200080000000016
:10020000DFF874D01D4880471D4C1E4DAC4209DA02
:1002100021686268A368043BA2BFC858D050FAE7BF
:100220000C34F3E7184B194CA34208DA19685A68E2
:100230000020043AA4BF8850FBE70833F4E71448D1
:100240008047144880470000001E000C0088FE1FF5
:100250000C000000001E000C0088FE1F00000000C3
:100260000C88FE1F2000000000000020000000009D
:1002700000000020000000000088FE1F9D02000812
:1002800048020008600200086002000878020008C6
:10029000491D0008E91C0008FEE7000098B500AF02
:1002A000054A4FF0005314460FCB84E80F0000F0CE
:1002B00005F801F0CBFC98BDC4FF032080B483B0E7
:1002C00000AF72B6164B174A9A60BFF34F8F62B6F3
:1002D000134A134BD3F8883043F47003C2F88830C4
:1002E0000F4A0F4B5B6923F0080353610E4B03F574
:1002F000805314331B687B607B6823F00F037B60A3
:100300007B6843F004037B60074B03F58053143391
:100310007A681A600C37BD465DF8047B704700BFF1
:1003200000ED00E0000000080010005880B584B027
:1003300000AF2F4BDB6803F48033002B3ED02D4BF6
:10034000DB6803F00103002B02D02B4BFB6002E0C3
:1003500001F05EFCF860274B1B6803F00403002BE0
:1003600020D0244B9B6803F070631B0E0133BB60ED
:10037000204B9B6803F4FE431B0A01337B601D4B3B
:100380009B6803F4FE031B0C01333B60BB683A68B7
:1003900002FB03F3FA68B2FBF3F37A6802FB03F3A0
:1003A000FB600DE0134B9B6803F07F0301333B6060
:1003B000FA683B68B2FBF3F3FB6001E00E4BFB60B5
:1003C0000B4BDB68DBB20133FA68B2FBF3F3FB6083
:1003D000074B1B6903F001030133FA68B2FBF3F327
:1003E000FB60064AFB6813601037BD4680BD00BF46
:1003F000004600501047005000366E01C0FF032039
:1004000080B485B000AFF8600B467A60FB72FB7A6F
:100410009B08DBB21846FB7A9B08DBB21A46FB68E6
:10042000043253F82220FB7A03F00303DB00194661
:10043000F8238B40DB4302EA0301FB68021D43F80B
:100440002210FB685A6FFB7A5B00194603238B402E
:10045000DB431A40FB685A67FB683A4A934203D071
:10046000FB68394A93420AD1FB681A6EFB7A012174
:1004700001FA03F3DB431A40FB681A6642E07B682B
:100480001B78DBB25BB2002B3CDA7B685A68FB7AE4
:100490009A40FB685A60FB7ADB08DBB21846FB7AAD
:1004A000DB08DBB21A46FB68103253F82220FB7AD5
:1004B00003F007039B00194607238B40DB4302EA46
:1004C0000301FB6800F1100243F82210FB7ADB08FD
:1004D000DBB21846FB7ADB08DBB21A46FB68103247
:1004E00053F822207B681B7A1946FB7A03F0070336
:1004F0009B0001FA03F342EA0301FB6800F11002DA
:1005000043F82210FB7A9B08DBB21846FB7A9B0863
:10051000DBB21A46FB68043253F822207B681B7852
:100520001946FB7A03F00303DB0001FA03F342EA06
:100530000301FB68021D43F822101437BD465DF825
:10054000047B7047008E0248008F024880B400AFE1
:10055000034B1B681846BD465DF8047B704700BF1F
:10056000C0FF032080B400AF034BD3F8C43018465B
:10057000BD465DF8047B70470040005080B584B0F4
:1005800000AF7860FFF7D2FE0B4B1B680B4AA2FB53
:1005900003239A0C7B6802FB03F37B600023FB6060
:1005A00003E000BFFB680133FB60FA687B689A4296
:1005B000F7D31037BD4680BDC0FF032083DE1B4349
:1005C00080B400AF034B5B681846BD465DF8047B02
:1005D000704700BF7440005080B483B000AF7860B3
:1005E000034A7B68D3600C37BD465DF8047B7047D7
:1005F00074400050B0B584B002AF7860002000F0C5
:10060000C5F800F0CBFA7B68DB79002B0AD000F04C
:1006100003FB00BF00F0EEFA034683F00103DBB2F8
:10062000002BF7D17B685B7A184600F029F900BFF0
:10063000FFF798FF0346002BFAD17B681B7A184618
:1006400000F086FA7B681B7C184600F037F97B685F
:100650005B7C184600F05AF97B689B7C184600F0DA
:1006600041F97B68DB7C184600F064F97B689B7974
:10067000002B0AD000F008FB00BF00F02DFB034662
:1006800083F00103DBB2002BF7D17B68DB78002B12
:1006900009D17B689B7983F00103DBB2002B17D073
:1006A00000F03EFB14E000F02BFB7B6899887B6830
:1006B000DA787B685B781D467B681B781C467B6814
:1006C0009B780093084611462A46234600F038FBE3
:1006D0007B68DB68B3F5803F03D14FF4803000F0D6
:1006E00055F8FFF723FE0837BD46B0BD80B485B08E
:1006F00000AF78607B681B0FFB607B6823F0704362
:10070000BB60FA6813465B0013449B001A46044B17
:100710001344BA681A601437BD465DF8047B70470D
:100720001444005080B485B000AF78607B681B0F24
:10073000FB607B6823F07043BB60FA6813465B0084
:1007400013449B001A46084B13441A68BB681340B5
:10075000002B14BF01230023DBB218461437BD461B
:100760005DF8047B704700BF0C44005080B500AFBB
:10077000FFF7ECFE0246044B5B6903F0010322FA2B
:1007800003F3184680BD00BF0046005080B483B01C
:1007900000AF78600649064BDB6823F480327B6843
:1007A0001343CB600C37BD465DF8047B704700BF38
:1007B0000046005080B483B000AF78600649064B15
:1007C0009B6923F480327B6813438B610C37BD46F1
:1007D0005DF8047B704700BF0046005080B483B0D2
:1007E00000AF78600649064B5B6A23F440327B68B1
:1007F00013434B620C37BD465DF8047B704700BF66
:100800000046005080B483B000AF0346FB80FB88F5
:10081000002B08D10A4A0A4BDB6823F4807323F0CB
:100820000103D36007E0064A054BDB6843F480739D
:1008300043F00103D3600C37BD465DF8047B70477D
:100840001047005080B483B000AF0346FB7100BF77
:10085000094BD3F8C43003F00803002BF8D1074943
:10086000064BDB6823F04002FB791343CB600C3767
:10087000BD465DF8047B70470040005000430050C7
:1008800080B483B000AF0346FB7100BF094BD3F8BF
:10089000C43003F00803002BF8D10749064BDB688E
:1008A00023F08002FB791343CB600C37BD465DF823
:1008B000047B7047004000500043005080B483B078
:1008C00000AF78600649064BDB6823F0FF027B68C7
:1008D000013B1343CB600C37BD465DF8047B70478A
:1008E0000046005080B483B000AF78600649064BE4
:1008F0001B6A23F001027B68013B13430B620C3738
:10090000BD465DF8047B70470046005080B483B05C
:1009100000AF78600649064B1B6923F001027B6833
:10092000013B13430B610C37BD465DF8047B7047F8
:100930000046005080B483B000AF78600649064B93
:100940005B6923F001027B68013B13434B610C3769
:10095000BD465DF8047B70470046005080B483B00C
:1009600000AF78600649064B9B6923F007027B685D
:10097000013B13438B610C37BD465DF8047B704728
:100980000046005080B483B000AF78600649064B43
:10099000DB6923F03F027B68013B1343CB610C37DB
:1009A000BD465DF8047B70470046005080B483B0BC
:1009B00000AF78600649064B5B6A23F0FF027B6854
:1009C000013B13434B620C37BD465DF8047B704717
:1009D0000046005080B483B000AF78600649064BF3
:1009E0009B6B23F003027B68013B13438B630C3743
:1009F000BD465DF8047B70470046005080B485B06A
:100A000000AF78607B681B0FFB607B6823F070434E
:100A1000BB60FA6813465B0013449B001A46044B04
:100A20001344BA681A601437BD465DF8047B7047FA
:100A30004846005080B485B000AF78607B681B0FDB
:100A4000FB607B6823F07043BB60FA6813465B0071
:100A500013449B001A46084B13441A68BB681340A2
:100A6000002B14BF01230023DBB218461437BD4608
:100A70005DF8047B704700BF4046005080B400AF73
:100A8000054A054B5B6923F4803323F0020353616D
:100A9000BD465DF8047B70471047005080B483B0BA
:100AA00000AF78603960284A274B5B6943F0010347
:100AB000536100BF244B1B6903F00103002BF9D0E5
:100AC000214A214B5B6943F0100353611E493B6887
:100AD000013B1A027B68013B1B0613434B611A4A18
:100AE000194B5B6943F040035361174A164B5B692E
:100AF00023F010035361144A134B5B6943F48023C2
:100B0000536100BF104B1B6903F00403002BF9D0A5
:100B10000D4A0D4B5B6923F00103536100BF0A4B83
:100B20001B6903F00103002BF9D1074A064B5B69EF
:100B300023F040035361054B0822DA600C37BD46B1
:100B40005DF8047B704700BF1047005060410050C3
:100B500080B582B000AF0346FB710F4A0E4B5B6855
:100B600043F480135360FB79012B0ED10A4A0A4BE0
:100B70005B6823F4801353606420FFF7FFFC064A90
:100B8000054B5B6843F4002353606420FFF7F6FCD9
:100B90000837BD4680BD00BF1047005080B400AF8D
:100BA000124B1B6803F00103002B09D10F4B0122EC
:100BB0005A6000BF0D4B1B6803F00103002BF9D0F6
:100BC0000B4B1B6803F40073002B0AD0084B4FF447
:100BD00000729A6000BF064B1B6803F40073002B81
:100BE000F9D1BD465DF8047B704700BF004200505C
:100BF0000044005080B400AF064B1B6803F00803AC
:100C0000002B0CBF01230023DBB21846BD465DF864
:100C1000047B70470043005080B500AF4FF40000E4
:100C2000FFF7DAFC174A174BDB6923F03003D36177
:100C300000BFFFF7C5FC034603F40003002BF8D008
:100C40004FF40030FFF7C8FC0E4B08225A6000BF7B
:100C5000FFF7B6FC034603F40033002BF8D04FF443
:100C60000020FFF7B9FC074A064BDB6843F0080396
:100C7000D36000BFFFF7A4FC034603F40023002B5E
:100C8000F8D080BD00430050B0B500AF0F4A0F4B05
:100C90005B6823F4803353600D4D0D4B5B6823F488
:100CA000702424F0300400F0B3FF0246094BA3FB8C
:100CB00002231B0D013B1B0423436B60034A034BC0
:100CC0005B6823F400335360B0BD00BF1047005091
:100CD000004700506BCA5F6B80B400AF074B1B68C6
:100CE00003F46073B3F5607F0CBF01230023DBB214
:100CF0001846BD465DF8047B704700BF10470050A2
:100D000080B400AF054A054B5B6823F4803323F0C1
:100D100002035360BD465DF8047B704710470050E6
:100D200080B400AF054A054B5B6843F4803343F061
:100D300002035360BD465DF8047B704710470050C6
:100D400080B586B000AFBA607B600346FB810B467E
:100D50007B73FB891846FFF755FD7B7B012B40F029
:100D60008B80FB89002B09D100F052FF0246544BC7
:100D7000A3FB02239B0C9B057B6102E04FF0C06349
:100D80007B617B697A6802FB03F2BB68B2FBF3F319
:100D90007B617B694B4AA2FB03231B099B0D3B61D3
:100DA000494A494B5B6843F00103536000BF464B1F
:100DB0001B6803F00103002BF9D0434A424B5B68E8
:100DC00043F01003536040493F4B9A683F4B134038
:100DD0007A68013A12021A433B69013B1B041A4329
:100DE000BB68013B1B0613438B60374A364B5B687D
:100DF00043F040035360344A334B5B6823F01003E5
:100E00005360314A304B5B6843F48023536000BF2A
:100E10002D4B1B6803F00403002BF9D02A4A2A4B00
:100E20005B6823F00103536000BF274B1B6803F08E
:100E30000103002BF9D17B69254AA2FB03235B093F
:100E40009B0D3B613A6A3B699A4202D2386900F0D5
:100E500045F87B695B081F4AA2FB03235B099B0DD6
:100E60003B613A6A3B699A4202D2386900F036F82F
:100E7000386A00F033F81CE01349134B9B6823F0E9
:100E80007F023B6A013B13438B6000BF0E4B1B6824
:100E900003F01003002BF9D00B4A0B4B5B6843F0B7
:100EA0000103536000BF084B1B6803F00103002BD4
:100EB000F9D0094B0522DA601837BD4680BD00BF66
:100EC00083DE1B43ABAAAAAA10470050FF8080F024
:100ED00089888888B7600BB66041005080B582B0C1
:100EE00000AF78600B490B4B9B6823F4FE027B68D4
:100EF000013B1B0413438B6000BF064B1B6803F0D0
:100F00002003002BF9D03220FFF738FB0837BD460D
:100F100080BD00BF1047005080B483B000AF786040
:100F20000B46FB701346BB70FB789B08DBB2184680
:100F3000FB789B08DBB21A467B68043253F8222008
:100F4000FB7803F00303DB001946F8238B40DB43F7
:100F500002EA03017B68021D43F82210FB789B081C
:100F6000DBB21846FB789B08DBB21A467B6804327A
:100F700053F82220BB78F97801F00301C9008B40B7
:100F800042EA03017B68021D43F822100C37BD467C
:100F90005DF8047B704700BF80B483B000AF786019
:100FA0007B689B6BDBB223F07F03DBB218460C3708
:100FB000BD465DF8047B704780B483B000AF7860B5
:100FC0000B46FB707B681B6C23F00F02FB781A4307
:100FD0007B681A640C37BD465DF8047B704700BF20
:100FE00080B483B000AF78607B689B6C18460C3788
:100FF000BD465DF8047B704780B483B000AF786075
:1010000039607B683A68DA640C37BD465DF8047B6A
:10101000704700BF80B586B000AFF860B960134676
:10102000FB7110237B61F86800F0E2F8BB681B7A63
:10103000002B02D0BB681B7A7B61FB79002B14D09C
:10104000BB681B79002B09D0BB681B681A467B69FB
:10105000F86811461A4600F089F906E0BB681B687B
:10106000F86819467A6900F00FF9BB68DB79013B33
:101070005A007B695B0801331B02134343F440337E
:1010800043F00103FA68D363BB685B79013B1B063D
:1010900043F48172FB685A63BB689B79002B09D0CB
:1010A000FB685A6BBB689B79013B1B041A43FB68C6
:1010B0005A6308E0FB685A6BBB685B79013B1B0411
:1010C0001A43FB685A63FB684FF4A0629A63FB689B
:1010D0004FF0FF32DA64BB685B891A46FB681A641A
:1010E0001837BD4680BD00BF80B586B000AFF86040
:1010F000B9607A600123FB75FFF738FB03469A0855
:10110000BB689A420CD37B68032B09D9F868B9688D
:101110007A6800F0B9F80346002B01D10023FB7573
:10112000FB7D18461837BD4680BD00BF80B582B034
:1011300000AF78600B467B807B68D3F8083103F002
:10114000E063002B10D100BF7868FFF725FF03464E
:10115000802BF9D078684FF40051FFF74DFF7A8863
:101160007B68C3F8802003E07A887B68C3F880211D
:101170000837BD4680BD00BF80B485B000AF786041
:101180007B68D3F80C3103F0E063002B03D17B685C
:101190005B6DFB8103E07B68D3F81C31FB81FB892D
:1011A00018461437BD465DF8047B704780B584B09F
:1011B00000AF78600023FB737868FFF7EDFE03460D
:1011C000DBB25BB2002B07DB7868FFF709FF034651
:1011D00003F40073002B02D00223FB7303E0786852
:1011E0000021FFF7E9FEFB7B18461037BD4680BDA6
:1011F00080B582B000AF78607B681A4A934203D012
:101200007B68194A934203D1184800F09DF916E013
:101210007B68174A934203D07B68164A934203D1F6
:10122000154800F091F90AE07B68144A934203D014
:101230007B68134A934202D1124800F085F97B681B
:101240000322DA6000BF7B68DB6803F00103002B38
:10125000F9D07B681B6C23F00F027B681A64083797
:10126000BD4680BD0000034000020340080003406B
:1012700000000248000202480800024800400248FC
:10128000004202480840024880B58EB000AFF860C6
:10129000B9607A60BB68632B5AD97B68002B57D042
:1012A000FFF764FA02462F4BA3FB02235B093B6264
:1012B000BB682C4AA2FB03235B09BB604FF480632D
:1012C000FB620123BB6240F2FF337B624FF4806319
:1012D0003B6322E03B6A3A6B02FB03F2BB6879682E
:1012E00001FB03F3B2FBF3F3FB61FB699B0ABB61F8
:1012F000FB69C3F309037B61BB69B3F5806F09D850
:101300007A697B6A9A4205D27B697B62BB69BB6260
:101310003B6BFB623B6B013B3B633B6B002BD9D1CF
:10132000FB6A013B43F40042FB681A61FB685A699F
:101330000D4B13407A68013A92021A43BB6A013B93
:101340001B041A43FB685A61002387F8373002E018
:10135000012387F8373097F8373018463837BD46BD
:1013600080BD00BF1F85EB51EF8000FC80B58CB0C5
:1013700000AFF860B9607A60FFF7F8F903463B62A6
:10138000BB687A6802FB03F3FB610123FB623A6AE4
:10139000FB699A425FDD3A6AFB6992FBF3F3BB6239
:1013A00010E0FB6A0133FB62BB687A6802FB03F35F
:1013B0001A46FB6A03FB02F3FB613A6AFB6992FB84
:1013C000F3F3BB62BB6A40F2FE329342E9D83A6A59
:1013D0007B68B96A01FB03F3F96A01FB03F3B2FB13
:1013E000F3F3BB613A6ABB6A0133796801FB03F32B
:1013F000F96A01FB03F3B2FBF3F37B61BA687B6923
:10140000D31A83EAE372A2EBE372B968BB69CB1A21
:10141000002BB8BF5B429A4202DABB6A0133BB625F
:10142000BB6AC3F58063BB62BB6A43F48042FB685E
:101430001A61FB685A690C4B13407A68013A9202B0
:101440001A43FB6A013B1B041A43FB685A610023E1
:1014500087F8273002E0012387F8273097F82730F4
:1014600018463037BD4680BDEF8000FC80B485B0A3
:1014700000AFF860B9603B601346FB71FB68D3F8BE
:10148000083123F0E062FB68C3F80821FB68D3F859
:101490000821094B13403A681102BA681143FA79DE
:1014A00012060A431A43FB68C3F808211437BD46E5
:1014B0005DF8047B704700BFC0C0FFF880B485B002
:1014C00000AFF860B9603B601346FB71FB68D3F86E
:1014D0000C3123F0E062FB68C3F80C21FB68D3F801
:1014E0000C210A4B13403A681102BA681143FA7989
:1014F00012060A43134343F08052FB68C3F80C21E1
:101500001437BD465DF8047B704700BFC0C0FFEFD5
:1015100080B485B000AFF8600B467A60FB72FB6860
:101520009A69FB7A072101FA03F3DB431A40FB7A3D
:10153000796801FA03F31A43FB689A611437BD46D0
:101540005DF8047B704700BF80B582B000AF786063
:101550007B68284A934218D14FF40060FFF74EFA97
:1015600000BF4FF40060FFF765FA0346002BF8D187
:101570004FF40060FFF7BAF800BF4FF40060FFF7C8
:10158000D1F80346002BF8D130E07B681A4A934229
:1015900014D11A48FFF732FA00BF1848FFF74AFA89
:1015A0000346002BF9D11548FFF7A0F800BF1348F8
:1015B000FFF7B8F80346002BF9D117E07B68104A13
:1015C000934213D10F48FFF719FA00BF0D48FFF7F8
:1015D00031FA0346002BF9D10A48FFF787F800BF1C
:1015E0000848FFF79FF80346002BF9D10837BD469E
:1015F00080BD00BF080003400800024880000010C2
:10160000084002480001001080B400AFBD465DF8FC
:10161000047B704780B483B000AF78607B684FF480
:101620000042C3F818210C37BD465DF8047B7047B3
:1016300080B483B000AF78607B68D3F8143103F4D2
:101640008053002B14BF01230023DBB218460C3754
:10165000BD465DF8047B704780B483B000AF78600E
:101660007B68D3F8143103F40063002B14BF01230B
:101670000023DBB218460C37BD465DF8047B70478B
:1016800080B483B000AF78607B684FF48042C3F8C9
:1016900018210C37BD465DF8047B704780B483B0D9
:1016A00000AF78607B68D3F8143103F00803002B97
:1016B00014BF01230023DBB218460C37BD465DF88A
:1016C000047B704780B483B000AF78607B681B6C8C
:1016D00023F00F0343F002027B681A640C37BD4607
:1016E0005DF8047B704700BF80B483B000AF7860C2
:1016F0007B689B6C18460C37BD465DF8047B7047D1
:1017000080B483B000AF786039607B683A68DA648F
:101710000C37BD465DF8047B704700BF80B483B0D2
:1017200000AF786039607B68DB6B23F4F8523B686C
:101730001B021A437B68DA630C37BD465DF8047BF5
:10174000704700BF80B584B000AF78600023FB73A2
:101750007B685B685B6898470346FB73FB7B1846B6
:101760001037BD4680BD00BF80B586B000AFF860C1
:10177000B9607A600423FB75FB685B6893F82130DD
:10178000022B00D007E0F868B9687A6800F08CF89E
:101790000346FB7500BFFB7D18461837BD4680BD6C
:1017A00080B586B000AFF860B9607A600423FB753D
:1017B000FB685B6893F82230022B00D007E0F868E2
:1017C000B9687A6800F0DAF80346FB7500BFFB7D64
:1017D00018461837BD4680BD80B586B000AFF860AA
:1017E000B9607A600223FB75FB685B68DB693B616B
:1017F000FB689B681B7EDBB283F00103DBB2002B2E
:101800004DD0FB689B685B7EDBB283F00103DBB2EB
:10181000002B44D0FB685B6893F82030022B08D083
:101820003B691A683B691B79104619460022FFF78D
:1018300073FBFB681B681846FFF7B8FC0346002BD8
:101840002BD1FB681B681846B9687A68FFF74CFC17
:101850000346FB75FB7D002B08D1FB681A687B688B
:101860005B08013310461946FFF758FFFB681B68F9
:101870001846FFF727FFFB685B6893F82030022BC0
:101880000DD03B6919683B691A793B699B6808462A
:1018900011461A46FEF7B4FD01E00223FB75FB7DFD
:1018A00018461837BD4680BD80B586B000AFF860D9
:1018B000B9607A600323FB75BB68002B58D07B6846
:1018C000002B55D00223FB75FB689B681B7EDBB2A7
:1018D00083F00103DBB2002B4AD0FB689B68012236
:1018E0001A76FB685B6893F82330002B04D0FB6802
:1018F0001B681846FFF78EFE00233B611CE0FB6867
:101900005B6893F82330002B08D000BFFB681B688E
:101910001846FFF78DFE0346002BF7D1FB681968C8
:10192000BA683B6913441B789BB208461946FFF717
:10193000FDFB3B6901333B613A697B689A42DED328
:10194000FB685B6893F82330002B0BD000BFFB686B
:101950001B681846FFF780FE034683F00103DBB2E5
:10196000002BF4D10023FB75FB689B6800221A76DC
:10197000FB7D18461837BD4680BD00BF90B589B0C5
:1019800000AFF860B9607A600323FB77BB68002B77
:1019900060D07B68002B5DD00223FB77FB689B68DF
:1019A0005B7EDBB283F00103DBB2002B52D0FB681D
:1019B0009B6801225A76FB685B6893F82430002B01
:1019C00004D0FB681B681846FFF75AFE0023BB6172
:1019D00036E0FB685B6893F82430002B09D000BF29
:1019E000FB681B681846FFF759FE0346002BF7D12A
:1019F00018E0FB681B681846FFF776FE786105E083
:101A0000FB681B681846FFF76FFE78617B6903F47B
:101A10004043002BF4D0FB681B6818464FF440414C
:101A2000FFF76EFEBA68BB69D418FB681B681846DE
:101A3000FFF7A2FB0346DBB22370BB690133BB6136
:101A4000BA697B689A42C4D30023FB77FB689B6822
:101A500000225A76FB7F18462437BD4690BD00BF52
:101A600080B483B000AF78600B46FB701346BB7048
:101A7000F878FB787A6806339B0013445B6823F0A0
:101A80000702BB781A437968831D9B000B445A6098
:101A90000C37BD465DF8047B704700BF80B483B04F
:101AA00000AF78600B46FB70F878FB787A680633F5
:101AB0009B0013445B6843F480727968831D9B002C
:101AC0000B445A600C37BD465DF8047B704700BF7D
:101AD00080B483B000AF78600B46FB707B685B6BB3
:101AE00023F00102FB781A437B685A630C37BD462A
:101AF0005DF8047B704700BF80B483B000AF7860AE
:101B00000B46FB707B685B6B23F0C002FB781A43CB
:101B10007B685A630C37BD465DF8047B704700BF95
:101B200080B582B000AF786039607868396801228A
:101B3000FFF770FA0837BD4680BD00BF80B483B0A0
:101B400000AF78607B681B6C23F00F0343F0020248
:101B50007B681A640C37BD465DF8047B704700BF94
:101B600080B582B000AF0023FB711C4800211C4AE5
:101B7000FEF746FC1B481C49FFF7D2FF194800211D
:101B80000322FFF76DFF17480121FFF7A1FF15485A
:101B90004021FFF7B1FF13480021FFF77FFF1148F5
:101BA000082103220123FFF761FC0E4800210322D4
:101BB0000723FFF783FC0B48FFF7C0FF074801210D
:101BC0000A4AFEF71DFC074810210022FFF7A0FC7F
:101BD000FB7918460837BD4680BD00BF008002482B
:101BE000E01D000800020248941D0008A01D000826
:101BF00080B485B000AF78600023FB737B6801225E
:101C00001A70FB7B18461437BD465DF8047B70479D
:101C100080B400AF024B1846BD465DF8047B7047A8
:101C2000001BB70080B483B000AF78600649064B54
:101C30009B6B23F480327B6813438B630C37BD4668
:101C40005DF8047B704700BF00460050B0B586B019
:101C500000AF164B3C1D1D460FCD0FC42B682360F3
:101C60003B1D1846FEF7C6FC0020FEF7EBFD4FF4C7
:101C70008030FEF79FFD0620FEF770FEFEF7FEFEA9
:101C800003206421FEF70AFF0020FFF7CBFF0220AC
:101C9000FEF7A0FE0020FEF7A1FD0120FEF786FE64
:101CA0000120FEF76FFE1837BD46B0BDEC1D0008E1
:101CB00080B582B000AF0023FB710948FFF798FFA1
:101CC0000346FB71FB79002B04D10648FFF73AFD70
:101CD0000346FB71FB7918460837BD4680BD00BF3F
:101CE0002888FE1F0088FE1F80B584B000AFFFF774
:101CF000DFFF0346FB734FF41653BB60FB7B002BE7
:101D000000D0FEE70F48B9681022FFF765FDFB79A8
:101D10000C4819460122FFF743FDFB790948194693
:101D20000122FFF721FD00BF064B9B685B7EDBB203
:101D3000002BF9D100BF034B9B681B7EDBB2002B4D
:101D4000F9D1E4E70088FE1F70B50E4B0E4CE41A83
:101D5000A41000251E46A54204D056F82530984709
:101D60000135F8E7FFF750FC084C094BE41AA410C2
:101D700000251E46A54204D056F825309847013567
:101D8000F8E770BD0C88FE1F0C88FE1F0C88FE1F34
:101D90000C88FE1F802500000008080110000000CC
:101DA00090000000010000000200000000800248D6
:101DB00001000000A01D0008941D0008611B000820
:101DC0000000000000000000000000000000000013
:101DD00000000000AC1D0008000202030300000028
:101DE00000000000010000000200000030020101BC
:101DF00000000100000000000000010002010101DC
:0C1E000000020248B81D00080C88FE1FFC
:0400000508000201EC
:00000001FF
