:020000040C00EE
:100000000088FE1F010200089902000899020008FA
:1000100099020008990200089902000800000000F7
:10002000000000000000000000000000990200082D
:1000300099020008000000009902000899020008D7
:100040009902000899020008990200089902000824
:100050009902000899020008990200089902000814
:1000600099020008000000000000000000000000ED
:100070009902000800000000990200089902000897
:1000800099020008990200089902000899020008E4
:1000900099020008990200089902000899020008D4
:1000A00099020008990200089902000899020008C4
:1000B00099020008990200089902000899020008B4
:1000C00099020008990200089902000899020008A4
:1000D0009902000899020008990200089902000894
:1000E0009902000899020008990200089902000884
:1000F0009902000899020008990200089902000874
:100100009902000899020008990200089902000863
:100110009902000899020008990200089902000853
:100120009902000899020008990200089902000843
:100130009902000899020008990200089902000833
:100140009902000899020008990200089902000823
:100150009902000899020008990200089902000813
:10016000000000000000000000000000000000008F
:1001700099020008990200089902000899020008F3
:1001800099020008990200089902000899020008E3
:1001900099020008990200089902000899020008D3
:1001A00099020008990200089902000899020008C3
:1001B00099020008990200089902000899020008B3
:1001C00099020008990200089902000899020008A3
:1001D0009902000899020008990200080000000036
:1001E0009902000899020008990200089902000883
:1001F0009902000899020008990200080000000016
:10020000DFF874D01D4880471D4C1E4DAC4209DA02
:1002100021686268A368043BA2BFC858D050FAE7BF
:100220000C34F3E7184B194CA34208DA19685A68E2
:100230000020043AA4BF8850FBE70833F4E71448D1
:100240008047144880470000742D000C0088FE1F72
:1002500054000000742D000C0088FE1F00000000F8
:100260005488FE1F1800000000000020000000005D
:1002700000000020000000000088FE1F9D02000812
:1002800048020008600200086002000878020008C6
:10029000292C0008FD2A0008FEE7000098B500AFF1
:1002A000054A4FF0005314460FCB84E80F0000F0CE
:1002B00005F802F06DFB98BDC4FF032080B483B045
:1002C00000AF72B6164B174A9A60BFF34F8F62B6F3
:1002D000134A134BD3F8883043F47003C2F88830C4
:1002E0000F4A0F4B5B6923F0080353610E4B03F574
:1002F000805314331B687B607B6823F00F037B60A3
:100300007B6843F004037B60074B03F58053143391
:100310007A681A600C37BD465DF8047B704700BFF1
:1003200000ED00E0000000080010005880B584B027
:1003300000AF2F4BDB6803F48033002B3ED02D4BF6
:10034000DB6803F00103002B02D02B4BFB6002E0C3
:1003500002F000FBF860274B1B6803F00403002B3E
:1003600020D0244B9B6803F070631B0E0133BB60ED
:10037000204B9B6803F4FE431B0A01337B601D4B3B
:100380009B6803F4FE031B0C01333B60BB683A68B7
:1003900002FB03F3FA68B2FBF3F37A6802FB03F3A0
:1003A000FB600DE0134B9B6803F07F0301333B6060
:1003B000FA683B68B2FBF3F3FB6001E00E4BFB60B5
:1003C0000B4BDB68DBB20133FA68B2FBF3F3FB6083
:1003D000074B1B6903F001030133FA68B2FBF3F327
:1003E000FB60064AFB6813601037BD4680BD00BF46
:1003F000004600501047005000366E01C0FF032039
:1004000080B485B000AFF8600B467A60FB72FB7A6F
:100410009B08DBB21846FB7A9B08DBB21A46FB68E6
:10042000043253F82220FB7A03F00303DB00194661
:10043000F8238B40DB4302EA0301FB68021D43F80B
:100440002210FB685A6FFB7A5B00194603238B402E
:10045000DB431A40FB685A67FB683A4A934203D071
:10046000FB68394A93420AD1FB681A6EFB7A012174
:1004700001FA03F3DB431A40FB681A6642E07B682B
:100480001B78DBB25BB2002B3CDA7B685A68FB7AE4
:100490009A40FB685A60FB7ADB08DBB21846FB7AAD
:1004A000DB08DBB21A46FB68103253F82220FB7AD5
:1004B00003F007039B00194607238B40DB4302EA46
:1004C0000301FB6800F1100243F82210FB7ADB08FD
:1004D000DBB21846FB7ADB08DBB21A46FB68103247
:1004E00053F822207B681B7A1946FB7A03F0070336
:1004F0009B0001FA03F342EA0301FB6800F11002DA
:1005000043F82210FB7A9B08DBB21846FB7A9B0863
:10051000DBB21A46FB68043253F822207B681B7852
:100520001946FB7A03F00303DB0001FA03F342EA06
:100530000301FB68021D43F822101437BD465DF825
:10054000047B7047008E0248008F024880B400AFE1
:10055000034B1B681846BD465DF8047B704700BF1F
:10056000C0FF032080B400AF034BD3F8C43018465B
:10057000BD465DF8047B70470040005080B584B0F4
:1005800000AF7860FFF7D2FE0B4B1B680B4AA2FB53
:1005900003239A0C7B6802FB03F37B600023FB6060
:1005A00003E000BFFB680133FB60FA687B689A4296
:1005B000F7D31037BD4680BDC0FF032083DE1B4349
:1005C00080B400AF034B5B681846BD465DF8047B02
:1005D000704700BF7440005080B483B000AF7860B3
:1005E000034A7B68D3600C37BD465DF8047B7047D7
:1005F00074400050B0B584B002AF7860002000F0C5
:10060000C5F800F0CBFA7B68DB79002B0AD000F04C
:1006100003FB00BF00F0EEFA034683F00103DBB2F8
:10062000002BF7D17B685B7A184600F029F900BFF0
:10063000FFF798FF0346002BFAD17B681B7A184618
:1006400000F086FA7B681B7C184600F037F97B685F
:100650005B7C184600F05AF97B689B7C184600F0DA
:1006600041F97B68DB7C184600F064F97B689B7974
:10067000002B0AD000F008FB00BF00F02DFB034662
:1006800083F00103DBB2002BF7D17B68DB78002B12
:1006900009D17B689B7983F00103DBB2002B17D073
:1006A00000F03EFB14E000F02BFB7B6899887B6830
:1006B000DA787B685B781D467B681B781C467B6814
:1006C0009B780093084611462A46234600F038FBE3
:1006D0007B68DB68B3F5803F03D14FF4803000F0D6
:1006E00055F8FFF723FE0837BD46B0BD80B485B08E
:1006F00000AF78607B681B0FFB607B6823F0704362
:10070000BB60FA6813465B0013449B001A46044B17
:100710001344BA681A601437BD465DF8047B70470D
:100720001444005080B485B000AF78607B681B0F24
:10073000FB607B6823F07043BB60FA6813465B0084
:1007400013449B001A46084B13441A68BB681340B5
:10075000002B14BF01230023DBB218461437BD461B
:100760005DF8047B704700BF0C44005080B500AFBB
:10077000FFF7ECFE0246044B5B6903F0010322FA2B
:1007800003F3184680BD00BF0046005080B483B01C
:1007900000AF78600649064BDB6823F480327B6843
:1007A0001343CB600C37BD465DF8047B704700BF38
:1007B0000046005080B483B000AF78600649064B15
:1007C0009B6923F480327B6813438B610C37BD46F1
:1007D0005DF8047B704700BF0046005080B483B0D2
:1007E00000AF78600649064B5B6A23F440327B68B1
:1007F00013434B620C37BD465DF8047B704700BF66
:100800000046005080B483B000AF0346FB80FB88F5
:10081000002B08D10A4A0A4BDB6823F4807323F0CB
:100820000103D36007E0064A054BDB6843F480739D
:1008300043F00103D3600C37BD465DF8047B70477D
:100840001047005080B483B000AF0346FB7100BF77
:10085000094BD3F8C43003F00803002BF8D1074943
:10086000064BDB6823F04002FB791343CB600C3767
:10087000BD465DF8047B70470040005000430050C7
:1008800080B483B000AF0346FB7100BF094BD3F8BF
:10089000C43003F00803002BF8D10749064BDB688E
:1008A00023F08002FB791343CB600C37BD465DF823
:1008B000047B7047004000500043005080B483B078
:1008C00000AF78600649064BDB6823F0FF027B68C7
:1008D000013B1343CB600C37BD465DF8047B70478A
:1008E0000046005080B483B000AF78600649064BE4
:1008F0001B6A23F001027B68013B13430B620C3738
:10090000BD465DF8047B70470046005080B483B05C
:1009100000AF78600649064B1B6923F001027B6833
:10092000013B13430B610C37BD465DF8047B7047F8
:100930000046005080B483B000AF78600649064B93
:100940005B6923F001027B68013B13434B610C3769
:10095000BD465DF8047B70470046005080B483B00C
:1009600000AF78600649064B9B6923F007027B685D
:10097000013B13438B610C37BD465DF8047B704728
:100980000046005080B483B000AF78600649064B43
:10099000DB6923F03F027B68013B1343CB610C37DB
:1009A000BD465DF8047B70470046005080B483B0BC
:1009B00000AF78600649064B5B6A23F0FF027B6854
:1009C000013B13434B620C37BD465DF8047B704717
:1009D0000046005080B483B000AF78600649064BF3
:1009E0009B6B23F003027B68013B13438B630C3743
:1009F000BD465DF8047B70470046005080B485B06A
:100A000000AF78607B681B0FFB607B6823F070434E
:100A1000BB60FA6813465B0013449B001A46044B04
:100A20001344BA681A601437BD465DF8047B7047FA
:100A30004846005080B485B000AF78607B681B0FDB
:100A4000FB607B6823F07043BB60FA6813465B0071
:100A500013449B001A46084B13441A68BB681340A2
:100A6000002B14BF01230023DBB218461437BD4608
:100A70005DF8047B704700BF4046005080B400AF73
:100A8000054A054B5B6923F4803323F0020353616D
:100A9000BD465DF8047B70471047005080B483B0BA
:100AA00000AF78603960284A274B5B6943F0010347
:100AB000536100BF244B1B6903F00103002BF9D0E5
:100AC000214A214B5B6943F0100353611E493B6887
:100AD000013B1A027B68013B1B0613434B611A4A18
:100AE000194B5B6943F040035361174A164B5B692E
:100AF00023F010035361144A134B5B6943F48023C2
:100B0000536100BF104B1B6903F00403002BF9D0A5
:100B10000D4A0D4B5B6923F00103536100BF0A4B83
:100B20001B6903F00103002BF9D1074A064B5B69EF
:100B300023F040035361054B0822DA600C37BD46B1
:100B40005DF8047B704700BF1047005060410050C3
:100B500080B582B000AF0346FB710F4A0E4B5B6855
:100B600043F480135360FB79012B0ED10A4A0A4BE0
:100B70005B6823F4801353606420FFF7FFFC064A90
:100B8000054B5B6843F4002353606420FFF7F6FCD9
:100B90000837BD4680BD00BF1047005080B400AF8D
:100BA000124B1B6803F00103002B09D10F4B0122EC
:100BB0005A6000BF0D4B1B6803F00103002BF9D0F6
:100BC0000B4B1B6803F40073002B0AD0084B4FF447
:100BD00000729A6000BF064B1B6803F40073002B81
:100BE000F9D1BD465DF8047B704700BF004200505C
:100BF0000044005080B400AF064B1B6803F00803AC
:100C0000002B0CBF01230023DBB21846BD465DF864
:100C1000047B70470043005080B500AF4FF40000E4
:100C2000FFF7DAFC174A174BDB6923F03003D36177
:100C300000BFFFF7C5FC034603F40003002BF8D008
:100C40004FF40030FFF7C8FC0E4B08225A6000BF7B
:100C5000FFF7B6FC034603F40033002BF8D04FF443
:100C60000020FFF7B9FC074A064BDB6843F0080396
:100C7000D36000BFFFF7A4FC034603F40023002B5E
:100C8000F8D080BD00430050B0B500AF0F4A0F4B05
:100C90005B6823F4803353600D4D0D4B5B6823F488
:100CA000702424F0300401F055FE0246094BA3FBEA
:100CB00002231B0D013B1B0423436B60034A034BC0
:100CC0005B6823F400335360B0BD00BF1047005091
:100CD000004700506BCA5F6B80B400AF074B1B68C6
:100CE00003F46073B3F5607F0CBF01230023DBB214
:100CF0001846BD465DF8047B704700BF10470050A2
:100D000080B400AF054A054B5B6823F4803323F0C1
:100D100002035360BD465DF8047B704710470050E6
:100D200080B400AF054A054B5B6843F4803343F061
:100D300002035360BD465DF8047B704710470050C6
:100D400080B586B000AFBA607B600346FB810B467E
:100D50007B73FB891846FFF755FD7B7B012B40F029
:100D60008B80FB89002B09D101F0F4FD0246544B26
:100D7000A3FB02239B0C9B057B6102E04FF0C06349
:100D80007B617B697A6802FB03F2BB68B2FBF3F319
:100D90007B617B694B4AA2FB03231B099B0D3B61D3
:100DA000494A494B5B6843F00103536000BF464B1F
:100DB0001B6803F00103002BF9D0434A424B5B68E8
:100DC00043F01003536040493F4B9A683F4B134038
:100DD0007A68013A12021A433B69013B1B041A4329
:100DE000BB68013B1B0613438B60374A364B5B687D
:100DF00043F040035360344A334B5B6823F01003E5
:100E00005360314A304B5B6843F48023536000BF2A
:100E10002D4B1B6803F00403002BF9D02A4A2A4B00
:100E20005B6823F00103536000BF274B1B6803F08E
:100E30000103002BF9D17B69254AA2FB03235B093F
:100E40009B0D3B613A6A3B699A4202D2386900F0D5
:100E500045F87B695B081F4AA2FB03235B099B0DD6
:100E60003B613A6A3B699A4202D2386900F036F82F
:100E7000386A00F033F81CE01349134B9B6823F0E9
:100E80007F023B6A013B13438B6000BF0E4B1B6824
:100E900003F01003002BF9D00B4A0B4B5B6843F0B7
:100EA0000103536000BF084B1B6803F00103002BD4
:100EB000F9D0094B0522DA601837BD4680BD00BF66
:100EC00083DE1B43ABAAAAAA10470050FF8080F024
:100ED00089888888B7600BB66041005080B582B0C1
:100EE00000AF78600B490B4B9B6823F4FE027B68D4
:100EF000013B1B0413438B6000BF064B1B6803F0D0
:100F00002003002BF9D03220FFF738FB0837BD460D
:100F100080BD00BF1047005080B483B000AF786040
:100F20000B46FB701346BB70FB789B08DBB2184680
:100F3000FB789B08DBB21A467B68043253F8222008
:100F4000FB7803F00303DB001946F8238B40DB43F7
:100F500002EA03017B68021D43F82210FB789B081C
:100F6000DBB21846FB789B08DBB21A467B6804327A
:100F700053F82220BB78F97801F00301C9008B40B7
:100F800042EA03017B68021D43F822100C37BD467C
:100F90005DF8047B704700BF80B483B000AF786019
:100FA0000B46FB701346BB707B685A6FFB785B0087
:100FB000194603238B40DB431A407B685A677B68E2
:100FC0005A6FBB78F97849008B401A437B685A679F
:100FD0000C37BD465DF8047B704700BF80B483B01A
:100FE00000AF78607B689B6BDBB223F07F03DBB2E2
:100FF00018460C37BD465DF8047B704780B483B05B
:1010000000AF78600B46FB707B681B6C23F00F020F
:10101000FB781A437B681A640C37BD465DF8047B85
:10102000704700BF80B584B000AFF860B960134668
:10103000FB71F86800F0A2F8BB685B79002B15D152
:10104000FB79002B12D0BB681B79002B07D0BB6843
:101050001B68F8681946022200F04EF906E0BB68EA
:101060001B68F8681946022200F0D4F8FB680F4AA2
:101070005A63FB684FF4A2629A63BB685B79002BEA
:1010800007D1BB689B7943F00B03DBB21A46FB68C0
:10109000DA63FB684FF0FF32DA64BB681B891A46DB
:1010A000FB681A641037BD4680BD00BF02013F07D0
:1010B00080B584B000AF786039600123FB73FFF71F
:1010C00055FB03465A083B689A4209D37868396849
:1010D000022200F09FF80346002B01D10023FB738E
:1010E000FB7B18461037BD4680BD00BF80B483B07F
:1010F00000AF786039607B68DB6B23F47F027B682C
:10110000DA637B68DA6B3B681A437B68DA630C3717
:10111000BD465DF8047B704780B485B000AF786051
:101120007B68D3F80C3103F0E063002B03D17B68BC
:101130005B6DFB8103E07B68D3F81C31FB81FB898D
:1011400018461437BD465DF8047B704780B584B0FF
:1011500000AF78600023FB737868FFF73FFF03461A
:10116000802B02D10223FB7303E078680021FFF794
:1011700045FFFB7B18461037BD4680BD80B582B069
:1011800000AF78607B681A4A934203D07B68194AA3
:10119000934203D1184800F09DF916E07B68174A86
:1011A000934203D07B68164A934203D1154800F05E
:1011B00091F90AE07B68144A934203D07B68134A92
:1011C000934202D1124800F085F97B680322DA606D
:1011D00000BF7B68DB6803F00103002BF9D07B685C
:1011E0001B6C23F00F027B681A640837BD4680BD74
:1011F00000000340000203400800034000000248D2
:10120000000202480800024800400248004202482A
:101210000840024880B58EB000AFF860B9607A60CF
:10122000BB68632B5AD97B68002B57D0FFF79EFA17
:1012300002462F4BA3FB02235B093B62BB682C4A8F
:10124000A2FB03235B09BB604FF48063FB620123B5
:10125000BB6240F2FF337B624FF480633B6322E06A
:101260003B6A3A6B02FB03F2BB68796801FB03F34C
:10127000B2FBF3F3FB61FB699B0ABB61FB69C3F340
:1012800009037B61BB69B3F5806F09D87A697B6A12
:101290009A4205D27B697B62BB69BB623B6BFB6296
:1012A0003B6B013B3B633B6B002BD9D1FB6A013BA2
:1012B00043F40042FB681A61FB685A690D4B134006
:1012C0007A68013A92021A43BB6A013B1B041A4333
:1012D000FB685A61002387F8373002E0012387F862
:1012E000373097F8373018463837BD4680BD00BFD5
:1012F0001F85EB51EF8000FC80B58CB000AFF8602B
:10130000B9607A60FFF732FA03463B62BB687A68DD
:1013100002FB03F3FB610123FB623A6AFB699A4219
:101320005FDD3A6AFB6992FBF3F3BB6210E0FB6A94
:101330000133FB62BB687A6802FB03F31A46FB6A5F
:1013400003FB02F3FB613A6AFB6992FBF3F3BB62B6
:10135000BB6A40F2FE329342E9D83A6A7B68B96AC6
:1013600001FB03F3F96A01FB03F3B2FBF3F3BB6187
:101370003A6ABB6A0133796801FB03F3F96A01FB3E
:1013800003F3B2FBF3F37B61BA687B69D31A83EA98
:10139000E372A2EBE372B968BB69CB1A002BB8BF4A
:1013A0005B429A4202DABB6A0133BB62BB6AC3F595
:1013B0008063BB62BB6A43F48042FB681A61FB68CE
:1013C0005A690C4B13407A68013A92021A43FB6A3D
:1013D000013B1B041A43FB685A61002387F827303E
:1013E00002E0012387F8273097F827301846303776
:1013F000BD4680BDEF8000FC80B485B000AFF860D2
:10140000B9603B601346FB71FB68D3F8083123F0E9
:10141000E062FB68C3F80821FB68D3F80821094B98
:1014200013403A681102BA681143FA7912060A4366
:101430001A43FB68C3F808211437BD465DF8047BE6
:10144000704700BFC0C0FFF880B485B000AFF8603F
:10145000B9603B601346FB71FB68D3F80C3123F095
:10146000E062FB68C3F80C21FB68D3F80C210A4B3F
:1014700013403A681102BA681143FA7912060A4316
:10148000134343F08052FB68C3F80C211437BD4668
:101490005DF8047B704700BFC0C0FFEF80B485B02B
:1014A00000AFF8600B467A60FB72FB689A69FB7AC2
:1014B000072101FA03F3DB431A40FB7A796801FA4A
:1014C00003F31A43FB689A611437BD465DF8047B49
:1014D000704700BF80B582B000AF78607B68284A53
:1014E000934218D14FF40060FFF788FA00BF4FF421
:1014F0000060FFF79FFA0346002BF8D14FF400601D
:10150000FFF7F4F800BF4FF40060FFF70BF9034654
:10151000002BF8D130E07B681A4A934214D11A4864
:10152000FFF76CFA00BF1848FFF784FA0346002B58
:10153000F9D11548FFF7DAF800BF1348FFF7F2F8C2
:101540000346002BF9D117E07B68104A934213D170
:101550000F48FFF753FA00BF0D48FFF76BFA034639
:10156000002BF9D10A48FFF7C1F800BF0848FFF780
:10157000D9F80346002BF9D10837BD4680BD00BF1E
:10158000080003400800024880000010084002489C
:101590000001001080B400AFBD465DF8047B7047C9
:1015A00080B483B000AF78600B46FB701346BB700D
:1015B000F878FB787A6806339B0013445B6823F065
:1015C0000702BB781A437968831D9B000B445A605D
:1015D0000C37BD465DF8047B704700BF80B485B012
:1015E00000AFF8600B467A607B817989FB687A6886
:1015F000203243F822101437BD465DF8047B704753
:1016000080B483B000AF78607B689B6BDBB223F063
:101610007F03DBB218460C37BD465DF8047B70478C
:1016200080B483B000AF78607B681B6D03F4C04367
:1016300018460C37BD465DF8047B704780B485B012
:1016400000AFF8600B467A607B817989FB687A6825
:10165000603243F822101437BD465DF8047B7047B2
:1016600080B483B000AF78607B684FF40042C3F869
:1016700018210C37BD465DF8047B704780B483B0F9
:1016800000AF78607B68D3F8143103F48053002BEB
:1016900014BF01230023DBB218460C37BD465DF8AA
:1016A000047B704780B483B000AF78607B684FF4F0
:1016B0008042C3F818210C37BD465DF8047B7047A3
:1016C00080B483B000AF78607B68D3F8143103F046
:1016D0000803002B14BF01230023DBB218460C378C
:1016E000BD465DF8047B704780B483B000AF78607E
:1016F00039607B683A68C3F818210C37BD465DF83D
:10170000047B704780B485B000AFF860B9607A6040
:10171000FB685B6923F05042BB681A437B681A433D
:10172000FB685A611437BD465DF8047B704700BF03
:1017300080B483B000AF78600B46FB707B681B6C95
:1017400023F00F02FB781A437B681A640C37BD46FE
:101750005DF8047B704700BF80B582B000AF786051
:1017600078680121FFF7E4FF0837BD4680BD00BF60
:1017700080B483B000AF78600B46FB707B681B6C55
:1017800023F0C002FB789B01DBB21A437B681A642A
:101790000C37BD465DF8047B704700BF80B483B052
:1017A00000AF78607B689B6C18460C37BD465DF8CF
:1017B000047B704780B483B000AF786039607B6889
:1017C000DA6C3B681A437B68DA640C37BD465DF817
:1017D000047B704780B483B000AF786039607B6869
:1017E0005B6923F4FE423B68013B9B02134343F4D5
:1017F00080727B685A610C37BD465DF8047B704788
:1018000080B584B000AFF860B9607A60F868B968F4
:101810007A68FFF777FF1037BD4680BD80B582B08C
:1018200000AF78600B46FB701346BB70F878FB780E
:101830007A6806339B0013445B6823F0500343F03F
:1018400010027968831D9B000B445A60FA78BB78BC
:10185000786811461A46FFF7A3FE0837BD4680BDDB
:1018600080B584B000AF78607B685B685B68984740
:101870000346FB73FB7B18461037BD4680BD00BF97
:1018800080B584B000AF78600B46FB700023FB731B
:101890007B689B6893F82030DBB283F00103DBB2F6
:1018A000002B22D07B689B68DB7FDBB283F00103D7
:1018B000DBB2002B19D07B689B681B7FDBB2FA7808
:1018C0009A4211D0FB787868194600F08DFE0346E5
:1018D000FB73FB7B002B07D17B689B68FA781A7738
:1018E000786800F057FC02E001E00223FB73FB7B09
:1018F00018461037BD4680BD80B584B000AF786013
:1019000039607B689B6893F82030DBB283F0010379
:10191000DBB2002B3FD07B689B68DB7FDBB283F0C0
:101920000103DBB2002B36D07B681B681846FFF73B
:101930000DFC0346FB73FB7B002B2BD1786800F07A
:10194000A5FD7B681B6818463968FFF7B1FB0346A5
:10195000FB73FB7B002B09D17B681A687B685B6893
:1019600093F8883010461946FFF734FF7B681A68F1
:101970007B685B68D3F88030104619460022FFF779
:101980003FFF7B681B681846FFF7E6FE786800F0AB
:10199000A9FC02E001E00223FB73FB7B1846103731
:1019A000BD4680BD80B586B000AFF860B9607A6092
:1019B0000123FB75FB685B6893F88430022B06D12A
:1019C000F868B9687A6800F021F80346FB75FB7D7A
:1019D00018461837BD4680BD80B586B000AFF860A8
:1019E000B9607A600123FB75FB685B6893F885300A
:1019F000022B06D1F868B9687A6800F015F9034639
:101A0000FB75FB7D18461837BD4680BD90B589B083
:101A100000AFF860B9607A600123BB610223FB77F5
:101A2000FB689B687B610023BB83BB68002B00F0D5
:101A3000F0807B68002B00F0EC807B6993F820300D
:101A4000DBB283F00103DBB2002B00F0E180FB6826
:101A50009B681B68082B01D90223BB617B690122AB
:101A600083F820207B69BA689A61BB69013B1A46FA
:101A70007B6803FA02F27B695A607B6900229A60F4
:101A8000FB681A687B691B7FDBB210461946FFF7BB
:101A90006FFEFB685B6893F87C30002B4BD0FB68D3
:101AA0001B681846FFF7DCFD3EE000BFFB681B68C3
:101AB0001846FFF7E3FD0346002BF7D17B6993F847
:101AC0002130DBB2002B0BD0FB681A687B691B7FCF
:101AD000DBB210464FF6FF711A46FFF7AFFD1DE06F
:101AE000BB69022B07D17B699A697B699B681344A8
:101AF0001B88BB8306E07B699A697B699B681344FA
:101B00001B78BB83FB681A687B691B7FDBB21C46B2
:101B1000BB8B104619462246FFF790FD7B699A68F9
:101B2000BB691A447B699A607B699A687B695B68C8
:101B30009A42BAD356E000BFFB681B681846FFF70D
:101B40005FFD0346802BF7D07B6993F82130DBB231
:101B5000002B0BD0FB681A687B691B7FDBB2104639
:101B60004FF6FF711A46FFF739FD1DE0BB69022BE6
:101B700007D17B699A697B699B6813441B88BB8387
:101B800006E07B699A697B699B6813441B78BB8379
:101B9000FB681A687B691B7FDBB21C46BB8B104657
:101BA00019462246FFF71AFD7B699A68BB691A44F9
:101BB0007B699A6000BFFB681B681846FFF7EEFD63
:101BC000034603F48063002BF5D0FB681B681846BE
:101BD0004FF48061FFF7EEFD7B699A687B695B6873
:101BE0009A42A8D300BFFB681B681846FFF708FDA0
:101BF0000346802BF7D07B69002283F820207B6985
:101C000000225A607B6900229A600023FB7702E081
:101C100001E00323FB777B69012283F82220FB7F0D
:101C200018462437BD4690BD80B586B000AFF86039
:101C3000B9607A600223FB75FB689B683B61BB68F7
:101C4000002B33D07B68002B30D03B69DB7FDBB2CD
:101C500083F00103DBB2002B27D03B6993F82030DF
:101C6000DBB283F00103DBB2002B1ED03B69012203
:101C7000DA773B69BA685A613B69104A9A613B69F5
:101C8000012283F821203B69002283F82220F86892
:101C9000796800F071F80346FB753B69002283F810
:101CA00021203B690022DA7702E001E00323FB7583
:101CB000FB7D18461837BD4680BD00BF0088FE1F5B
:101CC00080B586B000AFF860B9607A603B600223EF
:101CD000FB75FB689B683B613B691B7FDBB2002B9C
:101CE00042D1BB68002B3BD07B68002B38D03B68CF
:101CF000002B35D03B69DB7FDBB283F00103DBB225
:101D0000002B2CD03B6993F82030DBB283F0010329
:101D1000DBB2002B23D03B690122DA773B697A687A
:101D20005A613B69BA689A613B693A685A603B6993
:101D3000002283F821203B69002283F82220FB68DF
:101D40005B6893F88530022B09D1F868396800F098
:101D500013F80346FB753B690022DA7703E002E0E3
:101D60000323FB7502E001E00123FB75FB7D1846B0
:101D70001837BD4680BD00BF90B587B000AF786012
:101D8000396001237B617B689B68FB6000237B8259
:101D9000FB6800221A61FB6800229A607B689B68DE
:101DA0001B68082B01D902237B617B69013B1A4622
:101DB0003B6803FA02F2FB68DA607B681A68FB682A
:101DC0001B7FDBB210461946FFF7D2FC7B685B68CD
:101DD00093F87D30002B00F0D6807B681B68184696
:101DE000FFF760FC7B681B68184600F0C5F9FB68CC
:101DF00093F82130DBB2002B0BD07B681A68FB68AC
:101E00001B7FDBB210464FF6FF711A46FFF716FC38
:101E10001DE07B69022B07D1FB689A69FB689B6810
:101E200013441B887B8206E0FB689A69FB689B6809
:101E300013441B787B827B681A68FB681B7FDBB2CC
:101E40001C467B8A104619462246FFF7F7FBFB68C3
:101E50009A687B691A44FB689A6061E0FB6893F8B2
:101E60002130DBB2002B0BD07B681A68FB681B7F2C
:101E7000DBB210464FF6FF711A46FFF7DFFB1DE09D
:101E80007B69022B07D1FB689A69FB689B68134446
:101E90001B887B8206E0FB689A69FB689B68134499
:101EA0001B787B827B681A68FB681B7FDBB21C4651
:101EB0007B8A104619462246FFF7C0FB00BF7B68AD
:101EC0001B681846FFF7FCFB0346002BF7D17B6825
:101ED0001B681846FFF720F903467B82FB685A69A6
:101EE000FB681B6913447A8AD2B21A707B69022B91
:101EF0000AD1FB685A69FB681B69013313447A8A6B
:101F0000120A92B2D2B21A70FB681A697B691A443B
:101F1000FB681A61FB689A687B691A44FB689A60DF
:101F2000FB689A68FB68DB689A4297D300BF7B68BE
:101F30001B681846FFF7C4FB0346002BF7D17B68EC
:101F40001B681846FFF7E8F803467B82FB685A696E
:101F5000FB681B6913447A8AD2B21A707B69022B20
:101F60000AD1FB685A69FB681B69013313447A8AFA
:101F7000120A92B2D2B21A707B681B681846052109
:101F8000FFF7B2FBE9E07B681B68184600F0F4F845
:101F900000BF7B681B681846FFF732FB0346802BA7
:101FA000F7D0FB6893F82130DBB2002B0BD07B68B5
:101FB0001A68FB681B7FDBB210464FF6FF711A46AA
:101FC000FFF70CFB1DE07B69022B07D1FB689A69C8
:101FD000FB689B6813441B887B8206E0FB689A6958
:101FE000FB689B6813441B787B827B681A68FB68DC
:101FF0001B7FDBB21C467B8A104619462246FFF740
:10200000EDFAFB689A687B691A44FB689A6071E094
:1020100000BF7B681B681846FFF7F2FA0346802B67
:10202000F7D0FB6893F82130DBB2002B0BD07B6834
:102030001A68FB681B7FDBB210464FF6FF711A4629
:10204000FFF7CCFA1DE07B69022B07D1FB689A6988
:10205000FB689B6813441B887B8206E0FB689A69D7
:10206000FB689B6813441B787B827B681A68FB685B
:102070001B7FDBB21C467B8A104619462246FFF7BF
:10208000ADFA00BF7B681B681846FFF7C9FA034624
:10209000002BF7D07B681B681846FFF73DF8034616
:1020A0007B82FB685A69FB681B6913447A8AD2B247
:1020B0001A707B69022B0AD1FB685A69FB681B699D
:1020C000013313447A8A120A92B2D2B21A70FB68B0
:1020D0001A697B691A44FB681A61FB689A687B6914
:1020E0001A44FB689A607B681B6818464FF44041AD
:1020F000FFF760FBFB689A68FB68DB689A4287D34E
:1021000000BF7B681B681846FFF78AFA0346002B5E
:10211000F7D07B681B681846FEF7FEFF03467B82FC
:10212000FB685A69FB681B6913447A8AD2B21A7039
:102130007B69022B0AD1FB685A69FB681B69013372
:1021400013447A8A120A92B2D2B21A707B681B6860
:1021500018464FF44041FFF72DFBFB680022DA6080
:10216000FB6800221A61FB6800229A60002318466F
:102170001C37BD4690BD00BF80B582B000AF78600F
:102180007868FEF7C9FF7868FEF7C6FF0837BD46D6
:1021900080BD00BF80B582B000AF78607B689B686F
:1021A0001B7FDBB2072B00F2988001A252F823F0CC
:1021B000D1210008DB220008DB220008DB22000816
:1021C000DB2200083522000865220008652200088D
:1021D0007B681A687B689B685B7F104600211A4603
:1021E000FFF71CFB7B685B681B691A687B685B6890
:1021F0001B691B79104619460022FEF78DFE7B688D
:102200005B689B681A687B685B689B681B791046F3
:1022100019460022FEF7C0FE7B685B681B691A68DE
:102220007B685B681B691B79104619460022FEF724
:10223000B3FE53E07B681A687B689B689B7F1046FF
:1022400000211A46FFF7EAFA7B685B689B681A6808
:102250007B685B689B681B79104619460022FEF775
:102260009BFE3BE07B681B68184600210622FFF7B7
:10227000D5FA7B685B681B6919687B685B681B69BA
:102280001A797B685B685B691B78084611461A46B9
:10229000FEF742FE7B685B689B6819687B685B6839
:1022A0009B681A797B685B68DB681B7B0846114674
:1022B0001A46FEF771FE7B685B681B6919687B68CC
:1022C0005B681B691A797B685B685B691B7B0846E6
:1022D00011461A46FEF760FE00E000BF0837BD4613
:1022E00080BD00BF80B584B000AF78600023FB6084
:1022F0001AE07B685B68FA680C3253F82230186881
:102300007B685B68FA680C3253F8223019797B6875
:102310005B68FA68143253F822301B781A46FEF7CD
:10232000FBFDFB680133FB607B685B6893F88730DB
:102330001A46FB689A42DCD87B685B689B6A19681E
:102340007B685B689B6A1A797B685B68DB6A1B78D1
:10235000084611461A46FEF7DFFD7B689B681B7F27
:10236000DBB2072B00F28E8001A252F823F000BFEF
:10237000912300088524000885240008852400088E
:102380008524000891230008B5230008FB230008DA
:102390007B685B689B6819687B685B689B681A79D7
:1023A0007B685B68DB681B78084611461A46FEF7B7
:1023B000B3FD68E07B685B689B6819687B685B6855
:1023C0009B681A797B685B68DB681B780846114656
:1023D0001A46FEF7A1FD7B685B681B6919687B687C
:1023E0005B681B691A797B685B685B691B780846C8
:1023F00011461A46FEF790FD45E07B685B689B68D6
:1024000019687B685B689B681A797B685B68DB6826
:102410001B78084611461A46FEF77EFD7B685B680E
:102420001B6919687B685B681B691A797B685B6844
:102430005B691B78084611461A46FEF76DFD7B68FE
:102440005B689B6919687B685B689B691A797B6824
:102450005B68DB691B78084611461A46FEF75CFD8F
:102460007B685B681B6A19687B685B681B6A1A7902
:102470007B685B685B6A1B78084611461A46FEF764
:102480004BFD00E000BF1037BD4680BD80B584B075
:1024900000AF78600023FB6015E07B685B68FA683A
:1024A0000C3253F8223019687B685B68FA680C328A
:1024B00053F822301B79084619460022FEF72CFDFE
:1024C000FB680133FB607B685B6893F887301A46D2
:1024D000FB689A42E1D87B685B689B6A1A687B68F4
:1024E0005B689B6A1B79104619460022FEF714FDB3
:1024F0007B689B681B7FDBB2072B71D801A252F867
:1025000023F000BF25250008E1250008E12500088B
:10251000E1250008E12500082525000841250008DF
:10252000772500087B685B689B681A687B685B6836
:102530009B681B79104619460022FEF7EDFC50E01F
:102540007B685B689B681A687B685B689B681B7923
:10255000104619460022FEF7DFFC7B685B681B69AA
:102560001A687B685B681B691B7910461946002254
:10257000FEF7D2FC35E07B685B689B681A687B6875
:102580005B689B681B79104619460022FEF7C4FC65
:102590007B685B681B691A687B685B681B691B79D1
:1025A000104619460022FEF7B7FC7B685B689B6902
:1025B0001A687B685B689B691B7910461946002284
:1025C000FEF7AAFC7B685B681B6A1A687B685B681D
:1025D0001B6A1B79104619460022FEF79DFC00E09D
:1025E00000BF1037BD4680BD80B485B000AF7860B5
:1025F0000B46FB700023FB737B685B6893F88630A7
:10260000052B06D07B685B6893F88630FA789A428F
:1026100002D90123FB7320E07B685B6893F8863066
:10262000002B05D1FB78052B17D90123FB7314E090
:10263000FB78002B07D17B689B685B7F072B02D15F
:102640000123FB7309E0FB78052B06D17B689B68AF
:102650009B7F072B01D10123FB73FB7B18461437AB
:10266000BD465DF8047B704780B483B000AF7860EE
:102670000B46FB701346BB70F878FB787A6806331C
:102680009B0013445B6823F00702BB781A43796808
:10269000831D9B000B445A600C37BD465DF8047BDC
:1026A000704700BF80B483B000AF78600B46FB700A
:1026B0007B685B6B23F07062FB78013B1B061A435F
:1026C0007B685A630C37BD465DF8047B704700BFDA
:1026D00080B483B000AF78600B46FB707B685B6BA7
:1026E00023F47C12FB78013B1B041A437B685A637A
:1026F0000C37BD465DF8047B704700BF80B485B0E1
:1027000000AFF860B9607A60FB685B6923F0504203
:10271000BB681A437B681A43FB685A611437BD468D
:102720005DF8047B704700BF80B483B000AF786071
:102730000B46FB707B681B6C23F00F02FB781A437F
:102740007B681A640C37BD465DF8047B704700BF98
:1027500080B582B000AF786039607868396801224E
:10276000FEF760FC0837BD4680BD00BF80B582B073
:1027700000AF786078680121FFF7D6FF0837BD46C3
:1027800080BD00BF80B483B000AF78607B685B6BB6
:1027900043F001027B685A630C37BD465DF8047B49
:1027A000704700BF80B483B000AF786039607B6849
:1027B0005B6923F4FE423B68013B9B02134343F4F5
:1027C00080727B685A610C37BD465DF8047B7047A8
:1027D00080B584B000AFF860B9607A60F868B96815
:1027E0007A68FFF78BFF1037BD4680BD80B582B099
:1027F00000AF78600B46FB70FB7878681946FFF7EE
:1028000051FF0837BD4680BD80B582B000AF78600B
:102810000B46FB70FB7878681946FFF759FF0837BD
:10282000BD4680BD80B582B000AF78600B46FB70BE
:102830001346BB70F878FB787A6806339B00134424
:102840005B6823F0500343F010027968831D9B00FE
:102850000B445A60FA78BB78786811461A46FFF73D
:1028600003FF0837BD4680BD80B582B000AF0023AE
:10287000FB7127482749FFF76BFF2548FFF782FFC9
:1028800023480821FFF7B2FF21480821FFF7BCFFCA
:102890001F4800210022FFF79BFF1D480221FFF780
:1028A00081FF1D480E211D4AFDF7AAFD1848002191
:1028B0000422FFF7B7FF1648FFF758FF16480F210D
:1028C000174AFDF79DFD17480021174AFDF798FDAF
:1028D00016480621164AFDF793FD0D484FF4803146
:1028E000FEF704FC0A4810210022FEF7D7FD084835
:1028F000082103220123FEF77FFD05480021032262
:102900000723FEF7A1FDFB7918460837BD4680BDB9
:10291000000002481888FE1F008102485488FE1FEC
:102920000488FE1F008402488C2C000800800248A6
:10293000A82C000880B485B000AF78600023FB733A
:102940007B6801221A70FB7B18461437BD465DF880
:10295000047B704780B400AF024B1846BD465DF85B
:10296000047B7047001BB70080B483B000AF786071
:102970000649064B9B6B23F480327B6813438B63C1
:102980000C37BD465DF8047B704700BF0046005021
:10299000B0B586B000AF164B3C1D1D460FCD0FC421
:1029A0002B6823603B1D1846FDF724FE0020FDF731
:1029B00049FF4FF48030FDF7FDFE0620FDF7CEFF06
:1029C000FEF75CF803206421FEF768F80020FFF7AB
:1029D000CBFF0220FDF7FEFF0020FDF7FFFE0120E8
:1029E000FDF7E4FF0120FDF7CDFF1837BD46B0BD70
:1029F000482D000880B582B000AF0023FB71094864
:102A0000FFF798FF0346FB71FB79002B04D10648C2
:102A1000FEF726FF0346FB71FB7918460837BD46D3
:102A200080BD00BF6888FE1F4888FE1F80B483B049
:102A300000AF78600B46FB707B685B6B23F47C1205
:102A4000FB78013B1B041A437B685A630C37BD4675
:102A50005DF8047B704700BF80B483B000AF78603E
:102A60007B689B6C18460C37BD465DF8047B70474D
:102A700080B483B000AF786039607B68DA6C3B6803
:102A80001A437B68DA640C37BD465DF8047B7047F7
:102A900080B582B000AF786039607B681B681846EB
:102AA000FFF7DAFF02463B68134018460837BD4679
:102AB00080BD00BF80B582B000AF786039607B68B0
:102AC0001B6818463968FFF7D3FF0837BD4680BD3D
:102AD00080B582B000AF78600B46FB707B681968E8
:102AE0007B685B68FA78143253F822301B69084619
:102AF0001946FEF7FBFA0837BD4680BD80B590B099
:102B000000AFC823FB63FFF775FF034687F83B3030
:102B1000414A07F118031068516803C312891A80EB
:102B20003E4A3B461068516803C312891A8000234D
:102B30007B6300233B6397F83B30002B00D0FEE71C
:102B400037480021FEF79CFE36480821FFF76EFF4C
:102B50003348F96BFEF7D0FE07F1240330481946DD
:102B60000A22FEF739FF07F118032D4819460A22F9
:102B7000FEF718FF00BF2A4B9B68DB7FDBB2002B00
:102B8000F9D100BF264B9B6893F82030DBB2002BB5
:102B9000F8D123484FF40041FFF78CFF20484FF451
:102BA0008041FFF787FF3A4607F10C031C481146A6
:102BB0001A460A23FFF784F800BF194B9B68DB7F96
:102BC000DBB2002BF9D100BF154B9B6893F8203086
:102BD000DBB2002BF8D112484FF40041FFF758FF49
:102BE00078630F484FF48041FFF752FF38637B6BE7
:102BF000002B02D13B6B002BEDD009484FF4004174
:102C0000FFF758FF06484FF48041FFF753FF044891
:102C10000021FFF75DFF9FE75C2D0008682D00088D
:102C20004888FE1F0000034070B50E4B0E4CE41A9E
:102C3000A41000251E46A54204D056F8253098471A
:102C40000135F8E7FEF7A6FC084C094BE41AA4107E
:102C500000251E46A54204D056F825309847013578
:102C6000F8E770BD5488FE1F5488FE1F5488FE1F6D
:102C70005488FE1F008102480F00000000810248B6
:102C80000E0000000084024800000000A0000000C8
:102C90000100000001000000000000000000000032
:102CA00000800248060000009000000001000000C3
:102CB0000100000000000000000001001888FE1F55
:102CC00069280008742C00080488FE1F7C2C00086A
:102CD0005488FE1F000000000000000000000000FB
:102CE00000000000842C00088C2C0008A02C000898
:102CF00000000000000000000000000000000000D4
:102D0000000000000000000000000000A82C0008E7
:102D100000000000000000000000000000000000B3
:102D200000000000000000000000000000000000A3
:102D3000000000000000000003030000000000008D
:102D40000202000102000000300201010000010047
:102D50000000000000000100020101010102030463
:102D600005060708090A00000A0908070605040302
:042D7000020100005C
:102D7400FFFF0000A00000000100000001000000AF
:102D84000000000000000000400D030000000000EF
:102D94000000000008000000000000000000000027
:102DA400000000000000000000000000000000001F
:102DB400000407000000010000000248BC2C0008C9
:042DC4002488FE1F42
:0400000508000201EC
:00000001FF
