:020000040C00EE
:100000000088FE1F010200089902000899020008FA
:1000100099020008990200089902000800000000F7
:10002000000000000000000000000000990200082D
:1000300099020008000000009902000899020008D7
:100040009902000899020008990200089902000824
:100050009902000899020008990200089902000814
:1000600099020008000000000000000000000000ED
:100070009902000800000000990200089902000897
:10008000511F00089902000899020008990200080F
:1000900099020008990200089902000899020008D4
:1000A00099020008990200089902000899020008C4
:1000B00099020008990200089902000899020008B4
:1000C00099020008990200089902000899020008A4
:1000D0009902000899020008990200089902000894
:1000E0009902000899020008990200089902000884
:1000F0009902000899020008990200089902000874
:100100009902000899020008990200089902000863
:100110009902000899020008990200089902000853
:100120009902000899020008990200089902000843
:100130009902000899020008990200089902000833
:100140009902000899020008990200089902000823
:100150009902000899020008990200089902000813
:10016000000000000000000000000000000000008F
:1001700099020008990200089902000899020008F3
:1001800099020008990200089902000899020008E3
:1001900099020008990200089902000899020008D3
:1001A00099020008990200089902000899020008C3
:1001B00099020008990200089902000899020008B3
:1001C00099020008990200089902000899020008A3
:1001D0009902000899020008990200080000000036
:1001E0009902000899020008990200089902000883
:1001F0009902000899020008990200080000000016
:10020000DFF874D01D4880471D4C1E4DAC4209DA02
:1002100021686268A368043BA2BFC858D050FAE7BF
:100220000C34F3E7184B194CA34208DA19685A68E2
:100230000020043AA4BF8850FBE70833F4E71448D1
:1002400080471448804700009C28000C0088FE1F4F
:10025000D00000009C28000C0088FE1F0000000059
:10026000D088FE1F100000000000002000000000E9
:1002700000000020000000000088FE1F9D02000812
:1002800048020008600200086002000878020008C6
:100290008D270008351F0008FEE7000098B500AF65
:1002A000054A4FF0005314460FCB84E80F0001F0CD
:1002B000D3FB01F04FFC98BDC4FF032080B584B090
:1002C00000AF2F4BDB6803F48033002B3ED02D4B67
:1002D000DB6803F00103002B02D02B4BFB6002E034
:1002E00001F01AFCF860274B1B6803F00403002B95
:1002F00020D0244B9B6803F070631B0E0133BB605E
:10030000204B9B6803F4FE431B0A01337B601D4BAB
:100310009B6803F4FE031B0C01333B60BB683A6827
:1003200002FB03F3FA68B2FBF3F37A6802FB03F310
:10033000FB600DE0134B9B6803F07F0301333B60D0
:10034000FA683B68B2FBF3F3FB6001E00E4BFB6025
:100350000B4BDB68DBB20133FA68B2FBF3F3FB60F3
:10036000074B1B6903F001030133FA68B2FBF3F397
:10037000FB60064AFB6813601037BD4680BD00BFB6
:10038000004600501047005000366E01C0FF0320A9
:1003900080B485B000AFF8600B467A60FB72FB7AE0
:1003A0009B08DBB21846FB7A9B08DBB21A46FB6857
:1003B000043253F82220FB7A03F00303DB001946D2
:1003C000F8238B40DB4302EA0301FB68021D43F87C
:1003D0002210FB685A6FFB7A5B00194603238B409F
:1003E000DB431A40FB685A67FB683A4A934203D0E2
:1003F000FB68394A93420AD1FB681A6EFB7A0121E5
:1004000001FA03F3DB431A40FB681A6642E07B689B
:100410001B78DBB25BB2002B3CDA7B685A68FB7A54
:100420009A40FB685A60FB7ADB08DBB21846FB7A1D
:10043000DB08DBB21A46FB68103253F82220FB7A45
:1004400003F007039B00194607238B40DB4302EAB6
:100450000301FB6800F1100243F82210FB7ADB086D
:10046000DBB21846FB7ADB08DBB21A46FB681032B7
:1004700053F822207B681B7A1946FB7A03F00703A6
:100480009B0001FA03F342EA0301FB6800F110024A
:1004900043F82210FB7A9B08DBB21846FB7A9B08D4
:1004A000DBB21A46FB68043253F822207B681B78C3
:1004B0001946FB7A03F00303DB0001FA03F342EA77
:1004C0000301FB68021D43F822101437BD465DF896
:1004D000047B7047008E0248008F024880B400AF52
:1004E000034BD3F8C4301846BD465DF8047B704713
:1004F0000040005080B584B000AF7860FFF7DEFEAA
:100500000B4B1B680B4AA2FB03239A0C7B6802FB74
:1005100003F37B600023FB6003E000BFFB68013353
:10052000FB60FA687B689A42F7D31037BD4680BDFE
:10053000C0FF032083DE1B4380B400AF034B5B6826
:100540001846BD465DF8047B704700BF74400050FC
:1005500080B483B000AF7860034A7B68D3600C3707
:10056000BD465DF8047B704774400050B0B584B060
:1005700002AF7860002000F091F800F083FA7B6809
:10058000DB79002B0AD000F0BBFA00BF00F0A6FA1E
:10059000034683F00103DBB2002BF7D17B685B7A63
:1005A000184600F0F5F800BFFFF798FF0346002B50
:1005B000FAD17B681B7A184600F03EFA7B681B7CF8
:1005C000184600F003F97B685B7C184600F026F9BA
:1005D0007B689B7C184600F00DF97B68DB7C184635
:1005E00000F030F97B689B79002B0AD000F0C0FA4C
:1005F00000BF00F0E5FA034683F00103DBB2002BF5
:10060000F7D17B68DB78002B09D17B689B7983F07D
:100610000103DBB2002B17D000F0F6FA14E000F073
:10062000E3FA7B6899887B68DA787B685B781D469B
:100630007B681B781C467B689B78009308461146B4
:100640002A46234600F0F0FA7B68DB68B3F5803F6A
:1006500003D14FF4803000F021F8FFF72FFE083768
:10066000BD46B0BD80B485B000AF78607B681B0F1D
:10067000FB607B6823F07043BB60FA6813465B0045
:1006800013449B001A46044B1344BA681A6014378B
:10069000BD465DF8047B70471444005080B483B0BD
:1006A00000AF78600649064BDB6823F480327B6834
:1006B0001343CB600C37BD465DF8047B704700BF29
:1006C0000046005080B483B000AF78600649064B06
:1006D0009B6923F480327B6813438B610C37BD46E2
:1006E0005DF8047B704700BF0046005080B483B0C3
:1006F00000AF78600649064B5B6A23F440327B68A2
:1007000013434B620C37BD465DF8047B704700BF56
:100710000046005080B483B000AF0346FB80FB88E6
:10072000002B08D10A4A0A4BDB6823F4807323F0BC
:100730000103D36007E0064A054BDB6843F480738E
:1007400043F00103D3600C37BD465DF8047B70476E
:100750001047005080B483B000AF0346FB7100BF68
:10076000094BD3F8C43003F00803002BF8D1074934
:10077000064BDB6823F04002FB791343CB600C3758
:10078000BD465DF8047B70470040005000430050B8
:1007900080B483B000AF0346FB7100BF094BD3F8B0
:1007A000C43003F00803002BF8D10749064BDB687F
:1007B00023F08002FB791343CB600C37BD465DF814
:1007C000047B7047004000500043005080B483B069
:1007D00000AF78600649064BDB6823F0FF027B68B8
:1007E000013B1343CB600C37BD465DF8047B70477B
:1007F0000046005080B483B000AF78600649064BD5
:100800001B6A23F001027B68013B13430B620C3728
:10081000BD465DF8047B70470046005080B483B04D
:1008200000AF78600649064B1B6923F001027B6824
:10083000013B13430B610C37BD465DF8047B7047E9
:100840000046005080B483B000AF78600649064B84
:100850005B6923F001027B68013B13434B610C375A
:10086000BD465DF8047B70470046005080B483B0FD
:1008700000AF78600649064B9B6923F007027B684E
:10088000013B13438B610C37BD465DF8047B704719
:100890000046005080B483B000AF78600649064B34
:1008A000DB6923F03F027B68013B1343CB610C37CC
:1008B000BD465DF8047B70470046005080B483B0AD
:1008C00000AF78600649064B5B6A23F0FF027B6845
:1008D000013B13434B620C37BD465DF8047B704708
:1008E0000046005080B483B000AF78600649064BE4
:1008F0009B6B23F003027B68013B13438B630C3734
:10090000BD465DF8047B70470046005080B483B05C
:1009100000AF0346FB71044AFB7953600C37BD46B8
:100920005DF8047B704700BF0046005080B485B07E
:1009300000AF78607B681B0FFB607B6823F070431F
:10094000BB60FA6813465B0013449B001A46044BD5
:100950001344BA681A601437BD465DF8047B7047CB
:100960004846005080B400AF054A054B5B6923F44C
:10097000803323F002035361BD465DF8047B70476A
:100980001047005080B483B000AF78603960284AC7
:10099000274B5B6943F00103536100BF244B1B6984
:1009A00003F00103002BF9D0214A214B5B6943F08E
:1009B000100353611E493B68013B1A027B68013BEF
:1009C0001B0613434B611A4A194B5B6943F0400302
:1009D0005361174A164B5B6923F010035361144AA5
:1009E000134B5B6943F48023536100BF104B1B69B9
:1009F00003F00403002BF9D00D4A0D4B5B6923F083
:100A00000103536100BF0A4B1B6903F00103002B74
:100A1000F9D1074A064B5B6923F040035361054B4C
:100A20000822DA600C37BD465DF8047B704700BFD2
:100A3000104700506041005080B582B000AF0346BF
:100A4000FB710F4A0E4B5B6843F480135360FB79D4
:100A5000012B0ED10A4A0A4B5B6823F480135360C2
:100A60006420FFF747FD064A054B5B6843F400230B
:100A700053606420FFF73EFD0837BD4680BD00BFD0
:100A80001047005080B400AF124B1B6803F0010305
:100A9000002B09D10F4B01225A6000BF0D4B1B6880
:100AA00003F00103002BF9D00B4B1B6803F4007318
:100AB000002B0AD0084B4FF400729A6000BF064B1F
:100AC0001B6803F40073002BF9D1BD465DF8047B6D
:100AD000704700BF004200500044005080B400AF97
:100AE000064B1B6803F00803002B0CBF01230023F7
:100AF000DBB21846BD465DF8047B704700430050EA
:100B000080B500AF4FF40000FFF722FD174A174BE6
:100B1000DB6923F03003D36100BFFFF70DFD03460F
:100B200003F40003002BF8D04FF40030FFF710FD62
:100B30000E4B08225A6000BFFFF7FEFC034603F489
:100B40000033002BF8D04FF40020FFF701FD074AD7
:100B5000064BDB6843F00803D36000BFFFF7ECFCF3
:100B6000034603F40023002BF8D080BD004300505F
:100B7000B0B500AF0F4A0F4B5B6823F4803353606E
:100B80000D4D0D4B5B6823F4702424F0300400F00D
:100B9000C3FF0246094BA3FB02231B0D013B1B04B1
:100BA00023436B60034A034B5B6823F400335360B9
:100BB000B0BD00BF10470050004700506BCA5F6BCC
:100BC00080B400AF074B1B6803F46073B3F5607F1C
:100BD0000CBF01230023DBB21846BD465DF8047B41
:100BE000704700BF1047005080B400AF054A054B66
:100BF0005B6823F4803323F002035360BD465DF845
:100C0000047B70471047005080B400AF054A054B85
:100C10005B6843F4803343F002035360BD465DF8E4
:100C2000047B70471047005080B586B000AFBA60B3
:100C30007B600346FB810B467B73FB891846FFF7FD
:100C400069FD7B7B012B40F08B80FB89002B09D158
:100C500000F062FF0246544BA3FB02239B0C9B0552
:100C60007B6102E04FF0C0637B617B697A6802FBC5
:100C700003F2BB68B2FBF3F37B617B694B4AA2FBD7
:100C800003231B099B0D3B61494A494B5B6843F0B9
:100C90000103536000BF464B1B6803F00103002BA8
:100CA000F9D0434A424B5B6843F01003536040491C
:100CB0003F4B9A683F4B13407A68013A12021A433D
:100CC0003B69013B1B041A43BB68013B1B061343F2
:100CD0008B60374A364B5B6843F040035360344ABD
:100CE000334B5B6823F010035360314A304B5B6831
:100CF00043F48023536000BF2D4B1B6803F00403B3
:100D0000002BF9D02A4A2A4B5B6823F00103536079
:100D100000BF274B1B6803F00103002BF9D17B694F
:100D2000254AA2FB03235B099B0D3B613A6A3B69A1
:100D30009A4202D2386900F045F87B695B081F4A85
:100D4000A2FB03235B099B0D3B613A6A3B699A4214
:100D500002D2386900F036F8386A00F033F81CE047
:100D60001349134B9B6823F07F023B6A013B1343FB
:100D70008B6000BF0E4B1B6803F01003002BF9D0F3
:100D80000B4A0B4B5B6843F00103536000BF084BF9
:100D90001B6803F00103002BF9D0094B0522DA6030
:100DA0001837BD4680BD00BF83DE1B43ABAAAAAA8D
:100DB00010470050FF8080F089888888B7600BB6A4
:100DC0006041005080B582B000AF78600B490B4B9A
:100DD0009B6823F4FE027B68013B1B0413438B607A
:100DE00000BF064B1B6803F02003002BF9D0322014
:100DF000FFF780FB0837BD4680BD00BF104700509D
:100E000080B483B000AF78607B684FF48072DA60A2
:100E10000C37BD465DF8047B704700BF80B483B0DB
:100E200000AF78607B6801221A610C37BD465DF81F
:100E3000047B704780B582B000AF78607B68094A58
:100E4000934203D18020FFF70DFC07E07B68064A40
:100E5000934203D14FF48070FFF704FC0837BD467E
:100E600080BD00BF000002400040024080B582B05B
:100E700000AF78607B68094A934203D18020FFF776
:100E800055FD07E07B68064A934203D14FF480701A
:100E9000FFF74CFD0837BD4680BD00BF0000024093
:100EA0000040024080B582B000AF78601020FFF7AC
:100EB0002DFD7868FFF7DAFF7868FFF7BBFF08378A
:100EC000BD4680BD80B584B000AF78600B46FB7036
:100ED0007868FFF7E7FF7868FFF792FF7B681B6889
:100EE000FB60FB6823F44043FB60FB789B03FA68DC
:100EF0001343FB607B68FA681A601037BD4680BDFB
:100F000080B582B000AF786039607868FFF786FFFF
:100F10003B681A687B685A613B685B7BC3F30013CC
:100F2000DBB21A057B685A603B681B7BC3F3030383
:100F3000DBB21A467B685A623B681B7BC3F3031320
:100F4000DBB21A467B68DA623B685B7BC3F3030360
:100F5000DBB21A467B681A623B685A687B689A6102
:100F60003B689B6883F014027B689A640837BD462F
:100F700080BD00BF80B483B000AF78600B467B803B
:100F80007A887B685A630C37BD465DF8047B7047EE
:100F900080B483B000AF78600B46FB7013463B8093
:100FA000FB78002B03D13A887B68DA6302E03A8849
:100FB0007B685A640C37BD465DF8047B704700BF00
:100FC00080B487B000AF78600B46FB701346BB70EF
:100FD000FB780B2B3BD801A252F823F00D10000830
:100FE0000D10000817100008171000082110000845
:100FF000211000084F1000084F1000082B100008A7
:1010000037100008431000084310000803237B61D9
:1010100000233B6120E00C237B6102233B611BE04A
:1010200030237B6104233B6116E04FF440737B6106
:1010300008233B6110E04FF440637B610A233B616E
:101040000AE04FF440537B610C233B6104E0002332
:101050007B6100233B6100BF7B69002B13D07B6861
:10106000D3F8A830FB607B69DB43FA681340FB6070
:10107000BA783B6902FA03F3FA681343FB607B68B2
:10108000FA68C3F8A8201C37BD465DF8047B70479A
:1010900080B485B000AF786039603B78C3F3020359
:1010A000DBB21A467B88C3F309039BB21B041343CC
:1010B000FB607B68FA68C3F8F021FB78C3F3001388
:1010C000DBB21A07FB78C3F38103DBB29B061A433A
:1010D000FB78C3F34013DBB25B071343FB60FB7881
:1010E000C3F38013DBB29B07FA681343FB607B6892
:1010F000D3F8F021FB68134343F000427B68C3F848
:10110000F0211437BD465DF8047B704780B483B08E
:1011100000AF78607B68D3F8843043F080627B68EE
:10112000C3F884200C37BD465DF8047B704700BFD0
:1011300080B483B000AF78607B68D3F8843023F04C
:1011400080627B68C3F884200C37BD465DF8047B61
:10115000704700BF80B500AF0120FFF7E7FB01201B
:10116000FFF780FA80BD00BF80B582B000AF786025
:101170003960FFF7EFFF3B685A697B681A603B688C
:101180005B6843F400427B68C3F880203B689A6840
:101190007B68C3F8A0203B68DA687B68C3F8A420AA
:1011A0003B681A697B68C3F880223B681A687B68D1
:1011B000C3F8B8200837BD4680BD00BF80B485B0F5
:1011C00000AFF860B9603B601346FB71FB79002B00
:1011D00009D1BA6840F21F731340FA6839682831A0
:1011E00042F8213007E0BA68054B1340FA683968C5
:1011F000283142F821301437BD465DF8047B704732
:1012000000001F0780B485B000AF78607B68D3F81A
:10121000803043F000427B68C3F880200023FB73DA
:1012200017E0FB7B0F4A52F82330BB60BB68D3F852
:10123000803003F44033002B08D000E000BFBB68CF
:10124000D3F8803003F08053002BF7D1FB7B0133C0
:10125000FB73FB7B032BE4D91437BD465DF8047B9D
:10126000704700BFD827000880B485B000AF786011
:101270000B46FB70FB78032B03D9FB78043BFB6028
:1012800001E0FB78FB607B68D3F8403123F00F026C
:101290007B68C3F840217B68D3F84021FB681A4380
:1012A0007B68C3F840211437BD465DF8047B704766
:1012B00080B582B000AF786039603B687868596863
:1012C0000022002300F028F83B6878685968012262
:1012D000002300F021F83B68786899680022012318
:1012E00000F01AF83B68786899680122012300F041
:1012F00013F83B681A697B68C3F880203B68DA689A
:101300007B68C3F8B8203B6878681968FFF7C0FEAF
:101310000837BD4680BD00BF80B48DB000AFF86017
:10132000B9603B601346FB71FB79002B13D1082396
:10133000FB624FF4E0637B620023BB621F233B62CE
:101340003B7AC3F30403DBB2FB617B7AC3F3020392
:10135000DBB2FB7613E01823FB624FF0E0637B62A5
:101360001023BB624FF4F8133B62BB7AC3F3040350
:10137000DBB2FB61FB7AC3F30203DBB2FB76FB68F3
:101380003A68283253F822307B617B6ADB437A6902
:1013900013407B61FA7EFB6A02FA03F37A69134316
:1013A0007B613B6ADB437A6913407B61BB6AFA6904
:1013B00002FA03F37A6913437B61FB683A682832C7
:1013C000796943F822103437BD465DF8047B7047D5
:1013D00080B485B000AF78600B46FB707B68D3F8B3
:1013E0008030FB60FB6823F00303FB60FB78FA6846
:1013F0001343FB607B68FA68C3F880201437BD464E
:101400005DF8047B704700BF80B586B000AF7860A0
:1014100039600023FB7509E0FB7D394A52F823301F
:101420001846FFF785FEFB7D0133FB75FB7D032B23
:10143000F2D900233B613B681B7803F00303DBB266
:10144000002B02D04FF400633B610023FB7521E0C9
:10145000FB7D2B4A52F82330D3F88430FB60FB68C5
:1014600023F44073FB603B681B78C3F38103DBB25A
:101470001B02FA681343FB60FA683B691343FB6085
:10148000FB7D1F4A52F82330FA68C3F88420FB7DA5
:101490000133FB75FB7D032BDAD93B685B6843F4B2
:1014A000000343F400437A68C2F800323B689B684B
:1014B00043F001027B68C3F804223B681B7803F009
:1014C0000303DBB2022B07D17B68D3F8043243F469
:1014D00080327B68C3F804220023FB7509E0FB7DA2
:1014E000074A52F823301846FFF710FEFB7D013300
:1014F000FB75FB7D032BF2D91837BD4680BD00BFBD
:10150000D827000880B489B000AFF860B9607A606D
:101510007B681B7BBB61FB68D3F888307B61BB6851
:10152000012202FA03F3DB437A6913407B61BB6853
:10153000BA6902FA03F37A6913437B61FB687A693B
:10154000C3F888207B685B7B5BB2002B29DB002320
:10155000FB61BB68012B0AD10823FB61FB68D3F850
:10156000B03023F4F852FB68C3F8B0200CE0BB683D
:10157000002B09D10023FB61FB68D3F8B03023F0C6
:101580001F02FB68C3F8B020FB68D3F8B0307A685C
:10159000527B51B2FA6901FA02F21A43FB68C3F8AE
:1015A000B020FB68D3F8C8207B685B681A43FB68EF
:1015B000C3F8C820FB68D3F8D0207B689B681A4327
:1015C000FB68C3F8D0207B681968FB68BA68803272
:1015D00043F822102437BD465DF8047B704700BFF6
:1015E00080B400AFBD465DF8047B704780B483B023
:1015F00000AF78600B46FB70FB7801229A407B6855
:10160000DA600C37BD465DF8047B704780B483B068
:1016100000AF78607B680122DA600C37BD465DF868
:10162000047B704780B483B000AF786039607B681A
:101630003A681A610C37BD465DF8047B704700BFFD
:1016400080B483B000AF78600B46FB707B68D3F842
:10165000A420FB78012101FA03F31A437B68C3F845
:10166000A4200C37BD465DF8047B704780B584B07C
:1016700000AF78600123FB737B6893F82930022B5D
:101680004ED17B681B68184600F034F90346FB73A3
:10169000FB7B002B40D17B689A687B68DB68104637
:1016A0001946FFF72DFC7B689A687B68DB699BB263
:1016B00010461946FFF75EFC7B689A687B689B6959
:1016C0009BB2104600211A46FFF762FC7B685A68FD
:1016D0007B685B6A10461946FFF7A4FF786800F044
:1016E00025F87B6819697B6893F82C207B685B6917
:1016F000084611461A46FEF74BFE7B68002283F827
:1017000029207B6893F82F30002B02D0786800F0F6
:10171000BBF80023FB7303E07B68022283F82920D7
:10172000FB7B18461037BD4680BD00BF80B582B038
:1017300000AF78607B6893F83030002B0FD07B6867
:101740009B6818460021FFF77BFF7B689A687B68DF
:1017500093F82A30104600211A46FFF731FC7B68C7
:1017600093F83130002B0FD07B689B68184602211C
:10177000FFF766FF7B689A687B6893F82B3010460A
:1017800002211A46FFF71CFC0837BD4680BD00BF8A
:1017900080B582B000AF78607B6893F82930002B69
:1017A00004D07B6893F82930042B11D17B685A68E8
:1017B0007B6893F82E3010461946FFF717FF7B68B9
:1017C0009B681846FFF722FF7B68032283F82920D5
:1017D0000837BD4680BD00BF80B586B000AF7860D9
:1017E00039600123FB757B6893F82930022B2DD0DB
:1017F0003B6842F21072934228D87B68DB69013360
:101800003B613B68C3F51C5310333A6902FB03F399
:10181000114AA2FB03235B0BFB607B68FA689A61A9
:101820007B683A681A627B689A68FB689BB21046CC
:1018300000211A46FFF7ACFB7B685A687B685B6A3D
:1018400010461946FFF7EEFE0023FB75FB7D184698
:101850001837BD4680BD00BF5917B7D180B584B0D9
:1018600000AF78600123FB737B6893F82830012B6D
:1018700004D17868FFF7FAFE0346FB73FB7B18463A
:101880001037BD4680BD00BF80B582B000AF786024
:101890007B6893F82830012B02D17868FFF778FF36
:1018A0000837BD4680BD00BF80B584B000AF78600A
:1018B00039600123FB737B6893F82830012B05D135
:1018C00078683968FFF788FF0346FB73FB7B18468F
:1018D0001037BD4680BD00BF80B483B000AF7860D4
:1018E0007B684FF48072DA600C37BD465DF8047B8C
:1018F000704700BF80B582B000AF78607B685B7BCB
:1019000083F00103DBB2002B0FD07B689A687B6801
:101910001B7B10461946FFF7D5FA7B689B68184673
:10192000FFF7DAFF7B6801225A7300231846083755
:10193000BD4680BD80B483B000AF786039607B68FD
:10194000D3F880203B681033194601238B401A439B
:101950007B68C3F880200C37BD465DF8047B704778
:1019600080B584B000AF78607B681B7E022B49D1C4
:101970007B685A697B681B6910461946FFF7F4FBC0
:101980000023FB602FE07B68FA6853F82230196867
:101990007B68FA6853F822305B6808461946FFF7FF
:1019A00087FC7B68FA6853F822301B6818460321CD
:1019B000FFF70EFD7B68FA6853F822301B7A83F03C
:1019C0000103DBB2002B05D07B685B691846F96820
:1019D000FFF7B0FF7B68FA6853F8223000225A7292
:1019E000FB680133FB60FB68032BCCD97B685B7E13
:1019F000002B04D07B685B691846FFF703FC7B680B
:101A000000221A767B681B7E18461037BD4680BDC3
:101A100080B485B000AF78607B6803F00703FB609B
:101A20000C4BDB68BB60BA684FF6FF031340BB602A
:101A3000FB681A02BB68134343F0BF6343F40033EF
:101A4000BB60044ABB68D3601437BD465DF8047BB5
:101A5000704700BF00ED00E080B582B000AF01200C
:101A6000FFF7D6FF72B6214B214A9A60BFF34F8F22
:101A700062B61E4A1D4BD3F8883043F47003C2F897
:101A800088301C4B03F5805314331B687B607B68E4
:101A900023F00F037B607B6843F004037B60154BEE
:101AA00003F5805314337A681A60104A0F4B5B6950
:101AB00023F0100353610D4A0C4B5B6923F00803BC
:101AC00053610A4A094B5B6A23F480335362074A25
:101AD000064B5B6A23F400335362044A034B5B6A90
:101AE00023F4802353620837BD4680BD00ED00E03B
:101AF000000000080010005880B485B000AF786086
:101B00000023FB737B6801221A70FB7B1846143795
:101B1000BD465DF8047B704780B400AF024B1846A9
:101B2000BD465DF8047B7047001BB70080B483B0EE
:101B300000AF78600649064B9B6B23F480327B68CC
:101B400013438B630C37BD465DF8047B704700BFC1
:101B500000460050B0B586B000AF164B3C1D1D4688
:101B60000FCD0FC42B6823603B1D1846FEF7FEFC0B
:101B70000020FEF7EFFD4FF48030FEF7A3FD0620B6
:101B8000FEF774FEFEF7EEFE03206421FEF7FAFE78
:101B90000020FFF7CBFF0220FEF7A4FE0020FEF797
:101BA000A5FD0120FEF78AFE0120FEF773FE18371F
:101BB000BD46B0BD6C28000880B400AF044BDB68A4
:101BC00003F4E0631B0A1846BD465DF8047B7047CA
:101BD00000ED00E080B483B000AF0346FB7197F9DD
:101BE0000730002B0BDB084997F907305B09FA79BE
:101BF00002F01F02012000FA02F241F823200C3704
:101C0000BD465DF8047B704700E100E080B483B01E
:101C100000AF03463960FB7197F90730002B0ADBF0
:101C20000D4997F907303A68D2B29200D2B20B440C
:101C300083F800230AE00949FB7903F00F03043B12
:101C40003A68D2B29200D2B20B441A760C37BD4633
:101C50005DF8047B704700BF00E100E000ED00E0AC
:101C600080B489B000AFF860B9607A60FB6803F0B7
:101C70000703FB61FB69C3F10703062B28BF06239B
:101C8000BB61FB690633062B02D9FB69013B00E00F
:101C900000237B61BB69012202FA03F35A1EBB6871
:101CA0001A407B699A407B69012101FA03F3591EAE
:101CB0007B680B40134318462437BD465DF8047B10
:101CC000704700BF80B483B000AF78607B68D3F802
:101CD000043243F400727B68C3F804220C37BD461B
:101CE0005DF8047B704700BF80B485B000AFF8603A
:101CF000B9607A60FB68BA68603253F822207B686A
:101D0000012101FA03F342EA0301FB68BA68603279
:101D100043F822101437BD465DF8047B704700BFBE
:101D200080B485B000AFF860B9607A607B681968EC
:101D3000FB68BA68A03243F822101437BD465DF83C
:101D4000047B704780B483B000AF786039607B68F3
:101D50003A68C03253F822309BB218460C37BD4661
:101D60005DF8047B704700BF90B585B000AF786028
:101D70007B681B7E022B40F099807B68DB681846ED
:101D8000FFF7EEFD0346BB737B68DB685A697B682F
:101D90009B681046196800220023FFF70FFA7B6842
:101DA000DB685A697B685B6810461946FFF72CFBB5
:101DB0000023FB732EE07B681B68FA7B53F822300C
:101DC000BB60BB689A68BB685B7B1946BB681B68D5
:101DD00010461A46FFF796FBBB689A68BB681B68FB
:101DE0009B78C3F30303DBB21946BB685B681046FC
:101DF0001A46FFF795FF7B68DB685A69BB681B7B57
:101E00001946BB685B7B10461A46FFF76DFFFB7BEC
:101E10000133FB73FB7B002BCDD07B685B681B7AA7
:101E200003F00803DBB2002B2CD07B681B69002B6E
:101E300028D07B681B691B68DCB2FFF7BDFE01463A
:101E40007B681B695A687B681B699B68084611465A
:101E50001A46FFF705FF024663B218461146FFF720
:101E6000D5FE7B68DB685A697B685B7E1046194645
:101E7000FFF7FAF97B681B691B68DBB25BB2184697
:101E8000FFF7A8FE7B685B69002B02D07B685B696B
:101E900098477B689B7E002B05D07B68DB685B697D
:101EA0001846FFF70FFF7B68BA7B1A767B681B7EAC
:101EB00018461437BD4690BD80B584B000AF786039
:101EC0007B689A687B681B689B78C3F30303DBB26B
:101ED00010461946FFF736FF0346FB81FB8918467B
:101EE0001037BD4680BD00BF80B582B000AF002373
:101EF000FB710D48FFF700FE0346FB71FB79002BD9
:101F000004D10A48FFF7AAFC0346FB71FB79002BBA
:101F100004D10748FFF728FF0346FB71FB791846F9
:101F20000837BD4680BD00BFD088FE1F0088FE1F59
:101F3000B488FE1F80B582B000AFFFF7D5FF03461F
:101F4000FB71FB79002B00D0FEE7FEE700000000EC
:101F500080B500AF1448FFF7AFFF03461A46134B96
:101F60001A80124B1B88184600F078F902460B467F
:101F7000104619460AA3D3E9002300F0FFFA0246EF
:101F80000B461046194600F0E1FB0246084B1A606A
:101F9000074B1B6807481946FFF786FC80BD00BF4A
:101FA0006891ED7C3F35DA3FA088FE1FD888FE1F80
:101FB000DC88FE1F0088FE1F81F0004102E000BFA8
:101FC00083F0004330B54FEA41044FEA430594EAF9
:101FD000050F08BF90EA020F1FBF54EA000C55EA34
:101FE000020C7FEA645C7FEA655C00F0E2804FEA05
:101FF0005454D4EB5555B8BF6D420CDD2C4480EAE7
:10200000020281EA030382EA000083EA010180EA16
:10201000020281EA0303362D88BF30BD11F0004F64
:102020004FEA01314FF4801C4CEA113102D040429A
:1020300061EB410113F0004F4FEA03334CEA1333D5
:1020400002D0524263EB430394EA050F00F0A780ED
:10205000A4F10104D5F1200E0DDB02FA0EFC22FAE8
:1020600005F2801841F1000103FA0EF2801843FADC
:1020700005F359410EE0A5F120050EF1200E012ACD
:1020800003FA0EFC28BF4CF0020C43FA05F3C0180B
:1020900051EBE37101F0004507D54FF0000EDCF184
:1020A000000C7EEB00006EEB0101B1F5801F1BD32D
:1020B000B1F5001F0CD349085FEA30004FEA3C0C31
:1020C00004F101044FEA445212F5800F80F09A8027
:1020D000BCF1004F08BF5FEA500C50F1000041EB2B
:1020E000045141EA050130BD5FEA4C0C404141EB2F
:1020F000010111F4801FA4F10104E9D191F0000F56
:1021000004BF01460020B1FA81F308BF2033A3F1D8
:102110000B03B3F120020CDA0C3208DD02F1140CCF
:10212000C2F10C0201FA0CF021FA02F10CE002F10A
:102130001402D8BFC2F1200C01FA02F120FA0CFC03
:10214000DCBF41EA0C019040E41AA2BF01EB04514C
:10215000294330BD6FEA04041F3C1CDA0C340EDC4A
:1021600004F11404C4F1200220FA04F001FA02F38D
:1021700040EA030021FA04F345EA030130BDC4F14B
:102180000C04C4F1200220FA02F001FA04F340EA40
:102190000300294630BD21FA04F0294630BD94F0F1
:1021A000000F83F4801306BF81F480110134013DD8
:1021B0004EE77FEA645C18BF7FEA655C29D094EA49
:1021C000050F08BF90EA020F05D054EA000C04BFC7
:1021D0001946104630BD91EA030F1EBF00210020B2
:1021E00030BD5FEA545C05D14000494128BF41F051
:1021F000004130BD14F580043CBF01F5801130BDB5
:1022000001F0004545F0FE4141F470014FF000003F
:1022100030BD7FEA645C1ABF194610467FEA655CF0
:102220001CBF0B46024650EA013406BF52EA033592
:1022300091EA030F41F4002130BD00BF90F0000F80
:1022400004BF0021704730B54FF4806404F13204BC
:102250004FF000054FF0000150E700BF90F0000F75
:1022600004BF0021704730B54FF4806404F132049C
:1022700010F0004548BF40424FF000013EE700BF6C
:1022800042004FEAE2014FEA31014FEA02701FBFFC
:1022900012F07F4393F07F4F81F06051704792F0CE
:1022A000000F14BF93F07F4F704730B54FF4607448
:1022B00001F0004521F0004120E700BF50EA010293
:1022C00008BF704730B54FF000050AE050EA010240
:1022D00008BF704730B511F0004502D5404261EBB0
:1022E00041014FF4806404F132045FEA915C3FF4F1
:1022F000DCAE4FF003025FEADC0C18BF03325FEA8A
:10230000DC0C18BF033202EBDC02C2F1200300FA3E
:1023100003FC20FA02F001FA03FE40EA0E0021FA63
:1023200002F11444C1E600BF70B54FF0FF0C4CF44D
:10233000E06C1CEA11541DBF1CEA135594EA0C0F03
:1023400095EA0C0F00F0DEF82C4481EA030621EA3E
:102350004C5123EA4C5350EA013518BF52EA033579
:1023600041F4801143F4801338D0A0FB02CE4FF02B
:102370000005E1FB02E506F00042E0FB03E54FF05B
:102380000006E1FB03569CF0000F18BF4EF0010E53
:10239000A4F1FF04B6F5007F64F5407404D25FEA4F
:1023A0004E0E6D4146EB060642EAC62141EA555102
:1023B0004FEAC52040EA5E504FEACE2EB4F1FD0C44
:1023C00088BFBCF5E06F1ED8BEF1004F08BF5FEAC2
:1023D000500E50F1000041EB045170BD06F0004674
:1023E00046EA010140EA020081EA0301B4EB5C0421
:1023F000C2BFD4EB0C0541EA045170BD41F4801119
:102400004FF0000E013C00F3AB8014F1360FDEBF3D
:10241000002001F0004170BDC4F10004203C35DA19
:102420000C341BDC04F11404C4F1200500FA05F39C
:1024300020FA04F001FA05F240EA020001F000423D
:1024400021F0004110EBD37021FA04F642EB0601B3
:102450005EEA430E08BF20EAD37070BDC4F10C04DD
:10246000C4F1200500FA04F320FA05F001FA04F2A1
:1024700040EA020001F0004110EBD37041F100018D
:102480005EEA430E08BF20EAD37070BDC4F1200598
:1024900000FA05F24EEA020E20FA04F301FA05F200
:1024A00043EA020321FA04F001F0004121FA04F2A8
:1024B00020EA020000EBD3705EEA430E08BF20EA78
:1024C000D37070BD94F0000F0FD101F000464000B2
:1024D00041EB010111F4801F08BF013CF7D041EA34
:1024E000060195F0000F18BF704703F00046520038
:1024F00043EB030313F4801F08BF013DF7D043EA09
:102500000603704794EA0C0F0CEA135518BF95EABE
:102510000C0F0CD050EA410618BF52EA4306D1D145
:1025200081EA030101F000414FF0000070BD50EA64
:10253000410606BF1046194652EA430619D094EAEE
:102540000C0F02D150EA013613D195EA0C0F05D1D8
:1025500052EA03361CBF104619460AD181EA03012C
:1025600001F0004141F0FE4141F470014FF00000E4
:1025700070BD41F0FE4141F4780170BD70B54FF07F
:10258000FF0C4CF4E06C1CEA11541DBF1CEA1355FF
:1025900094EA0C0F95EA0C0F00F0A7F8A4EB0504E1
:1025A00081EA030E52EA03354FEA013100F08880D8
:1025B0004FEA03334FF0805545EA131343EA1263A1
:1025C0004FEA022245EA111545EA10654FEA002656
:1025D0000EF000419D4208BF964244F1FD0404F50F
:1025E000407402D25B084FEA3202B61A65EB03056B
:1025F0005B084FEA32024FF480104FF4002CB6EB28
:10260000020E75EB030E22BFB61A754640EA0C00A7
:102610005B084FEA3202B6EB020E75EB030E22BFE7
:10262000B61A754640EA5C005B084FEA3202B6EB28
:10263000020E75EB030E22BFB61A754640EA9C00E7
:102640005B084FEA3202B6EB020E75EB030E22BFB7
:10265000B61A754640EADC0055EA060E18D04FEA75
:10266000051545EA16754FEA06164FEAC30343EA15
:1026700052734FEAC2025FEA1C1CC0D111F4801FE2
:102680000BD141EA00014FF000004FF0004CB6E7DB
:1026900011F4801F04BF01430020B4F1FD0C88BF7A
:1026A000BCF5E06F3FF6AFAEB5EB030C04BFB6EB85
:1026B000020C5FEA500C50F1000041EB045170BD78
:1026C0000EF0004E4EEA113114EB5C04C2BFD4EBA5
:1026D0000C0541EA045170BD41F480114FF0000E29
:1026E000013C90E645EA060E8DE60CEA135594EAA5
:1026F0000C0F08BF95EA0C0F3FF43BAF94EA0C0FA8
:102700000AD150EA01347FF434AF95EA0C0F7FF41C
:1027100025AF104619462CE795EA0C0F06D152EA70
:1027200003353FF4FDAE1046194622E750EA410654
:1027300018BF52EA43067FF4C5AE50EA41047FF465
:102740000DAF52EA43057FF4EBAE12E74A0011D217
:1027500012F5001211D20DD56FF47873B3EB6252FB
:102760000ED44FEAC12343F0004343EA505323FA07
:1027700002F070474FF00000704750EA013002D17C
:102780004FF0FF3070474FF00000704770B50E4BB0
:102790000E4CE41AA41000251E46A54204D056F89B
:1027A000253098470135F8E7FEF71AFF084C094B2A
:1027B000E41AA41000251E46A54204D056F8253080
:1027C00098470135F8E770BDD088FE1FD088FE1FFE
:1027D000D088FE1FD088FE1F004400400048004003
:1027E000004C0040005000400000000000000000CD
:1027F0000000000000000000980000000000010040
:1028000004000000000000000000000000000000C4
:1028100000000000000000000000000000000000B8
:1028200000000000000000000000000000000000A8
:102830000000000000000000000000000000000098
:102840000000000000000000000000000000000088
:102850000000000000000000040000000000000074
:102860000000000000000000000000003002010134
:102870000000010000000000000001000201010151
:1028800000000000100000003F00000000000000F9
:0C28900005000000004A00000C000000E1
:10289C003488FE1F0040024000420240E827000836
:1028AC0000810248F8270008201C00003F38000077
:1028BC008813000050000000010202000E0101010B
:1028CC000100000000449508000200000040024096
:1028DC000000000000440040042800080102000031
:1028EC00004800401828000801020000004C00407D
:1028FC002C2800080102000000500040402800086D
:10290C00010200004488FE1F5088FE1F5C88FE1FD9
:10291C006888FE1F54280008004000400201000097
:10292C0002002F00000000000000000000FF00006B
:10293C009088FE1FD488FE1F004400400000000059
:10294C00A088FE1FB088FE1F902800088028000871
:10295C007488FE1F84280008000000000206000096
:0400000508000201EC
:00000001FF
