:020000040C00EE
:100000000088FE1F010200089902000899020008FA
:1000100099020008990200089902000800000000F7
:10002000000000000000000000000000990200082D
:1000300099020008000000009902000899020008D7
:100040009902000899020008990200089902000824
:100050009902000899020008990200089902000814
:1000600099020008000000000000000000000000ED
:100070009902000800000000990200089902000897
:10008000990200089902000899020008852A0008D0
:1000900099020008990200089902000899020008D4
:1000A00099020008990200089902000899020008C4
:1000B00099020008990200089902000899020008B4
:1000C00099020008990200089902000899020008A4
:1000D0009902000899020008990200089902000894
:1000E0009902000899020008990200089902000884
:1000F0009902000899020008990200089902000874
:100100009902000899020008990200089902000863
:100110009902000899020008990200089902000853
:100120009902000899020008990200089902000843
:100130009902000899020008990200089902000833
:100140009902000899020008990200089902000823
:100150009902000899020008990200089902000813
:10016000000000000000000000000000000000008F
:1001700099020008990200089902000899020008F3
:1001800099020008990200089902000899020008E3
:1001900099020008990200089902000899020008D3
:1001A00099020008990200089902000899020008C3
:1001B00099020008990200089902000899020008B3
:1001C00099020008990200089902000899020008A3
:1001D0009902000899020008990200080000000036
:1001E0009902000899020008990200089902000883
:1001F0009902000899020008990200080000000016
:10020000DFF874D01D4880471D4C1E4DAC4209DA02
:1002100021686268A368043BA2BFC858D050FAE7BF
:100220000C34F3E7184B194CA34208DA19685A68E2
:100230000020043AA4BF8850FBE70833F4E71448D1
:100240008047144880470000084B000C0088FE1FC0
:10025000CC000000084B000C0088FE1F00000000CE
:10026000CC88FE1F180000000000002000000000E5
:1002700000000020000000000088FE1F9D02000812
:1002800048020008600200086002000878020008C6
:10029000854700086D2A0008FEE7000098B500AF0A
:1002A000054A4FF0005314460FCB84E80F0001F0CD
:1002B000EFFF02F06BF898BDC4FF032080B584B057
:1002C00000AF2F4BDB6803F48033002B3ED02D4B67
:1002D000DB6803F00103002B02D02B4BFB6002E034
:1002E00002F036F8F860274B1B6803F00403002B7C
:1002F00020D0244B9B6803F070631B0E0133BB605E
:10030000204B9B6803F4FE431B0A01337B601D4BAB
:100310009B6803F4FE031B0C01333B60BB683A6827
:1003200002FB03F3FA68B2FBF3F37A6802FB03F310
:10033000FB600DE0134B9B6803F07F0301333B60D0
:10034000FA683B68B2FBF3F3FB6001E00E4BFB6025
:100350000B4BDB68DBB20133FA68B2FBF3F3FB60F3
:10036000074B1B6903F001030133FA68B2FBF3F397
:10037000FB60064AFB6813601037BD4680BD00BFB6
:10038000004600501047005000366E01C0FF0320A9
:1003900080B400AF034B1B681846BD465DF8047B74
:1003A000704700BFC0FF032080B400AF034BD3F8F9
:1003B000C4301846BD465DF8047B704700400050CD
:1003C00080B584B000AF7860FFF778FF0B4B1B68F7
:1003D0000B4AA2FB03239A0C7B6802FB03F37B60AE
:1003E0000023FB6003E000BFFB680133FB60FA6899
:1003F0007B689A42F7D31037BD4680BDC0FF03200B
:1004000083DE1B4380B400AF034B5B681846BD46D8
:100410005DF8047B704700BF7440005080B483B027
:1004200000AF7860034A7B68D3600C37BD465DF847
:10043000047B704774400050B0B584B002AF786060
:10044000002000F0C5F800F0B7FA7B68DB79002BDC
:100450000AD000F0EFFA00BF00F0DAFA034683F0AA
:100460000103DBB2002BF7D17B685B7A184600F002
:1004700029F900BFFFF798FF0346002BFAD17B68EC
:100480001B7A184600F072FA7B681B7C184600F055
:1004900037F97B685B7C184600F05AF97B689B7CD7
:1004A000184600F041F97B68DB7C184600F064F9DF
:1004B0007B689B79002B0AD000F0F4FA00BF00F0B3
:1004C00019FB034683F00103DBB2002BF7D17B68F5
:1004D000DB78002B09D17B689B7983F00103DBB2C9
:1004E000002B17D000F02AFB14E000F017FB7B680C
:1004F00099887B68DA787B685B781D467B681B7817
:100500001C467B689B780093084611462A46234682
:1005100000F024FB7B68DB68B3F5803F03D14FF428
:10052000803000F055F8FFF7C9FE0837BD46B0BD72
:1005300080B485B000AF78607B681B0FFB607B6880
:1005400023F07043BB60FA6813465B0013449B00C2
:100550001A46044B1344BA681A601437BD465DF856
:10056000047B70471444005080B485B000AF7860BD
:100570007B681B0FFB607B6823F07043BB60FA68ED
:1005800013465B0013449B001A46084B13441A6839
:10059000BB681340002B14BF01230023DBB21846B5
:1005A0001437BD465DF8047B704700BF0C44005013
:1005B00080B500AFFFF7ECFE0246044B5B6903F029
:1005C000010322FA03F3184680BD00BF0046005025
:1005D00080B483B000AF78600649064BDB6823F433
:1005E00080327B681343CB600C37BD465DF8047BDB
:1005F000704700BF0046005080B483B000AF786001
:100600000649064B9B6923F480327B6813438B6158
:100610000C37BD465DF8047B704700BF00460050B4
:1006200080B483B000AF78600649064B5B6A23F460
:1006300040327B6813434B620C37BD465DF8047B48
:10064000704700BF0046005080B483B000AF03463F
:10065000FB80FB88002B08D10A4A0A4BDB6823F495
:10066000807323F00103D36007E0064A054BDB6883
:1006700043F4807343F00103D3600C37BD465DF84B
:10068000047B70471047005080B483B000AF03462E
:10069000FB7100BF094BD3F8C43003F00803002BF3
:1006A000F8D10749064BDB6823F04002FB7913437E
:1006B000CB600C37BD465DF8047B704700400050AE
:1006C0000043005080B483B000AF0346FB7100BF0D
:1006D000094BD3F8C43003F00803002BF8D10749C5
:1006E000064BDB6823F08002FB791343CB600C37A9
:1006F000BD465DF8047B7047004000500043005049
:1007000080B483B000AF78600649064BDB6823F005
:10071000FF027B68013B1343CB600C37BD465DF89D
:10072000047B70470046005080B483B000AF78600F
:100730000649064B1B6A23F001027B68013B134309
:100740000B620C37BD465DF8047B704700460050D5
:1007500080B483B000AF78600649064B1B6923F074
:1007600001027B68013B13430B610C37BD465DF80A
:10077000047B70470046005080B483B000AF7860BF
:100780000649064B5B6923F001027B68013B13437A
:100790004B610C37BD465DF8047B70470046005046
:1007A00080B483B000AF78600649064B9B6923F0A4
:1007B00007027B68013B13438B610C37BD465DF834
:1007C000047B70470046005080B483B000AF78606F
:1007D0000649064BDB6923F03F027B68013B13436C
:1007E000CB610C37BD465DF8047B70470046005076
:1007F00080B483B000AF78600649064B5B6A23F093
:10080000FF027B68013B13434B620C37BD465DF82A
:10081000047B70470046005080B483B000AF78601E
:100820000649064B9B6B23F003027B68013B134395
:100830008B630C37BD465DF8047B70470046005063
:1008400080B483B000AF0346FB71044AFB79536068
:100850000C37BD465DF8047B704700BF0046005072
:1008600080B485B000AF78607B681B0FFB607B684D
:1008700023F07043BB60FA6813465B0013449B008F
:100880001A46044B1344BA681A601437BD465DF823
:10089000047B70474846005080B400AF054A054BC2
:1008A0005B6923F4803323F002035361BD465DF896
:1008B000047B70471047005080B483B000AF78606D
:1008C0003960284A274B5B6943F00103536100BF3D
:1008D000244B1B6903F00103002BF9D0214A214B63
:1008E0005B6943F0100353611E493B68013B1A02E8
:1008F0007B68013B1B0613434B611A4A194B5B692A
:1009000043F040035361174A164B5B6923F0100311
:100910005361144A134B5B6943F48023536100BF56
:10092000104B1B6903F00403002BF9D00D4A0D4B4B
:100930005B6923F00103536100BF0A4B1B6903F09D
:100940000103002BF9D1074A064B5B6923F04003F2
:100950005361054B0822DA600C37BD465DF8047B15
:10096000704700BF104700506041005080B582B012
:1009700000AF0346FB710F4A0E4B5B6843F48013D4
:100980005360FB79012B0ED10A4A0A4B5B6823F4B2
:10099000801353606420FFF713FD064A054B5B6824
:1009A00043F4002353606420FFF70AFD0837BD4677
:1009B00080BD00BF1047005080B400AF124B1B68D1
:1009C00003F00103002B09D10F4B01225A6000BF35
:1009D0000D4B1B6803F00103002BF9D00B4B1B6878
:1009E00003F40073002B0AD0084B4FF400729A6096
:1009F00000BF064B1B6803F40073002BF9D1BD4602
:100A00005DF8047B704700BF004200500044005076
:100A100080B400AF064B1B6803F00803002B0CBF2B
:100A200001230023DBB21846BD465DF8047B704706
:100A30000043005080B500AF4FF40000FFF7EEFC1C
:100A4000174A174BDB6923F03003D36100BFFFF770
:100A5000D9FC034603F40003002BF8D04FF4003018
:100A6000FFF7DCFC0E4B08225A6000BFFFF7CAFC00
:100A7000034603F40033002BF8D04FF40020FFF7B7
:100A8000CDFC074A064BDB6843F00803D36000BF88
:100A9000FFF7B8FC034603F40023002BF8D080BD19
:100AA00000430050B0B500AF0F4A0F4B5B6823F412
:100AB000803353600D4D0D4B5B6823F4702424F09C
:100AC000300401F045FC0246094BA3FB02231B0D39
:100AD000013B1B0423436B60034A034B5B6823F415
:100AE00000335360B0BD00BF1047005000470050B6
:100AF0006BCA5F6B80B400AF074B1B6803F4607375
:100B0000B3F5607F0CBF01230023DBB21846BD465E
:100B10005DF8047B704700BF1047005080B400AF01
:100B2000054A054B5B6823F4803323F002035360CE
:100B3000BD465DF8047B70471047005080B400AF9D
:100B4000054A054B5B6843F4803343F0020353606E
:100B5000BD465DF8047B70471047005080B586B0F5
:100B600000AFBA607B600346FB810B467B73FB8959
:100B70001846FFF769FD7B7B012B40F08B80FB89DA
:100B8000002B09D101F0E4FB0246544BA3FB0223E6
:100B90009B0C9B057B6102E04FF0C0637B617B692E
:100BA0007A6802FB03F2BB68B2FBF3F37B617B69FB
:100BB0004B4AA2FB03231B099B0D3B61494A494B4E
:100BC0005B6843F00103536000BF464B1B6803F0B2
:100BD0000103002BF9D0434A424B5B6843F01003FA
:100BE000536040493F4B9A683F4B13407A68013A43
:100BF00012021A433B69013B1B041A43BB68013BC9
:100C00001B0613438B60374A364B5B6843F0400347
:100C10005360344A334B5B6823F010035360314A0E
:100C2000304B5B6843F48023536000BF2D4B1B683F
:100C300003F00403002BF9D02A4A2A4B5B6823F007
:100C40000103536000BF274B1B6803F00103002B17
:100C5000F9D17B69254AA2FB03235B099B0D3B610C
:100C60003A6A3B699A4202D2386900F045F87B69DA
:100C70005B081F4AA2FB03235B099B0D3B613A6A99
:100C80003B699A4202D2386900F036F8386A00F0BF
:100C900033F81CE01349134B9B6823F07F023B6A37
:100CA000013B13438B6000BF0E4B1B6803F0100326
:100CB000002BF9D00B4A0B4B5B6843F001035360E8
:100CC00000BF084B1B6803F00103002BF9D0094B50
:100CD0000522DA601837BD4680BD00BF83DE1B43A6
:100CE000ABAAAAAA10470050FF8080F089888888A4
:100CF000B7600BB66041005080B582B000AF78603D
:100D00000B490B4B9B6823F4FE027B68013B1B04E1
:100D100013438B6000BF064B1B6803F02003002BBE
:100D2000F9D03220FFF74CFB0837BD4680BD00BF2D
:100D30001047005080B483B000AF78607B684FF4F8
:100D40008072DA600C37BD465DF8047B704700BFE7
:100D500080B582B000AF78607B68104A934203D1BF
:100D60000420FFF7E5FB16E07B680D4A934203D1B0
:100D70000820FFF7DDFB0EE07B680A4A934203D1AF
:100D80001020FFF7D5FB06E07B68074A934202D1AB
:100D90000648FFF7CDFB0837BD4680BD00C00040C8
:100DA00000000140004001400040004801000010E8
:100DB00080B582B000AF78607B68104A934203D15F
:100DC0000420FFF74DFD16E07B680D4A934203D1E6
:100DD0000820FFF745FD0EE07B680A4A934203D1E5
:100DE0001020FFF73DFD06E07B68074A934202D1E1
:100DF0000648FFF735FD0837BD4680BD00C00040FE
:100E00000000014000400140004000480100001087
:100E100080B582B000AF78601020FFF711FD7868D0
:100E2000FFF7C6FF7868FFF793FF0837BD4680BD20
:100E300080B584B000AF78600B46FB707868FFF730
:100E4000E7FF7868FFF776FF7B681B68FB60FB684D
:100E500023F44043FB60FB789B03FA681343FB6079
:100E60007B68FA681A601037BD4680BD80B483B0D5
:100E700000AF786039603B681A687B685A613B68EC
:100E80005B79C3F34013DBB21A057B685A603B6899
:100E90001B79C3F30303DBB21A467B685A623B68D3
:100EA0005B79C3F30303DBB21A467B681A623B68C3
:100EB0005B79C3F30013DBB21A467B689A613B6827
:100EC0001B79C3F30313DBB21A467B68DA620C3773
:100ED000BD465DF8047B704780B487B000AF786092
:100EE0000B46FB701346BB70FB780B2B36D801A268
:100EF00052F823F0250F0008250F00082F0F0008D7
:100F00002F0F00085D0F00085D0F00085D0F00083F
:100F10005D0F0008390F0008450F0008510F000849
:100F2000510F000803233B6100237B611BE00C236E
:100F30003B6102237B6116E04FF440733B61082361
:100F40007B6110E04FF440633B610A237B610AE060
:100F50004FF440533B610C237B6104E000233B6171
:100F600000237B6100BF3B69002B13D07B68D3F863
:100F7000A830FB603B69DB43FA681340FB60BA783A
:100F80007B6902FA03F3FA681343FB607B68FA6833
:100F9000C3F8A8201C37BD465DF8047B704700BF2E
:100FA00080B483B000AF78600B46FB70F878FB78B4
:100FB0007A68DB0013449B6843F080727968C30051
:100FC0000B449A600C37BD465DF8047B704700BF48
:100FD00080B483B000AF78600B46FB70F878FB7884
:100FE0007A68DB0013445B6843F000527968C30001
:100FF0000B445A600C37BD465DF8047B704700BF58
:1010000080B483B000AF78600B46FB70F878FB7853
:101010007A68DB0013445B6823F000527968C300F0
:101020000B445A600C37BD465DF8047B704700BF27
:1010300080B483B000AF78600B46FB7013463B80F2
:10104000FB783A88796804339B000B445A600C376C
:10105000BD465DF8047B704780B483B000AF786014
:101060000B46FB7013463B807B68DA69FB781B01FB
:10107000194640F6FF738B40DB4313403A88F978FA
:1010800009018A401A437B68DA610C37BD465DF876
:10109000047B704780B485B000AFF8600B467A607F
:1010A000FB72F87AFB7AFA68DB0013449B6823F43E
:1010B000CE227B681A43F968C3000B449A60143748
:1010C000BD465DF8047B704780B485B000AFF86022
:1010D0000B467A60FB72F87AFB7AFA68DB001344FD
:1010E0005B6823F4E0027B681A43F968C3000B4491
:1010F0005A601437BD465DF8047B704780B582B0F6
:1011000000AF78600448FFF7ABFB0348FFF710FA25
:101110000837BD4680BD00BF2000001080B584B0F8
:1011200000AFF8600B467A60FB72F868FFF7E6FFE5
:10113000FB7A7A681268F968DB000B445A60FB7A24
:101140007A685268F968DB000B449A60FB7A012BDD
:1011500004D8FB7AF8681946FFF722FF1037BD461E
:1011600080BD00BF80B586B000AFF8600B467A60E6
:10117000FB72FFF71DFA02467B68B2FBF3F33B619B
:101180003B690F2B02D80423FB7516E03B69B3F5CE
:10119000801F02D30323FB750FE0F87AFB7AFA680D
:1011A000DB0013445B681B0D1B053A691A43F968A1
:1011B000C3000B445A600023FB75FB7D18461837AB
:1011C000BD4680BD80B586B000AFF8600B467A6042
:1011D000FB72FB7AFA6804339B0013445B687B6103
:1011E000FB68DB69FA7A1201D340C3F30B033B615E
:1011F0003A697B69D31A01337A6802FB03F3FA7AFE
:10120000F86811461A46FFF7ADFF0346184618372F
:10121000BD4680BD80B582B000AF78600B46FB70E4
:10122000FB78786819464FF48012FFF74DFF0023D2
:1012300018460837BD4680BD80B586B000AFF8605F
:101240007A603B600B46FB720023FB75FB7AF86803
:1012500019460022FFF738FF7B68002B07D1FB7A85
:10126000F86819463A68FFF77DFF0346FB75FB7D7A
:10127000002B0CD1FB7AF86819467A68FFF70AFF51
:10128000FB7AF86819464FF40012FFF71DFFFB7D4B
:1012900018461837BD4680BD80B586B000AFF860EF
:1012A000084611461A460346FB720B463B8113461D
:1012B000FB800023FB75FB7AF86819460022FFF7D4
:1012C00003FFFA7A3B89F86811461A46FFF7B0FE29
:1012D000FA7AFB88F86811461A46FFF7BDFEFB7ADA
:1012E000F86819463A6AFFF7D5FE3B6A002B07D12A
:1012F000FB7AF86819467A6AFFF764FF0346FB75C4
:10130000FB7D002B06D1FB7AF86819464FF4A0024A
:10131000FFF7DAFEFB7D18461837BD4680BD00BFDB
:1013200080B586B000AFF8607A601A460B46FB7253
:101330001346BB720023FB75FB7AF868194600223E
:10134000FFF7C2FE3B6A002B09D17B6A5B01FA7A88
:10135000F86811461A46FFF705FF0346FB75FB7D4B
:10136000002B20D1FB7AF86819467A6800F050F813
:10137000BB7A012B05D1FB7AF8681946FFF728FEE6
:1013800004E0FB7AF8681946FFF73AFEFB7AF86842
:1013900019463A6AFFF77EFEFB7AF86819464FF461
:1013A0004012FFF791FEFB7D18461837BD4680BD01
:1013B00080B586B000AFF8607A603B600B46FB7288
:1013C0000023FB75FB7AF86819460022FFF77CFEC4
:1013D0007B68002B07D1FB7AF86819463A68FFF75B
:1013E000C1FE0346FB75FB7D002B0CD1FB7AF86830
:1013F00019467A68FFF74EFEFB7AF86819464FF4F3
:101400008002FFF761FEFB7D18461837BD4680BDA0
:1014100080B487B000AFF8600B467A60FB727B68DF
:101420001B783B6101237B6110E07A687B69134480
:101430001B7819467A6913469B00134401FA03F39B
:101440003A6913433B617B6901337B617B69052BFF
:10145000EBD9FA7AFB680432396943F832107B68B9
:1014600006331B783B6101237B6111E07B69063306
:101470007A6813441B7819467A6913469B00134413
:1014800001FA03F33A6913433B617B6901337B61E2
:101490007B69052BEAD9FB7AFA680433DB00134435
:1014A0003A695A601C37BD465DF8047B704700BF3F
:1014B00080B485B000AF786039603B78C3F3020335
:1014C000DBB21A467B88C3F309039BB21B041343A8
:1014D000FB607B68FA68C3F8F021FB78C3F3001364
:1014E000DBB21A07FB78C3F38103DBB29B061A4316
:1014F000FB78C3F34013DBB25B071343FB60FB785D
:10150000C3F38013DBB29B07FA681343FB607B686D
:10151000D3F8F021FB68134343F000427B68C3F823
:10152000F0211437BD465DF8047B704780B483B06A
:1015300000AF78607B68D3F8843043F000727B683A
:10154000C3F884200C37BD465DF8047B704700BFAC
:1015500080B483B000AF78607B68D3F8843023F028
:1015600000727B68C3F884200C37BD465DF8047BAD
:10157000704700BF80B500AF0120FFF771F901206F
:10158000FEF7D6FF80BD00BF80B582B000AF7860A7
:101590003960FFF7EFFF3B685A697B681A603B6868
:1015A0005B6843F400427B68C3F880203B689A681C
:1015B0007B68C3F8A0203B68DA687B68C3F8A42086
:1015C0003B681A697B68C3F880223B681A687B68AD
:1015D000C3F8B8200837BD4680BD00BF80B485B0D1
:1015E00000AF78607B68D3F8803043F000427B68BE
:1015F000C3F880200023FB7317E0FB7B0F4A52F8EF
:101600002330BB60BB68D3F8803003F44033002B39
:1016100008D000E000BFBB68D3F8803003F08053EF
:10162000002BF7D1FB7B0133FB73FB7B032BE4D94E
:101630001437BD465DF8047B704700BFD0470008F3
:1016400080B582B000AF786039603B6878685968CF
:101650000022002300F028F83B68786859680122CE
:10166000002300F021F83B68786899680022012384
:1016700000F01AF83B68786899680122012300F0AD
:1016800013F83B681A697B68C3F880203B68DA6806
:101690007B68C3F8B8203B6878681968FFF708FFD3
:1016A0000837BD4680BD00BF80B48DB000AFF86084
:1016B000B9603B601346FB71FB79002B13D1082303
:1016C000FB624FF4E0637B620023BB621F233B623B
:1016D0003B7AC3F30403DBB2FB617B7AC3F30203FF
:1016E000DBB2FB7613E01823FB624FF0E0637B6212
:1016F0001023BB624FF4F8133B62BB7AC3F30403BD
:10170000DBB2FB61FB7AC3F30203DBB2FB76FB685F
:101710003A68283253F822307B617B6ADB437A696E
:1017200013407B61FA7EFB6A02FA03F37A69134382
:101730007B613B6ADB437A6913407B61BB6AFA6970
:1017400002FA03F37A6913437B61FB683A68283233
:10175000796943F822103437BD465DF8047B704741
:1017600080B485B000AF78600B46FB707B68D3F81F
:101770008030FB60FB6823F00303FB60FB78FA68B2
:101780001343FB607B68FA68C3F880201437BD46BA
:101790005DF8047B704700BF80B487B000AFF8608D
:1017A000B9607A607A68BB689A4202D9BB68013333
:1017B000BB60FB68D3F8C0307B617B6923F0030317
:1017C0007B617A69BB6813437B61FB687A69C3F804
:1017D000C0201C37BD465DF8047B704780B485B0DF
:1017E00000AF78607B68D3F8C030FB60FB6823F003
:1017F0000303FB607B68FA68C3F8C0201437BD465A
:101800005DF8047B704700BF80B485B000AF78609E
:1018100039600023BB600023FB600BE0134AFB68C8
:1018200052F823207B689A4201D1FB68BB60FB68B9
:101830000133FB60FB68032BF0D93A68BB689A421E
:1018400002D23B6801333B607B68D3F8C0203B6821
:101850000333194601238B401A437B68C3F8C02029
:101860001437BD465DF8047B704700BFD0470008C1
:1018700080B584B000AF786039607868FFF768FEA3
:101880007B68D3F88430FB60FB6823F03003FB6097
:101890003B681B78C3F38103DBB21B01FA68134377
:1018A000FB603B681B7803F00303DBB2002B03D023
:1018B000FB6843F08003FB607B68FA68C3F8842010
:1018C0003B685B6843F0802343F400037A68C2F806
:1018D00020313B689B6843F001027B68C3F82421F8
:1018E0003B681B7803F00303DBB2022B07D17B6854
:1018F000D3F8243143F480327B68C3F8242178681C
:10190000FFF714FE1037BD4680BD00BF80B485B020
:1019100000AF78600B46FB707B68D3F8C031FB608A
:10192000FB6823F0F003FB60FB781B01FA681343AC
:10193000FB607B68FA68C3F8C0211437BD465DF8C8
:10194000047B704780B489B000AFF860B9607A60FA
:101950007B681B7BBB61FB68D3F888307B61BB680D
:10196000012202FA03F3DB437A6913407B61BB680F
:10197000BA6902FA03F37A6913437B61FB687A69F7
:10198000C3F888207B685B7B5BB2002B29DB0023DC
:10199000FB61BB68012B0AD10823FB61FB68D3F80C
:1019A000B03023F4F852FB68C3F8B0200CE0BB68F9
:1019B000002B09D10023FB61FB68D3F8B03023F082
:1019C0001F02FB68C3F8B020FB68D3F8B0307A6818
:1019D000527B51B2FA6901FA02F21A43FB68C3F86A
:1019E000B020FB68D3F8C8207B685B681A43FB68AB
:1019F000C3F8C820FB68D3F8D0207B689B681A43E3
:101A0000FB68C3F8D0207B681968FB68BA6880322D
:101A100043F822102437BD465DF8047B704700BFB1
:101A200080B487B000AFF860B9601346FB71BB6843
:101A3000072B18D8FB68D3F8B0317B61BB689B00DB
:101A40001A460F239340DB437A6913407B61FB798D
:101A5000BA68920093407A6913437B61FB687A69A4
:101A6000C3F8B0211EE0FB68D3F8B4317B61BB68DA
:101A700003F18043083B9B001A460F239340DB434E
:101A80007A6913407B61FA79BB6803F18043083BB4
:101A90009B0002FA03F37A6913437B61FB687A695E
:101AA000C3F8B4211C37BD465DF8047B704700BF06
:101AB00080B400AFBD465DF8047B704780B483B04E
:101AC00000AF78600B46FB70FB7801229A407B6880
:101AD000DA600C37BD465DF8047B704780B483B094
:101AE00000AF78607B680122DA600C37BD465DF894
:101AF000047B704780B483B000AF78607B680222BB
:101B00001A610C37BD465DF8047B704780B483B022
:101B100000AF78600B467B807A887B685A630C370D
:101B2000BD465DF8047B704780B483B000AF786039
:101B30000B467B807A887B68DA630C37BD465DF89C
:101B4000047B704780B483B000AF786039607B68F5
:101B50003A681A610C37BD465DF8047B704700BFD8
:101B600080B483B000AF78600B46FB707B68D3F81D
:101B7000A420FB78012101FA03F31A437B68C3F820
:101B8000A4200C37BD465DF8047B704780B584B057
:101B900000AF78600023FB737B6893F8263083F0F6
:101BA0000103DBB2002B09D07B6893F82130002BB6
:101BB00004D1786800F008F80346FB73FB7B1846F5
:101BC0001037BD4680BD00BF80B584B000AF7860DF
:101BD0007B681B69184600F029F90346FB737B6894
:101BE0001B699A687B681B7E10461946FFF766FFE3
:101BF0007B685A697B68DB6910461946FFF736F93E
:101C0000786800F02DF87B6893F82530002B0FD012
:101C10007B685A697B6893F82030104600211A4689
:101C2000FFF75AF97B685B6918460021FFF798FFB8
:101C30007B685B691846FFF75DFF7B68012283F8CC
:101C400026207B6893F82430002B04D07B685B69E6
:101C50001846FFF743FFFB7B18461037BD4680BD93
:101C600080B582B000AF78607B685A697B685B8C16
:101C700010461946FFF74AFF7B685B69184600214A
:101C8000FFF752FF7B681B699A687B68DB68104628
:101C90001946FFF757FF0837BD4680BD80B400AF37
:101CA000044BDB6803F4E0631B0A1846BD465DF88D
:101CB000047B704700ED00E080B483B000AF0346C2
:101CC000FB7197F90730002B0BDB084997F90730B8
:101CD0005B09FA7902F01F02012000FA02F241F8D2
:101CE00023200C37BD465DF8047B704700E100E01F
:101CF00080B483B000AF03463960FB7197F90730B9
:101D0000002B0ADB0D4997F907303A68D2B29200EE
:101D1000D2B20B4483F800230AE00949FB7903F0AF
:101D20000F03043B3A68D2B29200D2B20B441A7647
:101D30000C37BD465DF8047B704700BF00E100E052
:101D400000ED00E080B489B000AFF860B9607A605F
:101D5000FB6803F00703FB61FB69C3F10703062B74
:101D600028BF0623BB61FB690633062B02D9FB693A
:101D7000013B00E000237B61BB69012202FA03F30F
:101D80005A1EBB681A407B699A407B69012101FA9F
:101D900003F3591E7B680B40134318462437BD4696
:101DA0005DF8047B704700BF80B582B000AF7860FB
:101DB0007B681B785BB21846FFF77EFF0837BD468D
:101DC00080BD00BF90B583B000AF78607B681C78A1
:101DD000FFF764FF01467B685B781A467B689B7857
:101DE000084611461A46FFF7ADFF024663B2184691
:101DF0001146FFF77DFF7B68DB78002B02D0786807
:101E0000FFF7D2FF002318460C37BD4690BD00BF38
:101E100080B483B000AF78607B684FF48072DA6082
:101E20000C37BD465DF8047B704700BF80B582B0BB
:101E300000AF78607B685B7B83F00103DBB2002B33
:101E40000FD07B689A687B681B7B10461946FEF7AB
:101E5000EFFF7B689B681846FFF7DAFF7B6801227B
:101E60005A73002318460837BD4680BD80B483B03E
:101E700000AF786039607B68D3F880203B6810330E
:101E8000194601238B401A437B68C3F880200C3726
:101E9000BD465DF8047B704780B584B000AF7860C4
:101EA0007B681B7E022B49D17B685A697B681B6962
:101EB00010461946FFF768FB0023FB602FE07B68A4
:101EC000FA6853F8223019687B68FA6853F82230B0
:101ED0005B6808461946FFF7B3FB7B68FA6853F85E
:101EE00022301B6818460321FFF73AFC7B68FA682A
:101EF00053F822301B7A83F00103DBB2002B05D0AC
:101F00007B685B691846F968FFF7B0FF7B68FA6881
:101F100053F8223000225A72FB680133FB60FB68E1
:101F2000032BCCD97B685B7E002B04D07B685B697C
:101F30001846FFF753FB7B6800221A767B681B7EEE
:101F400018461037BD4680BD80B483B000AF7860BE
:101F50007B689B6843F400427B689A600C37BD46FF
:101F60005DF8047B704700BF80B483B000AF786039
:101F70000B46FB7013463B80FB783A887968043344
:101F80009B000B445A600C37BD465DF8047B7047DC
:101F900080B485B000AFF8600B467A60FB72F87AC7
:101FA000FB7AFA68DB0013445B6823F4E0027B6889
:101FB0001A43F968C3000B445A601437BD465DF8F4
:101FC000047B704780B483B000AF78600B46FB7031
:101FD000F878FB787A68DB0013445B6843F0804252
:101FE0007968C3000B445A600C37BD465DF8047B2A
:101FF000704700BF80B483B000AF78600B46FB70C1
:102000001346BB70F878FB787A68DB0013449B6852
:1020100023F00F02BB781A437968C3000B449A601F
:102020000C37BD465DF8047B704700BFB0B586B085
:1020300002AF78600023FB737B68DB68B3F5401F59
:1020400015D17B6818687B6893F826107B689D6AB9
:102050007B681C7D7B681A697B689B690092019391
:102060002A462346FFF75CF90346FB7385E07B684D
:10207000DB68B3F5801F15D17B681A687B6893F81D
:10208000263010461946FFF7C5F80346FB737B68F8
:102090001A687B6893F82630104619460022FFF72D
:1020A00063FF6AE07B68DB68B3F5001F25D17B68BE
:1020B00018687B6893F826107B681A697B689B69AF
:1020C000FFF7BAF80346FB737B6893F82430012BC3
:1020D00008D17B681A687B6893F826301046194649
:1020E000FFF770FF7B681A687B6893F8263010460C
:1020F00019460022FFF738FF3FE07B68DB68B3F545
:10210000A00F25D17B6818687B6893F826107B6840
:102110009D8B7B68DC8B7B681A697B689B6900926E
:1021200001932A462346FFF7B7F80346FB737B6803
:1021300019687B6893F826207B685B681B79C3F37A
:102140000303DBB2084611461A46FFF753FF14E0BB
:102150007B68DB68B3F5800F0DD17B6818687B68FE
:1021600093F826107B681A697B689B69FFF720F952
:102170000346FB7301E00023FB73FB7B184610371B
:10218000BD46B0BD80B584B000AF78600023FB735E
:102190007B6819687B6893F826207B685B68084633
:1021A00011461A46FEF7BAFF7B689B68184600F096
:1021B0001FF90346FB737868FFF738FF0346BB73CC
:1021C0007B6893F82C30002B09D17B681A687B68F8
:1021D00093F82630104619460022FFF7D9FE7B6897
:1021E00093F82530012B04D17B681B681846FFF754
:1021F000ABFEBB7B002B01D00123FB73FB7B18469E
:102200001037BD4680BD00BF80B584B000AF786098
:102210000B467B807B88B3F5805F0DD27B681968A5
:102220007B6893F826207B88084611461A46FFF7FC
:102230009BFE0023FB7301E00223FB73FB7B18462C
:102240001037BD4680BD00BF80B485B000AF786058
:102250007B6803F00703FB600C4BDB68BB60BA686C
:102260004FF6FF031340BB60FB681A02BB681343C1
:1022700043F0BF6343F40033BB60044ABB68D360E0
:102280001437BD465DF8047B704700BF00ED00E0E9
:1022900080B582B000AF0120FFF7D6FF72B6214BA8
:1022A000214A9A60BFF34F8F62B61E4A1D4BD3F886
:1022B000883043F47003C2F888301C4B03F5805318
:1022C00014331B687B607B6823F00F037B607B68A3
:1022D00043F004037B60154B03F5805314337A6895
:1022E0001A60104A0F4B5B6923F0100353610D4ACB
:1022F0000C4B5B6923F0080353610A4A094B5B6A84
:1023000023F480335362074A064B5B6A23F400339D
:102310005362044A034B5B6A23F4802353620837F9
:10232000BD4680BD00ED00E0000000080010005830
:1023300080B485B000AF78600023FB737B68012216
:102340001A70FB7B18461437BD465DF8047B704756
:1023500080B400AF024B1846BD465DF8047B704761
:10236000001BB70080B483B000AF78600649064B0D
:102370009B6B23F480327B6813438B630C37BD4621
:102380005DF8047B704700BF00460050B0B586B0D2
:1023900000AF164B3C1D1D460FCD0FC42B682360AC
:1023A0003B1D1846FEF748F80020FEF76DF94FF484
:1023B0008030FEF721F90620FEF7F2F9FEF76CFAFD
:1023C00003206421FEF778FA0020FFF7CBFF0220FC
:1023D000FEF722FA0020FEF723F90120FEF708FAA3
:1023E0000120FEF7F1F91837BD46B0BD4C48000892
:1023F00080B582B000AF78607B685B681B78002B8B
:102400000AD17B681B68002B02D07B681B68984749
:102410007B685B6801221A70002318460837BD46A6
:1024200080BD00BF80B400AF044BDB6803F4E06301
:102430001B0A1846BD465DF8047B704700ED00E0BE
:1024400080B483B000AF0346FB7197F90730002BCF
:102450000BDB084997F907305B09FA7902F01F0294
:10246000012000FA02F241F823200C37BD465DF846
:10247000047B704700E100E080B483B000AF034606
:102480003960FB7197F90730002B0ADB0D4997F98A
:1024900007303A68D2B29200D2B20B4483F80023DC
:1024A0000AE00949FB7903F00F03043B3A68D2B212
:1024B0009200D2B20B441A760C37BD465DF8047B0D
:1024C000704700BF00E100E000ED00E080B489B09B
:1024D00000AFF860B9607A60FB6803F00703FB6146
:1024E000FB69C3F10703062B28BF0623BB61FB6909
:1024F0000633062B02D9FB69013B00E000237B6118
:10250000BB69012202FA03F35A1EBB681A407B69B9
:102510009A407B69012101FA03F3591E7B680B4045
:10252000134318462437BD465DF8047B704700BF4F
:1025300080B483B000AF78607B68D3F8843043F018
:1025400000727B68C3F884200C37BD465DF8047BBD
:10255000704700BF80B483B000AF78607B68D3F869
:10256000843023F000727B68C3F884200C37BD46AA
:102570005DF8047B704700BF80B483B000AF786023
:102580007B68D3F8843003F000735B0E002B14BF1C
:1025900001230023DBB218460C37BD465DF8047BEF
:1025A000704700BF80B483B000AF78600B46FB700B
:1025B0007B68D3F8243123F003027B68C3F824211D
:1025C0007B68D3F82421FB781A437B68C3F8242165
:1025D0000C37BD465DF8047B704700BF80B483B004
:1025E00000AF786039607B683A68C3F828210C37FF
:1025F000BD465DF8047B704780B485B000AFF860DD
:10260000B9607A607B681968FB68BA68A03243F8E1
:1026100022101437BD465DF8047B704790B585B035
:1026200000AF78600B46FB702748FFF735FC034688
:10263000FB73FB78254A52F823207B6893F82030FF
:102640001C467B681046196900222346FFF72CF8C8
:10265000FB781E4A52F823207B685B6910461946B6
:10266000FFF706F9FB78194A52F823207B681B7E96
:1026700010461946FFF796FF7B681B7B002B1ED088
:102680007B681B68DCB2FFF7CDFE01467B685A68A9
:102690007B689B68084611461A46FFF717FF0246FB
:1026A00063B218461146FFF7E7FEFB78074A52F877
:1026B00023207B685B7E10461946FFF727F9FB7BDA
:1026C00018461437BD4690BD7088FE1F904800081C
:1026D00080B584B000AF78607B689A687B685B7C6B
:1026E00010461946FFF79AFF0346FB73FB7B18461B
:1026F0001037BD4680BD00BF80B584B000AF7860A4
:102700000023BB730023FB730120FDF72DFF03465D
:1027100083F00103DBB21A46BB7B1343002B14BFCB
:1027200001230023BB73BB7B002B0AD07B685B7C3F
:102730001A46064B53F822301846FFF71DFF034692
:10274000FB73FB7B18461037BD4680BD90480008E0
:1027500080B582B000AF78600B46FB70FB7883F0E9
:102760000103DBB2002B08D07B685B7C1A46044B6C
:1027700053F822301846FFF7EDFE0837BD4680BDFE
:102780009048000880B582B000AF78607B685B7CC1
:102790001A46064B53F822207B689B68DB6910467B
:1027A0001946FFF71BFF0837BD4680BD904800085B
:1027B00080B582B000AF03237B600AE0194A7B68D2
:1027C00052F8233018460021FEF7CAFF7B68013B10
:1027D0007B607B68002BF1DA03237B6012E0114AF7
:1027E0007B6852F823207B68104600211A46FEF7CA
:1027F000D3FF0D4A7B6810461946FFF705F87B6842
:10280000013B7B607B68002BE9DC074B1846FEF739
:10281000E5FF054B18460321FEF7A2FF0837BD462A
:1028200080BD00BF904800080044004080B582B0E1
:1028300000AF78607B685B7C1A46044B53F822300B
:102840001846FFF775FE0837BD4680BD9048000862
:1028500080B582B000AF78607B689B681B7B002BE3
:102860000BD07B681B7C012B07D17B689B681B68A6
:10287000DBB25BB21846FFF7E3FD0837BD4680BD0B
:1028800080B582B000AF78607B681B7B1A46094B2D
:1028900053F822207B681B689B78C3F30303DBB2E9
:1028A00019467B685B6810461A46FFF7A5FE083795
:1028B000BD4680BD9048000880B584B000AF786008
:1028C00000237B737B68DB681B78022B50D1786810
:1028D000FFF712FF03467B737868FFF7F9FE0346A4
:1028E000BB737B7B78681946FFF732FFFFF760FF09
:1028F0007B685B6898477B68DB7C3B730023FB73DA
:1029000025E07B681A68FB7B9B0013441B68BB6057
:10291000BB681B7B1A461A4B53F82220BB685B7BB3
:102920001946BB681B6810461A46FFF70BF8B868D3
:10293000FFF7A6FFBB689B681846FFF759FD0346E3
:102940001A46BB7B1343BB73FB7B0133FB73FA7BE0
:102950003B7B9A42D5D37868FFF77AFF7868FFF718
:1029600011FF7868FFF762FF7B68DB68BA7B1A703B
:102970007B68DB681B7818461037BD4680BD00BFFA
:102980009048000880B500AF024804210022FFF7FC
:1029900047F880BD0044004080B582B000AF0023FE
:1029A000FB711548FFF7C4FC0346FB71FB79002B54
:1029B00004D11248FFF780FF0346FB71FB79002B1F
:1029C00004D10F48FFF7DEFB0346FB71FB79002BB8
:1029D00004D10C48FFF7DAF80346FB71FB79002BB2
:1029E00004D10948FFF7EEF90346FB71FB7918465D
:1029F0000837BD4680BD00BFD488FE1F18490008B7
:102A00008C88FE1F0888FE1FE047000880B483B052
:102A100000AF786039607B683A68C03253F8223082
:102A20009BB218460C37BD465DF8047B704700BF6B
:102A300080B584B000AF78607B681B7B1A460A4B78
:102A400053F822207B681B689B78C3F30303DBB237
:102A500010461946FFF7DAFF0346FB81FB8918464B
:102A60001037BD4680BD00BF9048000880B582B0D9
:102A700000AFFFF791FF0346FB71FB79002B00D0FD
:102A8000FEE7FEE7B0B500AF3F4B1B883F48194655
:102A9000FFF7BAFB3E48FFF7CBFF03461A463D4B14
:102AA0001A803C4B1B885B089AB23A4B1A803A4812
:102AB000FFF7BEFF03461A46384B1A80374B1B8878
:102AC0009B089AB2354B1A80354B1B780133DAB22A
:102AD000334B1A70334BD3ED007A9FED337A87EE88
:102AE000877A2F4B1B7807EE903AF8EEE77A67EE7D
:102AF000277A2E4BC3ED007A2C4B1B68184601F049
:102B00000BFB02460B461046194600F051F80446EE
:102B10000D46204B1B88184601F0ECFA02460B4686
:102B20002046294601F04CFB02460B4614461D4642
:102B3000184B1B88184601F0DDFA02460B4620466A
:102B4000294601F08BF902460B4614461D46134BED
:102B50001B88184601F0CEFA02460B46204629464D
:102B600001F07CF902460B461046194601F0EAFDD9
:102B700003469AB2044B1A80094B1B78C82B02D12A
:102B8000074B00221A70B0BDDC88FE1F8C88FE1F28
:102B9000B4480008C688FE1FD8480008DE88FE1F1B
:102BA000DB88FE1FC888FE1F00004843E088FE1F28
:102BB00030B5224A21F00043934287B01CDD204A01
:102BC000934205DD02460B4601F046F907B030BDE1
:102BD00002AA00F039F800F0030001281DD00228F5
:102BE00012D008B3DDE90201DDE9042300F04CFA5C
:102BF00001F1004107B030BD002300930022002303
:102C000000F056FF07B030BD0124DDE90201DDE927
:102C10000423009400F04CFFEAE7DDE90201DDE95E
:102C2000042300F031FAD1E70124DDE90201DDE9F6
:102C30000423009400F03CFFC8E700BFFB21E93FFC
:102C4000FFFFEF7F000000002DE9F04F984B21F0CF
:102C500000449C428FB006460F468A46154640F314
:102C60008280944B9C4227DC002987A3D3E9002370
:102C700040F3A48101F0F0F88F4B9C4206460F46CA
:102C800000F0888082A3D3E9002301F0E5F8024632
:102C90000B46C5E900233046394601F0DDF87CA338
:102CA000D3E9002301F0D8F84FF0010BC5E9020188
:102CB00058460FB0BDE8F08F804B9C4240F38880AF
:102CC0007F4B9C425BDC4FEA245BABF2164BA4EBE0
:102CD0000B518946804601F00DFD01F00BFA0646C6
:102CE0000F4632463B4640464946CDE9086701F06B
:102CF000B3F80022734B01F063FA8946804601F075
:102D0000F9FC01F0F7F906460F4632463B464046CD
:102D10004946CDE90A6701F09FF80022694B01F0AE
:102D20004FFA00220023CDE90C0101F0B1FC00288C
:102D300000F06D81002330463946002201F0A8FCE6
:102D4000002814BF0123022302225F49009201914F
:102D50005A4608A8294600F0BFFABAF1000FC0F29F
:102D60004B81834607E000220023C5E90067C5E9DF
:102D700002234FF0000B58460FB0BDE8F08F02461B
:102D80000B4601F069F84FF0000BC5E90201C5E9F7
:102D90000001F0E740A3D3E9002301F05DF840A370
:102DA000D3E9002306460F4601F056F802460B46CB
:102DB000C5E900233046394601F04EF838A3D3E97F
:102DC000002301F049F84FF0010BC5E90201D2E7F9
:102DD00000F026FF34A3D3E9002306460F4601F096
:102DE000EFF90022394B01F039F801F083FC8346FA
:102DF00001F080F924A3D3E90023CDE9040101F017
:102E0000DFF902460B463046394601F025F820A38B
:102E1000D3E9002306460F46DDE9040101F0D0F9AD
:102E2000BBF11F0FCDE902013046394652DC284B79
:102E30000BF1FF3253F82230A3424BD0DDE90223DD
:102E400001F00AF880468946C5E9008942464B46AA
:102E50003046394601F000F8DDE9022300F0FCFFBE
:102E6000BAF1000FC5E9020185DA09F1004401F168
:102E70000043CBF1000BC5F800806C60A860EB60EC
:102E800079E700BFAFF3008000004054FB21F93F19
:102E90003163621A61B4D03D0000601A61B4D03D64
:102EA0007370032E8A19A33B83C8C96D305FE43F5A
:102EB000FB21E93F7BD90240FB21F93FFB2139414E
:102EC000FFFFEF7F00007041B04900080000E03FC5
:102ED00030490008DDE9022300F0BEFF2415C1F3EC
:102EE0000A53E31A80468946102BC5E90089ADDDF7
:102EF0005BA3D3E90023DDE9040101F061F9804619
:102F0000894642464B463046394600F0A5FFCDE99A
:102F10000601DDE906233046394600F09DFF4246B2
:102F20004B4600F099FF50A3D3E9002306460F4615
:102F3000DDE9040101F044F932463B4600F08CFF24
:102F4000CDE90201DDE90223DDE9060100F084FF9D
:102F5000C1F30A53E41A80468946312CC5E9008939
:102F600075DD44A3D3E90023DDE9040101F028F96C
:102F70008046894642464B46DDE9060100F06CFF7B
:102F800006460F4632463B46DDE9060100F064FF87
:102F900042464B4600F060FF38A3D3E90023804649
:102FA0008946DDE9040101F00BF942464B4600F089
:102FB00053FFCDE90201304639463FE700F04EFFAE
:102FC0002B4B9C4206460F4623D023A3D3E9002374
:102FD00000F044FF02460B46C5E90023304639465F
:102FE00000F03AFF1CA3D3E9002300F037FF4FF0B5
:102FF000FF3BC5E90201BEE66A68EB6802F10042E8
:1030000003F10043C0F1000B6A60EB60B3E60323F9
:103010009AE613A3D3E9002300F020FF12A3D3E91B
:10302000002306460F4600F019FF02460B46C5E98D
:1030300000233046394600F00FFF0BA3D3E90023ED
:1030400000F00CFF4FF0FF3BC5E9020193E6DDE91C
:103050000667FBE6AFF300803163621A61B4D03DCE
:103060000000601A61B4D03D7370032E8A19A33B2F
:10307000FB21F93F0000002E8A19A33BC1492025FE
:103080009A837B39AFF300802DE9F04F21F000499E
:10309000B9F1795F85B006460F4692469B466BDADA
:1030A00001F028FB002800F0EA8032463B4630461B
:1030B000394601F085F874A3D3E9002304460D4690
:1030C00001F07EF872A3D3E9002300F0C7FE224688
:1030D0002B4601F075F870A3D3E9002300F0BCFE85
:1030E00022462B4601F06CF86DA3D3E9002300F0D3
:1030F000B5FE22462B4601F063F86BA3D3E900230B
:1031000000F0AAFE22462B4601F05AF868A3D3E944
:10311000002300F0A3FE22462B4601F051F8CDE932
:103120000001204629460022654B01F049F8DDE9FF
:103130000023804689462046294601F041F8524640
:1031400004460D465B463046394601F039F80246E2
:103150000B462046294600F07FFE02460B464046BD
:10316000494600F079FE02460B460020554900F022
:1031700073FE05B0BDE8F08F02460B4601F020F863
:1031800041A3D3E9002304460D4601F019F840A3FA
:10319000D3E9002300F062FE22462B4601F010F82E
:1031A0003DA3D3E9002300F057FE22462B4601F051
:1031B00007F83BA3D3E9002300F050FE22462B463C
:1031C00000F0FEFF38A3D3E9002300F045FE2246BD
:1031D0002B4600F0F5FF36A3D3E9002300F03EFEB6
:1031E0002B46224600F0ECFF374B9945CDE9000114
:1031F00097DD364B994539DC0022A9F500130020F4
:1032000030499046994600F027FECDE9020120465C
:10321000294600222A4B00F0D3FF42464B4600F0DD
:103220001BFEDDE90023804689462046294600F042
:10323000C7FF524604460D465B463046394600F00D
:10324000BFFF02460B462046294600F005FE024617
:103250000B464046494600F0FFFD02460B46DDE9BD
:10326000020100F0F9FD05B0BDE8F08F9FED127B83
:103270004FF000088DED027BDFF85490C7E711494D
:10328000002005B0BDE8F08FD43888BEE9FAA8BDAB
:10329000C4B1B4BD9EEE213EAD529C804F7E923EA5
:1032A0009015CB19A001FA3E7751C1166CC1563F5B
:1032B0004C5555555555A53F000000000000E73F0F
:1032C0000000E03F0000F03F3233D33F0000E93F11
:1032D0000000D23FAFF300802DE9F04FADF51B7D2C
:1032E000C64CA49EC64D54F8264007942646D41ECC
:1032F00085FB0475E417C4EBA50424EAE4741D46B9
:103300000A93E34303EB4303013D02EBC30306933C
:103310002B460B940095651B9C190390089116D4BD
:103320002C44013422AEA59F08E057F8250000F098
:10333000E1FE0135A542E6E8020108D0002DF4DAED
:10334000013500200021A542E6E80201F6D1079BE5
:10335000002B2ADB079B03F1010A0A9B22AF07EB34
:10336000CA0A0DF5E4784FEAC30B3D46009B002BDB
:10337000C0F28081DDF80C9005EB0B0400260027DD
:1033800074E90223F9E8020100F01AFF02460B4635
:103390003046394600F062FDA54206460F46EFD1A1
:1033A00008355545E8E80267E0D1079D0A9A05F11E
:1033B0008043013B9B000EA8191DC2EB42720344DF
:1033C00001440C93D3000D910593EC009AAB234478
:1033D000002D53E9286728DD0DF5E47B5C440DF1F1
:1033E000340A0022874B3046394600F0E9FE01F0EE
:1033F00081F900F07FFE0022834B8046894600F071
:10340000DFFE02460B463046394600F025FD01F04E
:1034100071F974E902234AF8040F4946404600F066
:103420001DFD5C4506460F46DBD1069C30463946FD
:10343000224600F081FC00224FF07F5306460F46E3
:1034400000F0BEFE00F0F0FB0022704B00F0B8FE72
:1034500002460B463046394600F0FEFC0F46064653
:1034600001F048F9804600F045FE02460B46304622
:10347000394600F0F1FC002C06460F4640F3E1808F
:10348000691E0EABC4F1180253F8213043FA02F062
:1034900000FA02F9C4F117020EACC9EB030344F8B9
:1034A0002130804443FA02F9B9F1000F32DD002DDA
:1034B00008F1010840F37182002214460DA907E0CB
:1034C000C3F180700BB108600124013295420DDD1B
:1034D00051F8043F002CF3D0C3F1FF13013203F580
:1034E0007F4395420B604FF00104F1DC069B002BFB
:1034F0000DDD012B00F0AD80022B08D16A1E0EAB52
:103500000EA953F82230C3F3150341F82230B9F164
:10351000020F7DD0304639460022002301F0B8F872
:10352000002800F0C380079B05F1FF3A53450DDCEE
:103530000EAB0D9803EB8503002253F8041D834264
:1035400042EA0102F9D1002A40F00C82079B0EAA40
:10355000013B52F82330002B40F01D820C9A0123CE
:1035600052F8041D01330029FAD0EB1805F1010AC5
:103570009A45099340DC0B9B0A9A0AEB0309099BC5
:1035800009F180491946A59B09F1FF39154401EB62
:10359000020B03EB890922AB03EBC50803EBCB035A
:1035A000049372AB03EBCA0A59F8040F00F0A2FDB2
:1035B000009B002BE8E802014FF000064FF00007E7
:1035C00015DB059BDDF80CB008EB0305444674E9F8
:1035D0000223FBE8020100F0F3FD02460B463046F1
:1035E000394600F03BFCAC4206460F46EFD1049B47
:1035F0009845EAE80267D7D1099DE6E6B84A00088F
:10360000ABAAAA2A0000703E0000704100002040D2
:1036100032463B460020BB4900F01EFC06460F46E2
:10362000002C3FF477AF069AB649002000F084FBE7
:1036300002460B463046394600F00EFC06460F4661
:1036400068E710D16B1E0EAA52F823304FEAE359F7
:103650002AE76A1E0EAB0EA953F82230C3F31603F5
:1036600041F8223053E70022A74B01F02FF850B960
:1036700081464FE70835002600275545E8E80267F0
:103680007FF474AE91E6002D08F10108C8BF4FF039
:1036900002093FF711AF32463B460020994900F03E
:1036A000DBFB4FF0020906460F4633E7069BCDF8D9
:1036B0000C905A4230463946CDF8148000F03CFB5D
:1036C0000022924B06460F4601F000F8002800F059
:1036D000E68100228E4B3046394600F071FD01F044
:1036E00009F8044600F006FD0022884B00F068FD52
:1036F0000B4602463946304600F0AEFB00F0FAFFBA
:10370000069B183305F1010A06930EAB43F825001A
:1037100043F82A40069A7B49002000F00DFBBAF1DD
:10372000000F04460D46C0F2C1800AF101034FEAC2
:10373000C30872AF0EAA009302EB830907EB0806D9
:1037400059F8040D00F0D6FC22462B4600F038FD57
:10375000002266E902016E4B2046294600F030FD4A
:10376000BE4204460D46EBD1A8F1080806EB08035B
:103770000DF59479CDF818A0DDF81CA0CDF81090C7
:103780004FF000089B46BAF1000FC0F28C80B8F1F0
:10379000000FC0F28880DFF87C915D46002600278C
:1037A000002401E0444510DCF5E80223F9E80201B9
:1037B00000F006FD02460B463046394600F04EFB4F
:1037C0000134A24506460F46ECDA049B03EBC8031E
:1037D000C3E90067009B08F101089845ABF1080BAD
:1037E000D1D1A49BDDF818A0DDF81090032B35D8BB
:1037F000DFE813F03B0004000400D500009B00202C
:1038000009EBC304002174E9022300F027FB4C45B7
:10381000F9D1039B002B00F08780089D024601F13F
:10382000004385E80C0002460B46D9E9000100F090
:1038300013FBBAF1000F0BDD4CAD01240134F5E8A8
:10384000022300F00BFBA245F8DA039B002B78D093
:1038500001F1004308990246C1E90223059B03F0E8
:1038600007000DF51B7DBDE8F08F009B00200021B7
:1038700009EBC3090AF1FF3A79E9022300F0EEFAF5
:10388000BAF1FF3FF6D1039B0246002B65D001F150
:1038900000430899C1E90023059B03F007000DF5DB
:1038A0001B7DBDE8F08F002600278EE7A49B032B2D
:1038B000D4D8DFE803F04C3131020DF59479039B45
:1038C00000200021002B00F0D880D9F80C30089F90
:1038D000D9F80420D9F80050D9F80840386103F12C
:1038E0000043FB60059B3D6002F1004201F1004195
:1038F00003F007007A60BC6079610DF51B7DBDE8BF
:10390000F08F00BF0000F03F0000E03F000070417A
:103910000000703EC84A0008039B002000210DF5FE
:103920009479002B7FF479AF089B0246C3E900012C
:103930000B46D9E9000100F08FFABAF1000F3FF70A
:103940007BAF0B4608990246C1E9022386E7039B39
:10395000002000210246002B99D10B460899C1E9AD
:10396000002399E70EAB069A53F82A30CDF80C9055
:10397000183ACDF814800692002B7FF4CBAE0EAB34
:1039800003EB8A0353F8041D0AF1FF3A183A0029A1
:10399000F8D00692BEE60123E7E50024A6E5BAF1D9
:1039A000000F8CDD4FEACA0809EB080B08F1080C80
:1039B000DBE90067CC44CDF81080E0463BED027BAC
:1039C000304653EC172B39468DED007B00F046FA5C
:1039D00004460D4622462B46DDE9000100F03CFA84
:1039E00002460B463046394600F038FACB4568E9C6
:1039F000020126462F46CBE90045DFD1BAF1010F7F
:103A0000DDF810807FF75BAF09EB080508F10804CB
:103A1000D5E900AB4C44A0460DF5987C35ED027B12
:103A200052465B4651EC170BCDF810C08DED007B74
:103A300000F014FA06460F4632463B46DDE9000127
:103A400000F00AFA52465B4600F008FADDF810C0B2
:103A5000654568E90201B246BB46C5E90067DDD1AC
:103A6000002000214EAD74E9022300F0F7F9AC42CA
:103A7000F9D1039B002B7FF428AFD9E90223089FDB
:103A8000D9E90045C7E90223059BC7E9040103F012
:103A90000700C7E900450DF51B7DBDE8F08F3046F6
:103AA000394600F027FE0EABAA4643F8250031E662
:103AB0002DE9F04F21F00046B6F1795F85B004465C
:103AC0000D469046994604DA00F014FE002800F0F6
:103AD000838022462B462046294600F071FB224671
:103AE0002B4606460F4600F06BFB42A3D3E90023AA
:103AF00082468B463046394600F062FB3FA3D3E94D
:103B0000002300F0A9F932463B4600F059FB3DA3E3
:103B1000D3E9002300F0A2F932463B4600F050FB07
:103B20003AA3D3E9002300F097F932463B4600F070
:103B300047FB38A3D3E9002300F090F90E9BCDE9B1
:103B400000019BB3404649460022294B00F038FB58
:103B5000DDE90023CDE902015046594600F030FB73
:103B600002460B46DDE9020100F076F932463B469B
:103B700000F026FB42464B4600F06EF91AA3D3E94B
:103B8000002306460F465046594600F019FB0246F0
:103B90000B463046394600F061F902460B46204696
:103BA000294600F059F905B0BDE8F08FDDE90023A2
:103BB0003046394600F004FB0BA3D3E9002300F0A4
:103BC0004BF952465B4600F0FBFA22462B4600F0CA
:103BD00045F905B0BDE8F08F2046294605B0BDE89F
:103BE000F08F00BFAFF30080495555555555C53F7F
:103BF0000000E03F7CD5CF5A3AD9E53DEB9C2B8ABB
:103C0000E6E55A3E7DFEB157E31DC73ED561C119B9
:103C1000A0012A3FA6F810111111813FAFF30080D7
:103C200021F00041704700BF2DE9F843C1F30A5865
:103C3000A8F2FF35132D02460B460C46074689466F
:103C400006461DDC002D40DBDFF8E88048FA05F869
:103C500008EA010E5EEA070717D034A3D3E9002370
:103C600000F0FCF80022002300F03AFD20B1002C07
:103C70003FDB29EA0804002621463046BDE8F883E8
:103C8000332D06DDB5F5806F2FD010461946BDE8FF
:103C9000F883A8F2134E4FF0FF3727FA0EF70742CA
:103CA000F3D022A3D3E9002300F0D8F800220023A8
:103CB00000F016FD0028DFD0002C1FDB4C4626EA62
:103CC000070621463046BDE8F88318A3D3E9002350
:103CD00000F0C4F80022002300F002FD0028CBD041
:103CE000002C19DB00263446C6E700F0B7F8BDE823
:103CF000F8834FF480132B419944BAE7142D08D070
:103D0000C8F5866808F10308012303FA08F39E1931
:103D1000D4D309F10109D1E724F00042024B3A4320
:103D200018BF1C460026A7E70000F0BF9C7500885E
:103D30003CE4377EFFFF0F00F8B5C1F30A56044696
:103D40000D460B46174616BB21F00043034332D005
:103D50000022374B00F034FA364A974204460D46AB
:103D60000B4637DBC1F30A56363E3E4440F2FE7244
:103D7000964215DD22462B4629A1D1E9000100F02B
:103D80005FF827A3D3E9002300F01AFAF8BD40F248
:103D9000FF72964224D03E4440F2FE729642E9DC25
:103DA000002E09DD23F0FF4323F4E00343EA065528
:103DB00020462946F8BDF8BD16F1350F15DA4CF24C
:103DC00050339F4222462B461DDC17A1D1E900014A
:103DD00000F036F814A3D3E9002300F0F1F9F8BDA0
:103DE00002460B4600F03AF8F8BD23F0FF4323F4F7
:103DF000E003363643EA06552046294600220E4B9C
:103E000000F0DEF9F8BD06A1D1E9000100F018F8D4
:103E100003A3D3E9002300F0D3F9F8BDAFF300808A
:103E20009C7500883CE4377E59F3F8C21F6EA501EB
:103E300000005043B03CFFFF0000903CAFF3008017
:103E400003F0004321F0004243EA0201704700BF43
:103E500081F0004102E000BF83F0004330B54FEA3B
:103E600041044FEA430594EA050F08BF90EA020FA8
:103E70001FBF54EA000C55EA020C7FEA645C7FEA3B
:103E8000655C00F0E2804FEA5454D4EB5555B8BF5E
:103E90006D420CDD2C4480EA020281EA030382EACF
:103EA000000083EA010180EA020281EA0303362D61
:103EB00088BF30BD11F0004F4FEA01314FF4801C34
:103EC0004CEA113102D0404261EB410113F0004F46
:103ED0004FEA03334CEA133302D0524263EB4303FD
:103EE00094EA050F00F0A780A4F10104D5F1200E9B
:103EF0000DDB02FA0EFC22FA05F2801841F10001F6
:103F000003FA0EF2801843FA05F359410EE0A5F1C9
:103F100020050EF1200E012A03FA0EFC28BF4CF0FA
:103F2000020C43FA05F3C01851EBE37101F00045B0
:103F300007D54FF0000EDCF1000C7EEB00006EEBBD
:103F40000101B1F5801F1BD3B1F5001F0CD3490847
:103F50005FEA30004FEA3C0C04F101044FEA44529E
:103F600012F5800F80F09A80BCF1004F08BF5FEA25
:103F7000500C50F1000041EB045141EA050130BD05
:103F80005FEA4C0C404141EB010111F4801FA4F1A8
:103F90000104E9D191F0000F04BF01460020B1FAFD
:103FA00081F308BF2033A3F10B03B3F120020CDA35
:103FB0000C3208DD02F1140CC2F10C0201FA0CF013
:103FC00021FA02F10CE002F11402D8BFC2F1200C78
:103FD00001FA02F120FA0CFCDCBF41EA0C0190402E
:103FE000E41AA2BF01EB0451294330BD6FEA040477
:103FF0001F3C1CDA0C340EDC04F11404C4F1200262
:1040000020FA04F001FA02F340EA030021FA04F373
:1040100045EA030130BDC4F10C04C4F1200220FACA
:1040200002F001FA04F340EA0300294630BD21FA08
:1040300004F0294630BD94F0000F83F4801306BFCE
:1040400081F480110134013D4EE77FEA645C18BFC2
:104050007FEA655C29D094EA050F08BF90EA020F59
:1040600005D054EA000C04BF1946104630BD91EA51
:10407000030F1EBF0021002030BD5FEA545C05D154
:104080004000494128BF41F0004130BD14F5800493
:104090003CBF01F5801130BD01F0004545F0FE4107
:1040A00041F470014FF0000030BD7FEA645C1ABF3C
:1040B000194610467FEA655C1CBF0B46024650EA73
:1040C000013406BF52EA033591EA030F41F400219F
:1040D00030BD00BF90F0000F04BF0021704730B525
:1040E0004FF4806404F132044FF000054FF00001FA
:1040F00050E700BF90F0000F04BF0021704730B5BB
:104100004FF4806404F1320410F0004548BF40428F
:104110004FF000013EE700BF42004FEAE2014FEAE4
:1041200031014FEA02701FBF12F07F4393F07F4FBF
:1041300081F06051704792F0000F14BF93F07F4FF1
:10414000704730B54FF4607401F0004521F0004134
:1041500020E700BF50EA010208BF704730B54FF0BA
:1041600000050AE050EA010208BF704730B511F0BF
:10417000004502D5404261EB41014FF4806404F1F7
:1041800032045FEA915C3FF4DCAE4FF003025FEA79
:10419000DC0C18BF03325FEADC0C18BF033202EB01
:1041A000DC02C2F1200300FA03FC20FA02F001FA5B
:1041B00003FE40EA0E0021FA02F11444C1E600BFFA
:1041C00070B54FF0FF0C4CF4E06C1CEA11541DBFAD
:1041D0001CEA135594EA0C0F95EA0C0F00F0DEF878
:1041E0002C4481EA030621EA4C5123EA4C5350EA5D
:1041F000013518BF52EA033541F4801143F48013AE
:1042000038D0A0FB02CE4FF00005E1FB02E506F03E
:104210000042E0FB03E54FF00006E1FB03569CF093
:10422000000F18BF4EF0010EA4F1FF04B6F5007F99
:1042300064F5407404D25FEA4E0E6D4146EB06060B
:1042400042EAC62141EA55514FEAC52040EA5E5094
:104250004FEACE2EB4F1FD0C88BFBCF5E06F1ED83E
:10426000BEF1004F08BF5FEA500E50F1000041EB75
:10427000045170BD06F0004646EA010140EA020022
:1042800081EA0301B4EB5C04C2BFD4EB0C0541EA44
:10429000045170BD41F480114FF0000E013C00F359
:1042A000AB8014F1360FDEBF002001F0004170BD7D
:1042B000C4F10004203C35DA0C341BDC04F1140496
:1042C000C4F1200500FA05F320FA04F001FA05F222
:1042D00040EA020001F0004221F0004110EBD370EF
:1042E00021FA04F642EB06015EEA430E08BF20EA1B
:1042F000D37070BDC4F10C04C4F1200500FA04F3BE
:1043000020FA05F001FA04F240EA020001F000414F
:1043100010EBD37041F100015EEA430E08BF20EAC2
:10432000D37070BDC4F1200500FA05F24EEA020E0A
:1043300020FA04F301FA05F243EA020321FA04F039
:1043400001F0004121FA04F220EA020000EBD370F0
:104350005EEA430E08BF20EAD37070BD94F0000FF0
:104360000FD101F00046400041EB010111F4801F24
:1043700008BF013CF7D041EA060195F0000F18BFD5
:10438000704703F00046520043EB030313F4801F11
:1043900008BF013DF7D043EA0603704794EA0C0FCB
:1043A0000CEA135518BF95EA0C0F0CD050EA4106E1
:1043B00018BF52EA4306D1D181EA030101F000415E
:1043C0004FF0000070BD50EA410606BF1046194686
:1043D00052EA430619D094EA0C0F02D150EA013692
:1043E00013D195EA0C0F05D152EA03361CBF1046D3
:1043F00019460AD181EA030101F0004141F0FE4172
:1044000041F470014FF0000070BD41F0FE4141F4F5
:10441000780170BD70B54FF0FF0C4CF4E06C1CEAF5
:1044200011541DBF1CEA135594EA0C0F95EA0C0FAA
:1044300000F0A7F8A4EB050481EA030E52EA033565
:104440004FEA013100F088804FEA03334FF0805586
:1044500045EA131343EA12634FEA022245EA1115B3
:1044600045EA10654FEA00260EF000419D4208BF64
:10447000964244F1FD0404F5407402D25B084FEA11
:104480003202B61A65EB03055B084FEA32024FF4BD
:1044900080104FF4002CB6EB020E75EB030E22BF1A
:1044A000B61A754640EA0C005B084FEA3202B6EBDA
:1044B000020E75EB030E22BFB61A754640EA5C0089
:1044C0005B084FEA3202B6EB020E75EB030E22BF19
:1044D000B61A754640EA9C005B084FEA3202B6EB1A
:1044E000020E75EB030E22BFB61A754640EADC00D9
:1044F00055EA060E18D04FEA051545EA16754FEA3B
:1045000006164FEAC30343EA52734FEAC2025FEA58
:104510001C1CC0D111F4801F0BD141EA00014FF0E7
:1045200000004FF0004CB6E711F4801F04BF0143B8
:104530000020B4F1FD0C88BFBCF5E06F3FF6AFAED4
:10454000B5EB030C04BFB6EB020C5FEA500C50F164
:10455000000041EB045170BD0EF0004E4EEA1131E7
:1045600014EB5C04C2BFD4EB0C0541EA045170BDEE
:1045700041F480114FF0000E013C90E645EA060E32
:104580008DE60CEA135594EA0C0F08BF95EA0C0F60
:104590003FF43BAF94EA0C0F0AD150EA01347FF4A8
:1045A00034AF95EA0C0F7FF425AF104619462CE77F
:1045B00095EA0C0F06D152EA03353FF4FDAE1046E2
:1045C000194622E750EA410618BF52EA43067FF433
:1045D000C5AE50EA41047FF40DAF52EA43057FF4C3
:1045E000EBAE12E74FF0FF3C06E000BF4FF0010CCE
:1045F00002E000BF4FF0010C4DF804CD4FEA410C32
:104600007FEA6C5C4FEA430C18BF7FEA6C5C1BD0FE
:1046100001B050EA410C0CBF52EA430C91EA030F7F
:1046200002BF90EA020F0020704710F1000F91EADC
:10463000030F58BF994208BF90422CBFD8176FEAAA
:10464000E37040F0010070474FEA410C7FEA6C5C78
:1046500002D150EA013C07D14FEA430C7FEA6C5C7F
:10466000D6D152EA033CD3D05DF8040B704700BFAB
:104670008446104662468C461946634600E000BFF9
:1046800001B5FFF7B7FF002848BF10F1000F01BDCB
:104690004DF808EDFFF7F4FF0CBF012000205DF896
:1046A00008FB00BF4DF808EDFFF7EAFF34BF01201B
:1046B00000205DF808FB00BF4DF808EDFFF7E0FFB4
:1046C00094BF012000205DF808FB00BF4DF808ED05
:1046D000FFF7CEFF94BF012000205DF808FB00BF6C
:1046E0004DF808EDFFF7C4FF34BF012000205DF84E
:1046F00008FB00BF4FEA410212F5001215D211D596
:104700006FF47873B3EB625212D94FEAC12343F0CE
:10471000004343EA505311F0004F23FA02F018BF50
:10472000404270474FF00000704750EA013005D119
:1047300011F0004008BF6FF0004070474FF00000DC
:10474000704700BF4A0011D212F5001211D20DD5E8
:104750006FF47873B3EB62520ED44FEAC12343F087
:10476000004343EA505323FA02F070474FF0000031
:10477000704750EA013002D14FF0FF3070474FF0E0
:104780000000704770B50E4B0E4CE41AA4100025C3
:104790001E46A54204D056F8253098470135F8E763
:1047A000FDF786F9084C094BE41AA41000251E46B3
:1047B000A54204D056F8253098470135F8E770BD7A
:1047C000CC88FE1FCC88FE1FCC88FE1FCC88FE1F25
:1047D0000044004000480040004C004000500040B1
:1047E000133F000100000000000000000000000076
:1047F00000000000000000000000000000000000B9
:1048000000000000000000000000000000000000A8
:104810000000000000000000000000000000000098
:104820000000000000000000000000000000000088
:104830000000000000000000040000000000000074
:104840000000000000000000000000003002010134
:104850000000010000000000000001000201010151
:1048600000000000D888FE1F008E024800000000F3
:1048700000000000D988FE1F008E024801000000E1
:1048800000000000DA88FE1F008E024809000000C8
:104890000044004000480040004C004000500040F0
:1048A00000002F00000000000000000001000000D8
:1048B00000000000A0480008B04800086048000858
:1048C00000010000000024000000000000000000C3
:1048D0000101000000000080C4480008D44800081E
:1048E00070480008000000000000000000450000C3
:1048F0002400000000000000000000000000000094
:104900000000000000000000E8480008010000006E
:104910000300000000000000BC88FE1F852900087D
:10492000F4480008C488FE1F0100020201000000D4
:10493000FB21F93FFB2109407CD91240FB211940A2
:104940007A6A1F407CD92240BBFD2540FB212940CB
:104950003A462C407A6A2F405C4731407CD932403D
:104960009C6B3440BBFD3540DB8F3740FB21394029
:104970001BB43A403A463C405AD83D407A6A3F40E0
:104980004C7E40405C4741406C1042407CD94240E4
:104990008CA243409C6B4440AC344540BBFD454039
:1049A000CBC64640DB8F4740EB584840FB2149408F
:1049B00083F9A200444E6E00FC291500D157270050
:1049C000DD34F50062DBC0003C9995004190430066
:1049D0006351FE00BBDEAB00B761C5003A6E240038
:1049E000D24D42004906E00009EA2E001C92D10097
:1049F000EB1DFE0029B11C00E83EA700F535820042
:104A000044BB2E009CE98400B4267000417E5F0008
:104A1000D6913900538339009CF439008B5F8400B0
:104A200028F9BD00F81F3B00DEFF97000F98050036
:104A3000112FEF000A5A8B006D1F6D00CF7E3600DC
:104A400009CB2700464FB7009E663F002DEA5F0066
:104A5000BA277500E5EBC7003D7BF100F739070089
:104A600092528A00FB6BEA001FB15F00085D8D0067
:104A7000300356007BFC4600F0AB6B0020BCCF003F
:104A800036F49A00E3A91D005E619100081BE60060
:104A900085996500A0145F008D40680080D8FF00F4
:104AA00027734D0006063100CA561500C9A87300C9
:104AB0007BE260006B8CC00002000000030000007D
:104AC000040000000600000000000040FB21F93F48
:104AD000000000002D44743E000000809846F83C21
:104AE0000000006051CC783B00000080831BF0394F
:104AF0000000004020257A38000000802282E33642
:084B0000000000001DF36935FF
:104B08000000000006000000A02526003435E35808
:104B18000A000000005000003088FE1F00440048D2
:104B2800030000000088FE1F0300B9DB010100003C
:104B380000449508080000000040004800000000FC
:104B480000440040E447000801020000004800401B
:104B5800F847000801020000004C00400C4800081B
:104B68000102000000500040204800080102000037
:104B78004088FE1F4C88FE1F5888FE1F6488FE1F51
:104B8800344800080040004002010000008001484D
:104B9800CC88FE1F804800080000100000000000BC
:104BA80000000000000000000000000000000000FD
:104BB800000001000000000001000000B4480008E7
:0C4BC800D848000802000008DB0FC940BC
:0400000508000201EC
:00000001FF
