:020000040C00EE
:100000000088FE1F010200089902000899020008FA
:1000100099020008990200089902000800000000F7
:10002000000000000000000000000000990200082D
:1000300099020008000000009902000899020008D7
:100040009902000899020008990200089902000824
:100050009902000899020008990200089902000814
:1000600099020008000000000000000000000000ED
:100070009902000800000000990200089902000897
:1000800099020008990200089902000899020008E4
:1000900099020008990200089902000899020008D4
:1000A00099020008990200089902000899020008C4
:1000B00099020008990200089902000899020008B4
:1000C00099020008990200089902000899020008A4
:1000D0009902000899020008990200089902000894
:1000E0009902000899020008990200089902000884
:1000F0009902000899020008990200089902000874
:100100009902000899020008990200089902000863
:100110009902000899020008990200089902000853
:100120009902000899020008990200089902000843
:100130009902000899020008990200089902000833
:100140009902000899020008990200089902000823
:100150009902000899020008990200089902000813
:10016000000000000000000000000000000000008F
:1001700099020008990200089902000899020008F3
:1001800099020008990200089902000899020008E3
:1001900099020008990200089902000899020008D3
:1001A00099020008990200089902000899020008C3
:1001B00099020008990200089902000899020008B3
:1001C00099020008990200089902000899020008A3
:1001D0009902000899020008990200080000000036
:1001E0009902000899020008990200089902000883
:1001F0009902000899020008990200080000000016
:10020000DFF874D01D4880471D4C1E4DAC4209DA02
:1002100021686268A368043BA2BFC858D050FAE7BF
:100220000C34F3E7184B194CA34208DA19685A68E2
:100230000020043AA4BF8850FBE70833F4E71448D1
:1002400080471448804700003C15000C0088FE1FC2
:10025000640000003C15000C0088FE1F0000000038
:100260006488FE1FBC0000000000002000000000A9
:1002700000000020000000000088FE1FC5020008EA
:1002800048020008600200086002000878020008C6
:100290009108000849080008FEE7000080B485B016
:1002A00000AF78600023FB6003E000BFFB68013310
:1002B000FB60FA687B689A42F7D31437BD465DF855
:1002C000047B704798B500AF054A4FF000531446C1
:1002D0000FCB84E80F0000F005F800F03BF898BD64
:1002E000C4FF032080B483B000AF72B6164B174A28
:1002F0009A60BFF34F8F62B6134A134BD3F888301E
:1003000043F47003C2F888300F4A0F4B5B6923F047
:10031000080353610E4B03F5805314331B687B6055
:100320007B6823F00F037B607B6843F004037B60F2
:10033000074B03F5805314337A681A600C37BD46B7
:100340005DF8047B704700BF00ED00E0000000088E
:100350000010005880B500AFA74B1B6803F00103E5
:10036000002B0CD1A44AA44B5B6843F001035360FB
:1003700000BFA14B1B6803F00103002BF9D09F4B7A
:100380001B6803F40073002B09D09C4A9B4B9B68AD
:1003900043F40073936041F64C50FFF77FFF984A97
:1003A000974B5B6843F40023536040F6C410FFF79B
:1003B00075FF934A924B5B6823F4803323F002036A
:1003C0005360904B5B6803F03003002B26D08D4ABE
:1003D0008C4B5B6823F4702323F03003536000F0F0
:1003E000E3F90246884BA3FB02231B0D013B1B04D0
:1003F0008449844A526813434B60814B0022DA607F
:100400007F4A7F4B5B6823F40033536000BF7C4B13
:100410001B6803F46073B3F5607FF8D1784A784BBA
:100420005B6843F00103536000BF754B1B6803F02A
:100430000103002BF9D0724A714B5B6843F0100343
:1004400053606F4B714A9A606D4A6D4B5B6843F025
:10045000400353606A4A6A4B5B6823F010035360A1
:10046000674A674B5B6843F48023536000BF644B6B
:100470001B6803F00403002BF9D0614A604B5B68F2
:1004800023F00103536000BF5D4B1B6803F00103C1
:10049000002BF9D15E4B4FF00112DA605C4B002269
:1004A0005A615B4B00221A61594B00221A62584B69
:1004B00000225A62564B0322DA61554B554A9A6123
:1004C000534B01229A63524B534A9A624C4A4C4B0B
:1004D0005B6823F040035360494B504A9A6000BF69
:1004E000474B1B6803F02003002BF9D04FF4166034
:1004F000FFF7D4FE424B4A4A9A6000BF404B1B684C
:1005000003F02003002BF9D04FF46160FFF7C6FE23
:100510003B4B444A9A6000BF394B1B6803F02003F1
:10052000002BF9D04FF49650FFF7B8FE344B3E4AFB
:100530009A6000BF324B1B6803F02003002BF9D0F8
:1005400041F27070FFF7AAFE2D4B384A9A6000BF47
:100550002B4B1B6803F02003002BF9D04FF4E15024
:10056000FFF79CFE324B0522DA60254A244B5B697B
:1005700023F4803323F002035361224B5B6803F0C2
:100580003003002B31D01E4B5A682A4B1340002BEE
:1005900007D01B4A1A4B5B6823F4803323F0020315
:1005A0005360184A174B5B6823F4702323F0300321
:1005B000536000F0F9F80246134BA3FB02231B0D16
:1005C000013B1B040F490F4A526813434B600C4A0E
:1005D0000B4B5B6823F40033536000BF084B1B6870
:1005E00003F46073B3F5607FF8D1054A044B5B698F
:1005F00043F0010353611FE00042005000440050EB
:1006000010470050004700506BCA5F6B002F0B0172
:10061000004600500500010003002001002F0501E5
:10062000002F0301002F0201002F0101002F000104
:10063000604100500200010000BF224B1B6903F023
:100640000103002BF9D01F4A1E4B5B6943F01003D6
:1006500053611C4B1C4A5A611A4A1A4B5B6943F09E
:1006600040035361174A174B5B6923F01003536132
:10067000144A144B5B6943F48023536100BF114B50
:100680001B6903F00403002BF9D00E4A0D4B5B6984
:1006900023F00103536100BF0A4B1B6903F0010300
:1006A000002BF9D1074A074B5B6923F040035361E4
:1006B000064B0822DA60064B00225A6000F00AF866
:1006C00080BD00BF10470050006300026041005031
:1006D0000046005080B584B000AF2F4BDB6803F4B8
:1006E0008033002B3ED02D4BDB6803F00103002B41
:1006F00002D02B4BFB6002E000F056F8F860274B6D
:100700001B6803F00403002B20D0244B9B6803F0EC
:1007100070631B0E0133BB60204B9B6803F4FE43E8
:100720001B0A01337B601D4B9B6803F4FE031B0C0B
:1007300001333B60BB683A6802FB03F3FA68B2FB23
:10074000F3F37A6802FB03F3FB600DE0134B9B6845
:1007500003F07F0301333B60FA683B68B2FBF3F3BD
:10076000FB6001E00E4BFB600B4BDB68DBB201333F
:10077000FA68B2FBF3F3FB60074B1B6903F001035C
:100780000133FA68B2FBF3F3FB60064AFB681360BF
:100790001037BD4680BD00BF0046005010470050D6
:1007A00000366E01C0FF032080B400AF024B184634
:1007B000BD465DF8047B7047001BB70080B584B070
:1007C00000AF7860144B1B68002B02D1124B134A08
:1007D0001A60114B1B68FB607B68033323F0030333
:1007E0007B600D4B1A687B6813440D4A934207D215
:1007F000094B1A687B681344074A1360FB6806E0DC
:1008000000F040F802460C2313604FF0FF33184607
:100810001037BD4680BD00BF6488FE1F0000002069
:10082000C0FF032080B400AFBD465DF8047B704775
:1008300080B483B000AF0023FB71FB7918460C37FE
:10084000BD465DF8047B704780B582B000AFFFF70E
:10085000EFFF0346FB7100F0B7FC074800F0A4F877
:10086000FB79002B03D0054800F09EF8FEE7044812
:1008700000F09AF8FBE700BF9C140008A8140008D9
:10088000C8140008014B1868704700BF6088FE1F3D
:1008900070B50E4B0E4CE41AA41000251E46A5425E
:1008A00004D056F8253098470135F8E7FFF7BAFF2E
:1008B000084C094BE41AA41000251E46A54204D09A
:1008C00056F8253098470135F8E770BD6488FE1F5B
:1008D0006488FE1F6488FE1F6488FE1F024403466E
:1008E000934202D003F8011BFAE7704770B50E4639
:1008F000054618B183690BB900F00CFAAC68A389FE
:10090000190701D5236983B92846214600F0A8F8C4
:1009100058B14FF0FF3070BD002B0EDB236816F886
:10092000012C1A70236801332360A36816F8012B89
:10093000013BA360002AEFD116E0A269934209DBD4
:10094000236816F8012C1A70236819780A29EAD14D
:10095000284602E016F8011C2846224600F02CF832
:10096000421C50425041D3E7002B15DAA269934252
:1009700008DB23680A221A702368197891420FD184
:10098000284601E028460A21224600F015F8431CBB
:100990005842584130B1BCE723680A221A702368D4
:1009A000013323600A2070BD024B01461868FFF72F
:1009B0009DBF00BF6088FE1F70B50D4614460646F9
:1009C00018B183690BB900F0A5F9224B9C4201D103
:1009D000746808E0204B9C4201D1B46803E01F4BCF
:1009E0009C4208BFF468A369A360A3891A0709D5CC
:1009F00023693BB123682069181A63699842EDB2F4
:100A00000FDB08E03046214600F02AF80028F1D03C
:100A10004FF0FF3070BD3046214600F011F900283C
:100A2000F6D1A368013BA36023685A1C22601D70A5
:100A300063690130984204D0A389DB0707D50A2DEA
:100A400005D13046214600F0FBF80028E0D12846C9
:100A500070BD00BFD8140008F8140008181500086D
:100A6000314B70B51D6806460C4625B1AB6913B90C
:100A7000284600F04FF92D4B9C4201D16C6808E0EC
:100A80002B4B9C4201D1AC6803E02A4B9C4208BF2F
:100A9000EC68A3899AB211071DD4D50602D40922A5
:100AA000326038E0500712D5616B41B104F1440364
:100AB000994202D0304600F003FA00236363A38911
:100AC00023F02403A3810023636023692360A389A7
:100AD00043F00803A38123694BB9A38903F420736E
:100AE000B3F5007F03D03046214600F09BF9A3897F
:100AF00013F0010205D00022A26062695242A26195
:100B000003E0990758BF6269A26022694AB903F0FD
:100B1000800080B230B143F04003A3814FF0FF303A
:100B200070BD002070BD00BF6088FE1FD814000893
:100B3000F8140008181500088A892DE9F0410546C7
:100B400010070C4657D44B68002B02DC0B6C002BB3
:100B500018DDE66AB6B102F48052002392B22F6823
:100B60002B600AB1626D10E0216A28460123B0476C
:100B7000411C024609D12B683BB11D2B01D0162B1D
:100B800047D12F600020BDE8F081A3895B0705D520
:100B90006368D21A636B0BB1236CD21AE66A216ABE
:100BA00000232846B047461CA38905D12A681AB1FC
:100BB0001D2A01D0162A19D100226260D9042269A7
:100BC000226004D5421C01D12B6803B96065616BBA
:100BD0002F600029D6D004F14403994202D0284660
:100BE00000F06EF900206063BDE8F08143F040033F
:100BF000A381BDE8F0810F69002FC3D093070E6871
:100C000008BF4B690F6018BF0023C7EB06088B6055
:100C100012E0A38943F04003A3814FF0FF30BDE809
:100C2000F0812846216AA66A3A464346B047002822
:100C3000EFDD0744C0EB0808B8F1000FF1DCA1E7D5
:100C400038B50B6905460C46DBB118B183690BB9A1
:100C500000F060F80C4B9C4201D16C6808E00B4B33
:100C60009C4201D1AC6803E0094B9C4208BFEC6890
:100C7000B4F90C302BB128462146BDE83840FFF7C7
:100C80005BBF002038BD00BFD8140008F81400086E
:100C900018150008014900F0A7B800BF410C000872
:100CA000002310B50446036043608360818143667E
:100CB000C28103614361836119465C300822FFF7FA
:100CC0000DFE054B6362054BA362054BE362054BCA
:100CD0002462236310BD00BF151000083710000800
:100CE0006F1000089310000870B568234D1E5D4317
:100CF0000E4605F1740100F027F9044640B10021C9
:100D000080E842000C30A06005F16802FFF7E6FDC4
:100D1000204670BD836910B5044633BB8364C36449
:100D20000365124B124A1B688262984204BF01237A
:100D3000836100F01FF86060204600F01BF8A0609F
:100D4000204600F017F80421E06000226068FFF7F9
:100D5000A7FFA06809210122FFF7A2FFE068122186
:100D60000222FFF79DFF0123A36110BDD4140008E8
:100D7000950C0008F8B51B4B1E68B369074613B9FC
:100D80003046FFF7C7FF4836B4687368013B04D4A8
:100D9000B4F90C5075B16834F8E733682BB93846AC
:100DA0000421FFF7A1FF306008B13668ECE70C239F
:100DB0003B60F8BD4FF6FF73E3810123A3816566B5
:100DC0002560A560656025616561A56104F15C0031
:100DD00029460822FFF782FD6563A563A564E564E3
:100DE0002046F8BDD41400082DE9F8438046894612
:100DF00000F14804002694B1A5686768013F0CD44F
:100E0000AB89012B07D9B5F90E30013303D0404629
:100E10002946C84706436835F0E72468EBE73046C3
:100E2000BDE8F883F0B58B899D0791B006460C4666
:100E300026D4B1F90E10002909DAA38913F0800F26
:100E40004FF0000514BF40274FF480670DE001AA62
:100E500000F046F90028F0DB029D05F47045A5F589
:100E600000514D424D414FF480673046394600F005
:100E70006BF860B9A3899A051DD443F00203A381DE
:100E800004F14703236023610123636113E00B4BEB
:100E9000B362A389206043F08003A381206167616E
:100EA0004DB13046B4F90E1000F02CF918B1A389F9
:100EB00043F00103A38111B0F0BD00BF950C000801
:100EC00030B500293DD051F8042C0B1F1D49002AD4
:100ED000B8BF9B180A680C4612B95A600B6030BD47
:100EE00093420DD219685818904201BF5A585218AF
:100EF0001A6042685A60236030BD994203D80A469E
:100F000051680029F9D1146815199D420AD11B684E
:100F10002344D0188842136013D108680344136037
:100F20004B680DE002D90C23036030BD1C68181912
:100F3000884204BF08684968596004BF00191860F6
:100F4000536030BD6C88FE1F70B5CC1C24F00304C8
:100F500008340C2C38BF0C24002C064603DA0C2372
:100F60003360002070BD8C42F9D3204A13681046CC
:100F70001946A1B10A68121B0ED40B2A03D90A60C4
:100F80008B188C501FE08B420DBF5A684A685A601C
:100F9000026018BF0B4616E00B464968E9E7144D9E
:100FA0002B681BB9304600F025F8286030462146F2
:100FB00000F020F8421C0346D1D0C51C25F00305E3
:100FC00085420AD11C6003F10B001A1D20F00700B6
:100FD000821A0AD05142995070BD3046E91A00F089
:100FE00009F80130BBD02B46ECE770BD6C88FE1FC2
:100FF0006888FE1F38B5064C002305460846236066
:10100000FFF7DCFB431C02D1236803B12B6038BD22
:101010001C89FE1F10B50C46B1F90E1000F094F8B3
:101020000028ABBF636DA3891B1823F48053ACBFAA
:101030006365A38110BD2DE9F0411D468B89DB0559
:1010400007460C46164605D5B1F90E1000220223BC
:1010500000F068F8A389B4F90E1023F48053A3813B
:10106000384632462B46BDE8F04100F017B810B5BF
:101070000C46B1F90E1000F055F8431CA38915BFBA
:10108000606523F4805343F48053A38118BFA38188
:1010900010BDB1F90E1000F013B8000038B5074CC0
:1010A000054600202060084611461A4600F057F910
:1010B000431C02D1236803B12B6038BD1C89FE1F7D
:1010C00038B5064C002305460846236000F076F943
:1010D000431C02D1236803B12B6038BD1C89FE1F5D
:1010E00038B5074C0023054608461146236000F03A
:1010F000AAF9431C02D1236803B12B6038BD00BF9D
:101100001C89FE1F38B5064C00230546084623609F
:1011100000F0A7F9431C02D1236803B12B6038BD4E
:101120001C89FE1F38B5074C054600202060084684
:1011300011461A4600F001F9431C02D1236803B19D
:101140002B6038BD1C89FE1F38B5074C05460020B2
:101150002060084611461A4600F098F8431C02D158
:10116000236803B12B6038BD1C89FE1F0A4B10B5E4
:101170000446186818B183690BB9FFF7CBFD132C2F
:1011800007D8064850F83430013302D000EBC400D1
:1011900010BD002010BD00BF6088FE1F7C88FE1FB0
:1011A000F8B50546FFF76EFB0027064613242046D8
:1011B0003946ABBE044634602846F8BD431C01D115
:1011C000FFF7EEBF704700002DE9FF47DFF898906A
:1011D000CDF804904FF003080023CDF80C800124D3
:1011E000029301AF20463946ABBE05461A4ECDF8F4
:1011F00004900423CDF80C803560029320463946D4
:10120000ABBE8246154DCDF804900823CDF80C8076
:10121000C5F800A0029320463946ABBE0446104AEA
:101220001460013404BF2B68136000210D4B4FF094
:10123000FF3043F8310001311429F7D131682868B3
:1012400012681960002159609860D9601A6159616B
:1012500004B0BDE8F08700BF7488FE1F7088FE1FD1
:101260007888FE1F7C88FE1F3815000830B585B0D1
:1012700001AD019002910392062420462946ABBE9F
:1012800004462046FFF79AFF05B030BD70B50E4604
:101290001546FFF76BFF044630B9FFF7F3FA092351
:1012A00003604FF0FF3070BD31462A460068FFF7FB
:1012B000DDFF431C1FBF6368281A1B18636070BDE5
:1012C000F7B50C461646FFF751FF054618B9FFF76C
:1012D000D9FA092304E0022E06D9FFF7D3FA162320
:1012E00003604FF0FF3026E0012E03D14368E4187D
:1012F00011D5F2E7022E0ED102AF036847F8083D80
:101300000C2630463946ABBE06463046FFF756FF40
:10131000431CE6D004442B686F468DE818000A266B
:1013200030463946ABBE06463046FFF747FF002839
:10133000D7DB6C60204603B0F0BDFFF7C1BF30B50E
:1013400085B001AD01900291039205242046294603
:10135000ABBE04462046FFF731FF05B030BD70B587
:101360000E461546FFF702FF044620B9FFF78AFA3A
:101370000923036011E02A4600683146FFF7DFFFCA
:10138000021E0ADB6368A81A03449542636006D113
:101390000020BDE87040FFF703BF4FF0FF3070BD85
:1013A00037B502AD022445F8040D20462946ABBEF0
:1013B00004462046FFF702FF03B030BD38B50546AE
:1013C000FFF7D4FE044630B9FFF75CFA0923036047
:1013D0004FF0FF3038BD013D012D09D8084B9A6808
:1013E0001B699A4204D14FF0FF330360002038BDDF
:1013F0002068FFF7D5FF10B94FF0FF33236038BDE9
:101400007C88FE1F70B50C46FFF7B0FE064630B96B
:10141000FFF738FA092303604FF0FF3070BD6368AF
:1014200043F4005363604FF48063E3620C25284665
:101430003146ABBE05462846FFF7C0FE431C1CBF25
:101440002061002070BD38B53C2205460C46084698
:101450000021FFF743FA28462146BDE83840FFF750
:10146000D1BF70B5FFF782FE0925044618B9FFF712
:1014700009FA05600FE028462146ABBE0446012C60
:1014800009D0FFF7FFF90024064613252846214618
:10149000ABBE05463560204670BD000053696D54F3
:1014A0006573746C616200004441564520415050A0
:1014B0007320696E697469616C697A6174696F6EB1
:1014C000206661696C65640057454C434F4D45008B
:1014D000430000000088FE1F000000000000000024
:1014E00000000000000000000000000000000000FC
:1014F00000000000000000000000000000000000EC
:1015000000000000000000000000000000000000DB
:1015100000000000000000000000000000000000CB
:1015200000000000000000000000000000000000BB
:0C15300000000000000000003A7474008D
:10153C0000000000D8140008F81400081815000862
:10154C00000000000000000000000000000000008F
:10155C00D014000800000000000000000000000093
:10156C00000000000000000000000000000000006F
:10157C00000000000000000000000000000000005F
:10158C00000000000000000000000000000000004F
:04159C000088FE1FA6
:0400000508000201EC
:00000001FF
