:020000040C00EE
:100000000088FE1F010200089902000899020008FA
:1000100099020008990200089902000800000000F7
:10002000000000000000000000000000990200082D
:1000300099020008000000009902000899020008D7
:100040009902000899020008990200089902000824
:100050009902000899020008990200089902000814
:1000600099020008000000000000000000000000ED
:100070009902000800000000990200089902000897
:1000800099020008990200089902000899020008E4
:1000900099020008990200089902000899020008D4
:1000A00099020008990200089902000899020008C4
:1000B00099020008990200089902000899020008B4
:1000C00099020008990200089902000899020008A4
:1000D0009902000899020008990200089902000894
:1000E0009902000899020008990200089902000884
:1000F0009902000899020008990200089902000874
:100100009902000899020008990200089902000863
:100110009902000899020008990200089902000853
:100120009902000899020008990200089902000843
:100130009902000899020008990200089902000833
:100140009902000899020008990200089902000823
:100150009902000899020008990200089902000813
:10016000000000000000000000000000000000008F
:1001700099020008990200089902000899020008F3
:1001800099020008990200089902000899020008E3
:1001900099020008990200089902000899020008D3
:1001A00099020008990200089902000899020008C3
:1001B00099020008990200089902000899020008B3
:1001C00099020008990200089902000899020008A3
:1001D0009902000899020008990200080000000036
:1001E0009902000899020008990200089902000883
:1001F0009902000899020008990200080000000016
:10020000DFF874D01D4880471D4C1E4DAC4209DA02
:1002100021686268A368043BA2BFC858D050FAE7BF
:100220000C34F3E7184B194CA34208DA19685A68E2
:100230000020043AA4BF8850FBE70833F4E71448D1
:100240008047144880470000C822000C0088FE1F29
:1002500010000000C822000C0088FE1F00000000F3
:100260001088FE1F38000000000000200000000081
:1002700000000020000000000088FE1F9D02000812
:1002800048020008600200086002000878020008C6
:100290001D22000849210008FEE7000098B500AFC4
:1002A000054A4FF0005314460FCB84E80F0001F0CD
:1002B0005FFE01F0DBFE98BDC4FF032080B584B073
:1002C00000AF2F4BDB6803F48033002B3ED02D4B67
:1002D000DB6803F00103002B02D02B4BFB6002E034
:1002E00001F0A6FEF860274B1B6803F00403002B07
:1002F00020D0244B9B6803F070631B0E0133BB605E
:10030000204B9B6803F4FE431B0A01337B601D4BAB
:100310009B6803F4FE031B0C01333B60BB683A6827
:1003200002FB03F3FA68B2FBF3F37A6802FB03F310
:10033000FB600DE0134B9B6803F07F0301333B60D0
:10034000FA683B68B2FBF3F3FB6001E00E4BFB6025
:100350000B4BDB68DBB20133FA68B2FBF3F3FB60F3
:10036000074B1B6903F001030133FA68B2FBF3F397
:10037000FB60064AFB6813601037BD4680BD00BFB6
:10038000004600501047005000366E01C0FF0320A9
:1003900080B485B000AFF8600B467A60FB72FB7AE0
:1003A0009B08DBB21846FB7A9B08DBB21A46FB6857
:1003B000043253F82220FB7A03F00303DB001946D2
:1003C000F8238B40DB4302EA0301FB68021D43F87C
:1003D0002210FB685A6FFB7A5B00194603238B409F
:1003E000DB431A40FB685A67FB683A4A934203D0E2
:1003F000FB68394A93420AD1FB681A6EFB7A0121E5
:1004000001FA03F3DB431A40FB681A6642E07B689B
:100410001B78DBB25BB2002B3CDA7B685A68FB7A54
:100420009A40FB685A60FB7ADB08DBB21846FB7A1D
:10043000DB08DBB21A46FB68103253F82220FB7A45
:1004400003F007039B00194607238B40DB4302EAB6
:100450000301FB6800F1100243F82210FB7ADB086D
:10046000DBB21846FB7ADB08DBB21A46FB681032B7
:1004700053F822207B681B7A1946FB7A03F00703A6
:100480009B0001FA03F342EA0301FB6800F110024A
:1004900043F82210FB7A9B08DBB21846FB7A9B08D4
:1004A000DBB21A46FB68043253F822207B681B78C3
:1004B0001946FB7A03F00303DB0001FA03F342EA77
:1004C0000301FB68021D43F822101437BD465DF896
:1004D000047B7047008E0248008F024880B400AF52
:1004E000034B1B681846BD465DF8047B704700BF90
:1004F000C0FF032080B400AF034BD3F8C4301846CC
:10050000BD465DF8047B70470040005080B584B064
:1005100000AF7860FFF7D2FE0B4B1B680B4AA2FBC3
:1005200003239A0C7B6802FB03F37B600023FB60D0
:1005300003E000BFFB680133FB60FA687B689A4206
:10054000F7D31037BD4680BDC0FF032083DE1B43B9
:1005500080B400AF034B5B681846BD465DF8047B72
:10056000704700BF7440005080B483B000AF786023
:10057000034A7B68D3600C37BD465DF8047B704747
:1005800074400050B0B584B002AF7860002000F035
:10059000C5F800F0CBFA7B68DB79002B0AD000F0BD
:1005A00003FB00BF00F0EEFA034683F00103DBB269
:1005B000002BF7D17B685B7A184600F029F900BF61
:1005C000FFF798FF0346002BFAD17B681B7A184689
:1005D00000F086FA7B681B7C184600F037F97B68D0
:1005E0005B7C184600F05AF97B689B7C184600F04B
:1005F00041F97B68DB7C184600F064F97B689B79E5
:10060000002B0AD000F008FB00BF00F02DFB0346D2
:1006100083F00103DBB2002BF7D17B68DB78002B82
:1006200009D17B689B7983F00103DBB2002B17D0E3
:1006300000F03EFB14E000F02BFB7B6899887B68A0
:10064000DA787B685B781D467B681B781C467B6884
:100650009B780093084611462A46234600F038FB53
:100660007B68DB68B3F5803F03D14FF4803000F046
:1006700055F8FFF723FE0837BD46B0BD80B485B0FE
:1006800000AF78607B681B0FFB607B6823F07043D2
:10069000BB60FA6813465B0013449B001A46044B88
:1006A0001344BA681A601437BD465DF8047B70477E
:1006B0001444005080B485B000AF78607B681B0F95
:1006C000FB607B6823F07043BB60FA6813465B00F5
:1006D00013449B001A46084B13441A68BB68134026
:1006E000002B14BF01230023DBB218461437BD468C
:1006F0005DF8047B704700BF0C44005080B500AF2C
:10070000FFF7ECFE0246044B5B6903F0010322FA9B
:1007100003F3184680BD00BF0046005080B483B08C
:1007200000AF78600649064BDB6823F480327B68B3
:100730001343CB600C37BD465DF8047B704700BFA8
:100740000046005080B483B000AF78600649064B85
:100750009B6923F480327B6813438B610C37BD4661
:100760005DF8047B704700BF0046005080B483B042
:1007700000AF78600649064B5B6A23F440327B6821
:1007800013434B620C37BD465DF8047B704700BFD6
:100790000046005080B483B000AF0346FB80FB8866
:1007A000002B08D10A4A0A4BDB6823F4807323F03C
:1007B0000103D36007E0064A054BDB6843F480730E
:1007C00043F00103D3600C37BD465DF8047B7047EE
:1007D0001047005080B483B000AF0346FB7100BFE8
:1007E000094BD3F8C43003F00803002BF8D10749B4
:1007F000064BDB6823F04002FB791343CB600C37D8
:10080000BD465DF8047B7047004000500043005037
:1008100080B483B000AF0346FB7100BF094BD3F82F
:10082000C43003F00803002BF8D10749064BDB68FE
:1008300023F08002FB791343CB600C37BD465DF893
:10084000047B7047004000500043005080B483B0E8
:1008500000AF78600649064BDB6823F0FF027B6837
:10086000013B1343CB600C37BD465DF8047B7047FA
:100870000046005080B483B000AF78600649064B54
:100880001B6A23F001027B68013B13430B620C37A8
:10089000BD465DF8047B70470046005080B483B0CD
:1008A00000AF78600649064B1B6923F001027B68A4
:1008B000013B13430B610C37BD465DF8047B704769
:1008C0000046005080B483B000AF78600649064B04
:1008D0005B6923F001027B68013B13434B610C37DA
:1008E000BD465DF8047B70470046005080B483B07D
:1008F00000AF78600649064B9B6923F007027B68CE
:10090000013B13438B610C37BD465DF8047B704798
:100910000046005080B483B000AF78600649064BB3
:10092000DB6923F03F027B68013B1343CB610C374B
:10093000BD465DF8047B70470046005080B483B02C
:1009400000AF78600649064B5B6A23F0FF027B68C4
:10095000013B13434B620C37BD465DF8047B704787
:100960000046005080B483B000AF78600649064B63
:100970009B6B23F003027B68013B13438B630C37B3
:10098000BD465DF8047B70470046005080B485B0DA
:1009900000AF78607B681B0FFB607B6823F07043BF
:1009A000BB60FA6813465B0013449B001A46044B75
:1009B0001344BA681A601437BD465DF8047B70476B
:1009C0004846005080B485B000AF78607B681B0F4C
:1009D000FB607B6823F07043BB60FA6813465B00E2
:1009E00013449B001A46084B13441A68BB68134013
:1009F000002B14BF01230023DBB218461437BD4679
:100A00005DF8047B704700BF4046005080B400AFE3
:100A1000054A054B5B6923F4803323F002035361DD
:100A2000BD465DF8047B70471047005080B483B02A
:100A300000AF78603960284A274B5B6943F00103B7
:100A4000536100BF244B1B6903F00103002BF9D055
:100A5000214A214B5B6943F0100353611E493B68F7
:100A6000013B1A027B68013B1B0613434B611A4A88
:100A7000194B5B6943F040035361174A164B5B699E
:100A800023F010035361144A134B5B6943F4802332
:100A9000536100BF104B1B6903F00403002BF9D016
:100AA0000D4A0D4B5B6923F00103536100BF0A4BF4
:100AB0001B6903F00103002BF9D1074A064B5B6960
:100AC00023F040035361054B0822DA600C37BD4622
:100AD0005DF8047B704700BF104700506041005034
:100AE00080B582B000AF0346FB710F4A0E4B5B68C6
:100AF00043F480135360FB79012B0ED10A4A0A4B51
:100B00005B6823F4801353606420FFF7FFFC064A00
:100B1000054B5B6843F4002353606420FFF7F6FC49
:100B20000837BD4680BD00BF1047005080B400AFFD
:100B3000124B1B6803F00103002B09D10F4B01225C
:100B40005A6000BF0D4B1B6803F00103002BF9D066
:100B50000B4B1B6803F40073002B0AD0084B4FF4B7
:100B600000729A6000BF064B1B6803F40073002BF1
:100B7000F9D1BD465DF8047B704700BF00420050CC
:100B80000044005080B400AF064B1B6803F008031C
:100B9000002B0CBF01230023DBB21846BD465DF8D5
:100BA000047B70470043005080B500AF4FF4000055
:100BB000FFF7DAFC174A174BDB6923F03003D361E8
:100BC00000BFFFF7C5FC034603F40003002BF8D079
:100BD0004FF40030FFF7C8FC0E4B08225A6000BFEC
:100BE000FFF7B6FC034603F40033002BF8D04FF4B4
:100BF0000020FFF7B9FC074A064BDB6843F0080307
:100C0000D36000BFFFF7A4FC034603F40023002BCE
:100C1000F8D080BD00430050B0B500AF0F4A0F4B75
:100C20005B6823F4803353600D4D0D4B5B6823F4F8
:100C3000702424F0300401F0FBF90246094BA3FBB9
:100C400002231B0D013B1B0423436B60034A034B30
:100C50005B6823F400335360B0BD00BF1047005001
:100C6000004700506BCA5F6B80B400AF074B1B6836
:100C700003F46073B3F5607F0CBF01230023DBB284
:100C80001846BD465DF8047B704700BF1047005012
:100C900080B400AF054A054B5B6823F4803323F032
:100CA00002035360BD465DF8047B70471047005057
:100CB00080B400AF054A054B5B6843F4803343F0D2
:100CC00002035360BD465DF8047B70471047005037
:100CD00080B586B000AFBA607B600346FB810B46EF
:100CE0007B73FB891846FFF755FD7B7B012B40F09A
:100CF0008B80FB89002B09D101F09AF90246544BF5
:100D0000A3FB02239B0C9B057B6102E04FF0C063B9
:100D10007B617B697A6802FB03F2BB68B2FBF3F389
:100D20007B617B694B4AA2FB03231B099B0D3B6143
:100D3000494A494B5B6843F00103536000BF464B8F
:100D40001B6803F00103002BF9D0434A424B5B6858
:100D500043F01003536040493F4B9A683F4B1340A8
:100D60007A68013A12021A433B69013B1B041A4399
:100D7000BB68013B1B0613438B60374A364B5B68ED
:100D800043F040035360344A334B5B6823F0100355
:100D90005360314A304B5B6843F48023536000BF9B
:100DA0002D4B1B6803F00403002BF9D02A4A2A4B71
:100DB0005B6823F00103536000BF274B1B6803F0FF
:100DC0000103002BF9D17B69254AA2FB03235B09B0
:100DD0009B0D3B613A6A3B699A4202D2386900F046
:100DE00045F87B695B081F4AA2FB03235B099B0D47
:100DF0003B613A6A3B699A4202D2386900F036F8A0
:100E0000386A00F033F81CE01349134B9B6823F059
:100E10007F023B6A013B13438B6000BF0E4B1B6894
:100E200003F01003002BF9D00B4A0B4B5B6843F027
:100E30000103536000BF084B1B6803F00103002B44
:100E4000F9D0094B0522DA601837BD4680BD00BFD6
:100E500083DE1B43ABAAAAAA10470050FF8080F094
:100E600089888888B7600BB66041005080B582B031
:100E700000AF78600B490B4B9B6823F4FE027B6844
:100E8000013B1B0413438B6000BF064B1B6803F040
:100E90002003002BF9D03220FFF738FB0837BD467E
:100EA00080BD00BF1047005080B483B000AF7860B1
:100EB0000B46FB701346BB70FB789B08DBB21846F1
:100EC000FB789B08DBB21A467B68043253F8222079
:100ED000FB7803F00303DB001946F8238B40DB4368
:100EE00002EA03017B68021D43F82210FB789B088D
:100EF000DBB21846FB789B08DBB21A467B680432EB
:100F000053F82220BB78F97801F00301C9008B4027
:100F100042EA03017B68021D43F822100C37BD46EC
:100F20005DF8047B704700BF80B483B000AF786089
:100F30007B689B6BDBB223F07F03DBB218460C3778
:100F4000BD465DF8047B704780B483B000AF786025
:100F500039607B68DA6C3B681A437B68DA640C376B
:100F6000BD465DF8047B704780B584B000AFF86083
:100F7000B9601346FB71F86800F0B8F9FB68114AD4
:100F80005A63BB68DB88F868194600F01DF8FB79E6
:100F9000002B08D0BB681A68BB681B79F86811463B
:100FA0001A4600F03BF8FB684FF4A0629A63FB68B6
:100FB0004FF0FF32DA64FB6800221A641037BD4636
:100FC00080BD00BF03033F0780B483B000AF7860EB
:100FD0000B467B807B8803F4F843B3F5F04F0ED1CA
:100FE0007B68DB6B1B0C1B047A88D2B21A437B88AC
:100FF0005B0003F47E431A437B68DA6308E07B6896
:10100000DB6B1B0C1B047A8812021A437B68DA63C1
:101010000C37BD465DF8047B704700BF80B586B0D5
:1010200000AFF860B9601346FB71BB68204A934279
:1010300019D8FB68DB6B23F40032FB68DA63FB79B9
:10104000002B08D0BB68F86819460A2200F00CFA99
:101050000346FB7527E0F868B9680A2200F092F9A8
:101060000346FB751FE0BB68124A934219D8FB6820
:10107000DB6B43F40032FB68DA63FB79002B08D0AA
:10108000BB68F8681946192200F0EEF90346FB75B3
:1010900009E0F868B968192200F074F90346FB7595
:1010A00001E00123FB75FB7D18461837BD4680BD66
:1010B000A0860100801A060080B584B000AF786079
:1010C0000B467B8013467B707B8843F480639BB226
:1010D000FB607B78012B03D1FB6843F00103FB60CD
:1010E0007B68D3F8083103F0E063002B10D100BF18
:1010F0007868FFF719FF0346802BF9D078684FF422
:101100000051FFF721FF7B68FA68C3F8802003E0F5
:101110007B68FA68C3F880211037BD4680BD00BFE8
:1011200080B584B000AF78600B467B8013467B703F
:101130007B8843F4A0639BB2FB607B78012B03D1D7
:10114000FB6843F00103FB607B68D3F8083103F0D0
:10115000E063002B10D100BF7868FFF7E5FE03467F
:10116000802BF9D078684FF40051FFF7EDFE7B68D3
:10117000FA68C3F8802003E07B68FA68C3F880212E
:101180001037BD4680BD00BF80B582B000AF78602B
:101190007B68D3F8083103F0E063002B11D100BF66
:1011A0007868FFF7C1FE0346802BF9D078684FF4CA
:1011B0000051FFF7C9FE7B684FF4C062C3F880207E
:1011C00004E07B684FF4C062C3F880210837BD4655
:1011D00080BD00BF80B582B000AF78600B46FB7069
:1011E0007B68D3F8083103F0E063002B10D100BF17
:1011F0007868FFF799FE0346802BF9D078684FF4A2
:101200000051FFF7A1FEFA787B68C3F8802003E065
:10121000FA787B68C3F880210837BD4680BD00BFDF
:1012200080B582B000AF78607B68D3F8083103F0F6
:10123000E063002B11D100BF7868FFF775FE03460D
:10124000802BF9D078684FF40051FFF77DFE7B6862
:101250004FF40072C3F8802004E07B684FF4007202
:10126000C3F880210837BD4680BD00BF80B582B07D
:1012700000AF78607B68D3F8083103F0E063002B9F
:1012800011D100BF7868FFF74FFE0346802BF9D0DD
:1012900078684FF40051FFF757FE7B684FF44072B7
:1012A000C3F8802004E07B684FF44072C3F88021CB
:1012B0000837BD4680BD00BF80B485B000AF786000
:1012C0007B68D3F80C3103F0E063002B03D17B681B
:1012D0005B6DFB7303E07B68D3F81C31FB73FB7B16
:1012E00018461437BD465DF8047B704780B582B060
:1012F00000AF78607B681A4A934203D07B68194A32
:10130000934203D1184800F081F916E07B68174A30
:10131000934203D07B68164A934203D1154800F0EC
:1013200075F90AE07B68144A934203D07B68134A3C
:10133000934202D1124800F069F97B680322DA6017
:1013400000BF7B68DB6803F00103002BF9D07B68EA
:101350001B6C23F00F027B681A640837BD4680BD02
:101360000000034000020340080003400000024860
:1013700000020248080002480040024800420248B9
:101380000840024880B58EB000AFF860B9607A605E
:10139000BB68632B5AD97B68002B57D0FFF7AEF997
:1013A00002462F4BA3FB02235B093B62BB682C4A1E
:1013B000A2FB03235B09BB604FF48063FB62012344
:1013C000BB6240F2FF337B624FF480633B6322E0F9
:1013D0003B6A3A6B02FB03F2BB68796801FB03F3DB
:1013E000B2FBF3F3FB61FB699B0ABB61FB69C3F3CF
:1013F00009037B61BB69B3F5806F09D87A697B6AA1
:101400009A4205D27B697B62BB69BB623B6BFB6224
:101410003B6B013B3B633B6B002BD9D1FB6A013B30
:1014200043F40042FB681A61FB685A690D4B134094
:101430007A68013A92021A43BB6A013B1B041A43C1
:10144000FB685A61002387F8373002E0012387F8F0
:10145000373097F8373018463837BD4680BD00BF63
:101460001F85EB51EF8000FC80B58CB000AFF860B9
:10147000B9607A60FFF742F903463B62BB687A685D
:1014800002FB03F3FB610123FB623A6AFB699A42A8
:101490005FDD3A6AFB6992FBF3F3BB6210E0FB6A23
:1014A0000133FB62BB687A6802FB03F31A46FB6AEE
:1014B00003FB02F3FB613A6AFB6992FBF3F3BB6245
:1014C000BB6A40F2FE329342E9D83A6A7B68B96A55
:1014D00001FB03F3F96A01FB03F3B2FBF3F3BB6116
:1014E0003A6ABB6A0133796801FB03F3F96A01FBCD
:1014F00003F3B2FBF3F37B61BA687B69D31A83EA27
:10150000E372A2EBE372B968BB69CB1A002BB8BFD8
:101510005B429A4202DABB6A0133BB62BB6AC3F523
:101520008063BB62BB6A43F48042FB681A61FB685C
:101530005A690C4B13407A68013A92021A43FB6ACB
:10154000013B1B041A43FB685A61002387F82730CC
:1015500002E0012387F8273097F827301846303704
:10156000BD4680BDEF8000FC80B485B000AFF86060
:10157000B9603B601346FB71FB68D3F8083123F078
:10158000E062FB68C3F80821FB68D3F80821094B27
:1015900013403A681102BA681143FA7912060A43F5
:1015A0001A43FB68C3F808211437BD465DF8047B75
:1015B000704700BFC0C0FFF880B485B000AFF860CE
:1015C000B9603B601346FB71FB68D3F80C3123F024
:1015D000E062FB68C3F80C21FB68D3F80C210A4BCE
:1015E00013403A681102BA681143FA7912060A43A5
:1015F000134343F08052FB68C3F80C211437BD46F7
:101600005DF8047B704700BFC0C0FFEF80B582B0BB
:1016100000AF78607B68284A934218D14FF400608D
:10162000FFF7B4F900BF4FF40060FFF7CBF90346B2
:10163000002BF8D14FF40060FFF720F800BF4FF403
:101640000060FFF737F80346002BF8D130E07B68E5
:101650001A4A934214D11A48FFF798F900BF184864
:10166000FFF7B0F90346002BF9D11548FFF706F84C
:1016700000BF1348FFF71EF80346002BF9D117E00F
:101680007B68104A934213D10F48FFF77FF900BFE0
:101690000D48FFF797F90346002BF9D10A48FEF7EA
:1016A000EDFF00BF0848FFF705F80346002BF9D10E
:1016B0000837BD4680BD00BF08000340080002484F
:1016C00080000010084002480001001080B400AF04
:1016D000BD465DF8047B704780B483B000AF78608E
:1016E0007B68D3F8143103F48053002B14BF01231B
:1016F0000023DBB218460C37BD465DF8047B70470B
:1017000080B483B000AF78607B68D3F8143103F401
:101710000063002B14BF01230023DBB218460C37F3
:10172000BD465DF8047B704780B483B000AF78603D
:101730007B68D3F8143103F00803002B14BF012396
:101740000023DBB218460C37BD465DF8047B7047BA
:1017500080B483B000AF78607B689B6C18460C3710
:10176000BD465DF8047B704780B483B000AF7860FD
:1017700039607B68DA6C3B681A437B68DA640C3743
:10178000BD465DF8047B704780B582B000AF7860DD
:101790007B681B681846FFF79FFF0346184608370B
:1017A000BD4680BD80B582B000AF78607B681B68A5
:1017B0001846FFF7B9FF034618460837BD4680BDF7
:1017C00080B582B000AF78607B681B681846FFF771
:1017D00073FD034618460837BD4680BD80B582B00C
:1017E00000AF78600B46FB707B681A68FB78104688
:1017F0001946FFF7EFFC0837BD4680BD80B582B0C3
:1018000000AF78607B681B681846FFF709FD083752
:10181000BD4680BD80B582B000AF78607B681B6834
:101820001846FFF723FD0837BD4680BD80B582B05E
:1018300000AF78607B681B6818461021FFF794FFA3
:101840007B681B681846FFF79FFC0837BD4680BDC4
:1018500080B584B000AFF860B9601346FB71FB68D7
:101860001B6818460421FFF77FFFFB681968BB68F7
:101870009AB2FB79084611461A46FFF71DFC10374D
:10188000BD4680BD80B584B000AFF860B960134636
:10189000FB71FB681B6818460821FFF765FFFB68B2
:1018A0001968BB689AB2FB79084611461A46FFF7D9
:1018B00037FC1037BD4680BD80B584B000AF78607E
:1018C0007B68002B06D07B685B685B6898470023C9
:1018D000FB7301E00123FB73FB7B18461037BD4609
:1018E00080BD00BF80B584B000AF786039607B6890
:1018F0001B681846FFF72CFFF860FA683B68134036
:1019000018461037BD4680BD80B582B000AF786004
:1019100039607B681B6818463968FFF725FF083770
:10192000BD4680BD80B588B002AFF8607A603B608C
:101930000B46FB720223FB75FB685B6893F824304F
:10194000002B13D0FB685B6893F82430012B0DD07B
:10195000FA7A3B6A009397F824300193F8681146AD
:101960007A683B6800F08CF80346FB75FB7D1846EF
:101970001837BD4680BD00BF80B58AB004AFF8609F
:101980007A603B600B46FB720223FB75FB685B6869
:1019900093F82530002B16D0FB685B6893F8253050
:1019A000012B10D0FA7A3B6A009397F82430019308
:1019B00097F828300293F86811467A683B6800F07F
:1019C00029F90346FB75FB7D18461837BD4680BDD7
:1019D00080B584B000AFF860B9601346FB71FB6856
:1019E0001B6818460C21FFF7BFFEFB689B6893F845
:1019F0002830DBB2002B09D0BB689BB21A46FB79BA
:101A0000F86811461A46FFF73DFF0DE0FB689B683A
:101A1000012283F82820BB689BB21A46FB79F8683C
:101A200011461A46FFF714FF1037BD4680BD00BFB0
:101A300080B485B000AF78600023FB737B685B687F
:101A400093F82430002B07D07B685B6893F8243030
:101A5000012B01D00123FB737B681B687A68126835
:101A6000D26C42F00202DA647B681B6802229A663A
:101A7000FB7B18461437BD465DF8047B704700BFFA
:101A800080B586B000AFF8607A603B600B46FB72B1
:101A90000223FB7400237B61FB7A83F00103DBB23A
:101AA000002B09D0FB689B6893F82830DBB283F0E9
:101AB0000103DBB2002B05D13B68002B02D03B6A4F
:101AC000002B02D10123FB749EE0FB7A002B2CD06B
:101AD000FB689B6893F82830DBB283F00103DBB22C
:101AE000002B22D0F86879680022FFF771FF00BF51
:101AF000F8684FF40871FFF7F5FE0346002BF7D0A6
:101B0000F8682021FFF7EEFE0346002B08D0F868A6
:101B10002021FFF7F9FEF868FFF78AFF012374E040
:101B2000F8684FF40071FFF7EFFEFB685B6893F80D
:101B30002630002B2ED128E03A687B6913441B78AD
:101B4000F8681946FFF74AFE00BFF8684FF40871BD
:101B5000FFF7C8FE0346002BF7D0F8682021FFF7F7
:101B6000C1FE0346002B08D0F8682021FFF7CCFE09
:101B7000F868FFF75DFF012347E0F8684FF4007154
:101B8000FFF7C2FE7B6901337B617A693B6A9A4247
:101B9000D2D32BE01AE010E07A693B6A9A420BD26A
:101BA0003A687B6913441B78F8681946FFF716FEFC
:101BB0007B6901337B6100E008E0F868FFF7E4FD32
:101BC000034683F00103DBB2002BE5D17A693B6A5F
:101BD0009A42E0D300BFFB681B681846FFF790FDF0
:101BE000034683F00103DBB2002BF4D197F82430D5
:101BF000002B07D0FB689B68002283F82820F86838
:101C0000FFF714FE0023FB74FB7C18461837BD4613
:101C100080BD00BF90B589B000AFF8607A603B60CE
:101C20000B46FB720223FB77FB7A83F00103DBB2E6
:101C3000002B09D0FB689B6893F82830DBB283F057
:101C40000103DBB2002B05D13B68002B02D03B6BBC
:101C5000002B02D10123FB77B8E00023BB610023F6
:101C60007B61FB7A002B22D0F86879680122FFF7AC
:101C7000AFFE00BFF8684FF40871FFF733FE03466C
:101C8000002BF7D0F8682021FFF72CFE0346002B2D
:101C900008D0F8682021FFF737FEF868FFF7C8FE84
:101CA000012394E0F8684FF40071FFF72DFEFB6804
:101CB0005B6893F82630002B3AD134E0BB695A1C9C
:101CC0003B6B9A4207D197F83830002B03D0F86865
:101CD000FFF7A0FD02E0F868FFF790FD00BFF8688D
:101CE0004FF40041FFF7FEFD0346002B07D1F868D3
:101CF0004FF48041FFF7F6FD0346002BEFD0F86864
:101D00004FF40041FFF700FEF8684FF48041FFF701
:101D1000FBFDBB695A1CBA613A68D418F868FFF732
:101D20004FFD03462370BA693B6B9A42C6D33FE02E
:101D3000BB697B6138E018E07A693B6B9A4213D249
:101D40007B695A1C3B6B9A4207D197F83830002BBD
:101D500003D0F868FFF75EFD02E0F868FFF74EFD7C
:101D60007B6901337B6100E008E0F868FFF70CFD58
:101D7000034683F00103DBB2002BDDD110E000BF8E
:101D8000F868FFF70FFD0346002BF9D1BB695A1C19
:101D9000BA613A68D418F868FFF712FD0346237059
:101DA000BA697B699A42EAD37A693B6B9A42C2D399
:101DB00097F83430002B07D0FB689B68002283F82B
:101DC0002820F868FFF732FD0023FB77FB7F1846D9
:101DD0002437BD4690BD00BF80B483B000AF7860AB
:101DE0000B46FB701346BB70F878FB787A680633B5
:101DF0009B0013445B6823F00702BB781A437968A1
:101E0000831D9B000B445A600C37BD465DF8047B74
:101E1000704700BF80B483B000AF78600B46FB70A2
:101E20007B681B6C23F00F02FB781A437B681A64F3
:101E30000C37BD465DF8047B704700BF80B582B0AB
:101E400000AF78603960786839680122FFF78CF854
:101E50000837BD4680BD00BF80B582B000AF786056
:101E600078680421FFF7D6FF0837BD4680BD00BF64
:101E700080B500AF054805210022FFF715F804489A
:101E800008210022FFF710F880BD00BF0081024842
:101E90000080024880B500AFD023064805211A46CD
:101EA000FFF702F8D023044808211A46FEF7FCFF8A
:101EB00080BD00BF008102480080024880B500AFAD
:101EC00013481449FFF7BAFF114800210022FFF719
:101ED00083FF0F4801210122FFF77EFF0C480821F4
:101EE00003220123FFF740FB0948002103220723B7
:101EF000FFF762FB0648FFF7AFFF07480521074AD7
:101F0000FEF746FA06480821064AFEF741FA80BD68
:101F10000000034080220008008102486822000877
:101F2000008002487422000880B485B000AF786059
:101F30007B6803F00703FB600C4BDB68BB60BA688F
:101F40004FF6FF031340BB60FB681A02BB681343E4
:101F500043F0BF6343F40033BB60044ABB68D36003
:101F60001437BD465DF8047B704700BF00ED00E00C
:101F700080B582B000AF0120FFF7D6FF72B6214BCB
:101F8000214A9A60BFF34F8F62B61E4A1D4BD3F8A9
:101F9000883043F47003C2F888301C4B03F580533B
:101FA00014331B687B607B6823F00F037B607B68C6
:101FB00043F004037B60154B03F5805314337A68B8
:101FC0001A60104A0F4B5B6923F0100353610D4AEE
:101FD0000C4B5B6923F0080353610A4A094B5B6AA7
:101FE00023F480335362074A064B5B6A23F40033C1
:101FF0005362044A034B5B6A23F48023536208371D
:10200000BD4680BD00ED00E0000000080010005853
:1020100080B485B000AF78600023FB737B68012239
:102020001A70FB7B18461437BD465DF8047B704779
:1020300080B400AF024B1846BD465DF8047B704784
:10204000001BB70080B483B000AF78600649064B30
:102050009B6B23F480327B6813438B630C37BD4644
:102060005DF8047B704700BF00460050B0B586B0F5
:1020700000AF164B3C1D1D460FCD0FC42B682360CF
:102080003B1D1846FEF77EFA0020FEF7A3FB4FF437
:102090008030FEF757FB0620FEF728FCFEF7B6FC63
:1020A00003206421FEF7C2FC0020FFF7CBFF0220D3
:1020B000FEF758FC0020FEF759FB0120FEF73EFC1E
:1020C0000120FEF727FC1837BD46B0BDB42200083A
:1020D00080B582B000AF0023FB710948FFF798FF7D
:1020E0000346FB71FB79002B04D10648FFF7E4FBA4
:1020F0000346FB71FB7918460837BD4680BD00BF1B
:102100003C88FE1F0088FE1F80B483B000AF78605B
:102110007B689B6893F82630DBB218460C37BD46C7
:102120005DF8047B704700BF80B483B000AF786077
:102130007B689B6893F82730DBB218460C37BD46A6
:102140005DF8047B704700BF80B586B004AFFFF731
:10215000BFFF0346FB70FB78002B00D0FEE72A4B45
:1021600058221A700123009300230193274801216C
:10217000A022254BFFF7D6FB00BF2448FFF7C4FF82
:102180000346002BF9D101230093012301931F483B
:102190000021A0221E4BFFF7C5FB00BF1B48FFF725
:1021A000B3FF0346002BF9D10123009300230193D1
:1021B00016480121A022144BFFF7B4FB00BF1348BF
:1021C000FFF7A2FF0346002BF9D10123009301235F
:1021D0000193012302930D480121A0220D4BFFF72B
:1021E000CBFB00BF0948FFF79FFF0346002BF9D147
:1021F00000237B6002E07B6801337B607B68064ADA
:102200009342F8DDABE700BF4488FE1F0088FE1F45
:102210000C88FE1F4088FE1F8F5F010070B50E4BBB
:102220000E4CE41AA41000251E46A54204D056F810
:10223000253098470135F8E7FFF748FA084C094B75
:10224000E41AA41000251E46A54204D056F82530F5
:1022500098470135F8E770BD1088FE1F1088FE1FF3
:102260001088FE1F1088FE1FD00000000100000033
:1022700000000000D000000001000000000000008D
:10228000400D03000000000080220008BD1E000871
:10229000951E0008711E00080000000000000000EC
:1022A0000000000000000000000000000202030324
:1022B000FFFF0000300201010000010000000000EB
:0822C000000001000201010110
:1022C80000000340882200081088FE1F5500000007
:0400000508000201EC
:00000001FF
