:020000040C00EE
:100000000088FE1F010200089902000899020008FA
:1000100099020008990200089902000800000000F7
:10002000000000000000000000000000990200082D
:1000300099020008000000009902000899020008D7
:100040009902000899020008990200089902000824
:10005000ED180008990200089902000899020008AA
:1000600099020008000000000000000000000000ED
:100070009902000800000000990200089902000897
:1000800099020008990200089902000899020008E4
:1000900099020008990200089902000899020008D4
:1000A00099020008990200089902000899020008C4
:1000B00099020008990200089902000899020008B4
:1000C00099020008990200089902000899020008A4
:1000D0009902000899020008990200089902000894
:1000E0009902000899020008990200089902000884
:1000F0009902000899020008990200089902000874
:100100009902000899020008990200089902000863
:100110009902000899020008990200089902000853
:1001200099020008D11800089902000899020008F5
:100130009902000899020008990200089902000833
:100140009902000899020008990200089902000823
:100150009902000899020008990200089902000813
:10016000000000000000000000000000000000008F
:1001700099020008990200089902000899020008F3
:1001800099020008990200089902000899020008E3
:1001900099020008990200089902000899020008D3
:1001A00099020008990200089902000899020008C3
:1001B00099020008990200089902000899020008B3
:1001C00099020008990200089902000899020008A3
:1001D0009902000899020008990200080000000036
:1001E0009902000899020008990200089902000883
:1001F0009902000899020008990200080000000016
:10020000DFF874D01D4880471D4C1E4DAC4209DA02
:1002100021686268A368043BA2BFC858D050FAE7BF
:100220000C34F3E7184B194CA34208DA19685A68E2
:100230000020043AA4BF8850FBE70833F4E71448D1
:100240008047144880470000C019000C0088FE1F3A
:1002500060000000C019000C0088FE1F00000000B4
:100260006088FE1F04000000000000200000000065
:1002700000000020000000000088FE1F9D02000812
:1002800048020008600200086002000878020008C6
:10029000FD180008B9180008FEE7000098B500AF87
:1002A000054A4FF0005314460FCB84E80F0001F0CD
:1002B000C5F901F041FA98BDC4FF032080B584B0B0
:1002C00000AF2F4BDB6803F48033002B3ED02D4B67
:1002D000DB6803F00103002B02D02B4BFB6002E034
:1002E00001F00CFAF860274B1B6803F00403002BA5
:1002F00020D0244B9B6803F070631B0E0133BB605E
:10030000204B9B6803F4FE431B0A01337B601D4BAB
:100310009B6803F4FE031B0C01333B60BB683A6827
:1003200002FB03F3FA68B2FBF3F37A6802FB03F310
:10033000FB600DE0134B9B6803F07F0301333B60D0
:10034000FA683B68B2FBF3F3FB6001E00E4BFB6025
:100350000B4BDB68DBB20133FA68B2FBF3F3FB60F3
:10036000074B1B6903F001030133FA68B2FBF3F397
:10037000FB60064AFB6813601037BD4680BD00BFB6
:10038000004600501047005000366E01C0FF0320A9
:1003900080B582B000AF78607B68074A934207D18E
:1003A0004FF4803000F0EAFA4FF4803000F082F928
:1003B0000837BD4680BD00BF0040044080B485B012
:1003C00000AFF8600B467A60FB72FB7A9B08DBB2E9
:1003D0001846FB7A9B08DBB21A46FB68043253F8D6
:1003E0002220FB7A03F00303DB001946F8238B403D
:1003F000DB4302EA0301FB68021D43F82210FB689D
:100400005A6FFB7A5B00194603238B40DB431A408B
:10041000FB685A67FB683A4A934203D0FB68394A43
:1004200093420AD1FB681A6EFB7A012101FA03F3A9
:10043000DB431A40FB681A6642E07B681B78DBB23C
:100440005BB2002B3CDA7B685A68FB7A9A40FB6807
:100450005A60FB7ADB08DBB21846FB7ADB08DBB2BA
:100460001A46FB68103253F82220FB7A03F0070388
:100470009B00194607238B40DB4302EA0301FB681C
:1004800000F1100243F82210FB7ADB08DBB21846B9
:10049000FB7ADB08DBB21A46FB68103253F82220E5
:1004A0007B681B7A1946FB7A03F007039B0001FA6D
:1004B00003F342EA0301FB6800F1100243F8221043
:1004C000FB7A9B08DBB21846FB7A9B08DBB21A4624
:1004D000FB68043253F822207B681B781946FB7AAC
:1004E00003F00303DB0001FA03F342EA0301FB68B4
:1004F000021D43F822101437BD465DF8047B704797
:10050000008E0248008F024880B400AF034BD3F83E
:10051000C4301846BD465DF8047B7047004000506B
:1005200080B584B000AF7860FFF7C8FE0B4B1B6846
:100530000B4AA2FB03239A0C7B6802FB03F37B604C
:100540000023FB6003E000BFFB680133FB60FA6837
:100550007B689A42F7D31037BD4680BDC0FF0320A9
:1005600083DE1B4380B400AF034B5B681846BD4677
:100570005DF8047B704700BF7440005080B483B0C6
:1005800000AF7860034A7B68D3600C37BD465DF8E6
:10059000047B704774400050B0B584B002AF7860FF
:1005A000002000F0A3F800F095FA7B68DB79002BBF
:1005B0000AD000F0CDFA00BF00F0B8FA034683F08D
:1005C0000103DBB2002BF7D17B685B7A184600F0A1
:1005D00007F900BFFFF798FF0346002BFAD17B68AD
:1005E0001B7A184600F050FA7B681B7C184600F016
:1005F00015F97B685B7C184600F038F97B689B7CBA
:10060000184600F01FF97B68DB7C184600F042F9C1
:100610007B689B79002B0AD000F0D2FA00BF00F073
:10062000F7FA034683F00103DBB2002BF7D17B68B6
:10063000DB78002B09D17B689B7983F00103DBB267
:10064000002B17D000F008FB14E000F0F5FA7B68EF
:1006500099887B68DA787B685B781D467B681B78B5
:100660001C467B689B780093084611462A46234621
:1006700000F002FB7B68DB68B3F5803F03D14FF4E9
:10068000803000F033F8FFF719FE0837BD46B0BDE3
:1006900080B483B000AF78600549054B5A697B6828
:1006A00013434B610C37BD465DF8047B704700BFB8
:1006B0007440005080B485B000AF78607B681B0F39
:1006C000FB607B6823F07043BB60FA6813465B00F5
:1006D00013449B001A46044B1344BA681A6014373B
:1006E000BD465DF8047B70471444005080B483B06D
:1006F00000AF78600649064BDB6823F480327B68E4
:100700001343CB600C37BD465DF8047B704700BFD8
:100710000046005080B483B000AF78600649064BB5
:100720009B6923F480327B6813438B610C37BD4691
:100730005DF8047B704700BF0046005080B483B072
:1007400000AF78600649064B5B6A23F440327B6851
:1007500013434B620C37BD465DF8047B704700BF06
:100760000046005080B483B000AF0346FB80FB8896
:10077000002B08D10A4A0A4BDB6823F4807323F06C
:100780000103D36007E0064A054BDB6843F480733E
:1007900043F00103D3600C37BD465DF8047B70471E
:1007A0001047005080B483B000AF0346FB7100BF18
:1007B000094BD3F8C43003F00803002BF8D10749E4
:1007C000064BDB6823F04002FB791343CB600C3708
:1007D000BD465DF8047B7047004000500043005068
:1007E00080B483B000AF0346FB7100BF094BD3F860
:1007F000C43003F00803002BF8D10749064BDB682F
:1008000023F08002FB791343CB600C37BD465DF8C3
:10081000047B7047004000500043005080B483B018
:1008200000AF78600649064BDB6823F0FF027B6867
:10083000013B1343CB600C37BD465DF8047B70472A
:100840000046005080B483B000AF78600649064B84
:100850001B6A23F001027B68013B13430B620C37D8
:10086000BD465DF8047B70470046005080B483B0FD
:1008700000AF78600649064B1B6923F001027B68D4
:10088000013B13430B610C37BD465DF8047B704799
:100890000046005080B483B000AF78600649064B34
:1008A0005B6923F001027B68013B13434B610C370A
:1008B000BD465DF8047B70470046005080B483B0AD
:1008C00000AF78600649064B9B6923F007027B68FE
:1008D000013B13438B610C37BD465DF8047B7047C9
:1008E0000046005080B483B000AF78600649064BE4
:1008F000DB6923F03F027B68013B1343CB610C377C
:10090000BD465DF8047B70470046005080B483B05C
:1009100000AF78600649064B5B6A23F0FF027B68F4
:10092000013B13434B620C37BD465DF8047B7047B7
:100930000046005080B483B000AF78600649064B93
:100940009B6B23F003027B68013B13438B630C37E3
:10095000BD465DF8047B70470046005080B483B00C
:1009600000AF0346FB71044AFB7953600C37BD4668
:100970005DF8047B704700BF0046005080B485B02E
:1009800000AF78607B681B0FFB607B6823F07043CF
:10099000BB60FA6813465B0013449B001A46044B85
:1009A0001344BA681A601437BD465DF8047B70477B
:1009B0004846005080B400AF054A054B5B6923F4FC
:1009C000803323F002035361BD465DF8047B70471A
:1009D0001047005080B483B000AF78603960284A77
:1009E000274B5B6943F00103536100BF244B1B6934
:1009F00003F00103002BF9D0214A214B5B6943F03E
:100A0000100353611E493B68013B1A027B68013B9E
:100A10001B0613434B611A4A194B5B6943F04003B1
:100A20005361174A164B5B6923F010035361144A54
:100A3000134B5B6943F48023536100BF104B1B6968
:100A400003F00403002BF9D00D4A0D4B5B6923F032
:100A50000103536100BF0A4B1B6903F00103002B24
:100A6000F9D1074A064B5B6923F040035361054BFC
:100A70000822DA600C37BD465DF8047B704700BF82
:100A8000104700506041005080B582B000AF03466F
:100A9000FB710F4A0E4B5B6843F480135360FB7984
:100AA000012B0ED10A4A0A4B5B6823F48013536072
:100AB0006420FFF735FD064A054B5B6843F40023CD
:100AC00053606420FFF72CFD0837BD4680BD00BF92
:100AD0001047005080B400AF124B1B6803F00103B5
:100AE000002B09D10F4B01225A6000BF0D4B1B6830
:100AF00003F00103002BF9D00B4B1B6803F40073C8
:100B0000002B0AD0084B4FF400729A6000BF064BCE
:100B10001B6803F40073002BF9D1BD465DF8047B1C
:100B2000704700BF004200500044005080B400AF46
:100B3000064B1B6803F00803002B0CBF01230023A6
:100B4000DBB21846BD465DF8047B70470043005099
:100B500080B500AF4FF40000FFF710FD174A174BA8
:100B6000DB6923F03003D36100BFFFF7FBFC0346D2
:100B700003F40003002BF8D04FF40030FFF7FEFC25
:100B80000E4B08225A6000BFFFF7ECFC034603F44B
:100B90000033002BF8D04FF40020FFF7EFFC074A9A
:100BA000064BDB6843F00803D36000BFFFF7DAFCB5
:100BB000034603F40023002BF8D080BD004300500F
:100BC000B0B500AF0F4A0F4B5B6823F4803353601E
:100BD0000D4D0D4B5B6823F4702424F0300400F0BD
:100BE0008DFD0246094BA3FB02231B0D013B1B0499
:100BF00023436B60034A034B5B6823F40033536069
:100C0000B0BD00BF10470050004700506BCA5F6B7B
:100C100080B400AF074B1B6803F46073B3F5607FCB
:100C20000CBF01230023DBB21846BD465DF8047BF0
:100C3000704700BF1047005080B400AF054A054B15
:100C40005B6823F4803323F002035360BD465DF8F4
:100C5000047B70471047005080B400AF054A054B35
:100C60005B6843F4803343F002035360BD465DF894
:100C7000047B70471047005080B586B000AFBA6063
:100C80007B600346FB810B467B73FB891846FFF7AD
:100C900069FD7B7B012B40F08B80FB89002B09D108
:100CA00000F02CFD0246544BA3FB02239B0C9B053A
:100CB0007B6102E04FF0C0637B617B697A6802FB75
:100CC00003F2BB68B2FBF3F37B617B694B4AA2FB87
:100CD00003231B099B0D3B61494A494B5B6843F069
:100CE0000103536000BF464B1B6803F00103002B58
:100CF000F9D0434A424B5B6843F0100353604049CC
:100D00003F4B9A683F4B13407A68013A12021A43EC
:100D10003B69013B1B041A43BB68013B1B061343A1
:100D20008B60374A364B5B6843F040035360344A6C
:100D3000334B5B6823F010035360314A304B5B68E0
:100D400043F48023536000BF2D4B1B6803F0040362
:100D5000002BF9D02A4A2A4B5B6823F00103536029
:100D600000BF274B1B6803F00103002BF9D17B69FF
:100D7000254AA2FB03235B099B0D3B613A6A3B6951
:100D80009A4202D2386900F045F87B695B081F4A35
:100D9000A2FB03235B099B0D3B613A6A3B699A42C4
:100DA00002D2386900F036F8386A00F033F81CE0F7
:100DB0001349134B9B6823F07F023B6A013B1343AB
:100DC0008B6000BF0E4B1B6803F01003002BF9D0A3
:100DD0000B4A0B4B5B6843F00103536000BF084BA9
:100DE0001B6803F00103002BF9D0094B0522DA60E0
:100DF0001837BD4680BD00BF83DE1B43ABAAAAAA3D
:100E000010470050FF8080F089888888B7600BB653
:100E10006041005080B582B000AF78600B490B4B49
:100E20009B6823F4FE027B68013B1B0413438B6029
:100E300000BF064B1B6803F02003002BF9D03220C3
:100E4000FFF76EFB0837BD4680BD00BF104700505E
:100E500080B483B000AF78607B684FF48072DA6052
:100E60000C37BD465DF8047B704700BF80B582B08B
:100E700000AF78607B68104A934203D10420FFF7EB
:100E800019FC16E07B680D4A934203D10820FFF756
:100E900011FC0EE07B680A4A934203D11020FFF751
:100EA00009FC06E07B68074A934202D10648FFF737
:100EB00001FC0837BD4680BD00C000400000014075
:100EC00000400140004000480100001080B582B0A1
:100ED00000AF78607B68104A934203D10420FFF78B
:100EE0004DFD16E07B680D4A934203D10820FFF7C1
:100EF00045FD0EE07B680A4A934203D11020FFF7BC
:100F00003DFD06E07B68074A934202D10648FFF7A1
:100F100035FD0837BD4680BD00C0004000000140DF
:100F200000400140004000480100001080B582B040
:100F300000AF78601020FFF711FD7868FFF7C6FF5B
:100F40007868FFF793FF0837BD4680BD80B584B051
:100F500000AF78600B46FB707868FFF7E7FF7868B2
:100F6000FFF776FF7B681B68FB60FB6823F4404358
:100F7000FB60FB789B03FA681343FB607B68FA68AD
:100F80001A601037BD4680BD80B483B000AF786072
:100F900039603B681A687B685A613B685B79C3F3C8
:100FA0004013DBB21A057B685A603B681B79C3F3B8
:100FB0000303DBB21A467B685A623B685B79C3F372
:100FC0000303DBB21A467B681A623B685B79C3F3A2
:100FD0000013DBB21A467B689A613B681B79C3F346
:100FE0000313DBB21A467B68DA620C37BD465DF844
:100FF000047B704780B487B000AF78600B46FB700D
:101000001346BB70FB780B2B36D801A252F823F0A5
:1010100041100008411000084B1000084B10000858
:10102000791000087910000879100008791000087C
:1010300055100008611000086D1000086D100008C0
:1010400003233B6100237B611BE00C233B610223F4
:101050007B6116E04FF440733B6108237B6110E035
:101060004FF440633B610A237B610AE04FF4405335
:101070003B610C237B6104E000233B6100237B6127
:1010800000BF3B69002B13D07B68D3F8A830FB600E
:101090003B69DB43FA681340FB60BA787B6902FA6C
:1010A00003F3FA681343FB607B68FA68C3F8A8206F
:1010B0001C37BD465DF8047B704700BF80B584B027
:1010C00000AFF8600B467A60FB72F868FFF760F9D2
:1010D000FB681A68FB7A9B0019460F238B40DB43A1
:1010E0001A407B681B68F97A89008B401A43FB68B9
:1010F0001A60FA7A7B685968FB68043243F8221058
:101100001037BD4680BD00BF80B584B000AFF86029
:101110000B467A60FB72F868FFF73AF9FA7A7B6857
:101120001968FB68083243F822101037BD4680BDAD
:1011300080B483B000AF78600B46FB701346BB7081
:101140007B685A6FFB785B00194603238B40DB43B7
:101150001A407B685A677B685A6FBB78F9784900F8
:101160008B401A437B685A670C37BD465DF8047B99
:10117000704700BF80B400AFBD465DF8047B704788
:1011800080B483B000AF78600B46FB70FB7801221F
:101190009A407B68DA600C37BD465DF8047B704787
:1011A00080B483B000AF78607B680122DA600C37CE
:1011B000BD465DF8047B704780B483B000AF7860B3
:1011C0007B6802221A610C37BD465DF8047B7047CC
:1011D00080B483B000AF78600B467B807A887B68F0
:1011E0005A630C37BD465DF8047B704780B483B00A
:1011F00000AF78600B467B807A887B68DA630C37B7
:10120000BD465DF8047B704780B483B000AF786062
:1012100039607B683A681A610C37BD465DF8047B1B
:10122000704700BF80B483B000AF78600B46FB709E
:101230007B68D3F8A420FB78012101FA03F31A4359
:101240007B68C3F8A4200C37BD465DF8047B70476B
:1012500080B584B000AF78600023FB737B6893F89F
:10126000263083F00103DBB2002B09D07B6893F8B2
:101270002130002B04D1786800F008F80346FB7396
:10128000FB7B18461037BD4680BD00BF80B584B0DB
:1012900000AF78607B681B69184600F029F90346A7
:1012A000FB737B681B699A687B681B7E1046194636
:1012B000FFF766FF7B685A697B68DB691046194651
:1012C000FFF762FE786800F02DF87B6893F8253010
:1012D000002B0FD07B685A697B6893F8203010464A
:1012E00000211A46FFF786FE7B685B6918460021DD
:1012F000FFF798FF7B685B691846FFF75DFF7B6827
:10130000012283F826207B6893F82430002B04D038
:101310007B685B691846FFF743FFFB7B1846103775
:10132000BD4680BD80B582B000AF78607B685A69E9
:101330007B685B8C10461946FFF74AFF7B685B6948
:1013400018460021FFF752FF7B681B699A687B688B
:10135000DB6810461946FFF757FF0837BD4680BDCA
:1013600080B400AF044BDB6803F4E0631B0A18464B
:10137000BD465DF8047B704700ED00E080B483B0AB
:1013800000AF0346FB7197F90730002B0BDB0849D0
:1013900097F907305B09FA7902F01F02012000FA81
:1013A00002F241F823200C37BD465DF8047B7047FC
:1013B00000E100E080B483B000AF03463960FB7108
:1013C00097F90730002B0ADB0D4997F907303A6887
:1013D000D2B29200D2B20B4483F800230AE009494A
:1013E000FB7903F00F03043B3A68D2B29200D2B209
:1013F0000B441A760C37BD465DF8047B704700BF7E
:1014000000E100E000ED00E080B489B000AFF860DA
:10141000B9607A60FB6803F00703FB61FB69C3F105
:101420000703062B28BF0623BB61FB690633062B87
:1014300002D9FB69013B00E000237B61BB6901220B
:1014400002FA03F35A1EBB681A407B699A407B6913
:10145000012101FA03F3591E7B680B401343184620
:101460002437BD465DF8047B704700BF80B582B06D
:1014700000AF78607B681B785BB21846FFF77EFF91
:101480000837BD4680BD00BF90B583B000AF78601F
:101490007B681C78FFF764FF01467B685B781A461F
:1014A0007B689B78084611461A46FFF7ADFF024657
:1014B00063B218461146FFF77DFF7B68DB78002B8F
:1014C00002D07868FFF7D2FF002318460C37BD46DC
:1014D00090BD00BF80B483B000AF78607B684FF4EC
:1014E0008072DA600C37BD465DF8047B704700BF40
:1014F00080B582B000AF78607B685B7B83F00103CE
:10150000DBB2002B0FD07B689A687B681B7B104690
:101510001946FFF71BFD7B689B681846FFF7DAFF4B
:101520007B6801225A73002318460837BD4680BDE8
:1015300080B582B000AF78607B685B7B83F001038D
:10154000DBB2002B12D07B6819687B681A7B7B6842
:101550005B68084611461A46FFF7D6FD7B689B6814
:101560001846FFF795F87B6801225A730023184646
:101570000837BD4680BD00BF80B582B000AF78603F
:101580007B681B7B83F00103DBB2002B0DD07B68F3
:1015900019687B681A797B689B68084611461A4669
:1015A000FFF78CFD7B6801221A7300231846083769
:1015B000BD4680BD80B582B000AF78607B68196899
:1015C0007B681A7C7B680433084611461A46FEF78E
:1015D000F5FE7B6819687B681A7C7B685B7C084633
:1015E00011461A46FFF7A4FD002318460837BD46EA
:1015F00080BD00BF80B485B000AF78607B6803F029
:101600000703FB600C4BDB68BB60BA684FF6FF0357
:101610001340BB60FB681A02BB68134343F0BF630F
:1016200043F40033BB60044ABB68D3601437BD4643
:101630005DF8047B704700BF00ED00E080B582B02C
:1016400000AF0120FFF7D6FF72B6214B214A9A6006
:10165000BFF34F8F62B61E4A1D4BD3F8883043F458
:101660007003C2F888301C4B03F5805314331B6899
:101670007B607B6823F00F037B607B6843F004038F
:101680007B60154B03F5805314337A681A60104A57
:101690000F4B5B6923F0100353610D4A0C4B5B69E0
:1016A00023F0080353610A4A094B5B6A23F4803331
:1016B0005362074A064B5B6A23F400335362044AC1
:1016C000034B5B6A23F4802353620837BD4680BD19
:1016D00000ED00E0000000080010005880B485B064
:1016E00000AF78600023FB737B6801221A70FB7BDC
:1016F00018461437BD465DF8047B704780B400AFD0
:10170000024B1846BD465DF8047B7047001BB700CE
:1017100080B483B000AF78600649064B9B6B23F41E
:1017200080327B6813438B630C37BD465DF8047BC6
:10173000704700BF00460050B0B586B000AF164BF2
:101740003C1D1D460FCD0FC42B6823603B1D184662
:10175000FEF722FF0020FFF725F84FF48030FEF758
:10176000D9FF0620FFF7AAF8FFF724F90320642128
:10177000FFF730F90020FFF7CBFF0220FFF7DAF880
:101780000020FEF7DBFF0120FFF7C0F80120FFF784
:10179000A9F81837BD46B0BDAC19000880B582B0B5
:1017A00000AF0023FB712948FFF798FF0346FB7148
:1017B000FB79002B04D12648FFF766FE0346FB7138
:1017C000FB79002B04D12348FFF742FD0346FB7150
:1017D000FB79002B04D12048FFF7ECFE0346FB7198
:1017E000FB79002B04D11D48FFF7C6FE0346FB71B1
:1017F000FB79002B04D11A48FFF79AFE0346FB71D0
:10180000FB79002B04D11748FFF73EFE0346FB711E
:10181000FB79002B04D11448FFF7CCFE0346FB7183
:10182000FB79002B04D11148FFF7C4FE0346FB717E
:10183000FB79002B04D10E48FFF7BCFE0346FB7179
:10184000FB7918460837BD4680BD00BF6088FE1F83
:10185000481900080888FE1F5C1900085088FE1F00
:101860004088FE1F4C1900087019000884190008F0
:101870009819000880B483B000AF78600B46FB7005
:10188000FB784FF001129A407B685A600C37BD46D6
:101890005DF8047B704700BF80B582B000AF786010
:1018A0007B681A687B681B7C10461946FFF7E2FFCD
:1018B0000837BD4680BD00BF80B582B000AFFFF7DE
:1018C0006DFF0346FB71FB79002B00D0FEE7FEE7BE
:1018D00080B500AF0348FFF7DFFF0348FFF7DCFFE9
:1018E00080BD00BF841900085C19000880B500AFF6
:1018F0000148FFF7D1FF80BD9819000870B50E4B65
:101900000E4CE41AA41000251E46A54204D056F839
:10191000253098470135F8E7FFF72CFC084C094BB8
:10192000E41AA41000251E46A54204D056F825301E
:1019300098470135F8E770BD6088FE1F6088FE1F7C
:101940006088FE1F6088FE1F393E0001043F0001D1
:1019500010000000000000003D000000008402486C
:1019600080000000000001000000000000000000F6
:10197000008002480000000000000000000000009D
:10198000010000000080024880000000000001000B
:1019900000000000000000000084024880000000F9
:1019A0000000010000000000010000003002010101
:1019B0000000010000000000000001000201010120
:1019C000000000000B00000080F0FA023435E358FC
:1019D0000A000000005000003088FE1F004400484C
:1019E000030000000088FE1F010053890101000070
:1019F0000044950808000000004000480000000076
:101A000000480050501900080000000003000000CA
:101A100000480050000000005419000800000000B9
:0400000508000201EC
:00000001FF
