:020000040C00EE
:100000000088FE1F010200089902000899020008FA
:1000100099020008990200089902000800000000F7
:10002000000000000000000000000000990200082D
:1000300099020008000000009902000899020008D7
:100040009902000899020008990200089902000824
:100050009902000899020008990200089902000814
:1000600099020008000000000000000000000000ED
:100070009902000800000000990200089902000897
:1000800099020008990200089902000899020008E4
:1000900099020008990200089902000899020008D4
:1000A00099020008990200089902000899020008C4
:1000B00099020008990200089902000899020008B4
:1000C00099020008990200089902000899020008A4
:1000D0009902000899020008990200089902000894
:1000E0009902000899020008990200089902000884
:1000F0009902000899020008990200089902000874
:100100009902000899020008990200089902000863
:100110009902000899020008990200089902000853
:100120009902000899020008990200089902000843
:100130009902000899020008990200089902000833
:100140009902000899020008990200089902000823
:100150009902000899020008990200089902000813
:10016000000000000000000000000000000000008F
:1001700099020008990200089902000899020008F3
:1001800099020008990200089902000899020008E3
:1001900099020008990200089902000899020008D3
:1001A00099020008990200089902000899020008C3
:1001B00099020008990200089902000899020008B3
:1001C00099020008990200089902000899020008A3
:1001D0009902000899020008990200080000000036
:1001E0009902000899020008990200089902000883
:1001F0009902000899020008990200080000000016
:10020000DFF874D01D4880471D4C1E4DAC4209DA02
:1002100021686268A368043BA2BFC858D050FAE7BF
:100220000C34F3E7184B194CA34208DA19685A68E2
:100230000020043AA4BF8850FBE70833F4E71448D1
:1002400080471448804700007C1A000C0088FE1F7D
:100250002C0000007C1A000C0088FE1F000000002B
:100260002C88FE1F04000000000000200000000099
:1002700000000020000000000088FE1FC5020008EA
:1002800048020008600200086002000878020008C6
:10029000B119000881190008FEE7000080B485B09C
:1002A00000AF78600023FB6003E000BFFB68013310
:1002B000FB60FA687B689A42F7D31437BD465DF855
:1002C000047B704798B500AF054A4FF000531446C1
:1002D0000FCB84E80F0000F005F800F03BF898BD64
:1002E000C4FF032080B483B000AF72B6164B174A28
:1002F0009A60BFF34F8F62B6134A134BD3F888301E
:1003000043F47003C2F888300F4A0F4B5B6923F047
:10031000080353610E4B03F5805314331B687B6055
:100320007B6823F00F037B607B6843F004037B60F2
:10033000074B03F5805314337A681A600C37BD46B7
:100340005DF8047B704700BF00ED00E0000000088E
:100350000010005880B500AFA74B1B6803F00103E5
:10036000002B0CD1A44AA44B5B6843F001035360FB
:1003700000BFA14B1B6803F00103002BF9D09F4B7A
:100380001B6803F40073002B09D09C4A9B4B9B68AD
:1003900043F40073936041F64C50FFF77FFF984A97
:1003A000974B5B6843F40023536040F6C410FFF79B
:1003B00075FF934A924B5B6823F4803323F002036A
:1003C0005360904B5B6803F03003002B26D08D4ABE
:1003D0008C4B5B6823F4702323F03003536000F0F0
:1003E000E3F90246884BA3FB02231B0D013B1B04D0
:1003F0008449844A526813434B60814B0022DA607F
:100400007F4A7F4B5B6823F40033536000BF7C4B13
:100410001B6803F46073B3F5607FF8D1784A784BBA
:100420005B6843F00103536000BF754B1B6803F02A
:100430000103002BF9D0724A714B5B6843F0100343
:1004400053606F4B714A9A606D4A6D4B5B6843F025
:10045000400353606A4A6A4B5B6823F010035360A1
:10046000674A674B5B6843F48023536000BF644B6B
:100470001B6803F00403002BF9D0614A604B5B68F2
:1004800023F00103536000BF5D4B1B6803F00103C1
:10049000002BF9D15E4B4FF00112DA605C4B002269
:1004A0005A615B4B00221A61594B00221A62584B69
:1004B00000225A62564B0322DA61554B554A9A6123
:1004C000534B01229A63524B534A9A624C4A4C4B0B
:1004D0005B6823F040035360494B504A9A6000BF69
:1004E000474B1B6803F02003002BF9D04FF4166034
:1004F000FFF7D4FE424B4A4A9A6000BF404B1B684C
:1005000003F02003002BF9D04FF46160FFF7C6FE23
:100510003B4B444A9A6000BF394B1B6803F02003F1
:10052000002BF9D04FF49650FFF7B8FE344B3E4AFB
:100530009A6000BF324B1B6803F02003002BF9D0F8
:1005400041F27070FFF7AAFE2D4B384A9A6000BF47
:100550002B4B1B6803F02003002BF9D04FF4E15024
:10056000FFF79CFE324B0522DA60254A244B5B697B
:1005700023F4803323F002035361224B5B6803F0C2
:100580003003002B31D01E4B5A682A4B1340002BEE
:1005900007D01B4A1A4B5B6823F4803323F0020315
:1005A0005360184A174B5B6823F4702323F0300321
:1005B000536000F0F9F80246134BA3FB02231B0D16
:1005C000013B1B040F490F4A526813434B600C4A0E
:1005D0000B4B5B6823F40033536000BF084B1B6870
:1005E00003F46073B3F5607FF8D1054A044B5B698F
:1005F00043F0010353611FE00042005000440050EB
:1006000010470050004700506BCA5F6B002F0B0172
:10061000004600500500010003002001002F0501E5
:10062000002F0301002F0201002F0101002F000104
:10063000604100500200010000BF224B1B6903F023
:100640000103002BF9D01F4A1E4B5B6943F01003D6
:1006500053611C4B1C4A5A611A4A1A4B5B6943F09E
:1006600040035361174A174B5B6923F01003536132
:10067000144A144B5B6943F48023536100BF114B50
:100680001B6903F00403002BF9D00E4A0D4B5B6984
:1006900023F00103536100BF0A4B1B6903F0010300
:1006A000002BF9D1074A074B5B6923F040035361E4
:1006B000064B0822DA60064B00225A6000F00AF866
:1006C00080BD00BF10470050006300026041005031
:1006D0000046005080B584B000AF2F4BDB6803F4B8
:1006E0008033002B3ED02D4BDB6803F00103002B41
:1006F00002D02B4BFB6002E000F056F8F860274B6D
:100700001B6803F00403002B20D0244B9B6803F0EC
:1007100070631B0E0133BB60204B9B6803F4FE43E8
:100720001B0A01337B601D4B9B6803F4FE031B0C0B
:1007300001333B60BB683A6802FB03F3FA68B2FB23
:10074000F3F37A6802FB03F3FB600DE0134B9B6845
:1007500003F07F0301333B60FA683B68B2FBF3F3BD
:10076000FB6001E00E4BFB600B4BDB68DBB201333F
:10077000FA68B2FBF3F3FB60074B1B6903F001035C
:100780000133FA68B2FBF3F3FB60064AFB681360BF
:100790001037BD4680BD00BF0046005010470050D6
:1007A00000366E01C0FF032080B400AF024B184634
:1007B000BD465DF8047B7047001BB70080B485B070
:1007C00000AFF8600B467A60FB72FB7A9B08DBB2E5
:1007D0001846FB7A9B08DBB21A46FB68043253F8D2
:1007E0002220FB7A03F00303DB001946F8238B4039
:1007F000DB4302EA0301FB68021D43F82210FB6899
:100800005A6FFB7A5B00194603238B40DB431A4087
:10081000FB685A67FB683A4A934203D0FB68394A3F
:1008200093420AD1FB681A6EFB7A012101FA03F3A5
:10083000DB431A40FB681A6642E07B681B78DBB238
:100840005BB2002B3CDA7B685A68FB7A9A40FB6803
:100850005A60FB7ADB08DBB21846FB7ADB08DBB2B6
:100860001A46FB68103253F82220FB7A03F0070384
:100870009B00194607238B40DB4302EA0301FB6818
:1008800000F1100243F82210FB7ADB08DBB21846B5
:10089000FB7ADB08DBB21A46FB68103253F82220E1
:1008A0007B681B7A1946FB7A03F007039B0001FA69
:1008B00003F342EA0301FB6800F1100243F822103F
:1008C000FB7A9B08DBB21846FB7A9B08DBB21A4620
:1008D000FB68043253F822207B681B781946FB7AA8
:1008E00003F00303DB0001FA03F342EA0301FB68B0
:1008F000021D43F822101437BD465DF8047B704793
:10090000008E0248008F024880B400AF034B1B6882
:100910001846BD465DF8047B704700BFC0FF03204A
:1009200080B485B000AF78607B681B0FFB607B688C
:1009300023F07043BB60FA6813465B0013449B00CE
:100940001A46044B1344BA681A601437BD465DF862
:10095000047B70471444005080B485B000AF7860C9
:100960007B681B0FFB607B6823F07043BB60FA68F9
:1009700013465B0013449B001A46084B13441A6845
:10098000BB681340002B14BF01230023DBB21846C1
:100990001437BD465DF8047B704700BF0C4400501F
:1009A00080B500AFFFF7B0FF0246044B5B6903F070
:1009B000010322FA03F3184680BD00BF0046005031
:1009C00080B485B000AF78607B681B0FFB607B68EC
:1009D00023F07043BB60FA6813465B0013449B002E
:1009E0001A46044B1344BA681A601437BD465DF8C2
:1009F000047B70474846005080B485B000AF7860F3
:100A00007B681B0FFB607B6823F07043BB60FA6858
:100A100013465B0013449B001A46084B13441A68A4
:100A2000BB681340002B14BF01230023DBB2184620
:100A30001437BD465DF8047B704700BF4046005048
:100A400080B483B000AF78600B46FB701346BB7078
:100A50007B685A6FFB785B00194603238B40DB43AE
:100A60001A407B685A677B685A6FBB78F9784900EF
:100A70008B401A437B685A670C37BD465DF8047B90
:100A8000704700BF80B483B000AF78607B689B6B19
:100A9000DBB223F07F03DBB218460C37BD465DF8AE
:100AA000047B704780B483B000AF786039607B68A6
:100AB000DA6C3B681A437B68DA640C37BD465DF834
:100AC000047B704780B584B000AFF860B96013460E
:100AD000FB71F86800F08CF8BB685B79002B15D1CE
:100AE000FB79002B12D0BB681B79002B07D0BB68A9
:100AF0001B68F8681946022200F038F906E0BB6866
:100B00001B68F8681946022200F0BEF8FB680F4A1D
:100B10005A63FB684FF4A2629A63BB685B79002B4F
:100B200007D1BB689B7943F00B03DBB21A46FB6825
:100B3000DA63FB684FF0FF32DA64BB681B891A4640
:100B4000FB681A641037BD4680BD00BF02013F0735
:100B500080B582B000AF78600B467B8013467B7017
:100B60007B681B6C23F0C0027B789B01DBB21A43CD
:100B70007B681A647B68D3F8083103F0E063002BCC
:100B800012D100BF7868FFF77DFF0346802BF9D0B4
:100B900078684FF40051FFF785FF7A7879887B6891
:100BA000203243F8221005E07A7879887B68603239
:100BB00043F822100837BD4680BD00BF80B485B021
:100BC00000AF78607B68D3F80C3103F0E063002B52
:100BD00003D17B685B6DFB8103E07B68D3F81C313C
:100BE000FB81FB8918461437BD465DF8047B7047CE
:100BF00080B582B000AF78607B681A4A934203D018
:100C00007B68194A934203D1184800F09DF916E019
:100C10007B68174A934203D07B68164A934203D1FC
:100C2000154800F091F90AE07B68144A934203D01A
:100C30007B68134A934202D1124800F085F97B6821
:100C40000322DA6000BF7B68DB6803F00103002B3E
:100C5000F9D07B681B6C23F00F027B681A6408379D
:100C6000BD4680BD00000340000203400800034071
:100C70000000024800020248080002480040024802
:100C8000004202480840024880B58EB000AFF860CC
:100C9000B9607A60BB68632B5AD97B68002B57D048
:100CA000FFF77EFE02462F4BA3FB02235B093B624C
:100CB000BB682C4AA2FB03235B09BB604FF4806333
:100CC000FB620123BB6240F2FF337B624FF480631F
:100CD0003B6322E03B6A3A6B02FB03F2BB68796834
:100CE00001FB03F3B2FBF3F3FB61FB699B0ABB61FE
:100CF000FB69C3F309037B61BB69B3F5806F09D856
:100D00007A697B6A9A4205D27B697B62BB69BB6266
:100D10003B6BFB623B6B013B3B633B6B002BD9D1D5
:100D2000FB6A013B43F40042FB681A61FB685A69A5
:100D30000D4B13407A68013A92021A43BB6A013B99
:100D40001B041A43FB685A61002387F8373002E01E
:100D5000012387F8373097F8373018463837BD46C3
:100D600080BD00BF1F85EB51EF8000FC80B58CB0CB
:100D700000AFF860B9607A60FFF712FE03463B628D
:100D8000BB687A6802FB03F3FB610123FB623A6AEA
:100D9000FB699A425FDD3A6AFB6992FBF3F3BB623F
:100DA00010E0FB6A0133FB62BB687A6802FB03F365
:100DB0001A46FB6A03FB02F3FB613A6AFB6992FB8A
:100DC000F3F3BB62BB6A40F2FE329342E9D83A6A5F
:100DD0007B68B96A01FB03F3F96A01FB03F3B2FB19
:100DE000F3F3BB613A6ABB6A0133796801FB03F331
:100DF000F96A01FB03F3B2FBF3F37B61BA687B6929
:100E0000D31A83EAE372A2EBE372B968BB69CB1A27
:100E1000002BB8BF5B429A4202DABB6A0133BB6265
:100E2000BB6AC3F58063BB62BB6A43F48042FB6864
:100E30001A61FB685A690C4B13407A68013A9202B6
:100E40001A43FB6A013B1B041A43FB685A610023E7
:100E500087F8273002E0012387F8273097F82730FA
:100E600018463037BD4680BDEF8000FC80B485B0A9
:100E700000AFF860B9603B601346FB71FB68D3F8C4
:100E8000083123F0E062FB68C3F80821FB68D3F85F
:100E90000821094B13403A681102BA681143FA79E4
:100EA00012060A431A43FB68C3F808211437BD46EB
:100EB0005DF8047B704700BFC0C0FFF880B485B008
:100EC00000AFF860B9603B601346FB71FB68D3F874
:100ED0000C3123F0E062FB68C3F80C21FB68D3F807
:100EE0000C210A4B13403A681102BA681143FA798F
:100EF00012060A43134343F08052FB68C3F80C21E7
:100F00001437BD465DF8047B704700BFC0C0FFEFDB
:100F100080B485B000AFF8600B467A60FB72FB6866
:100F20009A69FB7A072101FA03F3DB431A40FB7A43
:100F3000796801FA03F31A43FB689A611437BD46D6
:100F40005DF8047B704700BF80B582B000AF786069
:100F50007B68284A934218D14FF40060FFF730FDB8
:100F600000BF4FF40060FFF747FD0346002BF8D1A8
:100F70004FF40060FFF7D4FC00BF4FF40060FFF7B0
:100F8000EBFC0346002BF8D130E07B681A4A934211
:100F900014D11A48FFF714FD00BF1848FFF72CFDC5
:100FA0000346002BF9D11548FFF7BAFC00BF1348E0
:100FB000FFF7D2FC0346002BF9D117E07B68104AFB
:100FC000934213D10F48FFF7FBFC00BF0D48FFF71A
:100FD00013FD0346002BF9D10A48FFF7A1FC00BF1F
:100FE0000848FFF7B9FC0346002BF9D10837BD4686
:100FF00080BD00BF080003400800024880000010C8
:10100000084002480001001080B400AFBD465DF802
:10101000047B704780B483B000AF78600B46FB70F0
:10102000FA787B689A660C37BD465DF8047B70479A
:1010300080B483B000AF78607B684FF40042C3F89F
:1010400018210C37BD465DF8047B704780B483B02F
:1010500000AF78607B68D3F8143103F48053002B21
:1010600014BF01230023DBB218460C37BD465DF8E0
:10107000047B704780B483B000AF78607B68D3F89E
:10108000143103F40063002B14BF01230023DBB2EF
:1010900018460C37BD465DF8047B704780B483B0BA
:1010A00000AF78607B684FF48042C3F818210C379A
:1010B000BD465DF8047B704780B483B000AF7860B4
:1010C0007B68D3F8143103F00803002B14BF01230D
:1010D0000023DBB218460C37BD465DF8047B704731
:1010E00080B582B000AF78600B46FB70FB7823F0D0
:1010F0000403DBB278684FF6FF711A46FFF728FD4C
:101100000837BD4680BD00BF80B483B000AF7860B3
:101110007B689B6C18460C37BD465DF8047B7047B6
:1011200080B483B000AF786039607B68DA6C3B686C
:101130001A437B68DA640C37BD465DF8047B704760
:1011400080B584B000AF78600023FB737B685B6878
:10115000DB6898470346FB73FB7B18461037BD4698
:1011600080BD00BF80B586B000AFF860B9607A601E
:101170000423FB75FB685B681B7E022B00D01BE021
:101180000323FB75BB68002B15D07B68002B12D0A6
:101190000223FB75FB689B689B7EDBB283F0010337
:1011A000DBB2002B07D0F868B9687A6800F096F9CE
:1011B0000346FB75FFE700BFFB7D18461837BD46A9
:1011C00080BD00BF80B586B000AFF860B9607A60BE
:1011D0000423FB75FB685B685B7E022B00D01BE081
:1011E0000323FB75BB68002B15D07B68002B12D046
:1011F0000223FB75FB689B68DB7EDBB283F0010397
:10120000DBB2002B07D0F868B9687A6800F0EEF915
:101210000346FB75FFE700BFFB7D18461837BD4648
:1012200080BD00BF80B586B000AFF860B9607A605D
:101230003B600423FB75FB689B683B613B691B7E3D
:10124000002B36D1BB68002B31D07B68002B2ED011
:101250003B68002B2BD00223FB753B69DB7EDBB2A6
:1012600083F00103DBB2002B20D03B699B7EDBB215
:1012700083F00103DBB2002B18D0FB685B685B7E58
:10128000022B0AD0F86879683A68FFF79BFFF86884
:10129000B9683A68FFF766FF05E0F868B9687A68E8
:1012A0003B6800F00BF80023FB7502E001E003232C
:1012B000FB75FB7D18461837BD4680BD80B58AB0EA
:1012C00000AFF860B9607A603B60FB689B683B6286
:1012D0004FF44043FB613B6A5B7EBB61BB69013BF2
:1012E0001A463B6893407B613B6A01229A763B6ACF
:1012F0000122DA76FB685B689B7E002B04D0FB68DA
:101300001B681846FFF794FEFB685B68DB7E002BCA
:1013100005D0FB681B681846FFF7C0FE05E0FB68B8
:101320001B681846F969FFF7FBFEFB681B68184647
:10133000FFF744FCFB681B681846FFF73FFCFB689F
:101340001B6818460221FFF765FE07F112031846D5
:10135000B968BA6900F052FBFB6819687A8A3B6A7F
:101360001B7E084611461A46FFF7F2FBBB697B62FB
:10137000FB685B68DB7E002B42D033E0BA687B6A97
:10138000134407F1120210461946BA6900F036FB01
:10139000FB6819687A8A3B6A1B7E084611461A4622
:1013A000FFF7D6FB00BFFB681B681846FFF784FEFB
:1013B0000346002BF7D1FB681B681846FFF7FEFBBE
:1013C00003467B827A6ABB69D31A7A681A4407F1AA
:1013D000120310461946BA6900F010FB7A6ABB691D
:1013E00013447B627A6A7B699A42C7D300BFFB6869
:1013F0001B681846FFF760FE0346002BF7D151E04B
:101400003BE0BA687B6A134407F1120210461946A2
:10141000BA6900F0F3FAFB6819687A8A3B6A1B7EA6
:10142000084611461A46FFF793FB00BFFB681B688E
:101430001846FFF769FE0246FB691340002BF5D002
:10144000FB681B681846F969FFF76AFEFB681B68B2
:101450001846FFF7B3FB03467B827A6ABB69D31A4F
:101460007A681A4407F1120310461946BA6900F067
:10147000C5FA7A6ABB6913447B627A6A7B699A42CD
:10148000BFD300BFFB681B681846FFF73DFE02464E
:10149000FB691340002BF5D0FB681B681846F969FF
:1014A000FFF73EFEFB681B681846FFF787FB034605
:1014B0007B827A6ABB69D31A7A681A4407F11203ED
:1014C00010461946BA6900F099FA3B6A00229A76EA
:1014D0003B6A0022DA762837BD4680BD80B588B0E9
:1014E00000AFF860B9607A600323FB76FB689B6805
:1014F0007B617B6901229A76FB685B689B7E002B8F
:1015000005D0FB681B681846FFF792FD06E0FB68F4
:101510001B6818464FF48061FFF702FEFB681B68EA
:1015200018460221FFF776FD0023FB613FE07B694F
:101530005B7E012B0ED1FB681968BA68FB69134406
:101540001B789AB27B691B7E084611461A46FFF744
:10155000FFFA0FE0BB683B61FB681968FB695B0041
:101560003A6913441A887B691B7E084611461A465D
:10157000FFF7EEFAFB685B689B7E002B09D000BF8B
:10158000FB681B681846FFF761FD0346002BF7D187
:101590000AE000BFFB681B681846FFF7B5FD03466D
:1015A00003F48063002BF5D0FB690133FB61FA691A
:1015B0007B689A42BBD3FB685B689B7E002B0BD099
:1015C00000BFFB681B681846FFF754FD034683F015
:1015D0000103DBB2002BF4D10023FB767B690022F0
:1015E0009A76FB7E18462037BD4680BD90B58BB0FD
:1015F00000AFF860B9607A60032387F82330FB6896
:101600009B68FB614FF44043BB61FB690122DA76C2
:10161000FB681A68FB689B681B7E10461946FFF73B
:101620005FFDFB685B68DB7E002B05D0FB681B68F9
:101630001846FFF733FD05E0FB681B681846B969DB
:10164000FFF76EFDFB681B681846FFF7B7FAFB68EB
:101650001B681846FFF7B2FA00237B623FE0FB6885
:101660005B68DB7E002B09D000BFFB681B68184657
:10167000FFF722FD0346002BF7D110E0FB681B6843
:101680001846FFF741FD78617A69BB691340002B6A
:10169000F4D0FB681B681846B969FFF741FDFB6988
:1016A0005B7E012B0BD1BA687B6AD418FB681B6880
:1016B0001846FFF783FA0346DBB223700CE0BB68E1
:1016C0003B617B6A5B003A69D418FB681B6818466B
:1016D000FFF774FA034623807B6A01337B627A6AE0
:1016E0007B689A42BBD3002387F82330FB69002232
:1016F000DA7697F8233018462C37BD4690BD00BFE8
:1017000080B483B000AF78600B46FB701346BB70AB
:10171000F878FB787A6806339B0013445B6823F003
:101720000702BB781A437968831D9B000B445A60FB
:101730000C37BD465DF8047B704700BF80B483B0B2
:1017400000AF78600B46FB707B685B6B23F07062C8
:10175000FB78013B1B061A437B685A630C37BD4676
:101760005DF8047B704700BF80B483B000AF786041
:101770000B46FB707B685B6B23F47C12FB78013BB0
:101780001B041A437B685A630C37BD465DF8047B23
:10179000704700BF80B483B000AF78600B46FB7029
:1017A0007B681B6C23F00F02FB781A437B681A647A
:1017B0000C37BD465DF8047B704700BF80B582B032
:1017C00000AF78603960786839680122FFF77AF9EC
:1017D0000837BD4680BD00BF80B582B000AF7860DD
:1017E00078680121FFF7D6FF0837BD4680BD00BFEE
:1017F00080B483B000AF78607B685B6B43F001021C
:101800007B685A630C37BD465DF8047B704700BFA8
:1018100080B582B000AF78600B46FB70FB787868CB
:101820001946FFF78BFF0837BD4680BD80B582B0F3
:1018300000AF78600B46FB70FB7878681946FFF7BD
:1018400093FF0837BD4680BD80B582B000AF786099
:101850000B46FB701346BB70F878FB787A6806334A
:101860009B0013445B6823F0500343F01002796837
:10187000831D9B000B445A60FA78BB787868114648
:101880001A46FFF73DFF0837BD4680BD80B582B0E0
:1018900000AF0023FB71294B9B6800229A76274BEF
:1018A0009B680022DA7626480421264AFEF786FF46
:1018B00023480221244AFEF781FF24482449FFF7E8
:1018C0007DFF2248FFF794FF20480821FFF7A0FF83
:1018D0001E480821FFF7AAFF1C4800210022FFF73D
:1018E000B3FF1A4801210022FFF7AEFF174802217B
:1018F0000722FFF7A9FF1548082103220123FFF75C
:10190000B5FA1248002103220723FFF7D7FA0F4840
:1019100010210022FFF7FCFA0C48FFF75DFF084892
:1019200005210C4AFEF74AFF054805210022FFF772
:1019300087F8FB7918460837BD4680BD1C88FE1F16
:1019400000820248501A0008381A000800020340BA
:10195000141A0008201A000880B582B000AF0023D6
:10196000FB71FB79002B04D10448FFF7E9FB034628
:10197000FB71FB7918460837BD4680BD1C88FE1FE9
:1019800080B582B000AFFFF7E7FF0346FB71FB793C
:10199000002B00D0FEE703480349044A0123FFF768
:1019A00041FCF8E71C88FE1F2888FE1F2C88FE1FBC
:1019B00070B50E4B0E4CE41AA41000251E46A5422D
:1019C00004D056F8253098470135F8E7FFF71CFB9F
:1019D000084C094BE41AA41000251E46A54204D069
:1019E00056F8253098470135F8E770BD2C88FE1F62
:1019F0002C88FE1F2C88FE1F2C88FE1F10B5431E4E
:101A00000A44914204D011F8014B03F8014FF8E762
:101A100010BD0000000000000001000000000000F8
:101A20009000000001000000010000000082024858
:101A3000201A00080005000000000000010000005E
:101A40000000000000820248381A0008000200006E
:101A5000000000000100000001000000141A00084E
:101A60002C1A0008441A00088D1800080000000015
:0C1A700000000000020203030000000060
:101A7C00000000000000000000000000000000005A
:101A8C000000000000000000000100000002034004
:0C1A9C005C1A00080088FE1F69000000B2
:0400000508000201EC
:00000001FF
