:020000040C00EE
:100000000088FE1F010200089902000899020008FA
:1000100099020008990200089902000800000000F7
:10002000000000000000000000000000990200082D
:1000300099020008000000009902000899020008D7
:100040009902000899020008990200089902000824
:100050009902000899020008990200089902000814
:1000600099020008000000000000000000000000ED
:100070009902000800000000990200089902000897
:1000800099020008990200089902000899020008E4
:1000900099020008990200089902000899020008D4
:1000A00099020008990200089902000899020008C4
:1000B00099020008990200089902000899020008B4
:1000C00099020008990200089902000899020008A4
:1000D0009902000899020008990200089902000894
:1000E0009902000899020008990200089902000884
:1000F0009902000899020008990200089902000874
:100100009902000899020008990200089902000863
:100110009902000899020008990200089902000853
:100120009902000899020008990200089902000843
:100130009902000899020008990200089902000833
:100140009902000899020008990200089902000823
:100150009902000899020008990200089902000813
:10016000000000000000000000000000000000008F
:1001700099020008990200089902000899020008F3
:1001800099020008990200089902000899020008E3
:1001900099020008990200089902000899020008D3
:1001A00099020008990200089902000899020008C3
:1001B00099020008990200089902000899020008B3
:1001C00099020008990200089902000899020008A3
:1001D0009902000899020008990200080000000036
:1001E0009902000899020008990200089902000883
:1001F0009902000899020008990200080000000016
:10020000DFF874D01D4880471D4C1E4DAC4209DA02
:1002100021686268A368043BA2BFC858D050FAE7BF
:100220000C34F3E7184B194CA34208DA19685A68E2
:100230000020043AA4BF8850FBE70833F4E71448D1
:100240008047144880470000A817000C0088FE1F54
:100250001C000000A817000C0088FE1F0000000012
:100260001C88FE1F040000000000002000000000A9
:1002700000000020000000000088FE1F9D02000812
:1002800048020008600200086002000878020008C6
:100290001917000859160008FEE7000098B500AFCE
:1002A000054A4FF0005314460FCB84E80F0000F0CE
:1002B00005F801F02BF998BDC4FF032080B483B08A
:1002C00000AF72B6164B174A9A60BFF34F8F62B6F3
:1002D000134A134BD3F8883043F47003C2F88830C4
:1002E0000F4A0F4B5B6923F0080353610E4B03F574
:1002F000805314331B687B607B6823F00F037B60A3
:100300007B6843F004037B60074B03F58053143391
:100310007A681A600C37BD465DF8047B704700BFF1
:1003200000ED00E0000000080010005880B584B027
:1003300000AF2F4BDB6803F48033002B3ED02D4BF6
:10034000DB6803F00103002B02D02B4BFB6002E0C3
:1003500001F0BEF8F860274B1B6803F00403002B84
:1003600020D0244B9B6803F070631B0E0133BB60ED
:10037000204B9B6803F4FE431B0A01337B601D4B3B
:100380009B6803F4FE031B0C01333B60BB683A68B7
:1003900002FB03F3FA68B2FBF3F37A6802FB03F3A0
:1003A000FB600DE0134B9B6803F07F0301333B6060
:1003B000FA683B68B2FBF3F3FB6001E00E4BFB60B5
:1003C0000B4BDB68DBB20133FA68B2FBF3F3FB6083
:1003D000074B1B6903F001030133FA68B2FBF3F327
:1003E000FB60064AFB6813601037BD4680BD00BF46
:1003F000004600501047005000366E01C0FF032039
:1004000080B485B000AFF8600B467A60FB72FB7A6F
:100410009B08DBB21846FB7A9B08DBB21A46FB68E6
:10042000043253F82220FB7A03F00303DB00194661
:10043000F8238B40DB4302EA0301FB68021D43F80B
:100440002210FB685A6FFB7A5B00194603238B402E
:10045000DB431A40FB685A67FB683A4A934203D071
:10046000FB68394A93420AD1FB681A6EFB7A012174
:1004700001FA03F3DB431A40FB681A6642E07B682B
:100480001B78DBB25BB2002B3CDA7B685A68FB7AE4
:100490009A40FB685A60FB7ADB08DBB21846FB7AAD
:1004A000DB08DBB21A46FB68103253F82220FB7AD5
:1004B00003F007039B00194607238B40DB4302EA46
:1004C0000301FB6800F1100243F82210FB7ADB08FD
:1004D000DBB21846FB7ADB08DBB21A46FB68103247
:1004E00053F822207B681B7A1946FB7A03F0070336
:1004F0009B0001FA03F342EA0301FB6800F11002DA
:1005000043F82210FB7A9B08DBB21846FB7A9B0863
:10051000DBB21A46FB68043253F822207B681B7852
:100520001946FB7A03F00303DB0001FA03F342EA06
:100530000301FB68021D43F822101437BD465DF825
:10054000047B7047008E0248008F024880B400AFE1
:10055000064B5B6803F00103002B14BF012300234B
:10056000DBB21846BD465DF8047B7047004A005078
:1005700080B400AF034BD3F8C4301846BD465DF8D5
:10058000047B70470040005080B582B000AF7860B7
:10059000FFF7DCFF034683F00103DBB2002B3ED004
:1005A00000F014FB034683F00103DBB2002B01D003
:1005B00000F0E0FA7B681B8A184600F00DFD00BFD2
:1005C000FFF7D6FF034603F40063002BF8D1164A69
:1005D0007B681B68136200BFFFF7CAFF034603F482
:1005E0008053002BF8D1104A7B685B68536200BFD0
:1005F000FFF7BEFF034603F40073002BF8D10A4A4D
:100600007B689B68936100BFFFF7B2FF034603F46A
:100610008063002BF8D1044A7B68DB68D361002338
:1006200018460837BD4680BD004A005080B582B0EC
:1006300000AF786000BFFFF79BFF034603F48043E1
:10064000002BF8D10449044B1A697B6813430B61F2
:100650000837BD4680BD00BF004A005080B400AFDF
:10066000034BD3F8C4301846BD465DF8047B704791
:100670000040005080B584B000AF7860FFF756FEB0
:100680000B4B1B680B4AA2FB03239A0C7B6802FBF3
:1006900003F37B600023FB6003E000BFFB680133D2
:1006A000FB60FA687B689A42F7D31037BD4680BD7D
:1006B000C0FF032083DE1B4380B400AF034B5B68A5
:1006C0001846BD465DF8047B704700BF744000507B
:1006D00080B483B000AF7860034A7B68D3600C3786
:1006E000BD465DF8047B704774400050B0B584B0DF
:1006F00002AF7860002000F075F800F03BFA7B68EC
:10070000DB79002B0AD000F091FA00BF00F07CFAF0
:10071000034683F00103DBB2002BF7D17B685B7AE1
:10072000184600F0D9F800BFFFF798FF0346002BEA
:10073000FAD17B681B7A184600F0F6F97B681B7CBF
:10074000184600F0E7F87B685B7C184600F00AF971
:100750007B689B7C184600F0F1F87B68DB7C1846D0
:1007600000F014F97B689B79002B0AD000F096FA10
:1007700000BF00F0BBFA034683F00103DBB2002B9D
:10078000F7D17B68DB78002B09D17B689B7983F0FC
:100790000103DBB2002B17D000F0CCFA14E000F01C
:1007A000B9FA7B6899887B68DA787B685B781D4644
:1007B0007B681B781C467B689B7800930846114633
:1007C0002A46234600F0C6FA7B68DB68B3F5803F13
:1007D00003D14FF4803000F005F8FFF7A7FD08378C
:1007E000BD46B0BD80B483B000AF78600649064B0B
:1007F000DB6823F480327B681343CB600C37BD4643
:100800005DF8047B704700BF0046005080B483B0A1
:1008100000AF78600649064B9B6923F480327B6801
:1008200013438B610C37BD465DF8047B704700BFF6
:100830000046005080B483B000AF78600649064B94
:100840005B6A23F440327B6813434B620C37BD462E
:100850005DF8047B704700BF0046005080B483B051
:1008600000AF0346FB80FB88002B08D10A4A0A4BE5
:10087000DB6823F4807323F00103D36007E0064AAA
:10088000054BDB6843F4807343F00103D3600C37FE
:10089000BD465DF8047B70471047005080B483B0BC
:1008A00000AF0346FB7100BF094BD3F8C43003F01F
:1008B0000803002BF8D10749064BDB6823F0400200
:1008C000FB791343CB600C37BD465DF8047B704762
:1008D000004000500043005080B483B000AF034696
:1008E000FB7100BF094BD3F8C43003F00803002BA1
:1008F000F8D10749064BDB6823F08002FB791343EC
:10090000CB600C37BD465DF8047B7047004000505B
:100910000043005080B483B000AF78600649064BB6
:10092000DB6823F0FF027B68013B1343CB600C378D
:10093000BD465DF8047B70470046005080B483B02C
:1009400000AF78600649064B1B6A23F001027B6802
:10095000013B13430B620C37BD465DF8047B7047C7
:100960000046005080B483B000AF78600649064B63
:100970001B6923F001027B68013B13430B610C37B9
:10098000BD465DF8047B70470046005080B483B0DC
:1009900000AF78600649064B5B6923F001027B6873
:1009A000013B13434B610C37BD465DF8047B704738
:1009B0000046005080B483B000AF78600649064B13
:1009C0009B6923F007027B68013B13438B610C3763
:1009D000BD465DF8047B70470046005080B483B08C
:1009E00000AF78600649064BDB6923F03F027B6865
:1009F000013B1343CB610C37BD465DF8047B704768
:100A00000046005080B483B000AF78600649064BC2
:100A10005B6A23F0FF027B68013B13434B620C3798
:100A2000BD465DF8047B70470046005080B483B03B
:100A300000AF78600649064B9B6B23F003027B688E
:100A4000013B13438B630C37BD465DF8047B704755
:100A50000046005080B400AF054A054B5B6923F4A3
:100A6000803323F002035361BD465DF8047B704779
:100A70001047005080B483B000AF78603960284AD6
:100A8000274B5B6943F00103536100BF244B1B6993
:100A900003F00103002BF9D0214A214B5B6943F09D
:100AA000100353611E493B68013B1A027B68013BFE
:100AB0001B0613434B611A4A194B5B6943F0400311
:100AC0005361174A164B5B6923F010035361144AB4
:100AD000134B5B6943F48023536100BF104B1B69C8
:100AE00003F00403002BF9D00D4A0D4B5B6923F092
:100AF0000103536100BF0A4B1B6903F00103002B84
:100B0000F9D1074A064B5B6923F040035361054B5B
:100B10000822DA600C37BD465DF8047B704700BFE1
:100B2000104700506041005080B582B000AF0346CE
:100B3000FB710F4A0E4B5B6843F480135360FB79E3
:100B4000012B0ED10A4A0A4B5B6823F480135360D1
:100B50006420FFF78FFD064A054B5B6843F40023D2
:100B600053606420FFF786FD0837BD4680BD00BF97
:100B70001047005080B400AF124B1B6803F0010314
:100B8000002B09D10F4B01225A6000BF0D4B1B688F
:100B900003F00103002BF9D00B4B1B6803F4007327
:100BA000002B0AD0084B4FF400729A6000BF064B2E
:100BB0001B6803F40073002BF9D1BD465DF8047B7C
:100BC000704700BF004200500044005080B400AFA6
:100BD0000B4B1B6803F00103002B07D0094B1B686C
:100BE00003F40073002B01D1012300E0002303F084
:100BF0000103DBB21846BD465DF8047B704700BFB9
:100C0000004200500044005080B400AF064B1B6807
:100C100003F00803002B0CBF01230023DBB21846AE
:100C2000BD465DF8047B70470043005080B500AFBF
:100C30004FF40000FFF74CFD174A174BDB6923F018
:100C40003003D36100BFFFF737FD034603F4000311
:100C5000002BF8D04FF40030FFF73AFD0E4B08227E
:100C60005A6000BFFFF728FD034603F40033002B52
:100C7000F8D04FF40020FFF72BFD074A064BDB6846
:100C800043F00803D36000BFFFF716FD034603F4EB
:100C90000023002BF8D080BD00430050B0B500AF5A
:100CA0000F4A0F4B5B6823F4803353600D4D0D4B9F
:100CB0005B6823F4702424F0300400F009FC024641
:100CC000094BA3FB02231B0D013B1B0423436B6059
:100CD000034A034B5B6823F400335360B0BD00BF8D
:100CE00010470050004700506BCA5F6B80B400AFE4
:100CF000074B1B6803F46073B3F5607F0CBF0123DF
:100D00000023DBB21846BD465DF8047B704700BF88
:100D10001047005080B400AF054A054B5B6823F4D0
:100D2000803323F002035360BD465DF8047B7047B7
:100D30001047005080B400AF054A054B5B6843F490
:100D4000803343F002035360BD465DF8047B704777
:100D50001047005080B586B000AFBA607B60034694
:100D6000FB810B467B73FB891846FFF777FD7B7B86
:100D7000012B40F08B80FB89002B09D100F0A8FBF0
:100D80000246544BA3FB02239B0C9B057B6102E0B4
:100D90004FF0C0637B617B697A6802FB03F2BB683A
:100DA000B2FBF3F37B617B694B4AA2FB03231B0974
:100DB0009B0D3B61494A494B5B6843F0010353601B
:100DC00000BF464B1B6803F00103002BF9D0434AD8
:100DD000424B5B6843F01003536040493F4B9A68B5
:100DE0003F4B13407A68013A12021A433B69013BB8
:100DF0001B041A43BB68013B1B0613438B60374A35
:100E0000364B5B6843F040035360344A334B5B68B6
:100E100023F010035360314A304B5B6843F4802366
:100E2000536000BF2D4B1B6803F00403002BF9D067
:100E30002A4A2A4B5B6823F00103536000BF274B0B
:100E40001B6803F00103002BF9D17B69254AA2FB43
:100E500003235B099B0D3B613A6A3B699A4202D2CC
:100E6000386900F045F87B695B081F4AA2FB032341
:100E70005B099B0D3B613A6A3B699A4202D2386931
:100E800000F036F8386A00F033F81CE01349134BD1
:100E90009B6823F07F023B6A013B13438B6000BFDA
:100EA0000E4B1B6803F01003002BF9D00B4A0B4BC1
:100EB0005B6843F00103536000BF084B1B6803F0FD
:100EC0000103002BF9D0094B0522DA601837BD4623
:100ED00080BD00BF83DE1B43ABAAAAAA1047005007
:100EE000FF8080F089888888B7600BB66041005029
:100EF00080B582B000AF78600B490B4B9B6823F440
:100F0000FE027B68013B1B0413438B6000BF064B52
:100F10001B6803F02003002BF9D03220FFF7AAFB57
:100F20000837BD4680BD00BF1047005080B483B075
:100F300000AF78600B46FB701346BB707B685A6F3E
:100F4000FB785B00194603238B40DB431A407B6828
:100F50005A677B685A6FBB78F97849008B401A430F
:100F60007B685A670C37BD465DF8047B704700BF4D
:100F700080B400AF034BD3F8C4301846BD465DF8CB
:100F8000047B70470040005080B500AF00BFFFF702
:100F9000EFFF034603F48073002BF8D1034A034BA1
:100FA0005B6843F00103536080BD00BF004A0050FE
:100FB00080B500AF00BFFFF7DBFF034603F480738B
:100FC000002BF8D1034A034B5B6823F00103536005
:100FD00080BD00BF004A005080B582B000AF03461C
:100FE000FB8000BFFFF7C4FF034603F48073002BB0
:100FF000F8D10549044B5B689AB2FB881B04134384
:101000004B600837BD4680BD004A005080B582B0B5
:1010100000AF786000BFFFF7ABFF034603F4006347
:10102000002BF8D1094A7B681B68136200BFFFF7E9
:101030009FFF034603F48053002BF8D1034A7B68DB
:101040005B6853620837BD4680BD00BF004A005050
:1010500080B483B000AF7860064B1A6A7B681A6070
:10106000044B5A6A7B685A600C37BD465DF8047BB6
:10107000704700BF004A005080B582B000AF786072
:1010800000BFFFF775FF034603F40073002BF8D190
:10109000094A7B681B68936100BFFFF769FF03463D
:1010A00003F48063002BF8D1034A7B685B68D3614B
:1010B0000837BD4680BD00BF004A005080B483B0F1
:1010C00000AF7860064B9A697B681A60044BDA6956
:1010D0007B685A600C37BD465DF8047B704700BFE3
:1010E000004A005080B400AFBD465DF8047B7047F5
:1010F00080B500AFFFF748FF80BD00BF80B584B06A
:1011000000AF78600023FB730123BB737B681B7AFD
:1011100083F00103DBB2002B29D07B681B681846E3
:10112000FFF732FA0346FB73FB7B002B1CD1786878
:1011300000F024F803467B737B7B002B04D0786897
:1011400000F058F80346FB73FB7B002B11D17B6842
:101150005B681B78012B01D1FFF7CAFF7B68012276
:101160001A720023BB7304E00123BB7301E0002368
:10117000BB73BB7B18461037BD4680BD80B584B0BD
:1011800000AF78600023FB737B685B685B781A466E
:101190007B685B689B785B001A437B685B68DB78E5
:1011A0009B001A437B685B681B79DB001A437B68F2
:1011B0005B685B795B011A437B685B689B799B0189
:1011C0001343BB60BB68002B04D0B868FFF72EFA4E
:1011D0000123FB737B685B68DB79012B05D14FF43E
:1011E0008070FFF723FA0123FB73FB7B184610374F
:1011F000BD4680BD80B485B000AF78600023FB732E
:101200000023BB73FA7BBB7B1340DBB21846143759
:10121000BD465DF8047B704780B586B000AF78604E
:101220000023FB757B68DB887B827B685B79C3F37B
:101230000303DAB27B7C62F303037B747B68DB78A5
:10124000C3F30403DAB2FB7B62F30403FB737B6832
:101250009B78C3F30403DAB2BB7B62F30403BB7372
:101260007B685B78C3F30503DAB27B7B62F305032B
:101270007B737B681B78C3F30503DAB23B7B62F3B5
:1012800005033B737B681B79C3F30203DAB23B7C33
:1012900062F302033B74FB7B03F01F03DBB2002B02
:1012A00025D07B7C03F00F03DBB2002B1FD0FB7B30
:1012B000C3F30403DBB2013BDBB203F01F03DAB27A
:1012C000FB7B62F30403FB737B7CC3F30303DBB29E
:1012D000013BDBB203F00F03DAB27B7C62F3030362
:1012E0007B7407F10C031846FFF790FE01E0012321
:1012F000FB75FB7D18461837BD4680BD80B582B0B2
:1013000000AF78607868FFF7A3FE7B68DB78C3F3F3
:101310000403DBB20133DBB203F01F03D9B27A68F6
:10132000D37861F30403D3707B685B79C3F3030361
:10133000DBB20133DBB203F00F03D9B27A68537921
:1013400061F3030353710837BD4680BD80B586B095
:1013500000AF78600023FB757B68DB887B827B684D
:101360005B79C3F30303DAB27B7C62F303037B7420
:101370007B68DB78C3F30403DAB2FB7B62F304031C
:10138000FB737B689B78C3F30403DAB2BB7B62F325
:101390000403BB737B685B78C3F30503DAB27B7B22
:1013A00062F305037B737B681B78C3F30503DAB232
:1013B0003B7B62F305033B73FB7B03F01F03DBB254
:1013C000002B25D07B7C03F00F03DBB2002B1FD05A
:1013D000FB7BC3F30403DBB2013BDBB203F01F036F
:1013E000DAB2FB7B62F30403FB737B7CC3F303037E
:1013F000DBB2013BDBB203F00F03DAB27B7C62F3BA
:1014000003037B7407F10C031846FFF735FE01E078
:101410000123FB75FB7D18461837BD4680BD00BF14
:1014200080B582B000AF78607868FFF747FE7B68D0
:10143000DB78C3F30403DBB20133DBB203F01F0339
:10144000D9B27A68D37861F30403D3707B685B798F
:10145000C3F30303DBB20133DBB203F00F03D9B2F2
:101460007A68537961F3030353710837BD4680BD31
:1014700080B582B000AF78607B6819687B681A7CA1
:101480007B680433084611461A46FEF7B9FF7B68AD
:1014900019687B681A7C7B685B7C084611461A4693
:1014A000FFF744FD002318460837BD4680BD00BF46
:1014B00080B485B000AF78600023FB737B680122A5
:1014C0001A70FB7B18461437BD465DF8047B7047E5
:1014D00080B400AF024B1846BD465DF8047B7047F0
:1014E000001BB70080B483B000AF78600649064B9C
:1014F0009B6B23F480327B6813438B630C37BD46B0
:101500005DF8047B704700BF00460050B0B586B060
:1015100000AF164B3C1D1D460FCD0FC42B6823603A
:101520003B1D1846FFF7E2F80020FFF7B7F94FF42C
:101530008030FFF76BF90620FFF73CFAFFF78AFAD5
:1015400003206421FFF796FA0020FFF7CBFF02206B
:10155000FFF76CFA0020FFF76DF90120FFF752FA50
:101560000120FFF73BFA1837BD46B0BD94170008BD
:1015700080B582B000AF0023FB710D48FFF798FFE4
:101580000346FB71FB79002B04D10A48FFF7B6FD37
:101590000346FB71FB79002B04D10748FFF768FF76
:1015A0000346FB71FB7918460837BD4680BD00BF76
:1015B0001C88FE1F0088FE1F8017000880B483B0BF
:1015C00000AF78600B46FB70FB7801229A407B6885
:1015D0005A600C37BD465DF8047B704780B483B019
:1015E00000AF78600B46FB70FB784FF480329A4076
:1015F0007B685A600C37BD465DF8047B704700BFBE
:1016000080B500AFFFF7C0FC80BD00BF80B500AF64
:10161000FFF7CEFC80BD00BF80B582B000AF786020
:101620007B681A687B681B7C10461946FFF7C6FF6B
:101630000837BD4680BD00BF80B582B000AF78607E
:101640007B681A687B681B7C10461946FFF7C6FF4B
:101650000837BD4680BD00BF80B582B000AF012312
:10166000FB710123BB71FFF783FF03467B71FFF71B
:10167000CDFF2648FFF7D0FD0346FB712448FFF756
:1016800065FE0346BB71FFF7BBFF7B79002B00D0E3
:10169000FEE7FB79002B37D1BB79002B34D11B48F7
:1016A000FFF72CFE1A48FFF7BBFE184B5B78C3F31D
:1016B0000503DBB21A46164B5B78C3F30503DBB2B6
:1016C0009A421EDB114B5B78C3F30503DBB21A466B
:1016D0000F4B5B78C3F30503DBB29A4211DC0B4B73
:1016E0001B78C3F30503DBB21A46094B1B78C3F31F
:1016F0000503DBB23B339A4203DC0648FFF78CFF5D
:1017000002E00448FFF798FFC3E700BF0C88FE1F04
:101710001488FE1F8017000870B50E4B0E4CE41A9B
:10172000A41000251E46A54204D056F8253098473F
:101730000135F8E7FFF7D6FC084C094BE41AA41072
:1017400000251E46A54204D056F82530984701359D
:10175000F8E770BD1C88FE1F1C88FE1F1C88FE1F3A
:101760001C88FE1F010000000000000000000000B7
:101770000400B207000100000000B207FF7F000074
:10178000008402488000000000000100000000000A
:101790000000000030020101000001000000000014
:0817A00000000100020101013B
:1017A8006C17000864170008000000000000171DEF
:0C17B8000008E8070001171D0008E80702
:0400000508000201EC
:00000001FF
