:020000040C00EE
:100000000088FE1F010200089902000899020008FA
:1000100099020008990200089902000800000000F7
:10002000000000000000000000000000990200082D
:1000300099020008000000009902000899020008D7
:100040009902000899020008990200089902000824
:100050009902000899020008990200089902000814
:1000600099020008000000000000000000000000ED
:100070009902000800000000990200089902000897
:100080008D1A0008990200089902000899020008D8
:1000900099020008990200089902000899020008D4
:1000A00099020008990200089902000899020008C4
:1000B00099020008990200089902000899020008B4
:1000C00099020008990200089902000899020008A4
:1000D0009902000899020008990200089902000894
:1000E0009902000899020008990200089902000884
:1000F0009902000899020008990200089902000874
:100100009902000899020008990200089902000863
:100110009902000899020008990200089902000853
:100120009902000899020008990200089902000843
:100130009902000899020008990200089902000833
:100140009902000899020008990200089902000823
:100150009902000899020008990200089902000813
:10016000000000000000000000000000000000008F
:1001700099020008990200089902000899020008F3
:1001800099020008990200089902000899020008E3
:1001900099020008990200089902000899020008D3
:1001A00099020008990200089902000899020008C3
:1001B00099020008990200089902000899020008B3
:1001C00099020008990200089902000899020008A3
:1001D0009902000899020008990200080000000036
:1001E0009902000899020008990200089902000883
:1001F0009902000899020008990200080000000016
:10020000DFF874D01D4880471D4C1E4DAC4209DA02
:1002100021686268A368043BA2BFC858D050FAE7BF
:100220000C34F3E7184B194CA34208DA19685A68E2
:100230000020043AA4BF8850FBE70833F4E71448D1
:1002400080471448804700000C1C000C0088FE1FEB
:100250008C0000000C1C000C0088FE1F0000000039
:100260008C88FE1F0C000000000000200000000031
:1002700000000020000000000088FE1F9D02000812
:1002800048020008600200086002000878020008C6
:10029000F11A0008751A0008FEE7000098B500AFD3
:1002A000054A4FF0005314460FCB84E80F0001F0CD
:1002B00019F901F095F998BDC4FF032080B584B009
:1002C00000AF2F4BDB6803F48033002B3ED02D4B67
:1002D000DB6803F00103002B02D02B4BFB6002E034
:1002E00001F060F9F860274B1B6803F00403002B52
:1002F00020D0244B9B6803F070631B0E0133BB605E
:10030000204B9B6803F4FE431B0A01337B601D4BAB
:100310009B6803F4FE031B0C01333B60BB683A6827
:1003200002FB03F3FA68B2FBF3F37A6802FB03F310
:10033000FB600DE0134B9B6803F07F0301333B60D0
:10034000FA683B68B2FBF3F3FB6001E00E4BFB6025
:100350000B4BDB68DBB20133FA68B2FBF3F3FB60F3
:10036000074B1B6903F001030133FA68B2FBF3F397
:10037000FB60064AFB6813601037BD4680BD00BFB6
:10038000004600501047005000366E01C0FF0320A9
:1003900080B485B000AFF8600B467A60FB72FB7AE0
:1003A0009B08DBB21846FB7A9B08DBB21A46FB6857
:1003B000043253F82220FB7A03F00303DB001946D2
:1003C000F8238B40DB4302EA0301FB68021D43F87C
:1003D0002210FB685A6FFB7A5B00194603238B409F
:1003E000DB431A40FB685A67FB683A4A934203D0E2
:1003F000FB68394A93420AD1FB681A6EFB7A0121E5
:1004000001FA03F3DB431A40FB681A6642E07B689B
:100410001B78DBB25BB2002B3CDA7B685A68FB7A54
:100420009A40FB685A60FB7ADB08DBB21846FB7A1D
:10043000DB08DBB21A46FB68103253F82220FB7A45
:1004400003F007039B00194607238B40DB4302EAB6
:100450000301FB6800F1100243F82210FB7ADB086D
:10046000DBB21846FB7ADB08DBB21A46FB681032B7
:1004700053F822207B681B7A1946FB7A03F00703A6
:100480009B0001FA03F342EA0301FB6800F110024A
:1004900043F82210FB7A9B08DBB21846FB7A9B08D4
:1004A000DBB21A46FB68043253F822207B681B78C3
:1004B0001946FB7A03F00303DB0001FA03F342EA77
:1004C0000301FB68021D43F822101437BD465DF896
:1004D000047B7047008E0248008F024880B400AF52
:1004E000034BD3F8C4301846BD465DF8047B704713
:1004F0000040005080B584B000AF7860FFF7DEFEAA
:100500000B4B1B680B4AA2FB03239A0C7B6802FB74
:1005100003F37B600023FB6003E000BFFB68013353
:10052000FB60FA687B689A42F7D31037BD4680BDFE
:10053000C0FF032083DE1B4380B400AF034B5B6826
:100540001846BD465DF8047B704700BF74400050FC
:1005500080B483B000AF7860034A7B68D3600C3707
:10056000BD465DF8047B704774400050B0B584B060
:1005700002AF7860002000F091F800F073FA7B6819
:10058000DB79002B0AD000F0ABFA00BF00F096FA3E
:10059000034683F00103DBB2002BF7D17B685B7A63
:1005A000184600F0F5F800BFFFF798FF0346002B50
:1005B000FAD17B681B7A184600F02EFA7B681B7C08
:1005C000184600F003F97B685B7C184600F026F9BA
:1005D0007B689B7C184600F00DF97B68DB7C184635
:1005E00000F030F97B689B79002B0AD000F0B0FA5C
:1005F00000BF00F0D5FA034683F00103DBB2002B05
:10060000F7D17B68DB78002B09D17B689B7983F07D
:100610000103DBB2002B17D000F0E6FA14E000F083
:10062000D3FA7B6899887B68DA787B685B781D46AB
:100630007B681B781C467B689B78009308461146B4
:100640002A46234600F0E0FA7B68DB68B3F5803F7A
:1006500003D14FF4803000F021F8FFF72FFE083768
:10066000BD46B0BD80B485B000AF78607B681B0F1D
:10067000FB607B6823F07043BB60FA6813465B0045
:1006800013449B001A46044B1344BA681A6014378B
:10069000BD465DF8047B70471444005080B483B0BD
:1006A00000AF78600649064BDB6823F480327B6834
:1006B0001343CB600C37BD465DF8047B704700BF29
:1006C0000046005080B483B000AF78600649064B06
:1006D0009B6923F480327B6813438B610C37BD46E2
:1006E0005DF8047B704700BF0046005080B483B0C3
:1006F00000AF78600649064B5B6A23F440327B68A2
:1007000013434B620C37BD465DF8047B704700BF56
:100710000046005080B483B000AF0346FB80FB88E6
:10072000002B08D10A4A0A4BDB6823F4807323F0BC
:100730000103D36007E0064A054BDB6843F480738E
:1007400043F00103D3600C37BD465DF8047B70476E
:100750001047005080B483B000AF0346FB7100BF68
:10076000094BD3F8C43003F00803002BF8D1074934
:10077000064BDB6823F04002FB791343CB600C3758
:10078000BD465DF8047B70470040005000430050B8
:1007900080B483B000AF0346FB7100BF094BD3F8B0
:1007A000C43003F00803002BF8D10749064BDB687F
:1007B00023F08002FB791343CB600C37BD465DF814
:1007C000047B7047004000500043005080B483B069
:1007D00000AF78600649064BDB6823F0FF027B68B8
:1007E000013B1343CB600C37BD465DF8047B70477B
:1007F0000046005080B483B000AF78600649064BD5
:100800001B6A23F001027B68013B13430B620C3728
:10081000BD465DF8047B70470046005080B483B04D
:1008200000AF78600649064B1B6923F001027B6824
:10083000013B13430B610C37BD465DF8047B7047E9
:100840000046005080B483B000AF78600649064B84
:100850005B6923F001027B68013B13434B610C375A
:10086000BD465DF8047B70470046005080B483B0FD
:1008700000AF78600649064B9B6923F007027B684E
:10088000013B13438B610C37BD465DF8047B704719
:100890000046005080B483B000AF78600649064B34
:1008A000DB6923F03F027B68013B1343CB610C37CC
:1008B000BD465DF8047B70470046005080B483B0AD
:1008C00000AF78600649064B5B6A23F0FF027B6845
:1008D000013B13434B620C37BD465DF8047B704708
:1008E0000046005080B483B000AF78600649064BE4
:1008F0009B6B23F003027B68013B13438B630C3734
:10090000BD465DF8047B70470046005080B485B05A
:1009100000AF78607B681B0FFB607B6823F070433F
:10092000BB60FA6813465B0013449B001A46044BF5
:100930001344BA681A601437BD465DF8047B7047EB
:100940004846005080B400AF054A054B5B6923F46C
:10095000803323F002035361BD465DF8047B70478A
:100960001047005080B483B000AF78603960284AE7
:10097000274B5B6943F00103536100BF244B1B69A4
:1009800003F00103002BF9D0214A214B5B6943F0AE
:10099000100353611E493B68013B1A027B68013B0F
:1009A0001B0613434B611A4A194B5B6943F0400322
:1009B0005361174A164B5B6923F010035361144AC5
:1009C000134B5B6943F48023536100BF104B1B69D9
:1009D00003F00403002BF9D00D4A0D4B5B6923F0A3
:1009E0000103536100BF0A4B1B6903F00103002B95
:1009F000F9D1074A064B5B6923F040035361054B6D
:100A00000822DA600C37BD465DF8047B704700BFF2
:100A1000104700506041005080B582B000AF0346DF
:100A2000FB710F4A0E4B5B6843F480135360FB79F4
:100A3000012B0ED10A4A0A4B5B6823F480135360E2
:100A40006420FFF757FD064A054B5B6843F400231B
:100A500053606420FFF74EFD0837BD4680BD00BFE0
:100A60001047005080B400AF124B1B6803F0010325
:100A7000002B09D10F4B01225A6000BF0D4B1B68A0
:100A800003F00103002BF9D00B4B1B6803F4007338
:100A9000002B0AD0084B4FF400729A6000BF064B3F
:100AA0001B6803F40073002BF9D1BD465DF8047B8D
:100AB000704700BF004200500044005080B400AFB7
:100AC000064B1B6803F00803002B0CBF0123002317
:100AD000DBB21846BD465DF8047B7047004300500A
:100AE00080B500AF4FF40000FFF732FD174A174BF7
:100AF000DB6923F03003D36100BFFFF71DFD034620
:100B000003F40003002BF8D04FF40030FFF720FD72
:100B10000E4B08225A6000BFFFF70EFD034603F498
:100B20000033002BF8D04FF40020FFF711FD074AE7
:100B3000064BDB6843F00803D36000BFFFF7FCFC03
:100B4000034603F40023002BF8D080BD004300507F
:100B5000B0B500AF0F4A0F4B5B6823F4803353608E
:100B60000D4D0D4B5B6823F4702424F0300400F02D
:100B700019FD0246094BA3FB02231B0D013B1B047D
:100B800023436B60034A034B5B6823F400335360D9
:100B9000B0BD00BF10470050004700506BCA5F6BEC
:100BA00080B400AF074B1B6803F46073B3F5607F3C
:100BB0000CBF01230023DBB21846BD465DF8047B61
:100BC000704700BF1047005080B400AF054A054B86
:100BD0005B6823F4803323F002035360BD465DF865
:100BE000047B70471047005080B400AF054A054BA6
:100BF0005B6843F4803343F002035360BD465DF805
:100C0000047B70471047005080B586B000AFBA60D3
:100C10007B600346FB810B467B73FB891846FFF71D
:100C200079FD7B7B012B40F08B80FB89002B09D168
:100C300000F0B8FC0246544BA3FB02239B0C9B051F
:100C40007B6102E04FF0C0637B617B697A6802FBE5
:100C500003F2BB68B2FBF3F37B617B694B4AA2FBF7
:100C600003231B099B0D3B61494A494B5B6843F0D9
:100C70000103536000BF464B1B6803F00103002BC8
:100C8000F9D0434A424B5B6843F01003536040493C
:100C90003F4B9A683F4B13407A68013A12021A435D
:100CA0003B69013B1B041A43BB68013B1B06134312
:100CB0008B60374A364B5B6843F040035360344ADD
:100CC000334B5B6823F010035360314A304B5B6851
:100CD00043F48023536000BF2D4B1B6803F00403D3
:100CE000002BF9D02A4A2A4B5B6823F0010353609A
:100CF00000BF274B1B6803F00103002BF9D17B6970
:100D0000254AA2FB03235B099B0D3B613A6A3B69C1
:100D10009A4202D2386900F045F87B695B081F4AA5
:100D2000A2FB03235B099B0D3B613A6A3B699A4234
:100D300002D2386900F036F8386A00F033F81CE067
:100D40001349134B9B6823F07F023B6A013B13431B
:100D50008B6000BF0E4B1B6803F01003002BF9D013
:100D60000B4A0B4B5B6843F00103536000BF084B19
:100D70001B6803F00103002BF9D0094B0522DA6050
:100D80001837BD4680BD00BF83DE1B43ABAAAAAAAD
:100D900010470050FF8080F089888888B7600BB6C4
:100DA0006041005080B582B000AF78600B490B4BBA
:100DB0009B6823F4FE027B68013B1B0413438B609A
:100DC00000BF064B1B6803F02003002BF9D0322034
:100DD000FFF790FB0837BD4680BD00BF10470050AD
:100DE00080B483B000AF78600B46FB701346BB70D5
:100DF0007B685A6FFB785B00194603238B40DB430B
:100E00001A407B685A677B685A6FBB78F97849004B
:100E10008B401A437B685A670C37BD465DF8047BEC
:100E2000704700BF80B485B000AF786039603B7810
:100E3000C3F30203DBB21A467B88C3F309039BB2F8
:100E40001B041343FB607B68FA68C3F8F021FB784E
:100E5000C3F30013DBB21A07FB78C3F38103DBB2E1
:100E60009B061A43FB78C3F34013DBB25B071343C3
:100E7000FB60FB78C3F38013DBB29B07FA68134374
:100E8000FB607B68D3F8F021FB68134343F000421A
:100E90007B68C3F8F0211437BD465DF8047B7047CA
:100EA00080B483B000AF78607B68D3F8843043F0BF
:100EB00080627B68C3F884200C37BD465DF8047BF4
:100EC000704700BF80B483B000AF78607B68D3F810
:100ED000843023F080627B68C3F884200C37BD46E1
:100EE0005DF8047B704700BF80B500AF0120FFF7BD
:100EF0000DFD0120FFF7B6FB80BD00BF80B582B0BD
:100F000000AF78603960FFF7EFFF3B685A697B6894
:100F10001A603B685B6843F400427B68C3F880203A
:100F20003B689A687B68C3F8A0203B68DA687B68F6
:100F3000C3F8A4203B681A697B68C3F880223B6829
:100F40001A687B68C3F8B8200837BD4680BD00BF6B
:100F500080B485B000AFF860B9603B601346FB71A8
:100F6000FB79002B09D1BA6840F21F731340FA686D
:100F70003968283142F8213007E0BA68054B134040
:100F8000FA683968283142F821301437BD465DF8D7
:100F9000047B704700001F0780B485B000AF786005
:100FA0007B68D3F8803043F000427B68C3F8802030
:100FB0000023FB7317E0FB7B0F4A52F82330BB6022
:100FC000BB68D3F8803003F44033002B08D000E036
:100FD00000BFBB68D3F8803003F08053002BF7D1FB
:100FE000FB7B0133FB73FB7B032BE4D91437BD463A
:100FF0005DF8047B704700BF3C1B000880B485B0DF
:1010000000AF78600B46FB70FB78032B03D9FB78AD
:10101000043BFB6001E0FB78FB607B68D3F8403168
:1010200023F00F027B68C3F840217B68D3F840218E
:10103000FB681A437B68C3F840211437BD465DF84E
:10104000047B704780B582B000AF786039603B6840
:10105000786859680022002300F028F83B68786817
:1010600059680122002300F021F83B6878689968EC
:101070000022012300F01AF83B6878689968012281
:10108000012300F013F83B681A697B68C3F88020DD
:101090003B68DA687B68C3F8B8203B6878681968F1
:1010A000FFF7C0FE0837BD4680BD00BF80B48DB0DD
:1010B00000AFF860B9603B601346FB71FB79002B11
:1010C00013D10823FB624FF4E0637B620023BB6211
:1010D0001F233B623B7AC3F30403DBB2FB617B7AE1
:1010E000C3F30203DBB2FB7613E01823FB624FF07D
:1010F000E0637B621023BB624FF4F8133B62BB7A60
:10110000C3F30403DBB2FB61FB7AC3F30203DBB27C
:10111000FB76FB683A68283253F822307B617B6AA1
:10112000DB437A6913407B61FA7EFB6A02FA03F3C0
:101130007A6913437B613B6ADB437A6913407B61C5
:10114000BB6AFA6902FA03F37A6913437B61FB68AD
:101150003A682832796943F822103437BD465DF881
:10116000047B704780B485B000AF78600B46FB709D
:101170007B68D3F88030FB60FB6823F00303FB60DF
:10118000FB78FA681343FB607B68FA68C3F8802039
:101190001437BD465DF8047B704700BF80B586B04C
:1011A00000AF786039600023FB7509E0FB7D394AA8
:1011B00052F823301846FFF785FEFB7D0133FB759F
:1011C000FB7D032BF2D900233B613B681B7803F0C6
:1011D0000303DBB2002B02D04FF400633B6100231A
:1011E000FB7521E0FB7D2B4A52F82330D3F8843085
:1011F000FB60FB6823F44073FB603B681B78C3F320
:101200008103DBB21B02FA681343FB60FA683B6997
:101210001343FB60FB7D1F4A52F82330FA68C3F882
:101220008420FB7D0133FB75FB7D032BDAD93B6802
:101230005B6843F4000343F400437A68C2F8003269
:101240003B689B6843F001027B68C3F804223B685B
:101250001B7803F00303DBB2022B07D17B68D3F8C2
:10126000043243F480327B68C3F804220023FB7508
:1012700009E0FB7D074A52F823301846FFF710FEBD
:10128000FB7D0133FB75FB7D032BF2D91837BD467F
:1012900080BD00BF3C1B000880B489B000AFF8607F
:1012A000B9607A607B681B7BBB61FB68D3F88830D0
:1012B0007B61BB68012202FA03F3DB437A691340C6
:1012C0007B61BB68BA6902FA03F37A6913437B61F5
:1012D000FB687A69C3F888207B685B7B5BB2002B74
:1012E00029DB0023FB61BB68012B0AD10823FB61CA
:1012F000FB68D3F8B03023F4F852FB68C3F8B02091
:101300000CE0BB68002B09D10023FB61FB68D3F81C
:10131000B03023F01F02FB68C3F8B020FB68D3F89D
:10132000B0307A68527B51B2FA6901FA02F21A437C
:10133000FB68C3F8B020FB68D3F8C8207B685B6803
:101340001A43FB68C3F8C820FB68D3F8D0207B6839
:101350009B681A43FB68C3F8D0207B681968FB6858
:10136000BA68803243F822102437BD465DF8047B0A
:10137000704700BF80B400AFBD465DF8047B704786
:1013800080B483B000AF786039607B68D3F8802088
:101390003B681033194601238B401A437B68C3F81E
:1013A00080200C37BD465DF8047B704780B584B063
:1013B00000AF78607B681B7E022B49D17B685A693D
:1013C0007B681B6910461946FFF798FD0023FB60F8
:1013D0002FE07B68FA6853F8223019687B68FA6856
:1013E00053F822305B6808461946FFF72BFE7B68EE
:1013F000FA6853F822301B6818460321FFF7B2FE43
:101400007B68FA6853F822301B7A83F00103DBB261
:10141000002B05D07B685B691846F968FFF7B0FFC1
:101420007B68FA6853F8223000225A72FB68013355
:10143000FB60FB68032BCCD97B685B7E002B04D060
:101440007B685B691846FFF7A7FD7B6800221A7668
:101450007B681B7E18461037BD4680BD80B582B0C4
:1014600000AF78607B6819687B681A7C7B680433FE
:10147000084611461A46FEF78BFF7B6819687B68A1
:101480001A7C7B685B7C084611461A46FFF7A8FC6D
:10149000002318460837BD4680BD00BF80B485B024
:1014A00000AF78607B6803F00703FB600C4BDB68E0
:1014B000BB60BA684FF6FF031340BB60FB681A02BB
:1014C000BB68134343F0BF6343F40033BB60044A7B
:1014D000BB68D3601437BD465DF8047B704700BF1E
:1014E00000ED00E080B582B000AF0120FFF7D6FF2D
:1014F00072B6214B214A9A60BFF34F8F62B61E4AE3
:101500001D4BD3F8883043F47003C2F888301C4B6D
:1015100003F5805314331B687B607B6823F00F0353
:101520007B607B6843F004037B60154B03F58053BD
:1015300014337A681A60104A0F4B5B6923F010036A
:1015400053610D4A0C4B5B6923F0080353610A4A4F
:10155000094B5B6A23F480335362074A064B5B6A8C
:1015600023F400335362044A034B5B6A23F4802361
:1015700053620837BD4680BD00ED00E00000000862
:101580000010005880B485B000AF78600023FB7372
:101590007B6801221A70FB7B18461437BD465DF844
:1015A000047B704780B400AF024B1846BD465DF81F
:1015B000047B7047001BB70080B483B000AF786035
:1015C0000649064B9B6B23F480327B6813438B6385
:1015D0000C37BD465DF8047B704700BF00460050E5
:1015E000B0B586B000AF164B3C1D1D460FCD0FC4E5
:1015F0002B6823603B1D1846FEF7B8FF0020FFF75D
:10160000A9F84FF48030FFF75DF80620FFF72EF9B8
:10161000FFF798F903206421FFF7A4F90020FFF7F2
:10162000CBFF0220FFF75EF90020FFF75FF80120F3
:10163000FFF744F90120FFF72DF91837BD46B0BD7B
:10164000DC1B000880B400AF044BDB6803F4E063EC
:101650001B0A1846BD465DF8047B704700ED00E0AC
:1016600080B483B000AF0346FB7197F90730002BBD
:101670000BDB084997F907305B09FA7902F01F0282
:10168000012000FA02F241F823200C37BD465DF834
:10169000047B704700E100E080B483B000AF0346F4
:1016A0003960FB7197F90730002B0ADB0D4997F978
:1016B00007303A68D2B29200D2B20B4483F80023CA
:1016C0000AE00949FB7903F00F03043B3A68D2B200
:1016D0009200D2B20B441A760C37BD465DF8047BFB
:1016E000704700BF00E100E000ED00E080B489B089
:1016F00000AFF860B9607A60FB6803F00703FB6134
:10170000FB69C3F10703062B28BF0623BB61FB69F6
:101710000633062B02D9FB69013B00E000237B6105
:10172000BB69012202FA03F35A1EBB681A407B69A7
:101730009A407B69012101FA03F3591E7B680B4033
:10174000134318462437BD465DF8047B704700BF3D
:1017500080B483B000AF78607B68D3F8043243F480
:1017600000727B68C3F804220C37BD465DF8047B29
:10177000704700BF80B485B000AFF860B9607A6090
:10178000FB68BA68603253F822207B68012101FAB5
:1017900003F342EA0301FB68BA68603243F822109F
:1017A0001437BD465DF8047B704700BF80B485B038
:1017B00000AFF860B9607A607B681968FB68BA6846
:1017C000A03243F822101437BD465DF8047B704701
:1017D00080B483B000AF786039607B683A68C0320B
:1017E00053F822309BB218460C37BD465DF8047B97
:1017F000704700BF90B585B000AF78607B681B7EF6
:10180000022B40F099807B68DB681846FFF7CEFD1D
:101810000346BB737B68DB685A697B689B6810462C
:10182000196800220023FFF793FB7B68DB685A6985
:101830007B685B6810461946FFF7B0FC0023FB731A
:101840002EE07B681B68FA7B53F82230BB60BB68D4
:101850009A68BB685B7B1946BB681B6810461A46D2
:10186000FFF71AFDBB689A68BB681B689B78C3F3D7
:101870000303DBB21946BB685B6810461A46FFF7E4
:1018800095FF7B68DB685A69BB681B7B1946BB68A0
:101890005B7B10461A46FFF76DFFFB7B0133FB7342
:1018A000FB7B002BCDD07B685B681B7A03F00803C1
:1018B000DBB2002B2CD07B681B69002B28D07B6807
:1018C0001B691B68DCB2FFF7BDFE01467B681B6924
:1018D0005A687B681B699B68084611461A46FFF7E1
:1018E00005FF024663B218461146FFF7D5FE7B6836
:1018F000DB685A697B685B7E10461946FFF77EFB02
:101900007B681B691B68DBB25BB21846FFF7A8FE59
:101910007B685B69002B02D07B685B6998477B68BA
:101920009B7E002B05D07B68DB685B691846FFF760
:101930000FFF7B68BA7B1A767B681B7E18461437CC
:10194000BD4690BD80B582B000AF78607B68DB6833
:101950005B691846FFF7FCFE0837BD4680BD00BF37
:1019600080B584B000AF78607B689A687B681B683C
:101970009B78C3F30303DBB210461946FFF728FF39
:101980000346FB81FB8918461037BD4680BD00BF6A
:1019900080B582B000AF0023FB711148FFF7F2FD64
:1019A0000346FB71FB79002B04D10E48FFF722FFA1
:1019B0000346FB71FB79002B04D10B48FFF74EFD6A
:1019C0000346FB71FB79002B04D10848FFF746FD65
:1019D0000346FB71FB7918460837BD4680BD00BF42
:1019E0008C88FE1F7088FE1FB41B0008C81B0008EF
:1019F00080B483B000AF78600B46FB70FB780122A7
:101A00009A407B685A600C37BD465DF8047B70478E
:101A100080B483B000AF78600B46FB70FB784FF466
:101A200080329A407B685A600C37BD465DF8047B73
:101A3000704700BF80B582B000AF78607B681A68DD
:101A40007B681B7C10461946FFF7D2FF0837BD465E
:101A500080BD00BF80B582B000AF78607B681A6837
:101A60007B681B7C10461946FFF7D2FF0837BD463E
:101A700080BD00BF80B582B000AFFFF789FF03468D
:101A8000FB71FB79002B00D0FEE7FEE780B500AFCD
:101A90001248FFF765FF03461A46114B1A80104B98
:101AA0001B8840F2DC52934203D90E48FFF7C2FF75
:101AB00002E00C48FFF7CEFF094B1B8840F6C4122A
:101AC000934203D90848FFF7B5FF02E00648FFF745
:101AD000C1FF0648FFF736FF80BD00BF5C88FE1FD0
:101AE0009488FE1FB41B0008C81B00087088FE1FE6
:101AF00070B50E4B0E4CE41AA41000251E46A542EC
:101B000004D056F8253098470135F8E7FFF732FC46
:101B1000084C094BE41AA41000251E46A54204D027
:101B200056F8253098470135F8E770BD8C88FE1FC0
:101B30008C88FE1F8C88FE1F8C88FE1F004400408E
:101B400000480040004C00400050004000000000F1
:101B50000000000000000000000000000000000085
:101B60000000000000000000000000000000000075
:101B70000000000000000000000000000000000065
:101B80000000000000000000000000000000000055
:101B90000000000000000000000000000000000045
:101BA0000400000000000000000000000000000031
:101BB00000000000008402488000000000000100D6
:101BC00000000000000000000084024880000000C7
:101BD00000000100000000000100000030020101CF
:101BE00000000100000000000000010002010101EE
:101BF00000000000100000003F0000000000000096
:0C1C0000050000000000000008000000CB
:101C0C00004400404C1B000801020000004800404A
:101C1C00601B000801020000004C0040741B00080F
:101C2C000102000000500040881B00080102000067
:101C3C000088FE1F0C88FE1F1888FE1F2488FE1FBC
:101C4C009C1B0008004000400201000002002F0015
:101C5C00000000000000000000FF00004C88FE1F88
:101C6C009088FE1F00440040000000005C88FE1FAE
:101C7C006C88FE1F001C0008F01B00083088FE1F3B
:0C1C8C00F41B000800000000020601002C
:0400000508000201EC
:00000001FF
