:020000040C00EE
:100000000088FE1F010200089902000899020008FA
:1000100099020008990200089902000800000000F7
:10002000000000000000000000000000990200082D
:1000300099020008000000009902000899020008D7
:100040009902000899020008990200089902000824
:100050009902000899020008990200089902000814
:1000600099020008000000000000000000000000ED
:100070009902000800000000990200089902000897
:1000800099020008990200089902000899020008E4
:1000900099020008990200089902000899020008D4
:1000A00099020008990200089902000899020008C4
:1000B00099020008990200089902000899020008B4
:1000C00099020008990200089902000899020008A4
:1000D0009902000899020008990200089902000894
:1000E0009902000899020008990200089902000884
:1000F0009902000899020008990200089902000874
:100100009902000899020008990200089902000863
:100110009902000899020008990200089902000853
:100120009902000899020008990200089902000843
:100130009902000899020008990200089902000833
:100140009902000899020008990200089902000823
:100150009902000899020008990200089902000813
:10016000000000000000000000000000000000008F
:1001700099020008990200089902000899020008F3
:1001800099020008990200089902000899020008E3
:1001900099020008990200089902000899020008D3
:1001A00099020008990200089902000899020008C3
:1001B00099020008990200089902000899020008B3
:1001C00099020008990200089902000899020008A3
:1001D0009902000899020008990200080000000036
:1001E0009902000899020008990200089902000883
:1001F0009902000899020008990200080000000016
:10020000DFF874D01D4880471D4C1E4DAC4209DA02
:1002100021686268A368043BA2BFC858D050FAE7BF
:100220000C34F3E7184B194CA34208DA19685A68E2
:100230000020043AA4BF8850FBE70833F4E71448D1
:100240008047144880470000841D000C0088FE1F72
:100250000C000000841D000C0088FE1F0000000040
:100260000C88FE1F1C0000000000002000000000A1
:1002700000000020000000000088FE1F9D02000812
:1002800048020008600200086002000878020008C6
:10029000DD1C0008951C0008FEE7000098B500AFC3
:1002A000054A4FF0005314460FCB84E80F0001F0CD
:1002B00051FC01F0BDFC98BDC4FF032080B584B0A3
:1002C00000AF2F4BDB6803F48033002B3ED02D4B67
:1002D000DB6803F00103002B02D02B4BFB6002E034
:1002E00001F088FCF860274B1B6803F00403002B27
:1002F00020D0244B9B6803F070631B0E0133BB605E
:10030000204B9B6803F4FE431B0A01337B601D4BAB
:100310009B6803F4FE031B0C01333B60BB683A6827
:1003200002FB03F3FA68B2FBF3F37A6802FB03F310
:10033000FB600DE0134B9B6803F07F0301333B60D0
:10034000FA683B68B2FBF3F3FB6001E00E4BFB6025
:100350000B4BDB68DBB20133FA68B2FBF3F3FB60F3
:10036000074B1B6903F001030133FA68B2FBF3F397
:10037000FB60064AFB6813601037BD4680BD00BFB6
:10038000004600501047005000366E01C0FF0320A9
:1003900080B485B000AFF8600B467A60FB72FB7AE0
:1003A0009B08DBB21846FB7A9B08DBB21A46FB6857
:1003B000043253F82220FB7A03F00303DB001946D2
:1003C000F8238B40DB4302EA0301FB68021D43F87C
:1003D0002210FB685A6FFB7A5B00194603238B409F
:1003E000DB431A40FB685A67FB683A4A934203D0E2
:1003F000FB68394A93420AD1FB681A6EFB7A0121E5
:1004000001FA03F3DB431A40FB681A6642E07B689B
:100410001B78DBB25BB2002B3CDA7B685A68FB7A54
:100420009A40FB685A60FB7ADB08DBB21846FB7A1D
:10043000DB08DBB21A46FB68103253F82220FB7A45
:1004400003F007039B00194607238B40DB4302EAB6
:100450000301FB6800F1100243F82210FB7ADB086D
:10046000DBB21846FB7ADB08DBB21A46FB681032B7
:1004700053F822207B681B7A1946FB7A03F00703A6
:100480009B0001FA03F342EA0301FB6800F110024A
:1004900043F82210FB7A9B08DBB21846FB7A9B08D4
:1004A000DBB21A46FB68043253F822207B681B78C3
:1004B0001946FB7A03F00303DB0001FA03F342EA77
:1004C0000301FB68021D43F822101437BD465DF896
:1004D000047B7047008E0248008F024880B400AF52
:1004E000034B1B681846BD465DF8047B704700BF90
:1004F000C0FF032080B400AF034BD3F8C4301846CC
:10050000BD465DF8047B70470040005080B584B064
:1005100000AF7860FFF7D2FE0B4B1B680B4AA2FBC3
:1005200003239A0C7B6802FB03F37B600023FB60D0
:1005300003E000BFFB680133FB60FA687B689A4206
:10054000F7D31037BD4680BDC0FF032083DE1B43B9
:1005500080B400AF034B5B681846BD465DF8047B72
:10056000704700BF7440005080B483B000AF786023
:10057000034A7B68D3600C37BD465DF8047B704747
:1005800074400050B0B584B002AF7860002000F035
:10059000C5F800F0CBFA7B68DB79002B0AD000F0BD
:1005A00003FB00BF00F0EEFA034683F00103DBB269
:1005B000002BF7D17B685B7A184600F029F900BF61
:1005C000FFF798FF0346002BFAD17B681B7A184689
:1005D00000F086FA7B681B7C184600F037F97B68D0
:1005E0005B7C184600F05AF97B689B7C184600F04B
:1005F00041F97B68DB7C184600F064F97B689B79E5
:10060000002B0AD000F008FB00BF00F02DFB0346D2
:1006100083F00103DBB2002BF7D17B68DB78002B82
:1006200009D17B689B7983F00103DBB2002B17D0E3
:1006300000F03EFB14E000F02BFB7B6899887B68A0
:10064000DA787B685B781D467B681B781C467B6884
:100650009B780093084611462A46234600F038FB53
:100660007B68DB68B3F5803F03D14FF4803000F046
:1006700055F8FFF723FE0837BD46B0BD80B485B0FE
:1006800000AF78607B681B0FFB607B6823F07043D2
:10069000BB60FA6813465B0013449B001A46044B88
:1006A0001344BA681A601437BD465DF8047B70477E
:1006B0001444005080B485B000AF78607B681B0F95
:1006C000FB607B6823F07043BB60FA6813465B00F5
:1006D00013449B001A46084B13441A68BB68134026
:1006E000002B14BF01230023DBB218461437BD468C
:1006F0005DF8047B704700BF0C44005080B500AF2C
:10070000FFF7ECFE0246044B5B6903F0010322FA9B
:1007100003F3184680BD00BF0046005080B483B08C
:1007200000AF78600649064BDB6823F480327B68B3
:100730001343CB600C37BD465DF8047B704700BFA8
:100740000046005080B483B000AF78600649064B85
:100750009B6923F480327B6813438B610C37BD4661
:100760005DF8047B704700BF0046005080B483B042
:1007700000AF78600649064B5B6A23F440327B6821
:1007800013434B620C37BD465DF8047B704700BFD6
:100790000046005080B483B000AF0346FB80FB8866
:1007A000002B08D10A4A0A4BDB6823F4807323F03C
:1007B0000103D36007E0064A054BDB6843F480730E
:1007C00043F00103D3600C37BD465DF8047B7047EE
:1007D0001047005080B483B000AF0346FB7100BFE8
:1007E000094BD3F8C43003F00803002BF8D10749B4
:1007F000064BDB6823F04002FB791343CB600C37D8
:10080000BD465DF8047B7047004000500043005037
:1008100080B483B000AF0346FB7100BF094BD3F82F
:10082000C43003F00803002BF8D10749064BDB68FE
:1008300023F08002FB791343CB600C37BD465DF893
:10084000047B7047004000500043005080B483B0E8
:1008500000AF78600649064BDB6823F0FF027B6837
:10086000013B1343CB600C37BD465DF8047B7047FA
:100870000046005080B483B000AF78600649064B54
:100880001B6A23F001027B68013B13430B620C37A8
:10089000BD465DF8047B70470046005080B483B0CD
:1008A00000AF78600649064B1B6923F001027B68A4
:1008B000013B13430B610C37BD465DF8047B704769
:1008C0000046005080B483B000AF78600649064B04
:1008D0005B6923F001027B68013B13434B610C37DA
:1008E000BD465DF8047B70470046005080B483B07D
:1008F00000AF78600649064B9B6923F007027B68CE
:10090000013B13438B610C37BD465DF8047B704798
:100910000046005080B483B000AF78600649064BB3
:10092000DB6923F03F027B68013B1343CB610C374B
:10093000BD465DF8047B70470046005080B483B02C
:1009400000AF78600649064B5B6A23F0FF027B68C4
:10095000013B13434B620C37BD465DF8047B704787
:100960000046005080B483B000AF78600649064B63
:100970009B6B23F003027B68013B13438B630C37B3
:10098000BD465DF8047B70470046005080B485B0DA
:1009900000AF78607B681B0FFB607B6823F07043BF
:1009A000BB60FA6813465B0013449B001A46044B75
:1009B0001344BA681A601437BD465DF8047B70476B
:1009C0004846005080B485B000AF78607B681B0F4C
:1009D000FB607B6823F07043BB60FA6813465B00E2
:1009E00013449B001A46084B13441A68BB68134013
:1009F000002B14BF01230023DBB218461437BD4679
:100A00005DF8047B704700BF4046005080B400AFE3
:100A1000054A054B5B6923F4803323F002035361DD
:100A2000BD465DF8047B70471047005080B483B02A
:100A300000AF78603960284A274B5B6943F00103B7
:100A4000536100BF244B1B6903F00103002BF9D055
:100A5000214A214B5B6943F0100353611E493B68F7
:100A6000013B1A027B68013B1B0613434B611A4A88
:100A7000194B5B6943F040035361174A164B5B699E
:100A800023F010035361144A134B5B6943F4802332
:100A9000536100BF104B1B6903F00403002BF9D016
:100AA0000D4A0D4B5B6923F00103536100BF0A4BF4
:100AB0001B6903F00103002BF9D1074A064B5B6960
:100AC00023F040035361054B0822DA600C37BD4622
:100AD0005DF8047B704700BF104700506041005034
:100AE00080B582B000AF0346FB710F4A0E4B5B68C6
:100AF00043F480135360FB79012B0ED10A4A0A4B51
:100B00005B6823F4801353606420FFF7FFFC064A00
:100B1000054B5B6843F4002353606420FFF7F6FC49
:100B20000837BD4680BD00BF1047005080B400AFFD
:100B3000124B1B6803F00103002B09D10F4B01225C
:100B40005A6000BF0D4B1B6803F00103002BF9D066
:100B50000B4B1B6803F40073002B0AD0084B4FF4B7
:100B600000729A6000BF064B1B6803F40073002BF1
:100B7000F9D1BD465DF8047B704700BF00420050CC
:100B80000044005080B400AF064B1B6803F008031C
:100B9000002B0CBF01230023DBB21846BD465DF8D5
:100BA000047B70470043005080B500AF4FF4000055
:100BB000FFF7DAFC174A174BDB6923F03003D361E8
:100BC00000BFFFF7C5FC034603F40003002BF8D079
:100BD0004FF40030FFF7C8FC0E4B08225A6000BFEC
:100BE000FFF7B6FC034603F40033002BF8D04FF4B4
:100BF0000020FFF7B9FC074A064BDB6843F0080307
:100C0000D36000BFFFF7A4FC034603F40023002BCE
:100C1000F8D080BD00430050B0B500AF0F4A0F4B75
:100C20005B6823F4803353600D4D0D4B5B6823F4F8
:100C3000702424F0300400F0DDFF0246094BA3FBD2
:100C400002231B0D013B1B0423436B60034A034B30
:100C50005B6823F400335360B0BD00BF1047005001
:100C6000004700506BCA5F6B80B400AF074B1B6836
:100C700003F46073B3F5607F0CBF01230023DBB284
:100C80001846BD465DF8047B704700BF1047005012
:100C900080B400AF054A054B5B6823F4803323F032
:100CA00002035360BD465DF8047B70471047005057
:100CB00080B400AF054A054B5B6843F4803343F0D2
:100CC00002035360BD465DF8047B70471047005037
:100CD00080B586B000AFBA607B600346FB810B46EF
:100CE0007B73FB891846FFF755FD7B7B012B40F09A
:100CF0008B80FB89002B09D100F07CFF0246544B0E
:100D0000A3FB02239B0C9B057B6102E04FF0C063B9
:100D10007B617B697A6802FB03F2BB68B2FBF3F389
:100D20007B617B694B4AA2FB03231B099B0D3B6143
:100D3000494A494B5B6843F00103536000BF464B8F
:100D40001B6803F00103002BF9D0434A424B5B6858
:100D500043F01003536040493F4B9A683F4B1340A8
:100D60007A68013A12021A433B69013B1B041A4399
:100D7000BB68013B1B0613438B60374A364B5B68ED
:100D800043F040035360344A334B5B6823F0100355
:100D90005360314A304B5B6843F48023536000BF9B
:100DA0002D4B1B6803F00403002BF9D02A4A2A4B71
:100DB0005B6823F00103536000BF274B1B6803F0FF
:100DC0000103002BF9D17B69254AA2FB03235B09B0
:100DD0009B0D3B613A6A3B699A4202D2386900F046
:100DE00045F87B695B081F4AA2FB03235B099B0D47
:100DF0003B613A6A3B699A4202D2386900F036F8A0
:100E0000386A00F033F81CE01349134B9B6823F059
:100E10007F023B6A013B13438B6000BF0E4B1B6894
:100E200003F01003002BF9D00B4A0B4B5B6843F027
:100E30000103536000BF084B1B6803F00103002B44
:100E4000F9D0094B0522DA601837BD4680BD00BFD6
:100E500083DE1B43ABAAAAAA10470050FF8080F094
:100E600089888888B7600BB66041005080B582B031
:100E700000AF78600B490B4B9B6823F4FE027B6844
:100E8000013B1B0413438B6000BF064B1B6803F040
:100E90002003002BF9D03220FFF738FB0837BD467E
:100EA00080BD00BF1047005080B483B000AF7860B1
:100EB0000B46FB701346BB70FB789B08DBB21846F1
:100EC000FB789B08DBB21A467B68043253F8222079
:100ED000FB7803F00303DB001946F8238B40DB4368
:100EE00002EA03017B68021D43F82210FB789B088D
:100EF000DBB21846FB789B08DBB21A467B680432EB
:100F000053F82220BB78F97801F00301C9008B4027
:100F100042EA03017B68021D43F822100C37BD46EC
:100F20005DF8047B704700BF80B483B000AF786089
:100F30007B689B6BDBB223F07F03DBB218460C3778
:100F4000BD465DF8047B704780B483B000AF786025
:100F500039607B68DA6C3B681A437B68DA640C376B
:100F6000BD465DF8047B704780B584B000AFF86083
:100F7000B9601346FB71F86800F0E2F8FB68114AAB
:100F80005A63BB68DB88F868194600F01DF8FB79E6
:100F9000002B08D0BB681A68BB681B79F86811463B
:100FA0001A4600F03BF8FB684FF4A0629A63FB68B6
:100FB0004FF0FF32DA64FB6800221A641037BD4636
:100FC00080BD00BF03033F0780B483B000AF7860EB
:100FD0000B467B807B8803F4F843B3F5F04F0ED1CA
:100FE0007B68DB6B1B0C1B047A88D2B21A437B88AC
:100FF0005B0003F47E431A437B68DA6308E07B6896
:10100000DB6B1B0C1B047A8812021A437B68DA63C1
:101010000C37BD465DF8047B704700BF80B586B0D5
:1010200000AFF860B9601346FB71BB68204A934279
:1010300019D8FB68DB6B23F40032FB68DA63FB79B9
:10104000002B08D0BB68F86819460A2200F036F970
:101050000346FB7527E0F868B9680A2200F0BCF87F
:101060000346FB751FE0BB68124A934219D8FB6820
:10107000DB6B43F40032FB68DA63FB79002B08D0AA
:10108000BB68F8681946192200F018F90346FB7589
:1010900009E0F868B968192200F09EF80346FB756C
:1010A00001E00123FB75FB7D18461837BD4680BD66
:1010B000A0860100801A060080B582B000AF78607B
:1010C0000B46FB707B68D3F8083103F0E063002B1C
:1010D00012D100BF7868FFF727FF0346802BF9D0B5
:1010E00078684FF40051FFF72FFFFB7843F48072CC
:1010F0007B68C3F8802005E0FB7843F480727B684E
:10110000C3F880210837BD4680BD00BF80B485B0DC
:1011100000AF78607B68D3F80C3103F0E063002BFC
:1011200003D17B685B6DFB7303E07B68D3F81C31F4
:10113000FB73FB7B18461437BD465DF8047B704794
:1011400080B582B000AF78607B681A4A934203D0C2
:101150007B68194A934203D1184800F09DF916E0C4
:101160007B68174A934203D07B68164A934203D1A7
:10117000154800F091F90AE07B68144A934203D0C5
:101180007B68134A934202D1124800F085F97B68CC
:101190000322DA6000BF7B68DB6803F00103002BE9
:1011A000F9D07B681B6C23F00F027B681A64083748
:1011B000BD4680BD0000034000020340080003401C
:1011C00000000248000202480800024800400248AD
:1011D000004202480840024880B58EB000AFF86077
:1011E000B9607A60BB68632B5AD97B68002B57D0F3
:1011F000FFF784FA02462F4BA3FB02235B093B62F5
:10120000BB682C4AA2FB03235B09BB604FF48063DD
:10121000FB620123BB6240F2FF337B624FF48063C9
:101220003B6322E03B6A3A6B02FB03F2BB687968DE
:1012300001FB03F3B2FBF3F3FB61FB699B0ABB61A8
:10124000FB69C3F309037B61BB69B3F5806F09D800
:101250007A697B6A9A4205D27B697B62BB69BB6211
:101260003B6BFB623B6B013B3B633B6B002BD9D180
:10127000FB6A013B43F40042FB681A61FB685A6950
:101280000D4B13407A68013A92021A43BB6A013B44
:101290001B041A43FB685A61002387F8373002E0C9
:1012A000012387F8373097F8373018463837BD466E
:1012B00080BD00BF1F85EB51EF8000FC80B58CB076
:1012C00000AFF860B9607A60FFF718FA03463B6236
:1012D000BB687A6802FB03F3FB610123FB623A6A95
:1012E000FB699A425FDD3A6AFB6992FBF3F3BB62EA
:1012F00010E0FB6A0133FB62BB687A6802FB03F310
:101300001A46FB6A03FB02F3FB613A6AFB6992FB34
:10131000F3F3BB62BB6A40F2FE329342E9D83A6A09
:101320007B68B96A01FB03F3F96A01FB03F3B2FBC3
:10133000F3F3BB613A6ABB6A0133796801FB03F3DB
:10134000F96A01FB03F3B2FBF3F37B61BA687B69D3
:10135000D31A83EAE372A2EBE372B968BB69CB1AD2
:10136000002BB8BF5B429A4202DABB6A0133BB6210
:10137000BB6AC3F58063BB62BB6A43F48042FB680F
:101380001A61FB685A690C4B13407A68013A920261
:101390001A43FB6A013B1B041A43FB685A61002392
:1013A00087F8273002E0012387F8273097F82730A5
:1013B00018463037BD4680BDEF8000FC80B485B054
:1013C00000AFF860B9603B601346FB71FB68D3F86F
:1013D000083123F0E062FB68C3F80821FB68D3F80A
:1013E0000821094B13403A681102BA681143FA798F
:1013F00012060A431A43FB68C3F808211437BD4696
:101400005DF8047B704700BFC0C0FFF880B485B0B2
:1014100000AFF860B9603B601346FB71FB68D3F81E
:101420000C3123F0E062FB68C3F80C21FB68D3F8B1
:101430000C210A4B13403A681102BA681143FA7939
:1014400012060A43134343F08052FB68C3F80C2191
:101450001437BD465DF8047B704700BFC0C0FFEF86
:1014600080B485B000AFF8600B467A60FB72FB6811
:101470009A69FB7A072101FA03F3DB431A40FB7AEE
:10148000796801FA03F31A43FB689A611437BD4681
:101490005DF8047B704700BF80B582B000AF786014
:1014A0007B68284A934218D14FF40060FFF76EFA28
:1014B00000BF4FF40060FFF785FA0346002BF8D118
:1014C0004FF40060FFF7DAF800BF4FF40060FFF759
:1014D000F1F80346002BF8D130E07B681A4A9342BA
:1014E00014D11A48FFF752FA00BF1848FFF76AFAFA
:1014F0000346002BF9D11548FFF7C0F800BF134889
:10150000FFF7D8F80346002BF9D117E07B68104AA3
:10151000934213D10F48FFF739FA00BF0D48FFF788
:1015200051FA0346002BF9D10A48FFF7A7F800BF8C
:101530000848FFF7BFF80346002BF9D10837BD462E
:1015400080BD00BF08000340080002488000001072
:10155000084002480001001080B400AFBD465DF8AD
:10156000047B704780B483B000AF78607B689B6B6E
:10157000DBB223F07F03DBB218460C37BD465DF8C3
:10158000047B704780B483B000AF78600B46FB707B
:10159000FA787B689A660C37BD465DF8047B704725
:1015A00080B483B000AF78607B684FF40042C3F82A
:1015B00018210C37BD465DF8047B704780B483B0BA
:1015C00000AF78607B68D3F8143103F48053002BAC
:1015D00014BF01230023DBB218460C37BD465DF86B
:1015E000047B704780B483B000AF78607B68D3F829
:1015F000143103F40063002B14BF01230023DBB27A
:1016000018460C37BD465DF8047B704780B483B044
:1016100000AF78607B684FF48042C3F818210C3724
:10162000BD465DF8047B704780B483B000AF78603E
:101630007B68D3F8143103F00803002B14BF012397
:101640000023DBB218460C37BD465DF8047B7047BB
:1016500080B483B000AF78607B689B6C18460C3711
:10166000BD465DF8047B704780B483B000AF7860FE
:1016700039607B68DA6C3B681A437B68DA640C3744
:10168000BD465DF8047B704780B584B000AF7860DC
:101690000023FB73FB7B002B05D17B685B685B68D9
:1016A00098470346FB73FB7B18461037BD4680BD49
:1016B00080B586B000AFF860B9607A600423FB752E
:1016C000FB685B6893F82030022B00D01BE00323FB
:1016D000FB75BB68002B15D07B68002B12D0022352
:1016E000FB75FB689B681B7EDBB283F00103DBB2FA
:1016F000002B07D0F868B9687A6800F039F803461B
:10170000FB75FFE700BFFB7D18461837BD4680BD5F
:1017100080B586B000AFF860B9607A600423FB75CD
:10172000FB685B6893F82130022B00D01BE0032399
:10173000FB75BB68002B15D07B68002B12D00223F1
:10174000FB75FB689B685B7EDBB283F00103DBB259
:10175000002B07D0F868B9687A6800F089F803466A
:10176000FB75FFE700BFFB7D18461837BD4680BDFF
:1017700080B588B000AFF860B9607A600323FB776A
:10178000FB689B68BB61FB685B687B61BB6900228F
:10179000DA60BB697A689A60BB69BA681A60FB68EC
:1017A0001B6818460221FFF7EDFE7B6993F8223093
:1017B000002B04D0FB681B681846FFF7F1FEFB689E
:1017C0001968BB691A68BB69DB6813441B78084653
:1017D0001946FFF771FCBB69DB685A1CBB69DA600C
:1017E0001EE07B6993F82230002B08D000BFFB6815
:1017F0001B681846FFF7E2FE0346002BF7D1FB6893
:101800001968BB691A68BB69DB6813441B78084612
:101810001946FFF751FCBB69DB685A1CBB69DA60EB
:10182000BB69DA68BB699B689A42DAD37B6993F833
:101830002230002B0BD000BFFB681B681846FFF757
:10184000D1FE034683F00103DBB2002BF4D100BFCD
:10185000FB681B681846FFF785FE0346802BF7D010
:101860000023FB77FB7F18462037BD4680BD00BFB5
:1018700090B589B000AFF860B9607A600323FB7758
:10188000FB689B68BB61FB685B687B61BB6900228E
:101890005A61BB697A681A61BB69BA685A60FB68A9
:1018A0001B681846FFF732FCFB681B681846FFF7F9
:1018B0002DFC7B6993F82330002B05D0FB681B6857
:1018C0001846FFF7A3FE06E0FB681B6818464FF4B6
:1018D0004041FFF7C9FE31E07B6993F82330002BCC
:1018E00009D000BFFB681B681846FFF79DFE034642
:1018F000002BF7D111E000BFFB681B681846FFF70B
:10190000A7FE034603F44043002BF5D0FB681B6899
:1019100018464FF44041FFF7A7FEBB695A68BB6900
:101920005B69D418FB681B681846FFF7EFFB03469A
:101930002370BB695B695A1CBB695A61BB695A69F0
:10194000BB691B699A42C7D30023FB77FB7F18460C
:101950002437BD4690BD00BF80B483B000AF78602F
:101960000B46FB701346BB70F878FB787A68063339
:101970009B0013445B6823F00702BB781A43796825
:10198000831D9B000B445A600C37BD465DF8047BF9
:10199000704700BF80B483B000AF78600B46FB7027
:1019A0007B681B6C23F00F02FB781A437B681A6478
:1019B0000C37BD465DF8047B704700BF80B582B030
:1019C00000AF78603960786839680122FFF7CCFA97
:1019D0000837BD4680BD00BF80B582B000AF7860DB
:1019E00078680421FFF7D6FF0837BD4680BD00BFE9
:1019F00080B582B000AF78600B46FB701346BB70B9
:101A0000F878FB787A6806339B0013445B6823F010
:101A1000500343F040027968831D9B000B445A60D9
:101A2000FA78BB78786811461A46FFF795FF0837B1
:101A3000BD4680BD80B483B000AF78607B68DB6B4F
:101A400043F480327B68DA630C37BD465DF8047B73
:101A5000704700BF80B500AF024805210022FFF7A4
:101A600023FA80BD0081024880B500AFD02303482F
:101A700005211A46FFF718FA80BD00BF0081024811
:101A800080B582B000AF0023FB711A481A49FFF7F6
:101A900095FF184800210022FFF7AAFF15480121F1
:101AA0000122FFF7A5FF1348FFF7C4FF11480821E3
:101AB00003220123FFF782FC0E48002103220723A3
:101AC000FFF7A4FC0B4810210022FFF7C9FC0948CE
:101AD000FFF782FF09480821094AFEF759FC094827
:101AE0000521094AFEF754FCFB7918460837BD4624
:101AF00080BD00BF00000340401D00080080024878
:101B0000341D000800810248281D000880B485B0FB
:101B100000AF78607B6803F00703FB600C4BDB6869
:101B2000BB60BA684FF6FF031340BB60FB681A0244
:101B3000BB68134343F0BF6343F40033BB60044A04
:101B4000BB68D3601437BD465DF8047B704700BFA7
:101B500000ED00E080B582B000AF0120FFF7D6FFB6
:101B600072B6214B214A9A60BFF34F8F62B61E4A6C
:101B70001D4BD3F8883043F47003C2F888301C4BF7
:101B800003F5805314331B687B607B6823F00F03DD
:101B90007B607B6843F004037B60154B03F5805347
:101BA00014337A681A60104A0F4B5B6923F01003F4
:101BB00053610D4A0C4B5B6923F0080353610A4AD9
:101BC000094B5B6A23F480335362074A064B5B6A16
:101BD00023F400335362044A034B5B6A23F48023EB
:101BE00053620837BD4680BD00ED00E000000008EC
:101BF0000010005880B400AF024B1846BD465DF897
:101C0000047B7047001BB70080B483B000AF7860DE
:101C10000649064B9B6B23F480327B6813438B632E
:101C20000C37BD465DF8047B704700BF004600508E
:101C3000B0B586B000AF164B3C1D1D460FCD0FC48E
:101C40002B6823603B1D1846FEF79CFC0020FEF726
:101C5000C1FD4FF48030FEF775FD0620FEF746FE0D
:101C6000FEF7D4FE03206421FEF7E0FE0020FFF71C
:101C7000CBFF0220FEF776FE0020FEF777FD012065
:101C8000FEF75CFE0120FEF745FE1837BD46B0BDED
:101C9000701D000880B584B000AF0F48FFF7F4FC5A
:101CA0000346FB73FB7B002B0FD13B1D0A481946F3
:101CB0000A22FFF72DFD0346002B07D13B1D0648E6
:101CC00019460A22FFF7F4FC00E0FEE7012318465C
:101CD0001037BD4680BD00BF0088FE1F70B50E4B9B
:101CE0000E4CE41AA41000251E46A54204D056F856
:101CF000253098470135F8E7FFF72EFC084C094BD3
:101D0000E41AA41000251E46A54204D056F825303A
:101D100098470135F8E770BD0C88FE1F0C88FE1F40
:101D20000C88FE1F0C88FE1FD00000000100000080
:101D300001000000D00000000100000001000000D0
:101D4000A086010000000278401D0008811A0008EA
:101D5000691A0008551A0008000000000000000081
:101D60000000000000000000020203030000000069
:101D7000300201010000010000000000000001002D
:041D8000020101015A
:0C1D840000000340481D00080C88FE1FF2
:0400000508000201EC
:00000001FF
