:020000040C00EE
:100000000088FE1F010200089902000899020008FA
:1000100099020008990200089902000800000000F7
:10002000000000000000000000000000990200082D
:1000300099020008000000009902000899020008D7
:100040009902000899020008990200089902000824
:100050009902000899020008990200089902000814
:1000600099020008000000000000000000000000ED
:100070009902000800000000990200089902000897
:1000800099020008990200089902000899020008E4
:1000900099020008990200089902000899020008D4
:1000A00099020008990200089902000899020008C4
:1000B00099020008990200089902000899020008B4
:1000C00099020008990200089902000899020008A4
:1000D0009902000899020008990200089902000894
:1000E0009902000899020008990200089902000884
:1000F0009902000899020008990200089902000874
:100100009902000899020008990200089902000863
:100110009902000899020008990200089902000853
:100120009902000899020008990200089902000843
:100130009902000899020008990200089902000833
:100140009902000899020008990200089902000823
:100150009902000899020008990200089902000813
:10016000000000000000000000000000000000008F
:1001700099020008990200089902000899020008F3
:1001800099020008990200089902000899020008E3
:1001900099020008990200089902000899020008D3
:1001A00099020008990200089902000899020008C3
:1001B00099020008990200089902000899020008B3
:1001C00099020008990200089902000899020008A3
:1001D0009902000899020008990200080000000036
:1001E0009902000899020008990200089902000883
:1001F0009902000899020008990200080000000016
:10020000DFF874D01D4880471D4C1E4DAC4209DA02
:1002100021686268A368043BA2BFC858D050FAE7BF
:100220000C34F3E7184B194CA34208DA19685A68E2
:100230000020043AA4BF8850FBE70833F4E71448D1
:100240008047144880470000B036000C0088FE1F2D
:10025000BC000000B036000C0088FE1F000000004B
:10026000BC88FE1F2C0000000000002000000000E1
:1002700000000020000000000088FE1F9D02000812
:1002800048020008600200086002000878020008C6
:100290000D23000851210008FEE7000098B500AFCB
:1002A000054A4FF0005314460FCB84E80F0000F0CE
:1002B00005F801F01BFB98BDC4FF032080B483B098
:1002C00000AF72B6164B174A9A60BFF34F8F62B6F3
:1002D000134A134BD3F8883043F47003C2F88830C4
:1002E0000F4A0F4B5B6923F0080353610E4B03F574
:1002F000805314331B687B607B6823F00F037B60A3
:100300007B6843F004037B60074B03F58053143391
:100310007A681A600C37BD465DF8047B704700BFF1
:1003200000ED00E0000000080010005880B584B027
:1003300000AF2F4BDB6803F48033002B3ED02D4BF6
:10034000DB6803F00103002B02D02B4BFB6002E0C3
:1003500001F0AEFAF860274B1B6803F00403002B92
:1003600020D0244B9B6803F070631B0E0133BB60ED
:10037000204B9B6803F4FE431B0A01337B601D4B3B
:100380009B6803F4FE031B0C01333B60BB683A68B7
:1003900002FB03F3FA68B2FBF3F37A6802FB03F3A0
:1003A000FB600DE0134B9B6803F07F0301333B6060
:1003B000FA683B68B2FBF3F3FB6001E00E4BFB60B5
:1003C0000B4BDB68DBB20133FA68B2FBF3F3FB6083
:1003D000074B1B6903F001030133FA68B2FBF3F327
:1003E000FB60064AFB6813601037BD4680BD00BF46
:1003F000004600501047005000366E01C0FF032039
:1004000080B485B000AFF8600B467A60FB72FB7A6F
:100410009B08DBB21846FB7A9B08DBB21A46FB68E6
:10042000043253F82220FB7A03F00303DB00194661
:10043000F8238B40DB4302EA0301FB68021D43F80B
:100440002210FB685A6FFB7A5B00194603238B402E
:10045000DB431A40FB685A67FB683A4A934203D071
:10046000FB68394A93420AD1FB681A6EFB7A012174
:1004700001FA03F3DB431A40FB681A6642E07B682B
:100480001B78DBB25BB2002B3CDA7B685A68FB7AE4
:100490009A40FB685A60FB7ADB08DBB21846FB7AAD
:1004A000DB08DBB21A46FB68103253F82220FB7AD5
:1004B00003F007039B00194607238B40DB4302EA46
:1004C0000301FB6800F1100243F82210FB7ADB08FD
:1004D000DBB21846FB7ADB08DBB21A46FB68103247
:1004E00053F822207B681B7A1946FB7A03F0070336
:1004F0009B0001FA03F342EA0301FB6800F11002DA
:1005000043F82210FB7A9B08DBB21846FB7A9B0863
:10051000DBB21A46FB68043253F822207B681B7852
:100520001946FB7A03F00303DB0001FA03F342EA06
:100530000301FB68021D43F822101437BD465DF825
:10054000047B7047008E0248008F024880B400AFE1
:10055000034B1B681846BD465DF8047B704700BF1F
:10056000C0FF032080B400AF034BD3F8C43018465B
:10057000BD465DF8047B70470040005080B584B0F4
:1005800000AF7860FFF7D2FE0B4B1B680B4AA2FB53
:1005900003239A0C7B6802FB03F37B600023FB6060
:1005A00003E000BFFB680133FB60FA687B689A4296
:1005B000F7D31037BD4680BDC0FF032083DE1B4349
:1005C00080B400AF034B5B681846BD465DF8047B02
:1005D000704700BF7440005080B483B000AF7860B3
:1005E000034A7B68D3600C37BD465DF8047B7047D7
:1005F00074400050B0B584B002AF7860002000F0C5
:10060000A1F800F083FA7B68DB79002B0AD000F0B8
:10061000BBFA00BF00F0A6FA034683F00103DBB289
:10062000002BF7D17B685B7A184600F005F900BF14
:10063000FFF798FF0346002BFAD17B681B7A184618
:1006400000F03EFA7B681B7C184600F013F97B68CB
:100650005B7C184600F036F97B689B7C184600F0FE
:100660001DF97B68DB7C184600F040F97B689B79BC
:10067000002B0AD000F0C0FA00BF00F0E5FA0346F4
:1006800083F00103DBB2002BF7D17B68DB78002B12
:1006900009D17B689B7983F00103DBB2002B17D073
:1006A00000F0F6FA14E000F0E3FA7B6899887B68C2
:1006B000DA787B685B781D467B681B781C467B6814
:1006C0009B780093084611462A46234600F0F0FA2C
:1006D0007B68DB68B3F5803F03D14FF4803000F0D6
:1006E00031F8FFF723FE0837BD46B0BD80B485B0B2
:1006F00000AF78607B681B0FFB607B6823F0704362
:10070000BB60FA6813465B0013449B001A46044B17
:100710001344BA681A601437BD465DF8047B70470D
:100720001444005080B500AFFFF710FF0246044BA1
:100730005B6903F0010322FA03F3184680BD00BF92
:100740000046005080B483B000AF78600649064B85
:10075000DB6823F480327B681343CB600C37BD46E3
:100760005DF8047B704700BF0046005080B483B042
:1007700000AF78600649064B9B6923F480327B68A2
:1007800013438B610C37BD465DF8047B704700BF97
:100790000046005080B483B000AF78600649064B35
:1007A0005B6A23F440327B6813434B620C37BD46CF
:1007B0005DF8047B704700BF0046005080B483B0F2
:1007C00000AF0346FB80FB88002B08D10A4A0A4B86
:1007D000DB6823F4807323F00103D36007E0064A4B
:1007E000054BDB6843F4807343F00103D3600C379F
:1007F000BD465DF8047B70471047005080B483B05D
:1008000000AF0346FB7100BF094BD3F8C43003F0BF
:100810000803002BF8D10749064BDB6823F04002A0
:10082000FB791343CB600C37BD465DF8047B704702
:10083000004000500043005080B483B000AF034636
:10084000FB7100BF094BD3F8C43003F00803002B41
:10085000F8D10749064BDB6823F08002FB7913438C
:10086000CB600C37BD465DF8047B704700400050FC
:100870000043005080B483B000AF78600649064B57
:10088000DB6823F0FF027B68013B1343CB600C372E
:10089000BD465DF8047B70470046005080B483B0CD
:1008A00000AF78600649064B1B6A23F001027B68A3
:1008B000013B13430B620C37BD465DF8047B704768
:1008C0000046005080B483B000AF78600649064B04
:1008D0001B6923F001027B68013B13430B610C375A
:1008E000BD465DF8047B70470046005080B483B07D
:1008F00000AF78600649064B5B6923F001027B6814
:10090000013B13434B610C37BD465DF8047B7047D8
:100910000046005080B483B000AF78600649064BB3
:100920009B6923F007027B68013B13438B610C3703
:10093000BD465DF8047B70470046005080B483B02C
:1009400000AF78600649064BDB6923F03F027B6805
:10095000013B1343CB610C37BD465DF8047B704708
:100960000046005080B483B000AF78600649064B63
:100970005B6A23F0FF027B68013B13434B620C3739
:10098000BD465DF8047B70470046005080B483B0DC
:1009900000AF78600649064B9B6B23F003027B682F
:1009A000013B13438B630C37BD465DF8047B7047F6
:1009B0000046005080B485B000AF78607B681B0FA4
:1009C000FB607B6823F07043BB60FA6813465B00F2
:1009D00013449B001A46044B1344BA681A60143738
:1009E000BD465DF8047B70474846005080B400AFB8
:1009F000054A054B5B6923F4803323F002035361FE
:100A0000BD465DF8047B70471047005080B483B04A
:100A100000AF78603960284A274B5B6943F00103D7
:100A2000536100BF244B1B6903F00103002BF9D075
:100A3000214A214B5B6943F0100353611E493B6817
:100A4000013B1A027B68013B1B0613434B611A4AA8
:100A5000194B5B6943F040035361174A164B5B69BE
:100A600023F010035361144A134B5B6943F4802352
:100A7000536100BF104B1B6903F00403002BF9D036
:100A80000D4A0D4B5B6923F00103536100BF0A4B14
:100A90001B6903F00103002BF9D1074A064B5B6980
:100AA00023F040035361054B0822DA600C37BD4642
:100AB0005DF8047B704700BF104700506041005054
:100AC00080B582B000AF0346FB710F4A0E4B5B68E6
:100AD00043F480135360FB79012B0ED10A4A0A4B71
:100AE0005B6823F4801353606420FFF747FD064AD8
:100AF000054B5B6843F4002353606420FFF73EFD21
:100B00000837BD4680BD00BF1047005080B400AF1D
:100B1000124B1B6803F00103002B09D10F4B01227C
:100B20005A6000BF0D4B1B6803F00103002BF9D086
:100B30000B4B1B6803F40073002B0AD0084B4FF4D7
:100B400000729A6000BF064B1B6803F40073002B11
:100B5000F9D1BD465DF8047B704700BF00420050EC
:100B60000044005080B400AF064B1B6803F008033C
:100B7000002B0CBF01230023DBB21846BD465DF8F5
:100B8000047B70470043005080B500AF4FF4000075
:100B9000FFF722FD174A174BDB6923F03003D361BF
:100BA00000BFFFF70DFD034603F40003002BF8D050
:100BB0004FF40030FFF710FD0E4B08225A6000BFC3
:100BC000FFF7FEFC034603F40033002BF8D04FF48C
:100BD0000020FFF701FD074A064BDB6843F00803DE
:100BE000D36000BFFFF7ECFC034603F40023002BA7
:100BF000F8D080BD00430050B0B500AF0F4A0F4B96
:100C00005B6823F4803353600D4D0D4B5B6823F418
:100C1000702424F0300400F04BFE0246094BA3FB85
:100C200002231B0D013B1B0423436B60034A034B50
:100C30005B6823F400335360B0BD00BF1047005021
:100C4000004700506BCA5F6B80B400AF074B1B6856
:100C500003F46073B3F5607F0CBF01230023DBB2A4
:100C60001846BD465DF8047B704700BF1047005032
:100C700080B400AF054A054B5B6823F4803323F052
:100C800002035360BD465DF8047B70471047005077
:100C900080B400AF054A054B5B6843F4803343F0F2
:100CA00002035360BD465DF8047B70471047005057
:100CB00080B586B000AFBA607B600346FB810B460F
:100CC0007B73FB891846FFF779FD7B7B012B40F096
:100CD0008B80FB89002B09D100F0EAFD0246544BC2
:100CE000A3FB02239B0C9B057B6102E04FF0C063DA
:100CF0007B617B697A6802FB03F2BB68B2FBF3F3AA
:100D00007B617B694B4AA2FB03231B099B0D3B6163
:100D1000494A494B5B6843F00103536000BF464BAF
:100D20001B6803F00103002BF9D0434A424B5B6878
:100D300043F01003536040493F4B9A683F4B1340C8
:100D40007A68013A12021A433B69013B1B041A43B9
:100D5000BB68013B1B0613438B60374A364B5B680D
:100D600043F040035360344A334B5B6823F0100375
:100D70005360314A304B5B6843F48023536000BFBB
:100D80002D4B1B6803F00403002BF9D02A4A2A4B91
:100D90005B6823F00103536000BF274B1B6803F01F
:100DA0000103002BF9D17B69254AA2FB03235B09D0
:100DB0009B0D3B613A6A3B699A4202D2386900F066
:100DC00045F87B695B081F4AA2FB03235B099B0D67
:100DD0003B613A6A3B699A4202D2386900F036F8C0
:100DE000386A00F033F81CE01349134B9B6823F07A
:100DF0007F023B6A013B13438B6000BF0E4B1B68B5
:100E000003F01003002BF9D00B4A0B4B5B6843F047
:100E10000103536000BF084B1B6803F00103002B64
:100E2000F9D0094B0522DA601837BD4680BD00BFF6
:100E300083DE1B43ABAAAAAA10470050FF8080F0B4
:100E400089888888B7600BB66041005080B582B051
:100E500000AF78600B490B4B9B6823F4FE027B6864
:100E6000013B1B0413438B6000BF064B1B6803F060
:100E70002003002BF9D03220FFF780FB0837BD4656
:100E800080BD00BF1047005080B483B000AF7860D1
:100E90007B68D3F8C43103F44073002B0CBF0123EB
:100EA0000023DBB218460C37BD465DF8047B704763
:100EB00080B483B000AF7860084611461A460346F6
:100EC000FB700B46BB7013467B70FA78BB781B0433
:100ED00003F47F031A437B781B061A437B68C3F82D
:100EE000C4210C37BD465DF8047B704780B483B0E5
:100EF00000AF78607B681B6843F040027B681A6033
:100F00000C37BD465DF8047B704700BF80B483B0EA
:100F100000AF78607B681B6823F040027B681A6032
:100F20000C37BD465DF8047B704700BF80B483B0CA
:100F300000AF786039603A687B68934238BF1346E7
:100F400018460C37BD465DF8047B704780B483B00B
:100F500000AF786039603A687B68934228BF1346D7
:100F600018460C37BD465DF8047B704780B588B0E5
:100F700000AF786039603B681B683A685268B3FB21
:100F8000F2F102FB01F29B1A002B40F0908000234B
:100F9000FB610023BB613B681A683B685B68B2FB7E
:100FA000F3F3BB6019237B6100233B610023FB60EB
:100FB0004BE0BB687A69B3FBF2F2796901FB02F29C
:100FC0009B1A002B3ED10023BB61BA687B69B2FB40
:100FD000F3F3FB61FB69002B34D0FB69B3F5007FB1
:100FE00030D8FB693F2B0AD9FB6903F00703002BBC
:100FF00003D07B69013B7B6127E00123BB617B69F7
:10100000013B3A68128902FB03F32B4AA2FB03233C
:101010005B0B3B617A693B69D31A013BFB603B691F
:10102000022B0FD93B690F2B0CD8FB68012B09D978
:10103000FB68062B06D83B685B891A46FB689A4218
:1010400000D805E07B69013B7B617B69072BB0D849
:101050007B69072B2BD97868FFF748FFFB68013BBA
:101060001B0303F4E0423B685B89013B9B01DBB25D
:101070001A433B69013B1B0203F4706342EA03011C
:10108000BA6913465B0013441A46FB69D340013B1F
:1010900003F03F0341EA0302BB69DB039BB21A433F
:1010A0007B681A617868FFF731FF002300E00123B5
:1010B00018462037BD4680BD5917B7D180B590B0CE
:1010C00000AF786039600C23FB630C23BB63002303
:1010D0007B6301233B6300237B610023FB6242F2BD
:1010E0001073BB620123FB6367E03B681A68134619
:1010F0009B0013445B001A46FB6BB2FBF3F33B61AE
:101100003B685B683A69B2FBF3F37B62796A5B4BDD
:10111000A3FB0123DA0813469B0013445B00CA1AA1
:10112000052A09D97B6A554AA2FB0323DB087B62A7
:101130007B6A01337B6205E07B6A504AA2FB032392
:10114000DB087B627B6A002B0AD07A6A13469B001D
:1011500013445B001A463B69B3FBF2F33B6207E0C2
:101160003B69464AA2FB0323DB083B6201237B6207
:101170003B685A683B6A9A4205D83B685B683A6AA2
:10118000D31AFB6104E03B685A683B6AD31AFB61DF
:101190007B6A142B0ED8BA6AFB699A420AD9FB6B98
:1011A0007B637B6AFB62FB69BB62FB69B3F57A7F99
:1011B00000D205E0FB6B0133FB63FB6B402B94D942
:1011C00042F21073BB624023BB632EE0BB6B013362
:1011D00042F2107202FB03F2FB6AB2FBF3F3FB6014
:1011E0003B681B891A46FB689A4206D83B681B89F4
:1011F0001A46FB689B1ABB6105E03B681B891A46CF
:10120000FB68D31ABB61BA6ABB699A4203D9BB6B4C
:101210003B63BB69BB623B681B891A46FB689A4209
:1012200000D905E0BB6B013BBB63BB6B022BCDD888
:10123000FA6A3B6BD31A013B7B617868FFF756FE75
:101240007B69013B1B0303F4E0423B685B89013B84
:101250009B01DBB21A433B6B013B1B0203F470633F
:101260001A437B6B013B03F03F031A437B681A610F
:101270007868FFF74BFE4037BD4680BDCDCCCCCC67
:1012800080B582B000AF78600B46FB701346BB7030
:1012900000BF7868FFF7F8FD034683F00103DBB277
:1012A000002BF6D1FB780133DBB2BA7878680221E3
:1012B000FFF7FEFD0837BD4680BD00BF80B582B098
:1012C00000AF78600A48FFF775FB0948FFF70EFA90
:1012D0007B681B6823F001027B681A6000BF7B6893
:1012E0001B6803F00203002BF9D10837BD4680BD0F
:1012F0001000001080B483B000AF78600B46FB7024
:101300007B68D3F8C83123F00F02FB781A437B685F
:10131000C3F8C8210C37BD465DF8047B704700BF99
:1013200080B483B000AF78607B68D3F8C831DBB29B
:1013300003F00F03DBB218460C37BD465DF8047BA3
:10134000704700BF80B584B000AF78600023FB60B9
:101350007868FFF7E5FF0346012B02D0022B04D08B
:1013600007E0FFF7DFF9F86003E000F0A1FAF860AA
:1013700000BFFB6818461037BD4680BD80B588B0F9
:1013800000AFF8600B467A60FB72F868FFF796FFD3
:10139000FB7AF8681946FFF7ADFFF868FFF7D2FF50
:1013A000F861FA697B68B2FBF3F3C3F58063002050
:1013B0001946FFF7BBFD0346184640F2FF31FFF721
:1013C000C5FDB861BB69C3F58063FA69B2FBF3F38D
:1013D0007B61FB68DB6823F4434323F0FF03FA6877
:1013E000D360FB68DA68BB69134343F48042FB684F
:1013F000DA607B6918462037BD4680BD80B586B06F
:1014000000AF78607B681B6803F13843A3F5A8330D
:101410005B097B617B695B095A037B6903F01F03EE
:101420001B0213433B617B681B687A6812689268F1
:1014300022F47F429A607B681B687A681268916820
:101440003A690A439A607B68DB7903F02003DBB2D8
:10145000002B07D07B68DB7903F02003DBB2002B85
:1014600000D160E07B681B7E002B04D07B681B7E74
:10147000012B00D057E07B681B682022DA617B6873
:10148000DB7903F02003DBB2002B28D17B685B689B
:10149000FB60FB6803F06043FB607B685B68C3F341
:1014A0001C039B041A46FB681343FB607B681B68A4
:1014B000FA689A617B689B68FB60FB6803F0604395
:1014C000FB607B689B68C3F31C039B041A46FB68A4
:1014D0001343FB607B681B68FA68DA6009E07B688D
:1014E0001B687A6852689A617B681B687A689268A0
:1014F000DA607B681B7E012B0CD1786800F01AF84B
:101500007B681B684FF00062DA617B681B68074AE2
:10151000DA6108E07B681B684FF40062DA617B687F
:101520001B68034ADA611837BD4680BDC00020063B
:101530004006A00080B485B000AF78600323FB7341
:101540007B681B7E012B22D17B681B682022DA611D
:101550007B681B687A681268126822F070617A688A
:10156000127B120602F070620A431A607B681B68E5
:101570007A6812691A617B681B687A6852695A61D5
:101580007B681B68064ADA610023FB7301E00323D2
:10159000FB73FB7B18461437BD465DF8047B704730
:1015A0004000280080B487B000AF78600123FB754D
:1015B0007B681B68DB6903F020035B093B617B6888
:1015C0001B68DB6903F480731B0AFB603B69002B1B
:1015D00002D10423FB750CE0FB68012B02D102232E
:1015E000FB7506E07B681B684FF0E062DA61002360
:1015F000FB75FB7D18461C37BD465DF8047B7047C4
:1016000080B487B000AF78600123FB750023BB7501
:1016100000237B757B681B68DB6903F40063DB0ACE
:101620003B617B681B68DB6903F004039B08FB607C
:101630003B69002B02D00323FB75A7E0FB68012B5D
:1016400002D10223FB75A1E07B681B680822DA61E6
:101650007B681B689B6903F000535B0F002B40D134
:101660007A68D3796FF34513D3717B681B689A69E5
:101670004A4B13409B0C23F060417A68536861F336
:101680001C0353607B681B68DB6803F000535B0F2F
:10169000DBB203F00103D9B27A68D37A61F3451360
:1016A000D3727B68DB7A03F02003DBB2002B0DD012
:1016B0007B681B68DA68394B13409B0C23F0604150
:1016C0007A68936861F31C03936032E07B681B685F
:1016D000DB6823F060417A68936861F31C039360D0
:1016E00027E07A68D37943F02003D3717B681B68C5
:1016F0009B6923F060417A68536861F31C0353606F
:101700007B681B68DB6823F060417A68936861F34B
:101710001C0393607B681B68DB6803F000535B0F5E
:10172000DBB203F00103D9B27A68D37A61F34513CF
:10173000D3727B681B681B6803F070631B0EDAB200
:101740007B681A737B681B681A697B681A617B68FF
:101750001B685A697B685A617B681B68DB6903F008
:1017600004039B08BB757B681B68DB6903F00803F7
:10177000DB087B75BB7D002B03D07B7D002B7FF4CA
:1017800063AF7B6800221A760023FB75FB7D184649
:101790001C37BD465DF8047B704700BF0000FC1F8E
:1017A00080B483B000AF786039603B68B3F5800FD8
:1017B00006D07B681A683B681A437B681A6005E0AC
:1017C0007B689A693B681A437B689A610C37BD460F
:1017D0005DF8047B704700BF80B584B000AF7860CF
:1017E000144B1B68002B02D1124B134A1A60114B89
:1017F0001B68FB607B68033323F003037B600D4BA6
:101800001A687B6813440D4A934207D2094B1A6841
:101810007B681344074A1360FB6806E000F070FD24
:1018200002460C2313604FF0FF3318461037BD46B5
:1018300080BD00BFBC88FE1F00000020C0FF032049
:1018400080B400AFBD465DF8047B704780B584B0BE
:1018500000AF78600023FB737B685B7A83F0010341
:10186000DBB2002B0FD07B6859687B681A7A7B68E3
:101870001B68084611461A46FFF780FD7B68012267
:101880005A720023FB73FB7B18461037BD4680BDA0
:1018900080B485B000AF78600023FB737B680122C1
:1018A0001A70FB7B18461437BD465DF8047B704701
:1018B00080B400AF024B1846BD465DF8047B70470C
:1018C000001BB70080B483B000AF78600649064BB8
:1018D0009B6B23F480327B6813438B630C37BD46CC
:1018E0005DF8047B704700BF00460050B0B586B07D
:1018F00000AF164B3C1D1D460FCD0FC42B68236057
:101900003B1D1846FEF776FE0020FEF777FF4FF4EA
:101910008030FEF72BFF0620FEF7FCFFFFF766F88E
:1019200003206421FFF772F80020FFF7CBFF0220AD
:10193000FFF72CF80020FEF72DFF0120FFF712F82B
:101940000120FEF7FBFF1837BD46B0BD403300084D
:1019500080B485B000AFF8600B467A60FB72FB681C
:101960009A68FB7A072101FA03F3DB431A40FB7AFA
:10197000796801FA03F31A43FB689A601437BD468D
:101980005DF8047B704700BF80B483B000AF78601F
:101990000B46FB707B68DB6823F00702FB7803F0E3
:1019A00007031A437B68DA600C37BD465DF8047B99
:1019B000704700BF80B483B000AF78607B68DB689D
:1019C00043F480727B68DA600C37BD465DF8047BB7
:1019D000704700BF80B483B000AF78607B685B68FD
:1019E00018460C37BD465DF8047B704780B483B061
:1019F00000AF78607B681B6843F040027B681A6028
:101A00000C37BD465DF8047B704700BF80B483B0DF
:101A100000AF78607B681B6823F040027B681A6027
:101A20000C37BD465DF8047B704700BF80B483B0BF
:101A300000AF78607B681B6843F001027B681A6026
:101A40000C37BD465DF8047B704700BF80B483B09F
:101A500000AF78607B681B6823F001027B681A6026
:101A60000C37BD465DF8047B704700BF80B483B07F
:101A700000AF78607B681B6823F080027B681A6087
:101A80000C37BD465DF8047B704700BF80B485B05D
:101A900000AFF8600B467A60FB72FB681B68FA685F
:101AA00012689168FA7A072000FA02F2D2431140D4
:101AB000FA7A786800FA02F20A439A601437BD464F
:101AC0005DF8047B704700BF80B483B000AF7860DE
:101AD00039607B681B687A68126811683A680A4343
:101AE0001A600C37BD465DF8047B704780B582B044
:101AF00000AF78607B681B6818464FF40031FFF731
:101B0000E3FF0837BD4680BD80B582B000AF786086
:101B10007B681B6818464FF48031FFF7D5FF083704
:101B2000BD4680BD80B584B000AF78600023FB6007
:101B3000786800F031F87B6893F8A430002B03D06C
:101B4000FB6843F00203FB607B6893F8A330002B33
:101B500003D0FB6843F00403FB607B6893F8A53077
:101B6000002B03D0FB6843F00803FB607B685B68D5
:101B70001846F968FFF714FE7B6893F8A630002B2F
:101B800006D07B685B6818464FF48001FFF708FEBB
:101B90001037BD4680BD00BF80B582B000AF786011
:101BA0007B685A687B68D3F88C301B78104600211C
:101BB0001A46FFF7CDFE7B685A687B68D3F88C30F5
:101BC0005B78104604211A46FFF7C2FE7B685A680C
:101BD0007B68D3F88C309B78104608211A46FFF7B3
:101BE000B7FE7B685A687B68D3F88C30DB78104688
:101BF0000C211A46FFF7ACFE0837BD4680BD00BF7A
:101C000080B586B000AFF860B96011461A460B4641
:101C1000FB8013467B71FB685B687B61FB689B689C
:101C20003B613B69BA685A60FB881A4692001344CC
:101C30001A4691001A460B4613449B009AB23B6920
:101C40001A817B799AB23B695A8178693969FFF7C1
:101C500035FA1837BD4680BD80B582B000AF7860D8
:101C60007B681B681846FFF7C9FB7B68DB79002B94
:101C70000BD07B681A687B685B79104604211A4692
:101C8000FFF704FF7868FFF731FF7B681B7A002BB2
:101C90000BD07B681A687B689B79104600211A4636
:101CA000FFF7F4FE7868FFF72FFF0837BD4680BDC9
:101CB00080B584B000AF78600023FB737B681B683D
:101CC0001846FFF76FFC0346FB73FB7B1846103783
:101CD000BD4680BD80B584B000AF78600023FB7343
:101CE0007B681B681846FFF78BFC0346FB73FB7B86
:101CF00018461037BD4680BD80B584B000AF78600F
:101D000039600023FB733B68BB607B681B68BA6863
:101D100012681A617B681B68BA6852685A617B68EE
:101D20001B681846FFF706FC0346FB73FB7B18464F
:101D30001037BD4680BD00BF80B584B000AF78606D
:101D40007B685B68FB60F868FFF744FEB860BB68BF
:101D500018461037BD4680BD80B586B000AF7860AC
:101D60000023FB757B68D3F89030FB607B681B68B1
:101D70001846FFF76BFD0346FB75FB7D002B40F01B
:101D800087807B685A687B689B6810461946FFF716
:101D9000EDF80346002B78D17B685B681846FFF7A7
:101DA00025FE7B685B681846FFF740FE7B685B6832
:101DB0001846FFF75BFE7B6893F8A730002B05D031
:101DC0007B685B681846FFF7F5FD18E07B68D3F881
:101DD000983019687B68D3F898301A797B68D3F803
:101DE0009C30084611461A46FEF70AFB7B685A6883
:101DF0007B6893F8A03010461946FFF7C5FD786858
:101E0000FFF790FE00233B6119E07A683B690233DB
:101E10009B0013445B68BB607B681B6859687B68E8
:101E200093F8A120BB681B79084611461A46FFF7B4
:101E300027FAB868FFF710FF3B6901333B617B6805
:101E400093F8A2301A463B699A42DED87B685B68F9
:101E50001846FFF7DBFD7B685B681846FFF7F6FD69
:101E60007B6893F8A73083F00103DBB2002B11D01D
:101E7000FB681968FB681A797B68D3F894300846C8
:101E800011461A46FEF7BCFA04E00123FB7501E097
:101E90000123FB75FB7D18461837BD4680BD00BF8A
:101EA00080B582B000AF0023FB710948FFF7F0FC5A
:101EB0000346FB71FB79002B04D10648FFF74CFF6A
:101EC0000346FB71FB7918460837BD4680BD00BF4D
:101ED000C088FE1FA433000880B483B000AF7860D0
:101EE0007B685B69DBB218460C37BD465DF8047B46
:101EF000704700BF80B483B000AF78607B681B6818
:101F000043F001027B681A600C37BD465DF8047B24
:101F1000704700BF80B483B000AF78607B681B68F7
:101F200023F001027B681A600C37BD465DF8047B24
:101F3000704700BF80B582B000AF78607B681B68D7
:101F400023F010027B681A607868FFF7E3FF083718
:101F5000BD4680BD80B582B000AF78607B685B68AD
:101F60001846FFF7E7FF0837BD4680BD80B586B04D
:101F700000AFF8600B467A607B812A4B7B617B69FE
:101F8000DB681B683B617869FFF7E4FF7B695B688E
:101F90001846FFF7AFFF244B1968244B1A88244BCF
:101FA0001B787869FFF72CFE7B695B681846FFF7A2
:101FB000B1FF204AFB6813603B6901221A763A6937
:101FC000D3796FF34513D3717B68DAB23B691A7327
:101FD0007A8922F0604239694B6862F31C034B60D6
:101FE0003A69936840F2FF7161F31C0393603A69A8
:101FF000D379022161F38713D3717B69DB681846BB
:10200000FFF72AFE7B69DA680A4B1B6810461946FF
:10201000FFF772FE7B69DB681846FFF749FE183749
:10202000BD4680BDA43300085088FE1F5488FE1FA3
:102030005688FE1FE088FE1F80B584B000AF314B8C
:10204000BB60BB681B691B687B60B868FFF782FFD9
:10205000BB685B681846FFF74DFF2B4B19682B4B8D
:102060001A882B4B1B78B868FFF7CAFDBB685B6802
:102070001846FFF74FFFBB681B691846FFF72AFE9B
:102080007B6800221A767A68D3796FF34513D3718F
:102090007B6808221A737B685B68C3F31C031A46CB
:1020A0001C4B1A601B4B1B6823F060417A68536815
:1020B00061F31C0353607A6893686FF31C039360A9
:1020C0007A68D379022161F38713D371BB681B69E6
:1020D0001846FFF7C1FD0023FB600CE07A68FB683F
:1020E0001344103319780C4AFB6813440A461A70DB
:1020F000FB680133FB60FB68072BEFDD1037BD4643
:1021000080BD00BFA43300085088FE1F5488FE1F06
:102110005688FE1FD488FE1FD888FE1F0FB480B5D6
:10212000C2B000AF07F58A723B1D1A6007F10802C2
:102130003B1D10464FF48071D7F810211B6800F04A
:10214000AFF907F58477BD46BDE8804004B070471D
:1021500080B586B000AFFFF7A3FE0346FB73524A7B
:102160003B1D1068516803C3FB7B002B00D0FEE7CA
:102170003B1D184664210822FFF7F8FEFFF75CFFBD
:1021800000237B6102E07B6901337B617B69474A05
:102190009342F8DD4648FFF79FFE0346BB73444871
:1021A000FFF7CAFD4348FFF7B9FF20233B6177E003
:1021B00001223B6902FA03F31A463F4B1B681340A6
:1021C0003E4A13603D4B1B68072B3BD0072B0DD8B5
:1021D000032B27D0032B04D8012B1BD0022B1DD09F
:1021E00050E0052B26D0052B28D81FE0402B39D0F6
:1021F000402B06D8102B2DD0202B2FD0082B25D0EC
:1022000040E0B3F5807F35D0B3F5007F36D0802B2A
:102210002CD037E02A4800F011F933E02948FFF7C5
:102220007DFF2FE02848FFF779FF2BE02748FFF7D5
:1022300075FF27E02648FFF771FF23E02548FFF7E9
:102240006DFF1FE02448FFF769FF1BE02348FFF7FD
:1022500065FF17E02248FFF761FF13E02148FFF711
:102260005DFF0FE02048FFF759FF0BE01F48FFF725
:1022700055FF07E01E48FFF751FF03E01D48FFF739
:102280004DFF00BF0C4B1B681B481946FFF746FF6C
:10229000BB7B1A481946FFF741FF3B69013B3B6195
:1022A0003B69002B84DA63E70C3600089FBB0D0006
:1022B000A43300084C340008D088FE1FCC88FE1FD1
:1022C000583400087C340008A0340008C4340008E6
:1022D000E83400080C350008303500084C3500089B
:1022E0005C3500086C350008843500089835000816
:1022F000A8350008C4350008E0350008F4350008AA
:10230000014B1868704700BFB888FE1F70B50E4BB0
:102310000E4CE41AA41000251E46A54204D056F81F
:10232000253098470135F8E7FFF78AFA084C094B42
:10233000E41AA41000251E46A54204D056F8253004
:1023400098470135F8E770BDBC88FE1FBC88FE1FAA
:10235000BC88FE1FBC88FE1F10B5431E0A44914274
:1023600004D011F8014B03F8014FF8E710BD024407
:102370000346934202D003F8011BFAE7704770B599
:102380000E46054618B183690BB900F047FAAC68F0
:10239000A389190701D5236983B92846214600F08E
:1023A000E3F858B14FF0FF3070BD002B0EDB23680F
:1023B00016F8012C1A70236801332360A36816F8FD
:1023C000012B013BA360002AEFD116E0A2699342E2
:1023D00009DB236816F8012C1A70236819780A297A
:1023E000EAD1284602E016F8011C2846224600F0F1
:1023F00067F8421C50425041D3E7002B15DAA2691E
:10240000934208DB23680A221A70236819789142E4
:102410000FD1284601E028460A21224600F050F854
:10242000431C5842584130B1BCE723680A221A7055
:102430002368013323600A2070BD0000024B01466F
:102440001868FFF79CBF00BFB888FE1F30B5141E88
:102450009BB0054604DA8B2303604FF0FF301CE08D
:102460004FF40272ADF80C2014BF04F1FF32224683
:10247000029205924FF6FF7200910491ADF80E2082
:1024800069461A461E9B00F093FB431CBCBF8B237E
:102490002B6014B1009B00221A701BB030BD0000ED
:1024A00073B50093054B06460D4614461868314631
:1024B0002A462346FFF7CAFF02B070BDB888FE1F48
:1024C00070B50D461446064618B183690BB900F085
:1024D000A5F9224B9C4201D1746808E0204B9C4234
:1024E00001D1B46803E01F4B9C4208BFF468A369A4
:1024F000A360A3891A0709D523693BB12368206922
:10250000181A63699842EDB20FDB08E030462146A5
:1025100000F02AF80028F1D04FF0FF3070BD3046AF
:10252000214600F011F90028F6D1A368013BA36011
:1025300023685A1C22601D7063690130984204D0E0
:10254000A389DB0707D50A2D05D13046214600F0C7
:10255000FBF80028E0D1284670BD00BF1C360008FB
:102560003C3600085C360008314B70B51D680646E5
:102570000C4625B1AB6913B9284600F04FF92D4B35
:102580009C4201D16C6808E02B4B9C4201D1AC68A5
:1025900003E02A4B9C4208BFEC68A3899AB211075A
:1025A0001DD4D50602D40922326038E0500712D576
:1025B000616B41B104F14403994202D0304600F00E
:1025C00003FA00236363A38923F02403A381002378
:1025D000636023692360A38943F00803A38123690F
:1025E0004BB9A38903F42073B3F5007F03D03046C1
:1025F000214600F09BF9A38913F0010205D00022C7
:10260000A26062695242A26103E0990758BF626901
:10261000A26022694AB903F0800080B230B143F071
:102620004003A3814FF0FF3070BD002070BD00BF9C
:10263000B888FE1F1C3600083C3600085C360008CF
:102640008A892DE9F041054610070C4657D44B689E
:10265000002B02DC0B6C002B18DDE66AB6B102F42D
:102660008052002392B22F682B600AB1626D10E095
:10267000216A28460123B047411C024609D12B6834
:102680003BB11D2B01D0162B47D12F600020BDE898
:10269000F081A3895B0705D56368D21A636B0BB120
:1026A000236CD21AE66A216A00232846B047461CEA
:1026B000A38905D12A681AB11D2A01D0162A19D179
:1026C00000226260D9042269226004D5421C01D133
:1026D0002B6803B96065616B2F600029D6D004F1C7
:1026E0004403994202D0284600F06EF9002060634E
:1026F000BDE8F08143F04003A381BDE8F0810F699C
:10270000002FC3D093070E6808BF4B690F6018BF36
:102710000023C7EB06088B6012E0A38943F0400357
:10272000A3814FF0FF30BDE8F0812846216AA66AF8
:102730003A464346B0470028EFDD0744C0EB08089F
:10274000B8F1000FF1DCA1E738B50B6905460C467E
:10275000DBB118B183690BB900F060F80C4B9C42F7
:1027600001D16C6808E00B4B9C4201D1AC6803E0DE
:10277000094B9C4208BFEC68B4F90C302BB12846D9
:102780002146BDE83840FFF75BBF002038BD00BFE1
:102790001C3600083C3600085C360008014900F091
:1027A000A7B800BF49270008002310B504460360FE
:1027B0004360836081814366C281036143618361B9
:1027C00019465C300822FFF7D2FD054B6362054BCA
:1027D000A362054BE362054B2462236310BD00BF77
:1027E000D5300008F73000082F31000853310008B9
:1027F00070B568234D1E5D430E4605F1740100F06F
:1028000027F9044640B1002180E842000C30A06066
:1028100005F16802FFF7ABFD204670BD836910B576
:10282000044633BB8364C3640365124B124A1B68BE
:102830008262984204BF0123836100F01FF8606048
:10284000204600F01BF8A060204600F017F8042195
:10285000E06000226068FFF7A7FFA068092101225D
:10286000FFF7A2FFE06812210222FFF79DFF01237C
:10287000A36110BD183600089D270008F8B51B4B52
:102880001E68B369074613B93046FFF7C7FF4836DD
:10289000B4687368013B04D4B4F90C5075B1683462
:1028A000F8E733682BB938460421FFF7A1FF306001
:1028B00008B13668ECE70C233B60F8BD4FF6FF73B8
:1028C000E3810123A38165662560A56065602561BC
:1028D0006561A56104F15C0029460822FFF747FD08
:1028E0006563A563A564E5642046F8BD1836000855
:1028F0002DE9F8438046894600F14804002694B14A
:10290000A5686768013F0CD4AB89012B07D9B5F9DD
:102910000E30013303D040462946C8470643683588
:10292000F0E72468EBE73046BDE8F883F0B58B8923
:102930009D0791B006460C4626D4B1F90E10002929
:1029400009DAA38913F0800F4FF0000514BF402768
:102950004FF480670DE001AA00F022FC0028F0DBB4
:10296000029D05F47045A5F500514D424D414FF4CF
:1029700080673046394600F06BF860B9A3899A0544
:102980001DD443F00203A38104F1470323602361B4
:102990000123636113E00B4BB362A389206043F012
:1029A0008003A381206167614DB13046B4F90E10F8
:1029B00000F008FC18B1A38943F00103A38111B012
:1029C000F0BD00BF9D27000830B500293DD051F86B
:1029D000042C0B1F1D49002AB8BF9B180A680C461F
:1029E00012B95A600B6030BD93420DD21968581865
:1029F000904201BF5A5852181A6042685A602360C8
:102A000030BD994203D80A4651680029F9D11468AB
:102A100015199D420AD11B682344D01888421360BF
:102A200013D10868034413604B680DE002D90C23EE
:102A3000036030BD1C681819884204BF08684968E3
:102A4000596004BF00191860536030BDC888FE1F6C
:102A500070B5CC1C24F0030408340C2C38BF0C24B3
:102A6000002C064603DA0C233360002070BD8C4234
:102A7000F9D3204A136810461946A1B10A68121BFF
:102A80000ED40B2A03D90A608B188C501FE08B429E
:102A90000DBF5A684A685A60026018BF0B4616E0BC
:102AA0000B464968E9E7144D2B681BB9304600F026
:102AB00001FB28603046214600F0FCFA421C034628
:102AC000D1D0C51C25F0030585420AD11C6003F155
:102AD0000B001A1D20F00700821A0AD051429950AB
:102AE00070BD3046E91A00F0E5FA0130BBD02B4644
:102AF000ECE770BDC888FE1FC488FE1F2DE9F047B3
:102B00008E68B34282460C469046994640D38A89E5
:102B100012F4906F3AD0256809696F1A656902232B
:102B200005EB450595FBF3F57B1C4B449D4238BFF7
:102B30001D4653050FD52946FFF78AFF064698B173
:102B400021693A46FFF708FCA38923F4906343F018
:102B50008003A38113E02A4600F080FB064670B98B
:102B600050462169FFF730FF0C23CAF80030A389D3
:102B700043F04003A3814FF0FF30BDE8F0872661AA
:102B800065613E44ED1B2660A5604E46B14500D20E
:102B90004E4632462068414600F045FBA3689B1B29
:102BA000A36023681E4426600020BDE8F087000073
:102BB0002DE9F0439DB0064603938B891C060D4614
:102BC00090460CD50B6953B94021FFF741FF2860AF
:102BD000286110B90C233360CCE040236B610023E3
:102BE000099320238DF8293030238DF82A3043466D
:102BF0001C4613F8012B1AB9B4EB08090FD002E0F8
:102C0000252AF5D1F8E73046294642464B46FFF7DC
:102C100075FF013000F0A980099B4B44099323788C
:102C2000002B00F0A28000234FF0FF3204930793A3
:102C3000059206938DF853301A9304F10108444627
:102C4000DFF8489121784846052200F0DDFA08F1C6
:102C50000108049B30B1C9EB0000012282401343FC
:102C60000493ECE7D80644BF20228DF853201907BF
:102C700044BF2B228DF8532022782A2A02D00799AC
:102C800023460EE0039A111D12680391002ABBBF70
:102C9000524243F0020307920792B8BF04930134F3
:102CA0000AE01C4601332278303A092A03D80A2068
:102CB00000FB0121F5E7079123782E2B1AD16378C9
:102CC0002A2B0AD1039B1A1D1B680392002BB8BF45
:102CD0004FF0FF33023405930CE0611C00220C46D8
:102CE00001312378303B092B03D80A2000FB023244
:102CF000F5E70592DFF8988021784046032200F03E
:102D000083FA38B1049AC8EB000040238340134390
:102D10000493013421781A488DF82810062204F112
:102D2000010800F071FA88B1164B33B9039B0733E1
:102D300023F007030833039313E003AB00933046FB
:102D400004A92A46104BAFF3008007E003AB0093C1
:102D5000304604A92A460C4B00F092F8421C074664
:102D600003D0099B3B44099341E7AB895B0601D43F
:102D7000099801E04FF0FF301DB0BDE8F08300BFBF
:102D80008636000800000000FD2A00087C36000896
:102D9000823600082DE9F84391461F468A680B6980
:102DA000DDF820809342B8BF1346C9F8003091F88F
:102DB000432006460C4612B10133C9F8003023689F
:102DC000990642BFD9F800300233C9F800302568AF
:102DD00015F006051CD094F843302268003318BF64
:102DE000012392061FD5E1185A1C302081F84300B8
:102DF000224494F8451082F84310023313E0304621
:102E0000394604F119020123C047013007D00135CA
:102E1000E368D9F800209B1A9D42F0DBDBE74FF016
:102E2000FF30BDE8F8833046394604F14302C0471D
:102E30000130F4D02268D9F80050E36802F00602AD
:102E4000042A08BF5D1B2269A3680CBF25EAE5754B
:102E500000259342C4BF9B1AED184FF00009A94505
:102E60000ADA3046394604F11A020123C04701301C
:102E7000D5D009F10109F2E70020BDE8F883000090
:102E80002DE9FF410C461746227E6E2A98460646DB
:102E90000A9B01F1430100F0A98012D8632A23D0D4
:102EA0000AD8002A00F0B680582A40F0C58084F87D
:102EB0004520DFF8F8E151E0642A1ED0692A1CD0D1
:102EC000BAE0732A00F0AA8009D86F2A2BD0702AA2
:102ED00040F0B280226842F02002226039E0752A78
:102EE00021D0782A35D0A7E01A68111D196013681F
:102EF00084F8423004F14205A2E020681A6810F01C
:102F0000800F03D0101D1860136805E04506F9D541
:102F1000101D1860B2F90030002B3BDA2D225B4205
:102F200084F8432036E020681A6810F0800F03D040
:102F3000101D1860136804E04006F9D5101D1860D4
:102F40001388227EDFF864E16F2A0CBF08220A2270
:102F50001CE07822DFF858E184F8452022681868E0
:102F600012F0800F00F104051D6001D0036802E03B
:102F70005506FBD50388D00744BF42F020022260EB
:102F80001BB9226822F0200222601022002084F85F
:102F9000430002E0DFF814E10A226568A560002D15
:102FA000A2BF206820F00400206003B965B10D467F
:102FB000B3FBF2F002FB10331EF8033005F8013DBD
:102FC00003460028F4D100E00D46082A0BD12368FF
:102FD000DA0708D5236962689A42DEBF302305F814
:102FE000013C05F1FF35491B21612EE025681A6877
:102FF000606915F0800F03D0151D1D60136808E08F
:1030000015F0400F02F104051D60136801D018800F
:1030100000E01860002323610D4616E01A68111DB8
:103020001960156862682846002100F0EDF808B1C3
:10303000401B6060636804E004F1420584F84220AC
:1030400001232361002384F84330CDF8008030460B
:10305000214603AA3B46FFF79DFE013002D14FF007
:10306000FF301FE0304639462A462369C047013009
:10307000F5D023689B0705D4E068039B9842B8BF4E
:1030800018460FE00025E368039A9B1A9D42F3DA85
:103090003046394604F119020123C0470130DED021
:1030A0000135F0E704B0BDE8F08100BF8D360008BF
:1030B0009E36000838B5064C0023054608462360B6
:1030C000FEF78AFB431C02D1236803B12B6038BD95
:1030D000E488FE1F10B50C46B1F90E1000F0E4F8BC
:1030E0000028ABBF636DA3891B1823F48053ACBFCA
:1030F0006365A38110BD2DE9F0411D468B89DB0579
:1031000007460C46164605D5B1F90E1000220223DB
:1031100000F068F8A389B4F90E1023F48053A3815A
:10312000384632462B46BDE8F04100F017B810B5DE
:103130000C46B1F90E1000F055F8431CA38915BFD9
:10314000606523F4805343F48053A38118BFA381A7
:1031500010BDB1F90E1000F013B8000038B5074CDF
:10316000054600202060084611461A4600F0E0F8A7
:10317000431C02D1236803B12B6038BDE488FE1FD5
:1031800038B5064C002305460846236000F0A8F831
:10319000431C02D1236803B12B6038BDE488FE1FB5
:1031A00038B5074C0023054608461146236000F059
:1031B0009FF8431C02D1236803B12B6038BD00BFC8
:1031C000E488FE1F38B5064C0023054608462360F8
:1031D00000F096F8431C02D1236803B12B6038BD80
:1031E000E488FE1F38B5074C0546002020600846DD
:1031F00011461A4600F08CF8431C02D1236803B133
:103200002B6038BDE488FE1F10B5C9B2024490425D
:10321000034606D01C788C4200F10100F7D1184615
:1032200010BD002010BD814210B501EB020301D397
:10323000421E0BE09842FBD28118D21AD34204D02E
:1032400013F8014D01F8014DF8E710BD994204D083
:1032500011F8014B02F8014FF8E710BDF8B5074629
:1032600015460E4621B91146BDE8F840FFF7F0BB00
:103270001AB9FFF7A9FB2846F8BD00F027F8A842C5
:103280000ED238462946FFF7E3FB044650B13146DB
:103290002A46FFF761F838463146FFF795FB01E013
:1032A0003046F8BD2046F8BD38B5074C054600202D
:1032B0002060084611461A4600F032F8431C02D13D
:1032C000236803B12B6038BDE488FE1F51F8040C5D
:1032D0000028BEBF091851F8043CC01804387047D4
:1032E000024B58221A604FF0FF307047E488FE1FEF
:1032F000024B58221A604FF0FF307047E488FE1FDF
:10330000024B58221A600020704700BFE488FE1F5D
:10331000024B58221A604FF0FF307047E488FE1FBE
:10332000024B58221A604FF0FF307047E488FE1FAE
:10333000024B58221A604FF0FF307047E488FE1F9E
:103340003002010100000100000000000000010047
:103350000201010100820248000000008800000014
:103360000100000002000000008E0248030000007F
:10337000000000000000000000000000004495086C
:1033800020A10700401F0200000000001088FE1F5F
:1033900023000001000000003088FE1F2200000012
:1033A000010000000088FE1F004201487C33000835
:1033B0008C33000898330008000000000000000073
:1033C00000000000000000000000000000000000FD
:1033D00000000000000000000000000000000000ED
:1033E00000000000000000000000000000000000DD
:1033F00000000000000000000000000000000000CD
:1034000000000000000000000000000000000000BC
:1034100000000000000000000000000000000000AC
:10342000000000000000000000000000000000009C
:1034300088330008543300085C3300086833000800
:103440007033000801000200000000000D200A2077
:10345000200D200A000000000D204C4153545F4510
:1034600052524F525F434F44452053747566662055
:103470004572726F7220200D200000000D204C411B
:1034800053545F4552524F525F434F444520466F5D
:10349000726D204572726F7220200D200A000000AC
:1034A0000D204C4153545F4552524F525F434F449D
:1034B000452041636B204572726F7220200D200AF7
:1034C000000000000D204C4153545F4552524F52B2
:1034D0005F434F44452042697431204572726F72D8
:1034E000200D200A000000000D204C4153545F4580
:1034F00052524F525F434F44452042697430204539
:1035000072726F72200D200A000000000D204C41E5
:1035100053545F4552524F525F434F4445204352EC
:1035200043204572726F7220200D200A00000000B7
:103530000D202043505520777269746520746F20E8
:103540004C454320200D200A000000000D20545857
:10355000204F4B200D200A20000000000D20525863
:10356000204F4B200D200A20000000000D20414C70
:10357000455254205741524E494E47200D200A20B3
:10358000000000000D204552524F52205741524E2C
:10359000494E470D200A20000D20425553204F462A
:1035A00046200D200A2000000D204C4953545F4C4A
:1035B000454E4754485F4552524F52200D200A2035
:1035C000000000000D204C4953545F4F424A4543D0
:1035D000545F4552524F52200D200A200000000037
:1035E0000D20676574207374617475733A202564C7
:1035F0000D200A000D2052656365697665204572CD
:10360000726F723A202564200D200A000102030423
:1036100005060708430000005888FE1F0000000050
:10362000000000000000000000000000000000009A
:10363000000000000000000000000000000000008A
:10364000000000000000000000000000000000007A
:10365000000000000000000000000000000000006A
:10366000000000000000000000000000000000005A
:10367000000000000000000000000000232D302B9F
:103680002000686C4C006566674546470030313263
:1036900033343536373839414243444546003031BA
:1036A0003233343536373839616263646566000019
:1036B000004495080040014801000000000000009F
:1036C00060540148FF070080FF0700200800000049
:1036D00000000000000000000100000000000000E9
:1036E00040540148FF07008000000020080000004F
:1036F00000000000000000000000000000000000CA
:1037000020A1070050000200000000001C36000845
:103710003C3600085C360008000000000000000095
:103720000000000000000000143600080000000047
:103730000000000000000000000000000000000089
:103740000000000000000000000000000000000079
:103750000000000000000000000000000000000069
:0C37600000000000000000005888FE1F60
:0400000508000201EC
:00000001FF
